{
  "abi": [
    {
      "inputs": [
        {
          "internalType": "address",
          "name": "_hypermap",
          "type": "address"
        }
      ],
      "stateMutability": "nonpayable",
      "type": "constructor"
    },
    {
      "inputs": [
        {
          "internalType": "address",
          "name": "target",
          "type": "address"
        }
      ],
      "name": "AddressEmptyCode",
      "type": "error"
    },
    {
      "inputs": [],
      "name": "ECDSAInvalidSignature",
      "type": "error"
    },
    {
      "inputs": [
        {
          "internalType": "uint256",
          "name": "length",
          "type": "uint256"
        }
      ],
      "name": "ECDSAInvalidSignatureLength",
      "type": "error"
    },
    {
      "inputs": [
        {
          "internalType": "bytes32",
          "name": "s",
          "type": "bytes32"
        }
      ],
      "name": "ECDSAInvalidSignatureS",
      "type": "error"
    },
    {
      "inputs": [
        {
          "internalType": "address",
          "name": "implementation",
          "type": "address"
        }
      ],
      "name": "ERC1967InvalidImplementation",
      "type": "error"
    },
    {
      "inputs": [],
      "name": "ERC1967NonPayable",
      "type": "error"
    },
    {
      "inputs": [
        {
          "internalType": "uint256",
          "name": "index",
          "type": "uint256"
        },
        {
          "internalType": "bytes",
          "name": "error",
          "type": "bytes"
        }
      ],
      "name": "ExecuteError",
      "type": "error"
    },
    {
      "inputs": [],
      "name": "FailedCall",
      "type": "error"
    },
    {
      "inputs": [
        {
          "internalType": "address",
          "name": "who",
          "type": "address"
        }
      ],
      "name": "InsufficientAllowance",
      "type": "error"
    },
    {
      "inputs": [],
      "name": "InvalidInitialization",
      "type": "error"
    },
    {
      "inputs": [
        {
          "internalType": "address",
          "name": "actual",
          "type": "address"
        },
        {
          "internalType": "address",
          "name": "expected",
          "type": "address"
        }
      ],
      "name": "InvalidSignature",
      "type": "error"
    },
    {
      "inputs": [],
      "name": "NotInitializing",
      "type": "error"
    },
    {
      "inputs": [],
      "name": "NotOperatorOrEntryPoint",
      "type": "error"
    },
    {
      "inputs": [],
      "name": "OwnershipCycle",
      "type": "error"
    },
    {
      "inputs": [],
      "name": "UUPSUnauthorizedCallContext",
      "type": "error"
    },
    {
      "inputs": [
        {
          "internalType": "bytes32",
          "name": "slot",
          "type": "bytes32"
        }
      ],
      "name": "UUPSUnsupportedProxiableUUID",
      "type": "error"
    },
    {
      "anonymous": false,
      "inputs": [],
      "name": "EIP712DomainChanged",
      "type": "event"
    },
    {
      "anonymous": false,
      "inputs": [
        {
          "indexed": false,
          "internalType": "uint64",
          "name": "version",
          "type": "uint64"
        }
      ],
      "name": "Initialized",
      "type": "event"
    },
    {
      "anonymous": false,
      "inputs": [
        {
          "indexed": true,
          "internalType": "address",
          "name": "implementation",
          "type": "address"
        }
      ],
      "name": "Upgraded",
      "type": "event"
    },
    {
      "inputs": [],
      "name": "SIG_VALIDATION_FAILED",
      "outputs": [
        {
          "internalType": "uint256",
          "name": "",
          "type": "uint256"
        }
      ],
      "stateMutability": "view",
      "type": "function"
    },
    {
      "inputs": [],
      "name": "SIG_VALIDATION_SUCCEEDED",
      "outputs": [
        {
          "internalType": "uint256",
          "name": "",
          "type": "uint256"
        }
      ],
      "stateMutability": "view",
      "type": "function"
    },
    {
      "inputs": [],
      "name": "UPGRADE_INTERFACE_VERSION",
      "outputs": [
        {
          "internalType": "string",
          "name": "",
          "type": "string"
        }
      ],
      "stateMutability": "view",
      "type": "function"
    },
    {
      "inputs": [
        {
          "internalType": "address",
          "name": "who",
          "type": "address"
        }
      ],
      "name": "allowance",
      "outputs": [
        {
          "internalType": "uint256",
          "name": "",
          "type": "uint256"
        }
      ],
      "stateMutability": "view",
      "type": "function"
    },
    {
      "inputs": [
        {
          "internalType": "address",
          "name": "who",
          "type": "address"
        },
        {
          "internalType": "uint256",
          "name": "_allowance",
          "type": "uint256"
        }
      ],
      "name": "auth",
      "outputs": [],
      "stateMutability": "nonpayable",
      "type": "function"
    },
    {
      "inputs": [
        {
          "internalType": "address",
          "name": "who",
          "type": "address"
        }
      ],
      "name": "deauth",
      "outputs": [],
      "stateMutability": "nonpayable",
      "type": "function"
    },
    {
      "inputs": [],
      "name": "eip712Domain",
      "outputs": [
        {
          "internalType": "bytes1",
          "name": "fields",
          "type": "bytes1"
        },
        {
          "internalType": "string",
          "name": "name",
          "type": "string"
        },
        {
          "internalType": "string",
          "name": "version",
          "type": "string"
        },
        {
          "internalType": "uint256",
          "name": "chainId",
          "type": "uint256"
        },
        {
          "internalType": "address",
          "name": "verifyingContract",
          "type": "address"
        },
        {
          "internalType": "bytes32",
          "name": "salt",
          "type": "bytes32"
        },
        {
          "internalType": "uint256[]",
          "name": "extensions",
          "type": "uint256[]"
        }
      ],
      "stateMutability": "view",
      "type": "function"
    },
    {
      "inputs": [],
      "name": "entryPoint",
      "outputs": [
        {
          "internalType": "contract IEntryPoint",
          "name": "",
          "type": "address"
        }
      ],
      "stateMutability": "view",
      "type": "function"
    },
    {
      "inputs": [
        {
          "internalType": "address",
          "name": "to",
          "type": "address"
        },
        {
          "internalType": "uint256",
          "name": "value",
          "type": "uint256"
        },
        {
          "internalType": "bytes",
          "name": "data",
          "type": "bytes"
        },
        {
          "internalType": "uint8",
          "name": "operation",
          "type": "uint8"
        }
      ],
      "name": "execute",
      "outputs": [
        {
          "internalType": "bytes",
          "name": "returnData",
          "type": "bytes"
        }
      ],
      "stateMutability": "payable",
      "type": "function"
    },
    {
      "inputs": [
        {
          "internalType": "address",
          "name": "target",
          "type": "address"
        },
        {
          "internalType": "uint256",
          "name": "value",
          "type": "uint256"
        },
        {
          "internalType": "bytes",
          "name": "data",
          "type": "bytes"
        }
      ],
      "name": "execute",
      "outputs": [],
      "stateMutability": "nonpayable",
      "type": "function"
    },
    {
      "inputs": [
        {
          "internalType": "address",
          "name": "to",
          "type": "address"
        },
        {
          "internalType": "uint256",
          "name": "value",
          "type": "uint256"
        },
        {
          "internalType": "bytes",
          "name": "data",
          "type": "bytes"
        },
        {
          "internalType": "uint8",
          "name": "operation",
          "type": "uint8"
        },
        {
          "internalType": "uint256",
          "name": "txGas",
          "type": "uint256"
        }
      ],
      "name": "execute",
      "outputs": [
        {
          "internalType": "bytes",
          "name": "returnData",
          "type": "bytes"
        }
      ],
      "stateMutability": "payable",
      "type": "function"
    },
    {
      "inputs": [
        {
          "components": [
            {
              "internalType": "address",
              "name": "target",
              "type": "address"
            },
            {
              "internalType": "uint256",
              "name": "value",
              "type": "uint256"
            },
            {
              "internalType": "bytes",
              "name": "data",
              "type": "bytes"
            }
          ],
          "internalType": "struct BaseAccount.Call[]",
          "name": "calls",
          "type": "tuple[]"
        }
      ],
      "name": "executeBatch",
      "outputs": [],
      "stateMutability": "nonpayable",
      "type": "function"
    },
    {
      "inputs": [],
      "name": "getNonce",
      "outputs": [
        {
          "internalType": "uint256",
          "name": "",
          "type": "uint256"
        }
      ],
      "stateMutability": "view",
      "type": "function"
    },
    {
      "inputs": [],
      "name": "hypermap",
      "outputs": [
        {
          "internalType": "contract IHypermap",
          "name": "",
          "type": "address"
        }
      ],
      "stateMutability": "view",
      "type": "function"
    },
    {
      "inputs": [],
      "name": "initialize",
      "outputs": [],
      "stateMutability": "nonpayable",
      "type": "function"
    },
    {
      "inputs": [
        {
          "internalType": "address",
          "name": "signer",
          "type": "address"
        }
      ],
      "name": "isOperator",
      "outputs": [
        {
          "internalType": "bool",
          "name": "",
          "type": "bool"
        }
      ],
      "stateMutability": "view",
      "type": "function"
    },
    {
      "inputs": [
        {
          "internalType": "bytes32",
          "name": "hash",
          "type": "bytes32"
        },
        {
          "internalType": "bytes",
          "name": "signature",
          "type": "bytes"
        }
      ],
      "name": "isValidSignature",
      "outputs": [
        {
          "internalType": "bytes4",
          "name": "magicValue",
          "type": "bytes4"
        }
      ],
      "stateMutability": "view",
      "type": "function"
    },
    {
      "inputs": [
        {
          "internalType": "address",
          "name": "signer",
          "type": "address"
        },
        {
          "internalType": "bytes",
          "name": "",
          "type": "bytes"
        }
      ],
      "name": "isValidSigner",
      "outputs": [
        {
          "internalType": "bytes4",
          "name": "magicValue",
          "type": "bytes4"
        }
      ],
      "stateMutability": "view",
      "type": "function"
    },
    {
      "inputs": [
        {
          "internalType": "address",
          "name": "to",
          "type": "address"
        },
        {
          "internalType": "bytes",
          "name": "name",
          "type": "bytes"
        },
        {
          "internalType": "bytes",
          "name": "initialization",
          "type": "bytes"
        },
        {
          "internalType": "address",
          "name": "implementation",
          "type": "address"
        }
      ],
      "name": "mint",
      "outputs": [
        {
          "internalType": "address",
          "name": "tba",
          "type": "address"
        }
      ],
      "stateMutability": "payable",
      "type": "function"
    },
    {
      "inputs": [
        {
          "internalType": "address",
          "name": "",
          "type": "address"
        },
        {
          "internalType": "address",
          "name": "",
          "type": "address"
        },
        {
          "internalType": "uint256[]",
          "name": "",
          "type": "uint256[]"
        },
        {
          "internalType": "uint256[]",
          "name": "",
          "type": "uint256[]"
        },
        {
          "internalType": "bytes",
          "name": "",
          "type": "bytes"
        }
      ],
      "name": "onERC1155BatchReceived",
      "outputs": [
        {
          "internalType": "bytes4",
          "name": "",
          "type": "bytes4"
        }
      ],
      "stateMutability": "view",
      "type": "function"
    },
    {
      "inputs": [
        {
          "internalType": "address",
          "name": "",
          "type": "address"
        },
        {
          "internalType": "address",
          "name": "",
          "type": "address"
        },
        {
          "internalType": "uint256",
          "name": "",
          "type": "uint256"
        },
        {
          "internalType": "uint256",
          "name": "",
          "type": "uint256"
        },
        {
          "internalType": "bytes",
          "name": "",
          "type": "bytes"
        }
      ],
      "name": "onERC1155Received",
      "outputs": [
        {
          "internalType": "bytes4",
          "name": "",
          "type": "bytes4"
        }
      ],
      "stateMutability": "view",
      "type": "function"
    },
    {
      "inputs": [
        {
          "internalType": "address",
          "name": "",
          "type": "address"
        },
        {
          "internalType": "address",
          "name": "",
          "type": "address"
        },
        {
          "internalType": "uint256",
          "name": "receivedTokenId",
          "type": "uint256"
        },
        {
          "internalType": "bytes",
          "name": "",
          "type": "bytes"
        }
      ],
      "name": "onERC721Received",
      "outputs": [
        {
          "internalType": "bytes4",
          "name": "",
          "type": "bytes4"
        }
      ],
      "stateMutability": "view",
      "type": "function"
    },
    {
      "inputs": [],
      "name": "proxiableUUID",
      "outputs": [
        {
          "internalType": "bytes32",
          "name": "",
          "type": "bytes32"
        }
      ],
      "stateMutability": "view",
      "type": "function"
    },
    {
      "inputs": [],
      "name": "state",
      "outputs": [
        {
          "internalType": "uint256",
          "name": "",
          "type": "uint256"
        }
      ],
      "stateMutability": "view",
      "type": "function"
    },
    {
      "inputs": [
        {
          "internalType": "bytes4",
          "name": "interfaceId",
          "type": "bytes4"
        }
      ],
      "name": "supportsInterface",
      "outputs": [
        {
          "internalType": "bool",
          "name": "",
          "type": "bool"
        }
      ],
      "stateMutability": "view",
      "type": "function"
    },
    {
      "inputs": [],
      "name": "token",
      "outputs": [
        {
          "internalType": "uint256",
          "name": "chainId",
          "type": "uint256"
        },
        {
          "internalType": "address",
          "name": "tokenContract",
          "type": "address"
        },
        {
          "internalType": "uint256",
          "name": "tokenId",
          "type": "uint256"
        }
      ],
      "stateMutability": "view",
      "type": "function"
    },
    {
      "inputs": [
        {
          "internalType": "address",
          "name": "",
          "type": "address"
        },
        {
          "internalType": "address",
          "name": "",
          "type": "address"
        },
        {
          "internalType": "address",
          "name": "",
          "type": "address"
        },
        {
          "internalType": "uint256",
          "name": "",
          "type": "uint256"
        },
        {
          "internalType": "bytes",
          "name": "",
          "type": "bytes"
        },
        {
          "internalType": "bytes",
          "name": "",
          "type": "bytes"
        }
      ],
      "name": "tokensReceived",
      "outputs": [],
      "stateMutability": "pure",
      "type": "function"
    },
    {
      "inputs": [
        {
          "internalType": "address",
          "name": "newImplementation",
          "type": "address"
        },
        {
          "internalType": "bytes",
          "name": "data",
          "type": "bytes"
        }
      ],
      "name": "upgradeToAndCall",
      "outputs": [],
      "stateMutability": "payable",
      "type": "function"
    },
    {
      "inputs": [
        {
          "components": [
            {
              "internalType": "address",
              "name": "sender",
              "type": "address"
            },
            {
              "internalType": "uint256",
              "name": "nonce",
              "type": "uint256"
            },
            {
              "internalType": "bytes",
              "name": "initCode",
              "type": "bytes"
            },
            {
              "internalType": "bytes",
              "name": "callData",
              "type": "bytes"
            },
            {
              "internalType": "bytes32",
              "name": "accountGasLimits",
              "type": "bytes32"
            },
            {
              "internalType": "uint256",
              "name": "preVerificationGas",
              "type": "uint256"
            },
            {
              "internalType": "bytes32",
              "name": "gasFees",
              "type": "bytes32"
            },
            {
              "internalType": "bytes",
              "name": "paymasterAndData",
              "type": "bytes"
            },
            {
              "internalType": "bytes",
              "name": "signature",
              "type": "bytes"
            }
          ],
          "internalType": "struct PackedUserOperation",
          "name": "userOp",
          "type": "tuple"
        },
        {
          "internalType": "bytes32",
          "name": "userOpHash",
          "type": "bytes32"
        },
        {
          "internalType": "uint256",
          "name": "missingAccountFunds",
          "type": "uint256"
        }
      ],
      "name": "validateUserOp",
      "outputs": [
        {
          "internalType": "uint256",
          "name": "validationData",
          "type": "uint256"
        }
      ],
      "stateMutability": "nonpayable",
      "type": "function"
    },
    {
      "stateMutability": "payable",
      "type": "receive"
    }
  ],
  "bytecode": "60c060405230608052348015610013575f5ffd5b50604051612a48380380612a48833981016040819052610032916100ff565b8061003b61004d565b6001600160a01b031660a0525061012c565b7ff0c57e16840df040f15088dc2f81fe391c3923bec73e23a9662efc9c229c6a00805468010000000000000000900460ff161561009d5760405163f92ee8a960e01b815260040160405180910390fd5b80546001600160401b03908116146100fc5780546001600160401b0319166001600160401b0390811782556040519081527fc7f505b2f371ae2175ee4913f4499e1f2633a7b5936321eed1cdaeb6115181d29060200160405180910390a15b50565b5f6020828403121561010f575f5ffd5b81516001600160a01b0381168114610125575f5ffd5b9392505050565b60805160a0516128e66101625f395f81816104990152610f7a01525f81816111ec0152818161121501526113f001526128e65ff3fe6080604052600436106101bc575f3560e01c80638129fc1c116100f2578063b61d27f611610092578063d087d28811610062578063d087d28814610531578063e901d89b14610545578063f23a6e6114610564578063fc0c546a14610590575f5ffd5b8063b61d27f6146104bd578063bc197c81146104dc578063c19d93fb1461050a578063ca3b98bb1461051e575f5ffd5b80639cdf379c116100cd5780639cdf379c14610422578063ad3cb1cc14610435578063b0d691fe14610465578063b479d6001461048b575f5ffd5b80638129fc1c146103d357806384b0196e146103e75780638f41ec5a1461040e575f5ffd5b806334fcd5be1161015d57806351945447116101385780635194544714610361578063523e32601461038157806352d1902d146103a05780636d70f7ae146103b4575f5ffd5b806334fcd5be146102ef5780633e5beab91461030e5780634f1ef2861461034e575f5ffd5b806312084f591161019857806312084f591461024c578063150b7a021461026b5780631626ba7e146102a357806319822f7c146102c2575f5ffd5b806223de29146101c757806301ffc9a7146101ed578063094cefed14610221575f5ffd5b366101c357005b5f5ffd5b3480156101d2575f5ffd5b506101eb6101e1366004611d8b565b5050505050505050565b005b3480156101f8575f5ffd5b5061020c610207366004611e4d565b6105c7565b60405190151581526020015b60405180910390f35b61023461022f366004611e68565b6105f2565b6040516001600160a01b039091168152602001610218565b348015610257575f5ffd5b506101eb610266366004611efa565b61060c565b348015610276575f5ffd5b5061028a610285366004611f15565b610679565b6040516001600160e01b03199091168152602001610218565b3480156102ae575f5ffd5b5061028a6102bd36600461201f565b6106d3565b3480156102cd575f5ffd5b506102e16102dc366004612062565b6107f8565b604051908152602001610218565b3480156102fa575f5ffd5b506101eb6103093660046120f0565b61082a565b348015610319575f5ffd5b506102e1610328366004611efa565b6001600160a01b03165f9081525f5160206128915f395f51905f52602052604090205490565b6101eb61035c36600461212e565b61091a565b61037461036f366004612179565b610939565b6040516102189190612212565b34801561038c575f5ffd5b5061028a61039b366004612224565b610965565b3480156103ab575f5ffd5b506102e161098a565b3480156103bf575f5ffd5b5061020c6103ce366004611efa565b6109a5565b3480156103de575f5ffd5b506101eb610a43565b3480156103f2575f5ffd5b506103fb610ba5565b6040516102189796959493929190612274565b348015610419575f5ffd5b506102e1600181565b34801561042d575f5ffd5b506102e15f81565b348015610440575f5ffd5b50610374604051806040016040528060058152602001640352e302e360dc1b81525081565b348015610470575f5ffd5b50734337084d9e255ff0702461cf8895ce9e3b5ff108610234565b348015610496575f5ffd5b507f0000000000000000000000000000000000000000000000000000000000000000610234565b3480156104c8575f5ffd5b506101eb6104d736600461230a565b610c4e565b3480156104e7575f5ffd5b5061028a6104f6366004612361565b63bc197c8160e01b98975050505050505050565b348015610515575f5ffd5b506102e1610ca6565b61037461052c366004612401565b610d8d565b34801561053c575f5ffd5b506102e1610dc6565b348015610550575f5ffd5b506101eb61055f366004612476565b610e4f565b34801561056f575f5ffd5b5061028a61057e3660046124a0565b63f23a6e6160e01b9695505050505050565b34801561059b575f5ffd5b506105a4610ebf565b604080519384526001600160a01b03909216602084015290820152606001610218565b5f6105d182610ed5565b806105ec57506001600160e01b0319821663c5527d7b60e01b145b92915050565b5f610601878787878787610eff565b979650505050505050565b610615336109a5565b158015610636575033734337084d9e255ff0702461cf8895ce9e3b5ff10814155b1561065457604051634780295360e11b815260040160405180910390fd5b6001600160a01b03165f9081525f5160206128915f395f51905f526020526040812055565b5f5f5f610684610ebf565b909350915050336001600160a01b0383161480156106a157508086145b156106bf5760405163b79e3f3f60e01b815260040160405180910390fd5b50630a85bd0160e11b979650505050505050565b5f5f5f5f6106f385602081015160408201516060909201515f1a92909190565b9094509250905060ff81165f036107be5782858301602001610714826109a5565b15801561072a57506001600160a01b0382163014155b1561074557506001600160e01b031994506105ec9350505050565b604051630b135d3f60e11b81526001600160a01b03831690631626ba7e90610773908b908590600401612516565b602060405180830381865afa15801561078e573d5f5f3e3d5ffd5b505050506040513d601f19601f820116820180604052508101906107b2919061252e565b955050505050506105ec565b6107cd6103ce87838686611005565b156107e55750630b135d3f60e11b92506105ec915050565b506001600160e01b031995945050505050565b5f610801611031565b61080b8484611096565b905061081a84602001356110f3565b6108238261113c565b9392505050565b610832611181565b805f5b81811015610914573684848381811061085057610850612549565b9050602002810190610862919061255d565b90505f6108c06108756020840184611efa565b6020840135610887604086018661257b565b8080601f0160208091040260200160405190810160405280939291908181526020018383808284375f920191909152505050505a611189565b90508061090a57836001036108dc576108d761119f565b61090a565b826108e65f6111b0565b604051635a15467560e01b8152600401610901929190612516565b60405180910390fd5b5050600101610835565b50505050565b6109226111e1565b61092b82611285565b61093582826112cd565b5050565b60605f61094a87878787875a61138e565b925090508061095b57815160208301fd5b5095945050505050565b5f61096f846109a5565b610979575f610982565b630291f19360e51b5b949350505050565b5f6109936113e5565b505f5160206128715f395f51905f5290565b5f5f5f6109b0610ebf565b6040516331a9108f60e11b81526004810182905291945092506001600160a01b038087169250841690636352211e90602401602060405180830381865afa1580156109fd573d5f5f3e3d5ffd5b505050506040513d601f19601f82011682018060405250810190610a2191906125bd565b6001600160a01b031614801561098257505050506001600160a01b0316151590565b7ff0c57e16840df040f15088dc2f81fe391c3923bec73e23a9662efc9c229c6a008054600160401b810460ff1615906001600160401b03165f81158015610a875750825b90505f826001600160401b03166001148015610aa25750303b155b905081158015610ab0575080155b15610ace5760405163f92ee8a960e01b815260040160405180910390fd5b845467ffffffffffffffff191660011785558315610af857845460ff60401b1916600160401b1785555b610b0061142e565b610b586040518060400160405280601e81526020017f48797065724163636f756e745065726d697373696f6e65644d696e7465720000815250604051806040016040528060018152602001603160f81b815250611436565b8315610b9e57845460ff60401b19168555604051600181527fc7f505b2f371ae2175ee4913f4499e1f2633a7b5936321eed1cdaeb6115181d29060200160405180910390a15b5050505050565b5f60608082808083815f5160206128515f395f51905f528054909150158015610bd057506001810154155b610c145760405162461bcd60e51b81526020600482015260156024820152741152540dcc4c8e88155b9a5b9a5d1a585b1a5e9959605a1b6044820152606401610901565b610c1c611448565b610c24611508565b604080515f80825260208201909252600f60f81b9c939b5091995046985030975095509350915050565b610c56611181565b5f610c97858585858080601f0160208091040260200160405190810160405280939291908181526020018383808284375f920191909152505050505a611189565b905080610b9e57610b9e61119f565b5f807fe4b1c7558f331d2752f6cb495b2cf8e1b8ae3112bcc78ec0c3bfebfbe3cd480090505f734337084d9e255ff0702461cf8895ce9e3b5ff108604051631aab3f0d60e11b81523060048201525f60248201526001600160a01b0391909116906335567e1a90604401602060405180830381865afa158015610d2b573d5f5f3e3d5ffd5b505050506040513d601f19601f82011682018060405250810190610d4f91906125d8565b8254604051919250610d6e918390602001918252602082015260400190565b604051602081830303815290604052805190602001205f1c9250505090565b60605f610daa88888888888815610da4578861138e565b5a61138e565b9250905080610dbb57815160208301fd5b509695505050505050565b5f734337084d9e255ff0702461cf8895ce9e3b5ff108604051631aab3f0d60e11b81523060048201525f60248201526001600160a01b0391909116906335567e1a90604401602060405180830381865afa158015610e26573d5f5f3e3d5ffd5b505050506040513d601f19601f82011682018060405250810190610e4a91906125d8565b905090565b610e58336109a5565b158015610e79575033734337084d9e255ff0702461cf8895ce9e3b5ff10814155b15610e9757604051634780295360e11b815260040160405180910390fd5b6001600160a01b03919091165f9081525f5160206128915f395f51905f526020526040902055565b5f5f5f610eca611546565b925092509250909192565b5f610edf82611552565b806105ec57506001600160e01b03198216633c1cc5f160e01b1492915050565b335f9081525f5160206128915f395f51905f526020819052604082205460011115610f3f57604051632fcad63b60e21b8152336004820152602401610901565b335f908152602082905260408120805460019290610f5e908490612603565b909155505060405163094cefed60e01b81526001600160a01b037f0000000000000000000000000000000000000000000000000000000000000000169063094cefed90610fb9908b908b908b908b908b908b9060040161263e565b6020604051808303815f875af1158015610fd5573d5f5f3e3d5ffd5b505050506040513d601f19601f82011682018060405250810190610ff991906125bd565b98975050505050505050565b5f5f5f5f6110158888888861157c565b9250925092506110258282611644565b50909695505050505050565b33734337084d9e255ff0702461cf8895ce9e3b5ff108146110945760405162461bcd60e51b815260206004820152601c60248201527f6163636f756e743a206e6f742066726f6d20456e747279506f696e74000000006044820152606401610901565b565b5f60046110a6606085018561257b565b905011156110e9575f6110c46110bf606086018661257b565b6116fc565b905063f6b3101360e01b6001600160e01b03198216016110e7575f9150506105ec565b505b6108238383611713565b6001600160401b0381106111395760405162461bcd60e51b815260206004820152600d60248201526c496e76616c6964206e6f6e636560981b6044820152606401610901565b50565b8015611139576040515f90339083908381818185875af1925050503d805f8114610b9e576040519150601f19603f3d011682016040523d82523d5f602084013e610b9e565b611094611031565b5f5f5f845160208601878987f195945050505050565b6110946111ab5f6111b0565b611820565b60603d82156111c457828111156111c45750815b604051602082018101604052818152815f602083013e9392505050565b306001600160a01b037f000000000000000000000000000000000000000000000000000000000000000016148061126757507f00000000000000000000000000000000000000000000000000000000000000006001600160a01b031661125b5f5160206128715f395f51905f52546001600160a01b031690565b6001600160a01b031614155b156110945760405163703e46dd60e11b815260040160405180910390fd5b61128e336109a5565b1580156112af575033734337084d9e255ff0702461cf8895ce9e3b5ff10814155b1561113957604051634780295360e11b815260040160405180910390fd5b816001600160a01b03166352d1902d6040518163ffffffff1660e01b8152600401602060405180830381865afa925050508015611327575060408051601f3d908101601f19168201909252611324918101906125d8565b60015b61134f57604051634c9c8ce360e01b81526001600160a01b0383166004820152602401610901565b5f5160206128715f395f51905f52811461137f57604051632a87526960e21b815260048101829052602401610901565b6113898383611828565b505050565b7fe4b1c7558f331d2752f6cb495b2cf8e1b8ae3112bcc78ec0c3bfebfbe3cd480080545f9160609181846113c183612691565b91905055506113d489898989898961187d565b92509250505b965096945050505050565b306001600160a01b037f000000000000000000000000000000000000000000000000000000000000000016146110945760405163703e46dd60e11b815260040160405180910390fd5b6110946119d4565b61143e6119d4565b6109358282611a1d565b7fa16a46d94261c7517cc8ff89f61c0ce93598e3c849801011dee649a6a557d10280546060915f5160206128515f395f51905f5291611486906126a9565b80601f01602080910402602001604051908101604052809291908181526020018280546114b2906126a9565b80156114fd5780601f106114d4576101008083540402835291602001916114fd565b820191905f5260205f20905b8154815290600101906020018083116114e057829003601f168201915b505050505091505090565b7fa16a46d94261c7517cc8ff89f61c0ce93598e3c849801011dee649a6a557d10380546060915f5160206128515f395f51905f5291611486906126a9565b5f5f5f610eca30611a7c565b5f61155c82611ad0565b806105ec57506001600160e01b03198216636faff5f160e01b1492915050565b5f80807f7fffffffffffffffffffffffffffffff5d576e7357a4501ddfe92f46681b20a08411156115b557505f9150600390508261163a565b604080515f808252602082018084528a905260ff891692820192909252606081018790526080810186905260019060a0016020604051602081039080840390855afa158015611606573d5f5f3e3d5ffd5b5050604051601f1901519150506001600160a01b03811661163157505f92506001915082905061163a565b92505f91508190505b9450945094915050565b5f826003811115611657576116576126e1565b03611660575050565b6001826003811115611674576116746126e1565b036116925760405163f645eedf60e01b815260040160405180910390fd5b60028260038111156116a6576116a66126e1565b036116c75760405163fce698f760e01b815260048101829052602401610901565b60038260038111156116db576116db6126e1565b03610935576040516335e2f38360e21b815260048101829052602401610901565b5f600482101561170d57505f6105ec565b50503590565b5f80806117618461172861010088018861257b565b8080601f0160208091040260200160405190810160405280939291908181526020018383808284375f92019190915250611b7192505050565b5090925090505f81600381111561177a5761177a6126e1565b14801561178b575061178b826109a5565b1561179a575f925050506105ec565b7f19457468657265756d205369676e6564204d6573736167653a0a3332000000005f908152601c859052603c90206117da8161172861010089018961257b565b5090935091505f8260038111156117f3576117f36126e1565b1480156118045750611804836109a5565b15611814575f93505050506105ec565b50600195945050505050565b805160208201fd5b61183182611bba565b6040516001600160a01b038316907fbc7cd75a20ee27fd9adebab32041f755214dbc6bffa90cc0225b39da2e5c2d3b905f90a2805115611875576113898282611c1d565b610935611c8f565b5f6060611889336109a5565b1580156118aa575033734337084d9e255ff0702461cf8895ce9e3b5ff10814155b156118c857604051634780295360e11b815260040160405180910390fd5b8360ff165f0361193957876001600160a01b0316838888886040516118ee9291906126f5565b5f60405180830381858888f193505050503d805f8114611929576040519150601f19603f3d011682016040523d82523d5f602084013e61192e565b606091505b5090925090506113da565b8360ff1660010361199857876001600160a01b031683878760405161195f9291906126f5565b5f604051808303818686f4925050503d805f8114611929576040519150601f19603f3d011682016040523d82523d5f602084013e61192e565b60405162461bcd60e51b815260206004820152601160248201527024b73b30b634b21037b832b930ba34b7b760791b6044820152606401610901565b7ff0c57e16840df040f15088dc2f81fe391c3923bec73e23a9662efc9c229c6a0054600160401b900460ff1661109457604051631afcd79f60e31b815260040160405180910390fd5b611a256119d4565b5f5160206128515f395f51905f527fa16a46d94261c7517cc8ff89f61c0ce93598e3c849801011dee649a6a557d102611a5e8482612748565b5060038101611a6d8382612748565b505f8082556001909101555050565b604080516060808252608082019092525f91829182918291906020820181803683370190505090506060604d60208301873c80806020019051810190611ac29190612802565b935093509350509193909250565b5f6001600160e01b03198216633ce4a3e960e01b1480611b0057506001600160e01b031982166301ffc9a760e01b145b80611b1b57506001600160e01b031982166306608bdf60e21b145b80611b3657506001600160e01b03198216630b135d3f60e11b145b80611b5157506001600160e01b03198216630271189760e51b145b806105ec57506001600160e01b03198216635194544760e01b1492915050565b5f5f5f8351604103611ba8576020840151604085015160608601515f1a611b9a8882858561157c565b955095509550505050611bb3565b505081515f91506002905b9250925092565b806001600160a01b03163b5f03611bef57604051634c9c8ce360e01b81526001600160a01b0382166004820152602401610901565b5f5160206128715f395f51905f5280546001600160a01b0319166001600160a01b0392909216919091179055565b60605f5f846001600160a01b031684604051611c39919061283a565b5f60405180830381855af49150503d805f8114611c71576040519150601f19603f3d011682016040523d82523d5f602084013e611c76565b606091505b5091509150611c86858383611cae565b95945050505050565b34156110945760405163b398979f60e01b815260040160405180910390fd5b606082611cc357611cbe82611d0a565b610823565b8151158015611cda57506001600160a01b0384163b155b15611d0357604051639996b31560e01b81526001600160a01b0385166004820152602401610901565b5080610823565b805115611d1a5780518082602001fd5b60405163d6bda27560e01b815260040160405180910390fd5b6001600160a01b0381168114611139575f5ffd5b5f5f83601f840112611d57575f5ffd5b5081356001600160401b03811115611d6d575f5ffd5b602083019150836020828501011115611d84575f5ffd5b9250929050565b5f5f5f5f5f5f5f5f60c0898b031215611da2575f5ffd5b8835611dad81611d33565b97506020890135611dbd81611d33565b96506040890135611dcd81611d33565b95506060890135945060808901356001600160401b03811115611dee575f5ffd5b611dfa8b828c01611d47565b90955093505060a08901356001600160401b03811115611e18575f5ffd5b611e248b828c01611d47565b999c989b5096995094979396929594505050565b6001600160e01b031981168114611139575f5ffd5b5f60208284031215611e5d575f5ffd5b813561082381611e38565b5f5f5f5f5f5f60808789031215611e7d575f5ffd5b8635611e8881611d33565b955060208701356001600160401b03811115611ea2575f5ffd5b611eae89828a01611d47565b90965094505060408701356001600160401b03811115611ecc575f5ffd5b611ed889828a01611d47565b9094509250506060870135611eec81611d33565b809150509295509295509295565b5f60208284031215611f0a575f5ffd5b813561082381611d33565b5f5f5f5f5f60808688031215611f29575f5ffd5b8535611f3481611d33565b94506020860135611f4481611d33565b93506040860135925060608601356001600160401b03811115611f65575f5ffd5b611f7188828901611d47565b969995985093965092949392505050565b634e487b7160e01b5f52604160045260245ffd5b5f82601f830112611fa5575f5ffd5b81356001600160401b03811115611fbe57611fbe611f82565b604051601f8201601f19908116603f011681016001600160401b0381118282101715611fec57611fec611f82565b604052818152838201602001851015612003575f5ffd5b816020850160208301375f918101602001919091529392505050565b5f5f60408385031215612030575f5ffd5b8235915060208301356001600160401b0381111561204c575f5ffd5b61205885828601611f96565b9150509250929050565b5f5f5f60608486031215612074575f5ffd5b83356001600160401b03811115612089575f5ffd5b8401610120818703121561209b575f5ffd5b95602085013595506040909401359392505050565b5f5f83601f8401126120c0575f5ffd5b5081356001600160401b038111156120d6575f5ffd5b6020830191508360208260051b8501011115611d84575f5ffd5b5f5f60208385031215612101575f5ffd5b82356001600160401b03811115612116575f5ffd5b612122858286016120b0565b90969095509350505050565b5f5f6040838503121561213f575f5ffd5b823561214a81611d33565b915060208301356001600160401b0381111561204c575f5ffd5b803560ff81168114612174575f5ffd5b919050565b5f5f5f5f5f6080868803121561218d575f5ffd5b853561219881611d33565b94506020860135935060408601356001600160401b038111156121b9575f5ffd5b6121c588828901611d47565b90945092506121d8905060608701612164565b90509295509295909350565b5f81518084528060208401602086015e5f602082860101526020601f19601f83011685010191505092915050565b602081525f61082360208301846121e4565b5f5f5f60408486031215612236575f5ffd5b833561224181611d33565b925060208401356001600160401b0381111561225b575f5ffd5b61226786828701611d47565b9497909650939450505050565b60ff60f81b8816815260e060208201525f61229260e08301896121e4565b82810360408401526122a481896121e4565b606084018890526001600160a01b038716608085015260a0840186905283810360c0850152845180825260208087019350909101905f5b818110156122f95783518352602093840193909201916001016122db565b50909b9a5050505050505050505050565b5f5f5f5f6060858703121561231d575f5ffd5b843561232881611d33565b93506020850135925060408501356001600160401b03811115612349575f5ffd5b61235587828801611d47565b95989497509550505050565b5f5f5f5f5f5f5f5f60a0898b031215612378575f5ffd5b883561238381611d33565b9750602089013561239381611d33565b965060408901356001600160401b038111156123ad575f5ffd5b6123b98b828c016120b0565b90975095505060608901356001600160401b038111156123d7575f5ffd5b6123e38b828c016120b0565b90955093505060808901356001600160401b03811115611e18575f5ffd5b5f5f5f5f5f5f60a08789031215612416575f5ffd5b863561242181611d33565b95506020870135945060408701356001600160401b03811115612442575f5ffd5b61244e89828a01611d47565b9095509350612461905060608801612164565b95989497509295919493608090920135925050565b5f5f60408385031215612487575f5ffd5b823561249281611d33565b946020939093013593505050565b5f5f5f5f5f5f60a087890312156124b5575f5ffd5b86356124c081611d33565b955060208701356124d081611d33565b9450604087013593506060870135925060808701356001600160401b038111156124f8575f5ffd5b61250489828a01611d47565b979a9699509497509295939492505050565b828152604060208201525f61098260408301846121e4565b5f6020828403121561253e575f5ffd5b815161082381611e38565b634e487b7160e01b5f52603260045260245ffd5b5f8235605e19833603018112612571575f5ffd5b9190910192915050565b5f5f8335601e19843603018112612590575f5ffd5b8301803591506001600160401b038211156125a9575f5ffd5b602001915036819003821315611d84575f5ffd5b5f602082840312156125cd575f5ffd5b815161082381611d33565b5f602082840312156125e8575f5ffd5b5051919050565b634e487b7160e01b5f52601160045260245ffd5b818103818111156105ec576105ec6125ef565b81835281816020850137505f828201602090810191909152601f909101601f19169091010190565b6001600160a01b03871681526080602082018190525f906126629083018789612616565b8281036040840152612675818688612616565b91505060018060a01b0383166060830152979650505050505050565b5f600182016126a2576126a26125ef565b5060010190565b600181811c908216806126bd57607f821691505b6020821081036126db57634e487b7160e01b5f52602260045260245ffd5b50919050565b634e487b7160e01b5f52602160045260245ffd5b818382375f9101908152919050565b601f82111561138957805f5260205f20601f840160051c810160208510156127295750805b601f840160051c820191505b81811015610b9e575f8155600101612735565b81516001600160401b0381111561276157612761611f82565b6127758161276f84546126a9565b84612704565b6020601f8211600181146127a7575f83156127905750848201515b5f19600385901b1c1916600184901b178455610b9e565b5f84815260208120601f198516915b828110156127d657878501518255602094850194600190920191016127b6565b50848210156127f357868401515f19600387901b60f8161c191681555b50505050600190811b01905550565b5f5f5f60608486031215612814575f5ffd5b8351602085015190935061282781611d33565b6040949094015192959394509192915050565b5f82518060208501845e5f92019182525091905056fea16a46d94261c7517cc8ff89f61c0ce93598e3c849801011dee649a6a557d100360894a13ba1a3210667c828492db98dca3e2076cc3735a920a3ca505d382bbc35bbe4873c895459ab4bda5f265f5e5fa65e4b915cbe8dc27adf6ea1fa3ba400a2646970667358221220f16405238afeb988238533645916dc1af1bf30954d3b574e734aa82b24f372c164736f6c634300081c0033",
  "bytecodeSha1": "30feec20a82fdd681668473ae8de507f724c75e5",
  "compiler": {
    "evm_version": "cancun",
    "optimizer": {
      "enabled": true,
      "runs": 200
    },
    "version": "0.8.28+commit.7893614a"
  },
  "contractName": "HyperAccountPermissionedMinter",
  "language": "Solidity",
  "natspec": {
    "errors": {
      "AddressEmptyCode(address)": [
        {
          "details": "There's no code at `target` (it is not a contract)."
        }
      ],
      "ECDSAInvalidSignature()": [
        {
          "details": "The signature derives the `address(0)`."
        }
      ],
      "ECDSAInvalidSignatureLength(uint256)": [
        {
          "details": "The signature has an invalid length."
        }
      ],
      "ECDSAInvalidSignatureS(bytes32)": [
        {
          "details": "The signature has an S value that is in the upper half order."
        }
      ],
      "ERC1967InvalidImplementation(address)": [
        {
          "details": "The `implementation` of the proxy is invalid."
        }
      ],
      "ERC1967NonPayable()": [
        {
          "details": "An upgrade function sees `msg.value > 0` that may be lost."
        }
      ],
      "FailedCall()": [
        {
          "details": "A call to an address target failed. The target may have reverted."
        }
      ],
      "InvalidInitialization()": [
        {
          "details": "The contract is already initialized."
        }
      ],
      "NotInitializing()": [
        {
          "details": "The contract is not initializing."
        }
      ],
      "UUPSUnauthorizedCallContext()": [
        {
          "details": "The call is from an unauthorized context."
        }
      ],
      "UUPSUnsupportedProxiableUUID(bytes32)": [
        {
          "details": "The storage `slot` is unsupported as a UUID."
        }
      ]
    },
    "kind": "dev",
    "methods": {
      "auth(address,uint256)": {
        "notice": "Authorize a minter to mint a specific number of sub-entries"
      },
      "eip712Domain()": {
        "details": "See {IERC-5267}."
      },
      "entryPoint()": {
        "notice": "Return the entryPoint used by this account. Subclass should return the current entryPoint used by this account."
      },
      "execute(address,uint256,bytes)": {
        "notice": "execute a single call from the account."
      },
      "execute(address,uint256,bytes,uint8)": {
        "details": "Allows the mech operator to execute arbitrary transactions",
        "params": {
          "data": "Data payload of transaction.",
          "operation": "Operation type of transaction.",
          "to": "Destination address of transaction.",
          "value": "Ether value of transaction."
        },
        "returns": {
          "returnData": "Return data of the call"
        }
      },
      "execute(address,uint256,bytes,uint8,uint256)": {
        "details": "Allows the mech operator to execute arbitrary transactions",
        "params": {
          "data": "Data payload of transaction.",
          "operation": "Operation type of transaction.",
          "to": "Destination address of transaction.",
          "txGas": "Gas to send for executing the meta transaction, if 0 all left will be sent",
          "value": "Ether value of transaction."
        },
        "returns": {
          "returnData": "Return data of the call"
        }
      },
      "executeBatch((address,uint256,bytes)[])": {
        "notice": "execute a batch of calls. revert on the first call that fails. If the batch reverts, and it contains more than a single call, then wrap the revert with ExecuteError,  to mark the failing call index."
      },
      "getNonce()": {
        "notice": "Return the account nonce. This method returns the next sequential nonce. For a nonce of a specific key, use `entrypoint.getNonce(account, key)`"
      },
      "isOperator(address)": {
        "details": "Return if the passed address is authorized to sign on behalf of the mech, must be implemented by the child contract",
        "params": {
          "signer": "The address to check"
        }
      },
      "isValidSignature(bytes32,bytes)": {
        "details": "Checks whether the signature provided is valid for the provided hash, complies with EIP-1271. A signature is valid if either:  - It's a valid ECDSA signature by the mech operator  - It's a valid EIP-1271 signature by the mech operator  - It's a valid EIP-1271 signature by the mech itself",
        "params": {
          "hash": "Hash of the data (could be either a message hash or transaction hash)",
          "signature": "Signature to validate. Can be an ECDSA signature or a EIP-1271 contract signature (identified by v=0)"
        }
      },
      "isValidSigner(address,bytes)": {
        "details": "Returns a magic value indicating whether a given signer is authorized to act on behalf of the account",
        "params": {
          "signer": "The address to check signing authorization for"
        },
        "returns": {
          "magicValue": "Magic value indicating whether the signer is valid"
        }
      },
      "proxiableUUID()": {
        "details": "Implementation of the ERC-1822 {proxiableUUID} function. This returns the storage slot used by the implementation. It is used to validate the implementation's compatibility when performing an upgrade. IMPORTANT: A proxy pointing at a proxiable contract should not be considered proxiable itself, because this risks bricking a proxy that upgrades to it, by delegating to itself until out of gas. Thus it is critical that this function revert if invoked through a proxy. This is guaranteed by the `notDelegated` modifier."
      },
      "state()": {
        "details": "Returns the current account state per EIP-6551NOTE: This does not change for arbitrary account state changes!The model used here is to change it for *owner-initiated* state changes.E.g., sending a token held by this account should change the state(),but receiving a token should not.This is to prevent griefing if, e.g., a marketplace requires constant state()from listing to sale: an attacked could send a spam token to kill the sale.However, even here, NOT ALL *OWNER-INITIATED* STATE CHANGES ARE CAPTURED.E.g., an owner might approve a contract to transferFrom from this TBA,and such transfers would NOT be reflected with a state change.As such, we advise you do NOT consider this a source of truth, but instead,for the sale-of-TBA case, commit to the state in a more comprehensive, offchain way."
      },
      "supportsInterface(bytes4)": {
        "details": "Returns true if a given interfaceId is supported by this account. This method can be extended by an override"
      },
      "token()": {
        "details": "Returns the identifier of the non-fungible token which owns the account. The return value of this function MUST be constant - it MUST NOT change over time.",
        "returns": {
          "chainId": "      The EIP-155 ID of the chain the token exists on",
          "tokenContract": "The contract address of the token",
          "tokenId": "      The ID of the token"
        }
      },
      "upgradeToAndCall(address,bytes)": {
        "custom:oz-upgrades-unsafe-allow-reachable": "delegatecall",
        "details": "Upgrade the implementation of the proxy to `newImplementation`, and subsequently execute the function call encoded in `data`. Calls {_authorizeUpgrade}. Emits an {Upgraded} event."
      },
      "validateUserOp((address,uint256,bytes,bytes,bytes32,uint256,bytes32,bytes,bytes),bytes32,uint256)": {
        "details": "Must validate caller is the entryPoint.      Must validate the signature and nonce",
        "notice": "Validate user's signature and nonce the entryPoint will make the call to the recipient only if this validation call returns successfully. signature failure should be reported by returning SIG_VALIDATION_FAILED (1). This allows making a \"simulation call\" without a valid signature Other failures (e.g. nonce mismatch, or invalid signature format) should still revert to signal failure.",
        "params": {
          "missingAccountFunds": "- Missing funds on the account's deposit in the entrypoint.                              This is the minimum amount to transfer to the sender(entryPoint) to be                              able to make the call. The excess is left as a deposit in the entrypoint                              for future calls. Can be withdrawn anytime using \"entryPoint.withdrawTo()\".                              In case there is a paymaster in the request (or the current deposit is high                              enough), this value will be zero.",
          "userOp": "- The operation that is about to be executed.",
          "userOpHash": "- Hash of the user's request data. can be used as the basis for signature."
        },
        "returns": {
          "validationData": "      - Packaged ValidationData structure. use `_packValidationData` and                              `_unpackValidationData` to encode and decode.                              <20-byte> aggregatorOrSigFail - 0 for valid signature, 1 to mark signature failure,                                 otherwise, an address of an \"aggregator\" contract.                              <6-byte> validUntil - Last timestamp this operation is valid at, or 0 for \"indefinitely\"                              <6-byte> validAfter - First timestamp this operation is valid                                                    If an account doesn't use time-range, it is enough to                                                    return SIG_VALIDATION_FAILED value (1) for signature failure.                              Note that the validation code cannot use block.timestamp (or block.number) directly."
        }
      }
    },
    "stateVariables": {
      "_HYPERACCOUNT_PERMISSIONED_MINTER_STORAGE": {
        "details": "The storage slot at which HyperAccountPermissionedMinter storage starts, following the EIP-7201 standard.Calculated as `keccak256(abi.encode(uint256(keccak256(\"hyperware.HyperAccountPermissionedMinter.storage\")) - 1)) & ~bytes32(uint256(0xff))`."
      }
    },
    "version": 1
  },
  "opcodes": "PUSH1 0x80 PUSH1 0x40 MSTORE PUSH1 0x4 CALLDATASIZE LT PUSH2 0x1BC JUMPI PUSH0 CALLDATALOAD PUSH1 0xE0 SHR DUP1 PUSH4 0x8129FC1C GT PUSH2 0xF2 JUMPI DUP1 PUSH4 0xB61D27F6 GT PUSH2 0x92 JUMPI DUP1 PUSH4 0xD087D288 GT PUSH2 0x62 JUMPI DUP1 PUSH4 0xD087D288 EQ PUSH2 0x531 JUMPI DUP1 PUSH4 0xE901D89B EQ PUSH2 0x545 JUMPI DUP1 PUSH4 0xF23A6E61 EQ PUSH2 0x564 JUMPI DUP1 PUSH4 0xFC0C546A EQ PUSH2 0x590 JUMPI PUSH0 PUSH0 REVERT JUMPDEST DUP1 PUSH4 0xB61D27F6 EQ PUSH2 0x4BD JUMPI DUP1 PUSH4 0xBC197C81 EQ PUSH2 0x4DC JUMPI DUP1 PUSH4 0xC19D93FB EQ PUSH2 0x50A JUMPI DUP1 PUSH4 0xCA3B98BB EQ PUSH2 0x51E JUMPI PUSH0 PUSH0 REVERT JUMPDEST DUP1 PUSH4 0x9CDF379C GT PUSH2 0xCD JUMPI DUP1 PUSH4 0x9CDF379C EQ PUSH2 0x422 JUMPI DUP1 PUSH4 0xAD3CB1CC EQ PUSH2 0x435 JUMPI DUP1 PUSH4 0xB0D691FE EQ PUSH2 0x465 JUMPI DUP1 PUSH4 0xB479D600 EQ PUSH2 0x48B JUMPI PUSH0 PUSH0 REVERT JUMPDEST DUP1 PUSH4 0x8129FC1C EQ PUSH2 0x3D3 JUMPI DUP1 PUSH4 0x84B0196E EQ PUSH2 0x3E7 JUMPI DUP1 PUSH4 0x8F41EC5A EQ PUSH2 0x40E JUMPI PUSH0 PUSH0 REVERT JUMPDEST DUP1 PUSH4 0x34FCD5BE GT PUSH2 0x15D JUMPI DUP1 PUSH4 0x51945447 GT PUSH2 0x138 JUMPI DUP1 PUSH4 0x51945447 EQ PUSH2 0x361 JUMPI DUP1 PUSH4 0x523E3260 EQ PUSH2 0x381 JUMPI DUP1 PUSH4 0x52D1902D EQ PUSH2 0x3A0 JUMPI DUP1 PUSH4 0x6D70F7AE EQ PUSH2 0x3B4 JUMPI PUSH0 PUSH0 REVERT JUMPDEST DUP1 PUSH4 0x34FCD5BE EQ PUSH2 0x2EF JUMPI DUP1 PUSH4 0x3E5BEAB9 EQ PUSH2 0x30E JUMPI DUP1 PUSH4 0x4F1EF286 EQ PUSH2 0x34E JUMPI PUSH0 PUSH0 REVERT JUMPDEST DUP1 PUSH4 0x12084F59 GT PUSH2 0x198 JUMPI DUP1 PUSH4 0x12084F59 EQ PUSH2 0x24C JUMPI DUP1 PUSH4 0x150B7A02 EQ PUSH2 0x26B JUMPI DUP1 PUSH4 0x1626BA7E EQ PUSH2 0x2A3 JUMPI DUP1 PUSH4 0x19822F7C EQ PUSH2 0x2C2 JUMPI PUSH0 PUSH0 REVERT JUMPDEST DUP1 PUSH3 0x23DE29 EQ PUSH2 0x1C7 JUMPI DUP1 PUSH4 0x1FFC9A7 EQ PUSH2 0x1ED JUMPI DUP1 PUSH4 0x94CEFED EQ PUSH2 0x221 JUMPI PUSH0 PUSH0 REVERT JUMPDEST CALLDATASIZE PUSH2 0x1C3 JUMPI STOP JUMPDEST PUSH0 PUSH0 REVERT JUMPDEST CALLVALUE DUP1 ISZERO PUSH2 0x1D2 JUMPI PUSH0 PUSH0 REVERT JUMPDEST POP PUSH2 0x1EB PUSH2 0x1E1 CALLDATASIZE PUSH1 0x4 PUSH2 0x1D8B JUMP JUMPDEST POP POP POP POP POP POP POP POP JUMP JUMPDEST STOP JUMPDEST CALLVALUE DUP1 ISZERO PUSH2 0x1F8 JUMPI PUSH0 PUSH0 REVERT JUMPDEST POP PUSH2 0x20C PUSH2 0x207 CALLDATASIZE PUSH1 0x4 PUSH2 0x1E4D JUMP JUMPDEST PUSH2 0x5C7 JUMP JUMPDEST PUSH1 0x40 MLOAD SWAP1 ISZERO ISZERO DUP2 MSTORE PUSH1 0x20 ADD JUMPDEST PUSH1 0x40 MLOAD DUP1 SWAP2 SUB SWAP1 RETURN JUMPDEST PUSH2 0x234 PUSH2 0x22F CALLDATASIZE PUSH1 0x4 PUSH2 0x1E68 JUMP JUMPDEST PUSH2 0x5F2 JUMP JUMPDEST PUSH1 0x40 MLOAD PUSH1 0x1 PUSH1 0x1 PUSH1 0xA0 SHL SUB SWAP1 SWAP2 AND DUP2 MSTORE PUSH1 0x20 ADD PUSH2 0x218 JUMP JUMPDEST CALLVALUE DUP1 ISZERO PUSH2 0x257 JUMPI PUSH0 PUSH0 REVERT JUMPDEST POP PUSH2 0x1EB PUSH2 0x266 CALLDATASIZE PUSH1 0x4 PUSH2 0x1EFA JUMP JUMPDEST PUSH2 0x60C JUMP JUMPDEST CALLVALUE DUP1 ISZERO PUSH2 0x276 JUMPI PUSH0 PUSH0 REVERT JUMPDEST POP PUSH2 0x28A PUSH2 0x285 CALLDATASIZE PUSH1 0x4 PUSH2 0x1F15 JUMP JUMPDEST PUSH2 0x679 JUMP JUMPDEST PUSH1 0x40 MLOAD PUSH1 0x1 PUSH1 0x1 PUSH1 0xE0 SHL SUB NOT SWAP1 SWAP2 AND DUP2 MSTORE PUSH1 0x20 ADD PUSH2 0x218 JUMP JUMPDEST CALLVALUE DUP1 ISZERO PUSH2 0x2AE JUMPI PUSH0 PUSH0 REVERT JUMPDEST POP PUSH2 0x28A PUSH2 0x2BD CALLDATASIZE PUSH1 0x4 PUSH2 0x201F JUMP JUMPDEST PUSH2 0x6D3 JUMP JUMPDEST CALLVALUE DUP1 ISZERO PUSH2 0x2CD JUMPI PUSH0 PUSH0 REVERT JUMPDEST POP PUSH2 0x2E1 PUSH2 0x2DC CALLDATASIZE PUSH1 0x4 PUSH2 0x2062 JUMP JUMPDEST PUSH2 0x7F8 JUMP JUMPDEST PUSH1 0x40 MLOAD SWAP1 DUP2 MSTORE PUSH1 0x20 ADD PUSH2 0x218 JUMP JUMPDEST CALLVALUE DUP1 ISZERO PUSH2 0x2FA JUMPI PUSH0 PUSH0 REVERT JUMPDEST POP PUSH2 0x1EB PUSH2 0x309 CALLDATASIZE PUSH1 0x4 PUSH2 0x20F0 JUMP JUMPDEST PUSH2 0x82A JUMP JUMPDEST CALLVALUE DUP1 ISZERO PUSH2 0x319 JUMPI PUSH0 PUSH0 REVERT JUMPDEST POP PUSH2 0x2E1 PUSH2 0x328 CALLDATASIZE PUSH1 0x4 PUSH2 0x1EFA JUMP JUMPDEST PUSH1 0x1 PUSH1 0x1 PUSH1 0xA0 SHL SUB AND PUSH0 SWAP1 DUP2 MSTORE PUSH0 MLOAD PUSH1 0x20 PUSH2 0x2891 PUSH0 CODECOPY PUSH0 MLOAD SWAP1 PUSH0 MSTORE PUSH1 0x20 MSTORE PUSH1 0x40 SWAP1 KECCAK256 SLOAD SWAP1 JUMP JUMPDEST PUSH2 0x1EB PUSH2 0x35C CALLDATASIZE PUSH1 0x4 PUSH2 0x212E JUMP JUMPDEST PUSH2 0x91A JUMP JUMPDEST PUSH2 0x374 PUSH2 0x36F CALLDATASIZE PUSH1 0x4 PUSH2 0x2179 JUMP JUMPDEST PUSH2 0x939 JUMP JUMPDEST PUSH1 0x40 MLOAD PUSH2 0x218 SWAP2 SWAP1 PUSH2 0x2212 JUMP JUMPDEST CALLVALUE DUP1 ISZERO PUSH2 0x38C JUMPI PUSH0 PUSH0 REVERT JUMPDEST POP PUSH2 0x28A PUSH2 0x39B CALLDATASIZE PUSH1 0x4 PUSH2 0x2224 JUMP JUMPDEST PUSH2 0x965 JUMP JUMPDEST CALLVALUE DUP1 ISZERO PUSH2 0x3AB JUMPI PUSH0 PUSH0 REVERT JUMPDEST POP PUSH2 0x2E1 PUSH2 0x98A JUMP JUMPDEST CALLVALUE DUP1 ISZERO PUSH2 0x3BF JUMPI PUSH0 PUSH0 REVERT JUMPDEST POP PUSH2 0x20C PUSH2 0x3CE CALLDATASIZE PUSH1 0x4 PUSH2 0x1EFA JUMP JUMPDEST PUSH2 0x9A5 JUMP JUMPDEST CALLVALUE DUP1 ISZERO PUSH2 0x3DE JUMPI PUSH0 PUSH0 REVERT JUMPDEST POP PUSH2 0x1EB PUSH2 0xA43 JUMP JUMPDEST CALLVALUE DUP1 ISZERO PUSH2 0x3F2 JUMPI PUSH0 PUSH0 REVERT JUMPDEST POP PUSH2 0x3FB PUSH2 0xBA5 JUMP JUMPDEST PUSH1 0x40 MLOAD PUSH2 0x218 SWAP8 SWAP7 SWAP6 SWAP5 SWAP4 SWAP3 SWAP2 SWAP1 PUSH2 0x2274 JUMP JUMPDEST CALLVALUE DUP1 ISZERO PUSH2 0x419 JUMPI PUSH0 PUSH0 REVERT JUMPDEST POP PUSH2 0x2E1 PUSH1 0x1 DUP2 JUMP JUMPDEST CALLVALUE DUP1 ISZERO PUSH2 0x42D JUMPI PUSH0 PUSH0 REVERT JUMPDEST POP PUSH2 0x2E1 PUSH0 DUP2 JUMP JUMPDEST CALLVALUE DUP1 ISZERO PUSH2 0x440 JUMPI PUSH0 PUSH0 REVERT JUMPDEST POP PUSH2 0x374 PUSH1 0x40 MLOAD DUP1 PUSH1 0x40 ADD PUSH1 0x40 MSTORE DUP1 PUSH1 0x5 DUP2 MSTORE PUSH1 0x20 ADD PUSH5 0x352E302E3 PUSH1 0xDC SHL DUP2 MSTORE POP DUP2 JUMP JUMPDEST CALLVALUE DUP1 ISZERO PUSH2 0x470 JUMPI PUSH0 PUSH0 REVERT JUMPDEST POP PUSH20 0x4337084D9E255FF0702461CF8895CE9E3B5FF108 PUSH2 0x234 JUMP JUMPDEST CALLVALUE DUP1 ISZERO PUSH2 0x496 JUMPI PUSH0 PUSH0 REVERT JUMPDEST POP PUSH32 0x0 PUSH2 0x234 JUMP JUMPDEST CALLVALUE DUP1 ISZERO PUSH2 0x4C8 JUMPI PUSH0 PUSH0 REVERT JUMPDEST POP PUSH2 0x1EB PUSH2 0x4D7 CALLDATASIZE PUSH1 0x4 PUSH2 0x230A JUMP JUMPDEST PUSH2 0xC4E JUMP JUMPDEST CALLVALUE DUP1 ISZERO PUSH2 0x4E7 JUMPI PUSH0 PUSH0 REVERT JUMPDEST POP PUSH2 0x28A PUSH2 0x4F6 CALLDATASIZE PUSH1 0x4 PUSH2 0x2361 JUMP JUMPDEST PUSH4 0xBC197C81 PUSH1 0xE0 SHL SWAP9 SWAP8 POP POP POP POP POP POP POP POP JUMP JUMPDEST CALLVALUE DUP1 ISZERO PUSH2 0x515 JUMPI PUSH0 PUSH0 REVERT JUMPDEST POP PUSH2 0x2E1 PUSH2 0xCA6 JUMP JUMPDEST PUSH2 0x374 PUSH2 0x52C CALLDATASIZE PUSH1 0x4 PUSH2 0x2401 JUMP JUMPDEST PUSH2 0xD8D JUMP JUMPDEST CALLVALUE DUP1 ISZERO PUSH2 0x53C JUMPI PUSH0 PUSH0 REVERT JUMPDEST POP PUSH2 0x2E1 PUSH2 0xDC6 JUMP JUMPDEST CALLVALUE DUP1 ISZERO PUSH2 0x550 JUMPI PUSH0 PUSH0 REVERT JUMPDEST POP PUSH2 0x1EB PUSH2 0x55F CALLDATASIZE PUSH1 0x4 PUSH2 0x2476 JUMP JUMPDEST PUSH2 0xE4F JUMP JUMPDEST CALLVALUE DUP1 ISZERO PUSH2 0x56F JUMPI PUSH0 PUSH0 REVERT JUMPDEST POP PUSH2 0x28A PUSH2 0x57E CALLDATASIZE PUSH1 0x4 PUSH2 0x24A0 JUMP JUMPDEST PUSH4 0xF23A6E61 PUSH1 0xE0 SHL SWAP7 SWAP6 POP POP POP POP POP POP JUMP JUMPDEST CALLVALUE DUP1 ISZERO PUSH2 0x59B JUMPI PUSH0 PUSH0 REVERT JUMPDEST POP PUSH2 0x5A4 PUSH2 0xEBF JUMP JUMPDEST PUSH1 0x40 DUP1 MLOAD SWAP4 DUP5 MSTORE PUSH1 0x1 PUSH1 0x1 PUSH1 0xA0 SHL SUB SWAP1 SWAP3 AND PUSH1 0x20 DUP5 ADD MSTORE SWAP1 DUP3 ADD MSTORE PUSH1 0x60 ADD PUSH2 0x218 JUMP JUMPDEST PUSH0 PUSH2 0x5D1 DUP3 PUSH2 0xED5 JUMP JUMPDEST DUP1 PUSH2 0x5EC JUMPI POP PUSH1 0x1 PUSH1 0x1 PUSH1 0xE0 SHL SUB NOT DUP3 AND PUSH4 0xC5527D7B PUSH1 0xE0 SHL EQ JUMPDEST SWAP3 SWAP2 POP POP JUMP JUMPDEST PUSH0 PUSH2 0x601 DUP8 DUP8 DUP8 DUP8 DUP8 DUP8 PUSH2 0xEFF JUMP JUMPDEST SWAP8 SWAP7 POP POP POP POP POP POP POP JUMP JUMPDEST PUSH2 0x615 CALLER PUSH2 0x9A5 JUMP JUMPDEST ISZERO DUP1 ISZERO PUSH2 0x636 JUMPI POP CALLER PUSH20 0x4337084D9E255FF0702461CF8895CE9E3B5FF108 EQ ISZERO JUMPDEST ISZERO PUSH2 0x654 JUMPI PUSH1 0x40 MLOAD PUSH4 0x47802953 PUSH1 0xE1 SHL DUP2 MSTORE PUSH1 0x4 ADD PUSH1 0x40 MLOAD DUP1 SWAP2 SUB SWAP1 REVERT JUMPDEST PUSH1 0x1 PUSH1 0x1 PUSH1 0xA0 SHL SUB AND PUSH0 SWAP1 DUP2 MSTORE PUSH0 MLOAD PUSH1 0x20 PUSH2 0x2891 PUSH0 CODECOPY PUSH0 MLOAD SWAP1 PUSH0 MSTORE PUSH1 0x20 MSTORE PUSH1 0x40 DUP2 KECCAK256 SSTORE JUMP JUMPDEST PUSH0 PUSH0 PUSH0 PUSH2 0x684 PUSH2 0xEBF JUMP JUMPDEST SWAP1 SWAP4 POP SWAP2 POP POP CALLER PUSH1 0x1 PUSH1 0x1 PUSH1 0xA0 SHL SUB DUP4 AND EQ DUP1 ISZERO PUSH2 0x6A1 JUMPI POP DUP1 DUP7 EQ JUMPDEST ISZERO PUSH2 0x6BF JUMPI PUSH1 0x40 MLOAD PUSH4 0xB79E3F3F PUSH1 0xE0 SHL DUP2 MSTORE PUSH1 0x4 ADD PUSH1 0x40 MLOAD DUP1 SWAP2 SUB SWAP1 REVERT JUMPDEST POP PUSH4 0xA85BD01 PUSH1 0xE1 SHL SWAP8 SWAP7 POP POP POP POP POP POP POP JUMP JUMPDEST PUSH0 PUSH0 PUSH0 PUSH0 PUSH2 0x6F3 DUP6 PUSH1 0x20 DUP2 ADD MLOAD PUSH1 0x40 DUP3 ADD MLOAD PUSH1 0x60 SWAP1 SWAP3 ADD MLOAD PUSH0 BYTE SWAP3 SWAP1 SWAP2 SWAP1 JUMP JUMPDEST SWAP1 SWAP5 POP SWAP3 POP SWAP1 POP PUSH1 0xFF DUP2 AND PUSH0 SUB PUSH2 0x7BE JUMPI DUP3 DUP6 DUP4 ADD PUSH1 0x20 ADD PUSH2 0x714 DUP3 PUSH2 0x9A5 JUMP JUMPDEST ISZERO DUP1 ISZERO PUSH2 0x72A JUMPI POP PUSH1 0x1 PUSH1 0x1 PUSH1 0xA0 SHL SUB DUP3 AND ADDRESS EQ ISZERO JUMPDEST ISZERO PUSH2 0x745 JUMPI POP PUSH1 0x1 PUSH1 0x1 PUSH1 0xE0 SHL SUB NOT SWAP5 POP PUSH2 0x5EC SWAP4 POP POP POP POP JUMP JUMPDEST PUSH1 0x40 MLOAD PUSH4 0xB135D3F PUSH1 0xE1 SHL DUP2 MSTORE PUSH1 0x1 PUSH1 0x1 PUSH1 0xA0 SHL SUB DUP4 AND SWAP1 PUSH4 0x1626BA7E SWAP1 PUSH2 0x773 SWAP1 DUP12 SWAP1 DUP6 SWAP1 PUSH1 0x4 ADD PUSH2 0x2516 JUMP JUMPDEST PUSH1 0x20 PUSH1 0x40 MLOAD DUP1 DUP4 SUB DUP2 DUP7 GAS STATICCALL ISZERO DUP1 ISZERO PUSH2 0x78E JUMPI RETURNDATASIZE PUSH0 PUSH0 RETURNDATACOPY RETURNDATASIZE PUSH0 REVERT JUMPDEST POP POP POP POP PUSH1 0x40 MLOAD RETURNDATASIZE PUSH1 0x1F NOT PUSH1 0x1F DUP3 ADD AND DUP3 ADD DUP1 PUSH1 0x40 MSTORE POP DUP2 ADD SWAP1 PUSH2 0x7B2 SWAP2 SWAP1 PUSH2 0x252E JUMP JUMPDEST SWAP6 POP POP POP POP POP POP PUSH2 0x5EC JUMP JUMPDEST PUSH2 0x7CD PUSH2 0x3CE DUP8 DUP4 DUP7 DUP7 PUSH2 0x1005 JUMP JUMPDEST ISZERO PUSH2 0x7E5 JUMPI POP PUSH4 0xB135D3F PUSH1 0xE1 SHL SWAP3 POP PUSH2 0x5EC SWAP2 POP POP JUMP JUMPDEST POP PUSH1 0x1 PUSH1 0x1 PUSH1 0xE0 SHL SUB NOT SWAP6 SWAP5 POP POP POP POP POP JUMP JUMPDEST PUSH0 PUSH2 0x801 PUSH2 0x1031 JUMP JUMPDEST PUSH2 0x80B DUP5 DUP5 PUSH2 0x1096 JUMP JUMPDEST SWAP1 POP PUSH2 0x81A DUP5 PUSH1 0x20 ADD CALLDATALOAD PUSH2 0x10F3 JUMP JUMPDEST PUSH2 0x823 DUP3 PUSH2 0x113C JUMP JUMPDEST SWAP4 SWAP3 POP POP POP JUMP JUMPDEST PUSH2 0x832 PUSH2 0x1181 JUMP JUMPDEST DUP1 PUSH0 JUMPDEST DUP2 DUP2 LT ISZERO PUSH2 0x914 JUMPI CALLDATASIZE DUP5 DUP5 DUP4 DUP2 DUP2 LT PUSH2 0x850 JUMPI PUSH2 0x850 PUSH2 0x2549 JUMP JUMPDEST SWAP1 POP PUSH1 0x20 MUL DUP2 ADD SWAP1 PUSH2 0x862 SWAP2 SWAP1 PUSH2 0x255D JUMP JUMPDEST SWAP1 POP PUSH0 PUSH2 0x8C0 PUSH2 0x875 PUSH1 0x20 DUP5 ADD DUP5 PUSH2 0x1EFA JUMP JUMPDEST PUSH1 0x20 DUP5 ADD CALLDATALOAD PUSH2 0x887 PUSH1 0x40 DUP7 ADD DUP7 PUSH2 0x257B JUMP JUMPDEST DUP1 DUP1 PUSH1 0x1F ADD PUSH1 0x20 DUP1 SWAP2 DIV MUL PUSH1 0x20 ADD PUSH1 0x40 MLOAD SWAP1 DUP2 ADD PUSH1 0x40 MSTORE DUP1 SWAP4 SWAP3 SWAP2 SWAP1 DUP2 DUP2 MSTORE PUSH1 0x20 ADD DUP4 DUP4 DUP1 DUP3 DUP5 CALLDATACOPY PUSH0 SWAP3 ADD SWAP2 SWAP1 SWAP2 MSTORE POP POP POP POP GAS PUSH2 0x1189 JUMP JUMPDEST SWAP1 POP DUP1 PUSH2 0x90A JUMPI DUP4 PUSH1 0x1 SUB PUSH2 0x8DC JUMPI PUSH2 0x8D7 PUSH2 0x119F JUMP JUMPDEST PUSH2 0x90A JUMP JUMPDEST DUP3 PUSH2 0x8E6 PUSH0 PUSH2 0x11B0 JUMP JUMPDEST PUSH1 0x40 MLOAD PUSH4 0x5A154675 PUSH1 0xE0 SHL DUP2 MSTORE PUSH1 0x4 ADD PUSH2 0x901 SWAP3 SWAP2 SWAP1 PUSH2 0x2516 JUMP JUMPDEST PUSH1 0x40 MLOAD DUP1 SWAP2 SUB SWAP1 REVERT JUMPDEST POP POP PUSH1 0x1 ADD PUSH2 0x835 JUMP JUMPDEST POP POP POP POP JUMP JUMPDEST PUSH2 0x922 PUSH2 0x11E1 JUMP JUMPDEST PUSH2 0x92B DUP3 PUSH2 0x1285 JUMP JUMPDEST PUSH2 0x935 DUP3 DUP3 PUSH2 0x12CD JUMP JUMPDEST POP POP JUMP JUMPDEST PUSH1 0x60 PUSH0 PUSH2 0x94A DUP8 DUP8 DUP8 DUP8 DUP8 GAS PUSH2 0x138E JUMP JUMPDEST SWAP3 POP SWAP1 POP DUP1 PUSH2 0x95B JUMPI DUP2 MLOAD PUSH1 0x20 DUP4 ADD REVERT JUMPDEST POP SWAP6 SWAP5 POP POP POP POP POP JUMP JUMPDEST PUSH0 PUSH2 0x96F DUP5 PUSH2 0x9A5 JUMP JUMPDEST PUSH2 0x979 JUMPI PUSH0 PUSH2 0x982 JUMP JUMPDEST PUSH4 0x291F193 PUSH1 0xE5 SHL JUMPDEST SWAP5 SWAP4 POP POP POP POP JUMP JUMPDEST PUSH0 PUSH2 0x993 PUSH2 0x13E5 JUMP JUMPDEST POP PUSH0 MLOAD PUSH1 0x20 PUSH2 0x2871 PUSH0 CODECOPY PUSH0 MLOAD SWAP1 PUSH0 MSTORE SWAP1 JUMP JUMPDEST PUSH0 PUSH0 PUSH0 PUSH2 0x9B0 PUSH2 0xEBF JUMP JUMPDEST PUSH1 0x40 MLOAD PUSH4 0x31A9108F PUSH1 0xE1 SHL DUP2 MSTORE PUSH1 0x4 DUP2 ADD DUP3 SWAP1 MSTORE SWAP2 SWAP5 POP SWAP3 POP PUSH1 0x1 PUSH1 0x1 PUSH1 0xA0 SHL SUB DUP1 DUP8 AND SWAP3 POP DUP5 AND SWAP1 PUSH4 0x6352211E SWAP1 PUSH1 0x24 ADD PUSH1 0x20 PUSH1 0x40 MLOAD DUP1 DUP4 SUB DUP2 DUP7 GAS STATICCALL ISZERO DUP1 ISZERO PUSH2 0x9FD JUMPI RETURNDATASIZE PUSH0 PUSH0 RETURNDATACOPY RETURNDATASIZE PUSH0 REVERT JUMPDEST POP POP POP POP PUSH1 0x40 MLOAD RETURNDATASIZE PUSH1 0x1F NOT PUSH1 0x1F DUP3 ADD AND DUP3 ADD DUP1 PUSH1 0x40 MSTORE POP DUP2 ADD SWAP1 PUSH2 0xA21 SWAP2 SWAP1 PUSH2 0x25BD JUMP JUMPDEST PUSH1 0x1 PUSH1 0x1 PUSH1 0xA0 SHL SUB AND EQ DUP1 ISZERO PUSH2 0x982 JUMPI POP POP POP POP PUSH1 0x1 PUSH1 0x1 PUSH1 0xA0 SHL SUB AND ISZERO ISZERO SWAP1 JUMP JUMPDEST PUSH32 0xF0C57E16840DF040F15088DC2F81FE391C3923BEC73E23A9662EFC9C229C6A00 DUP1 SLOAD PUSH1 0x1 PUSH1 0x40 SHL DUP2 DIV PUSH1 0xFF AND ISZERO SWAP1 PUSH1 0x1 PUSH1 0x1 PUSH1 0x40 SHL SUB AND PUSH0 DUP2 ISZERO DUP1 ISZERO PUSH2 0xA87 JUMPI POP DUP3 JUMPDEST SWAP1 POP PUSH0 DUP3 PUSH1 0x1 PUSH1 0x1 PUSH1 0x40 SHL SUB AND PUSH1 0x1 EQ DUP1 ISZERO PUSH2 0xAA2 JUMPI POP ADDRESS EXTCODESIZE ISZERO JUMPDEST SWAP1 POP DUP2 ISZERO DUP1 ISZERO PUSH2 0xAB0 JUMPI POP DUP1 ISZERO JUMPDEST ISZERO PUSH2 0xACE JUMPI PUSH1 0x40 MLOAD PUSH4 0xF92EE8A9 PUSH1 0xE0 SHL DUP2 MSTORE PUSH1 0x4 ADD PUSH1 0x40 MLOAD DUP1 SWAP2 SUB SWAP1 REVERT JUMPDEST DUP5 SLOAD PUSH8 0xFFFFFFFFFFFFFFFF NOT AND PUSH1 0x1 OR DUP6 SSTORE DUP4 ISZERO PUSH2 0xAF8 JUMPI DUP5 SLOAD PUSH1 0xFF PUSH1 0x40 SHL NOT AND PUSH1 0x1 PUSH1 0x40 SHL OR DUP6 SSTORE JUMPDEST PUSH2 0xB00 PUSH2 0x142E JUMP JUMPDEST PUSH2 0xB58 PUSH1 0x40 MLOAD DUP1 PUSH1 0x40 ADD PUSH1 0x40 MSTORE DUP1 PUSH1 0x1E DUP2 MSTORE PUSH1 0x20 ADD PUSH32 0x48797065724163636F756E745065726D697373696F6E65644D696E7465720000 DUP2 MSTORE POP PUSH1 0x40 MLOAD DUP1 PUSH1 0x40 ADD PUSH1 0x40 MSTORE DUP1 PUSH1 0x1 DUP2 MSTORE PUSH1 0x20 ADD PUSH1 0x31 PUSH1 0xF8 SHL DUP2 MSTORE POP PUSH2 0x1436 JUMP JUMPDEST DUP4 ISZERO PUSH2 0xB9E JUMPI DUP5 SLOAD PUSH1 0xFF PUSH1 0x40 SHL NOT AND DUP6 SSTORE PUSH1 0x40 MLOAD PUSH1 0x1 DUP2 MSTORE PUSH32 0xC7F505B2F371AE2175EE4913F4499E1F2633A7B5936321EED1CDAEB6115181D2 SWAP1 PUSH1 0x20 ADD PUSH1 0x40 MLOAD DUP1 SWAP2 SUB SWAP1 LOG1 JUMPDEST POP POP POP POP POP JUMP JUMPDEST PUSH0 PUSH1 0x60 DUP1 DUP3 DUP1 DUP1 DUP4 DUP2 PUSH0 MLOAD PUSH1 0x20 PUSH2 0x2851 PUSH0 CODECOPY PUSH0 MLOAD SWAP1 PUSH0 MSTORE DUP1 SLOAD SWAP1 SWAP2 POP ISZERO DUP1 ISZERO PUSH2 0xBD0 JUMPI POP PUSH1 0x1 DUP2 ADD SLOAD ISZERO JUMPDEST PUSH2 0xC14 JUMPI PUSH1 0x40 MLOAD PUSH3 0x461BCD PUSH1 0xE5 SHL DUP2 MSTORE PUSH1 0x20 PUSH1 0x4 DUP3 ADD MSTORE PUSH1 0x15 PUSH1 0x24 DUP3 ADD MSTORE PUSH21 0x1152540DCC4C8E88155B9A5B9A5D1A585B1A5E9959 PUSH1 0x5A SHL PUSH1 0x44 DUP3 ADD MSTORE PUSH1 0x64 ADD PUSH2 0x901 JUMP JUMPDEST PUSH2 0xC1C PUSH2 0x1448 JUMP JUMPDEST PUSH2 0xC24 PUSH2 0x1508 JUMP JUMPDEST PUSH1 0x40 DUP1 MLOAD PUSH0 DUP1 DUP3 MSTORE PUSH1 0x20 DUP3 ADD SWAP1 SWAP3 MSTORE PUSH1 0xF PUSH1 0xF8 SHL SWAP13 SWAP4 SWAP12 POP SWAP2 SWAP10 POP CHAINID SWAP9 POP ADDRESS SWAP8 POP SWAP6 POP SWAP4 POP SWAP2 POP POP JUMP JUMPDEST PUSH2 0xC56 PUSH2 0x1181 JUMP JUMPDEST PUSH0 PUSH2 0xC97 DUP6 DUP6 DUP6 DUP6 DUP1 DUP1 PUSH1 0x1F ADD PUSH1 0x20 DUP1 SWAP2 DIV MUL PUSH1 0x20 ADD PUSH1 0x40 MLOAD SWAP1 DUP2 ADD PUSH1 0x40 MSTORE DUP1 SWAP4 SWAP3 SWAP2 SWAP1 DUP2 DUP2 MSTORE PUSH1 0x20 ADD DUP4 DUP4 DUP1 DUP3 DUP5 CALLDATACOPY PUSH0 SWAP3 ADD SWAP2 SWAP1 SWAP2 MSTORE POP POP POP POP GAS PUSH2 0x1189 JUMP JUMPDEST SWAP1 POP DUP1 PUSH2 0xB9E JUMPI PUSH2 0xB9E PUSH2 0x119F JUMP JUMPDEST PUSH0 DUP1 PUSH32 0xE4B1C7558F331D2752F6CB495B2CF8E1B8AE3112BCC78EC0C3BFEBFBE3CD4800 SWAP1 POP PUSH0 PUSH20 0x4337084D9E255FF0702461CF8895CE9E3B5FF108 PUSH1 0x40 MLOAD PUSH4 0x1AAB3F0D PUSH1 0xE1 SHL DUP2 MSTORE ADDRESS PUSH1 0x4 DUP3 ADD MSTORE PUSH0 PUSH1 0x24 DUP3 ADD MSTORE PUSH1 0x1 PUSH1 0x1 PUSH1 0xA0 SHL SUB SWAP2 SWAP1 SWAP2 AND SWAP1 PUSH4 0x35567E1A SWAP1 PUSH1 0x44 ADD PUSH1 0x20 PUSH1 0x40 MLOAD DUP1 DUP4 SUB DUP2 DUP7 GAS STATICCALL ISZERO DUP1 ISZERO PUSH2 0xD2B JUMPI RETURNDATASIZE PUSH0 PUSH0 RETURNDATACOPY RETURNDATASIZE PUSH0 REVERT JUMPDEST POP POP POP POP PUSH1 0x40 MLOAD RETURNDATASIZE PUSH1 0x1F NOT PUSH1 0x1F DUP3 ADD AND DUP3 ADD DUP1 PUSH1 0x40 MSTORE POP DUP2 ADD SWAP1 PUSH2 0xD4F SWAP2 SWAP1 PUSH2 0x25D8 JUMP JUMPDEST DUP3 SLOAD PUSH1 0x40 MLOAD SWAP2 SWAP3 POP PUSH2 0xD6E SWAP2 DUP4 SWAP1 PUSH1 0x20 ADD SWAP2 DUP3 MSTORE PUSH1 0x20 DUP3 ADD MSTORE PUSH1 0x40 ADD SWAP1 JUMP JUMPDEST PUSH1 0x40 MLOAD PUSH1 0x20 DUP2 DUP4 SUB SUB DUP2 MSTORE SWAP1 PUSH1 0x40 MSTORE DUP1 MLOAD SWAP1 PUSH1 0x20 ADD KECCAK256 PUSH0 SHR SWAP3 POP POP POP SWAP1 JUMP JUMPDEST PUSH1 0x60 PUSH0 PUSH2 0xDAA DUP9 DUP9 DUP9 DUP9 DUP9 DUP9 ISZERO PUSH2 0xDA4 JUMPI DUP9 PUSH2 0x138E JUMP JUMPDEST GAS PUSH2 0x138E JUMP JUMPDEST SWAP3 POP SWAP1 POP DUP1 PUSH2 0xDBB JUMPI DUP2 MLOAD PUSH1 0x20 DUP4 ADD REVERT JUMPDEST POP SWAP7 SWAP6 POP POP POP POP POP POP JUMP JUMPDEST PUSH0 PUSH20 0x4337084D9E255FF0702461CF8895CE9E3B5FF108 PUSH1 0x40 MLOAD PUSH4 0x1AAB3F0D PUSH1 0xE1 SHL DUP2 MSTORE ADDRESS PUSH1 0x4 DUP3 ADD MSTORE PUSH0 PUSH1 0x24 DUP3 ADD MSTORE PUSH1 0x1 PUSH1 0x1 PUSH1 0xA0 SHL SUB SWAP2 SWAP1 SWAP2 AND SWAP1 PUSH4 0x35567E1A SWAP1 PUSH1 0x44 ADD PUSH1 0x20 PUSH1 0x40 MLOAD DUP1 DUP4 SUB DUP2 DUP7 GAS STATICCALL ISZERO DUP1 ISZERO PUSH2 0xE26 JUMPI RETURNDATASIZE PUSH0 PUSH0 RETURNDATACOPY RETURNDATASIZE PUSH0 REVERT JUMPDEST POP POP POP POP PUSH1 0x40 MLOAD RETURNDATASIZE PUSH1 0x1F NOT PUSH1 0x1F DUP3 ADD AND DUP3 ADD DUP1 PUSH1 0x40 MSTORE POP DUP2 ADD SWAP1 PUSH2 0xE4A SWAP2 SWAP1 PUSH2 0x25D8 JUMP JUMPDEST SWAP1 POP SWAP1 JUMP JUMPDEST PUSH2 0xE58 CALLER PUSH2 0x9A5 JUMP JUMPDEST ISZERO DUP1 ISZERO PUSH2 0xE79 JUMPI POP CALLER PUSH20 0x4337084D9E255FF0702461CF8895CE9E3B5FF108 EQ ISZERO JUMPDEST ISZERO PUSH2 0xE97 JUMPI PUSH1 0x40 MLOAD PUSH4 0x47802953 PUSH1 0xE1 SHL DUP2 MSTORE PUSH1 0x4 ADD PUSH1 0x40 MLOAD DUP1 SWAP2 SUB SWAP1 REVERT JUMPDEST PUSH1 0x1 PUSH1 0x1 PUSH1 0xA0 SHL SUB SWAP2 SWAP1 SWAP2 AND PUSH0 SWAP1 DUP2 MSTORE PUSH0 MLOAD PUSH1 0x20 PUSH2 0x2891 PUSH0 CODECOPY PUSH0 MLOAD SWAP1 PUSH0 MSTORE PUSH1 0x20 MSTORE PUSH1 0x40 SWAP1 KECCAK256 SSTORE JUMP JUMPDEST PUSH0 PUSH0 PUSH0 PUSH2 0xECA PUSH2 0x1546 JUMP JUMPDEST SWAP3 POP SWAP3 POP SWAP3 POP SWAP1 SWAP2 SWAP3 JUMP JUMPDEST PUSH0 PUSH2 0xEDF DUP3 PUSH2 0x1552 JUMP JUMPDEST DUP1 PUSH2 0x5EC JUMPI POP PUSH1 0x1 PUSH1 0x1 PUSH1 0xE0 SHL SUB NOT DUP3 AND PUSH4 0x3C1CC5F1 PUSH1 0xE0 SHL EQ SWAP3 SWAP2 POP POP JUMP JUMPDEST CALLER PUSH0 SWAP1 DUP2 MSTORE PUSH0 MLOAD PUSH1 0x20 PUSH2 0x2891 PUSH0 CODECOPY PUSH0 MLOAD SWAP1 PUSH0 MSTORE PUSH1 0x20 DUP2 SWAP1 MSTORE PUSH1 0x40 DUP3 KECCAK256 SLOAD PUSH1 0x1 GT ISZERO PUSH2 0xF3F JUMPI PUSH1 0x40 MLOAD PUSH4 0x2FCAD63B PUSH1 0xE2 SHL DUP2 MSTORE CALLER PUSH1 0x4 DUP3 ADD MSTORE PUSH1 0x24 ADD PUSH2 0x901 JUMP JUMPDEST CALLER PUSH0 SWAP1 DUP2 MSTORE PUSH1 0x20 DUP3 SWAP1 MSTORE PUSH1 0x40 DUP2 KECCAK256 DUP1 SLOAD PUSH1 0x1 SWAP3 SWAP1 PUSH2 0xF5E SWAP1 DUP5 SWAP1 PUSH2 0x2603 JUMP JUMPDEST SWAP1 SWAP2 SSTORE POP POP PUSH1 0x40 MLOAD PUSH4 0x94CEFED PUSH1 0xE0 SHL DUP2 MSTORE PUSH1 0x1 PUSH1 0x1 PUSH1 0xA0 SHL SUB PUSH32 0x0 AND SWAP1 PUSH4 0x94CEFED SWAP1 PUSH2 0xFB9 SWAP1 DUP12 SWAP1 DUP12 SWAP1 DUP12 SWAP1 DUP12 SWAP1 DUP12 SWAP1 DUP12 SWAP1 PUSH1 0x4 ADD PUSH2 0x263E JUMP JUMPDEST PUSH1 0x20 PUSH1 0x40 MLOAD DUP1 DUP4 SUB DUP2 PUSH0 DUP8 GAS CALL ISZERO DUP1 ISZERO PUSH2 0xFD5 JUMPI RETURNDATASIZE PUSH0 PUSH0 RETURNDATACOPY RETURNDATASIZE PUSH0 REVERT JUMPDEST POP POP POP POP PUSH1 0x40 MLOAD RETURNDATASIZE PUSH1 0x1F NOT PUSH1 0x1F DUP3 ADD AND DUP3 ADD DUP1 PUSH1 0x40 MSTORE POP DUP2 ADD SWAP1 PUSH2 0xFF9 SWAP2 SWAP1 PUSH2 0x25BD JUMP JUMPDEST SWAP9 SWAP8 POP POP POP POP POP POP POP POP JUMP JUMPDEST PUSH0 PUSH0 PUSH0 PUSH0 PUSH2 0x1015 DUP9 DUP9 DUP9 DUP9 PUSH2 0x157C JUMP JUMPDEST SWAP3 POP SWAP3 POP SWAP3 POP PUSH2 0x1025 DUP3 DUP3 PUSH2 0x1644 JUMP JUMPDEST POP SWAP1 SWAP7 SWAP6 POP POP POP POP POP POP JUMP JUMPDEST CALLER PUSH20 0x4337084D9E255FF0702461CF8895CE9E3B5FF108 EQ PUSH2 0x1094 JUMPI PUSH1 0x40 MLOAD PUSH3 0x461BCD PUSH1 0xE5 SHL DUP2 MSTORE PUSH1 0x20 PUSH1 0x4 DUP3 ADD MSTORE PUSH1 0x1C PUSH1 0x24 DUP3 ADD MSTORE PUSH32 0x6163636F756E743A206E6F742066726F6D20456E747279506F696E7400000000 PUSH1 0x44 DUP3 ADD MSTORE PUSH1 0x64 ADD PUSH2 0x901 JUMP JUMPDEST JUMP JUMPDEST PUSH0 PUSH1 0x4 PUSH2 0x10A6 PUSH1 0x60 DUP6 ADD DUP6 PUSH2 0x257B JUMP JUMPDEST SWAP1 POP GT ISZERO PUSH2 0x10E9 JUMPI PUSH0 PUSH2 0x10C4 PUSH2 0x10BF PUSH1 0x60 DUP7 ADD DUP7 PUSH2 0x257B JUMP JUMPDEST PUSH2 0x16FC JUMP JUMPDEST SWAP1 POP PUSH4 0xF6B31013 PUSH1 0xE0 SHL PUSH1 0x1 PUSH1 0x1 PUSH1 0xE0 SHL SUB NOT DUP3 AND ADD PUSH2 0x10E7 JUMPI PUSH0 SWAP2 POP POP PUSH2 0x5EC JUMP JUMPDEST POP JUMPDEST PUSH2 0x823 DUP4 DUP4 PUSH2 0x1713 JUMP JUMPDEST PUSH1 0x1 PUSH1 0x1 PUSH1 0x40 SHL SUB DUP2 LT PUSH2 0x1139 JUMPI PUSH1 0x40 MLOAD PUSH3 0x461BCD PUSH1 0xE5 SHL DUP2 MSTORE PUSH1 0x20 PUSH1 0x4 DUP3 ADD MSTORE PUSH1 0xD PUSH1 0x24 DUP3 ADD MSTORE PUSH13 0x496E76616C6964206E6F6E6365 PUSH1 0x98 SHL PUSH1 0x44 DUP3 ADD MSTORE PUSH1 0x64 ADD PUSH2 0x901 JUMP JUMPDEST POP JUMP JUMPDEST DUP1 ISZERO PUSH2 0x1139 JUMPI PUSH1 0x40 MLOAD PUSH0 SWAP1 CALLER SWAP1 DUP4 SWAP1 DUP4 DUP2 DUP2 DUP2 DUP6 DUP8 GAS CALL SWAP3 POP POP POP RETURNDATASIZE DUP1 PUSH0 DUP2 EQ PUSH2 0xB9E JUMPI PUSH1 0x40 MLOAD SWAP2 POP PUSH1 0x1F NOT PUSH1 0x3F RETURNDATASIZE ADD AND DUP3 ADD PUSH1 0x40 MSTORE RETURNDATASIZE DUP3 MSTORE RETURNDATASIZE PUSH0 PUSH1 0x20 DUP5 ADD RETURNDATACOPY PUSH2 0xB9E JUMP JUMPDEST PUSH2 0x1094 PUSH2 0x1031 JUMP JUMPDEST PUSH0 PUSH0 PUSH0 DUP5 MLOAD PUSH1 0x20 DUP7 ADD DUP8 DUP10 DUP8 CALL SWAP6 SWAP5 POP POP POP POP POP JUMP JUMPDEST PUSH2 0x1094 PUSH2 0x11AB PUSH0 PUSH2 0x11B0 JUMP JUMPDEST PUSH2 0x1820 JUMP JUMPDEST PUSH1 0x60 RETURNDATASIZE DUP3 ISZERO PUSH2 0x11C4 JUMPI DUP3 DUP2 GT ISZERO PUSH2 0x11C4 JUMPI POP DUP2 JUMPDEST PUSH1 0x40 MLOAD PUSH1 0x20 DUP3 ADD DUP2 ADD PUSH1 0x40 MSTORE DUP2 DUP2 MSTORE DUP2 PUSH0 PUSH1 0x20 DUP4 ADD RETURNDATACOPY SWAP4 SWAP3 POP POP POP JUMP JUMPDEST ADDRESS PUSH1 0x1 PUSH1 0x1 PUSH1 0xA0 SHL SUB PUSH32 0x0 AND EQ DUP1 PUSH2 0x1267 JUMPI POP PUSH32 0x0 PUSH1 0x1 PUSH1 0x1 PUSH1 0xA0 SHL SUB AND PUSH2 0x125B PUSH0 MLOAD PUSH1 0x20 PUSH2 0x2871 PUSH0 CODECOPY PUSH0 MLOAD SWAP1 PUSH0 MSTORE SLOAD PUSH1 0x1 PUSH1 0x1 PUSH1 0xA0 SHL SUB AND SWAP1 JUMP JUMPDEST PUSH1 0x1 PUSH1 0x1 PUSH1 0xA0 SHL SUB AND EQ ISZERO JUMPDEST ISZERO PUSH2 0x1094 JUMPI PUSH1 0x40 MLOAD PUSH4 0x703E46DD PUSH1 0xE1 SHL DUP2 MSTORE PUSH1 0x4 ADD PUSH1 0x40 MLOAD DUP1 SWAP2 SUB SWAP1 REVERT JUMPDEST PUSH2 0x128E CALLER PUSH2 0x9A5 JUMP JUMPDEST ISZERO DUP1 ISZERO PUSH2 0x12AF JUMPI POP CALLER PUSH20 0x4337084D9E255FF0702461CF8895CE9E3B5FF108 EQ ISZERO JUMPDEST ISZERO PUSH2 0x1139 JUMPI PUSH1 0x40 MLOAD PUSH4 0x47802953 PUSH1 0xE1 SHL DUP2 MSTORE PUSH1 0x4 ADD PUSH1 0x40 MLOAD DUP1 SWAP2 SUB SWAP1 REVERT JUMPDEST DUP2 PUSH1 0x1 PUSH1 0x1 PUSH1 0xA0 SHL SUB AND PUSH4 0x52D1902D PUSH1 0x40 MLOAD DUP2 PUSH4 0xFFFFFFFF AND PUSH1 0xE0 SHL DUP2 MSTORE PUSH1 0x4 ADD PUSH1 0x20 PUSH1 0x40 MLOAD DUP1 DUP4 SUB DUP2 DUP7 GAS STATICCALL SWAP3 POP POP POP DUP1 ISZERO PUSH2 0x1327 JUMPI POP PUSH1 0x40 DUP1 MLOAD PUSH1 0x1F RETURNDATASIZE SWAP1 DUP2 ADD PUSH1 0x1F NOT AND DUP3 ADD SWAP1 SWAP3 MSTORE PUSH2 0x1324 SWAP2 DUP2 ADD SWAP1 PUSH2 0x25D8 JUMP JUMPDEST PUSH1 0x1 JUMPDEST PUSH2 0x134F JUMPI PUSH1 0x40 MLOAD PUSH4 0x4C9C8CE3 PUSH1 0xE0 SHL DUP2 MSTORE PUSH1 0x1 PUSH1 0x1 PUSH1 0xA0 SHL SUB DUP4 AND PUSH1 0x4 DUP3 ADD MSTORE PUSH1 0x24 ADD PUSH2 0x901 JUMP JUMPDEST PUSH0 MLOAD PUSH1 0x20 PUSH2 0x2871 PUSH0 CODECOPY PUSH0 MLOAD SWAP1 PUSH0 MSTORE DUP2 EQ PUSH2 0x137F JUMPI PUSH1 0x40 MLOAD PUSH4 0x2A875269 PUSH1 0xE2 SHL DUP2 MSTORE PUSH1 0x4 DUP2 ADD DUP3 SWAP1 MSTORE PUSH1 0x24 ADD PUSH2 0x901 JUMP JUMPDEST PUSH2 0x1389 DUP4 DUP4 PUSH2 0x1828 JUMP JUMPDEST POP POP POP JUMP JUMPDEST PUSH32 0xE4B1C7558F331D2752F6CB495B2CF8E1B8AE3112BCC78EC0C3BFEBFBE3CD4800 DUP1 SLOAD PUSH0 SWAP2 PUSH1 0x60 SWAP2 DUP2 DUP5 PUSH2 0x13C1 DUP4 PUSH2 0x2691 JUMP JUMPDEST SWAP2 SWAP1 POP SSTORE POP PUSH2 0x13D4 DUP10 DUP10 DUP10 DUP10 DUP10 DUP10 PUSH2 0x187D JUMP JUMPDEST SWAP3 POP SWAP3 POP POP JUMPDEST SWAP7 POP SWAP7 SWAP5 POP POP POP POP POP JUMP JUMPDEST ADDRESS PUSH1 0x1 PUSH1 0x1 PUSH1 0xA0 SHL SUB PUSH32 0x0 AND EQ PUSH2 0x1094 JUMPI PUSH1 0x40 MLOAD PUSH4 0x703E46DD PUSH1 0xE1 SHL DUP2 MSTORE PUSH1 0x4 ADD PUSH1 0x40 MLOAD DUP1 SWAP2 SUB SWAP1 REVERT JUMPDEST PUSH2 0x1094 PUSH2 0x19D4 JUMP JUMPDEST PUSH2 0x143E PUSH2 0x19D4 JUMP JUMPDEST PUSH2 0x935 DUP3 DUP3 PUSH2 0x1A1D JUMP JUMPDEST PUSH32 0xA16A46D94261C7517CC8FF89F61C0CE93598E3C849801011DEE649A6A557D102 DUP1 SLOAD PUSH1 0x60 SWAP2 PUSH0 MLOAD PUSH1 0x20 PUSH2 0x2851 PUSH0 CODECOPY PUSH0 MLOAD SWAP1 PUSH0 MSTORE SWAP2 PUSH2 0x1486 SWAP1 PUSH2 0x26A9 JUMP JUMPDEST DUP1 PUSH1 0x1F ADD PUSH1 0x20 DUP1 SWAP2 DIV MUL PUSH1 0x20 ADD PUSH1 0x40 MLOAD SWAP1 DUP2 ADD PUSH1 0x40 MSTORE DUP1 SWAP3 SWAP2 SWAP1 DUP2 DUP2 MSTORE PUSH1 0x20 ADD DUP3 DUP1 SLOAD PUSH2 0x14B2 SWAP1 PUSH2 0x26A9 JUMP JUMPDEST DUP1 ISZERO PUSH2 0x14FD JUMPI DUP1 PUSH1 0x1F LT PUSH2 0x14D4 JUMPI PUSH2 0x100 DUP1 DUP4 SLOAD DIV MUL DUP4 MSTORE SWAP2 PUSH1 0x20 ADD SWAP2 PUSH2 0x14FD JUMP JUMPDEST DUP3 ADD SWAP2 SWAP1 PUSH0 MSTORE PUSH1 0x20 PUSH0 KECCAK256 SWAP1 JUMPDEST DUP2 SLOAD DUP2 MSTORE SWAP1 PUSH1 0x1 ADD SWAP1 PUSH1 0x20 ADD DUP1 DUP4 GT PUSH2 0x14E0 JUMPI DUP3 SWAP1 SUB PUSH1 0x1F AND DUP3 ADD SWAP2 JUMPDEST POP POP POP POP POP SWAP2 POP POP SWAP1 JUMP JUMPDEST PUSH32 0xA16A46D94261C7517CC8FF89F61C0CE93598E3C849801011DEE649A6A557D103 DUP1 SLOAD PUSH1 0x60 SWAP2 PUSH0 MLOAD PUSH1 0x20 PUSH2 0x2851 PUSH0 CODECOPY PUSH0 MLOAD SWAP1 PUSH0 MSTORE SWAP2 PUSH2 0x1486 SWAP1 PUSH2 0x26A9 JUMP JUMPDEST PUSH0 PUSH0 PUSH0 PUSH2 0xECA ADDRESS PUSH2 0x1A7C JUMP JUMPDEST PUSH0 PUSH2 0x155C DUP3 PUSH2 0x1AD0 JUMP JUMPDEST DUP1 PUSH2 0x5EC JUMPI POP PUSH1 0x1 PUSH1 0x1 PUSH1 0xE0 SHL SUB NOT DUP3 AND PUSH4 0x6FAFF5F1 PUSH1 0xE0 SHL EQ SWAP3 SWAP2 POP POP JUMP JUMPDEST PUSH0 DUP1 DUP1 PUSH32 0x7FFFFFFFFFFFFFFFFFFFFFFFFFFFFFFF5D576E7357A4501DDFE92F46681B20A0 DUP5 GT ISZERO PUSH2 0x15B5 JUMPI POP PUSH0 SWAP2 POP PUSH1 0x3 SWAP1 POP DUP3 PUSH2 0x163A JUMP JUMPDEST PUSH1 0x40 DUP1 MLOAD PUSH0 DUP1 DUP3 MSTORE PUSH1 0x20 DUP3 ADD DUP1 DUP5 MSTORE DUP11 SWAP1 MSTORE PUSH1 0xFF DUP10 AND SWAP3 DUP3 ADD SWAP3 SWAP1 SWAP3 MSTORE PUSH1 0x60 DUP2 ADD DUP8 SWAP1 MSTORE PUSH1 0x80 DUP2 ADD DUP7 SWAP1 MSTORE PUSH1 0x1 SWAP1 PUSH1 0xA0 ADD PUSH1 0x20 PUSH1 0x40 MLOAD PUSH1 0x20 DUP2 SUB SWAP1 DUP1 DUP5 SUB SWAP1 DUP6 GAS STATICCALL ISZERO DUP1 ISZERO PUSH2 0x1606 JUMPI RETURNDATASIZE PUSH0 PUSH0 RETURNDATACOPY RETURNDATASIZE PUSH0 REVERT JUMPDEST POP POP PUSH1 0x40 MLOAD PUSH1 0x1F NOT ADD MLOAD SWAP2 POP POP PUSH1 0x1 PUSH1 0x1 PUSH1 0xA0 SHL SUB DUP2 AND PUSH2 0x1631 JUMPI POP PUSH0 SWAP3 POP PUSH1 0x1 SWAP2 POP DUP3 SWAP1 POP PUSH2 0x163A JUMP JUMPDEST SWAP3 POP PUSH0 SWAP2 POP DUP2 SWAP1 POP JUMPDEST SWAP5 POP SWAP5 POP SWAP5 SWAP2 POP POP JUMP JUMPDEST PUSH0 DUP3 PUSH1 0x3 DUP2 GT ISZERO PUSH2 0x1657 JUMPI PUSH2 0x1657 PUSH2 0x26E1 JUMP JUMPDEST SUB PUSH2 0x1660 JUMPI POP POP JUMP JUMPDEST PUSH1 0x1 DUP3 PUSH1 0x3 DUP2 GT ISZERO PUSH2 0x1674 JUMPI PUSH2 0x1674 PUSH2 0x26E1 JUMP JUMPDEST SUB PUSH2 0x1692 JUMPI PUSH1 0x40 MLOAD PUSH4 0xF645EEDF PUSH1 0xE0 SHL DUP2 MSTORE PUSH1 0x4 ADD PUSH1 0x40 MLOAD DUP1 SWAP2 SUB SWAP1 REVERT JUMPDEST PUSH1 0x2 DUP3 PUSH1 0x3 DUP2 GT ISZERO PUSH2 0x16A6 JUMPI PUSH2 0x16A6 PUSH2 0x26E1 JUMP JUMPDEST SUB PUSH2 0x16C7 JUMPI PUSH1 0x40 MLOAD PUSH4 0xFCE698F7 PUSH1 0xE0 SHL DUP2 MSTORE PUSH1 0x4 DUP2 ADD DUP3 SWAP1 MSTORE PUSH1 0x24 ADD PUSH2 0x901 JUMP JUMPDEST PUSH1 0x3 DUP3 PUSH1 0x3 DUP2 GT ISZERO PUSH2 0x16DB JUMPI PUSH2 0x16DB PUSH2 0x26E1 JUMP JUMPDEST SUB PUSH2 0x935 JUMPI PUSH1 0x40 MLOAD PUSH4 0x35E2F383 PUSH1 0xE2 SHL DUP2 MSTORE PUSH1 0x4 DUP2 ADD DUP3 SWAP1 MSTORE PUSH1 0x24 ADD PUSH2 0x901 JUMP JUMPDEST PUSH0 PUSH1 0x4 DUP3 LT ISZERO PUSH2 0x170D JUMPI POP PUSH0 PUSH2 0x5EC JUMP JUMPDEST POP POP CALLDATALOAD SWAP1 JUMP JUMPDEST PUSH0 DUP1 DUP1 PUSH2 0x1761 DUP5 PUSH2 0x1728 PUSH2 0x100 DUP9 ADD DUP9 PUSH2 0x257B JUMP JUMPDEST DUP1 DUP1 PUSH1 0x1F ADD PUSH1 0x20 DUP1 SWAP2 DIV MUL PUSH1 0x20 ADD PUSH1 0x40 MLOAD SWAP1 DUP2 ADD PUSH1 0x40 MSTORE DUP1 SWAP4 SWAP3 SWAP2 SWAP1 DUP2 DUP2 MSTORE PUSH1 0x20 ADD DUP4 DUP4 DUP1 DUP3 DUP5 CALLDATACOPY PUSH0 SWAP3 ADD SWAP2 SWAP1 SWAP2 MSTORE POP PUSH2 0x1B71 SWAP3 POP POP POP JUMP JUMPDEST POP SWAP1 SWAP3 POP SWAP1 POP PUSH0 DUP2 PUSH1 0x3 DUP2 GT ISZERO PUSH2 0x177A JUMPI PUSH2 0x177A PUSH2 0x26E1 JUMP JUMPDEST EQ DUP1 ISZERO PUSH2 0x178B JUMPI POP PUSH2 0x178B DUP3 PUSH2 0x9A5 JUMP JUMPDEST ISZERO PUSH2 0x179A JUMPI PUSH0 SWAP3 POP POP POP PUSH2 0x5EC JUMP JUMPDEST PUSH32 0x19457468657265756D205369676E6564204D6573736167653A0A333200000000 PUSH0 SWAP1 DUP2 MSTORE PUSH1 0x1C DUP6 SWAP1 MSTORE PUSH1 0x3C SWAP1 KECCAK256 PUSH2 0x17DA DUP2 PUSH2 0x1728 PUSH2 0x100 DUP10 ADD DUP10 PUSH2 0x257B JUMP JUMPDEST POP SWAP1 SWAP4 POP SWAP2 POP PUSH0 DUP3 PUSH1 0x3 DUP2 GT ISZERO PUSH2 0x17F3 JUMPI PUSH2 0x17F3 PUSH2 0x26E1 JUMP JUMPDEST EQ DUP1 ISZERO PUSH2 0x1804 JUMPI POP PUSH2 0x1804 DUP4 PUSH2 0x9A5 JUMP JUMPDEST ISZERO PUSH2 0x1814 JUMPI PUSH0 SWAP4 POP POP POP POP PUSH2 0x5EC JUMP JUMPDEST POP PUSH1 0x1 SWAP6 SWAP5 POP POP POP POP POP JUMP JUMPDEST DUP1 MLOAD PUSH1 0x20 DUP3 ADD REVERT JUMPDEST PUSH2 0x1831 DUP3 PUSH2 0x1BBA JUMP JUMPDEST PUSH1 0x40 MLOAD PUSH1 0x1 PUSH1 0x1 PUSH1 0xA0 SHL SUB DUP4 AND SWAP1 PUSH32 0xBC7CD75A20EE27FD9ADEBAB32041F755214DBC6BFFA90CC0225B39DA2E5C2D3B SWAP1 PUSH0 SWAP1 LOG2 DUP1 MLOAD ISZERO PUSH2 0x1875 JUMPI PUSH2 0x1389 DUP3 DUP3 PUSH2 0x1C1D JUMP JUMPDEST PUSH2 0x935 PUSH2 0x1C8F JUMP JUMPDEST PUSH0 PUSH1 0x60 PUSH2 0x1889 CALLER PUSH2 0x9A5 JUMP JUMPDEST ISZERO DUP1 ISZERO PUSH2 0x18AA JUMPI POP CALLER PUSH20 0x4337084D9E255FF0702461CF8895CE9E3B5FF108 EQ ISZERO JUMPDEST ISZERO PUSH2 0x18C8 JUMPI PUSH1 0x40 MLOAD PUSH4 0x47802953 PUSH1 0xE1 SHL DUP2 MSTORE PUSH1 0x4 ADD PUSH1 0x40 MLOAD DUP1 SWAP2 SUB SWAP1 REVERT JUMPDEST DUP4 PUSH1 0xFF AND PUSH0 SUB PUSH2 0x1939 JUMPI DUP8 PUSH1 0x1 PUSH1 0x1 PUSH1 0xA0 SHL SUB AND DUP4 DUP9 DUP9 DUP9 PUSH1 0x40 MLOAD PUSH2 0x18EE SWAP3 SWAP2 SWAP1 PUSH2 0x26F5 JUMP JUMPDEST PUSH0 PUSH1 0x40 MLOAD DUP1 DUP4 SUB DUP2 DUP6 DUP9 DUP9 CALL SWAP4 POP POP POP POP RETURNDATASIZE DUP1 PUSH0 DUP2 EQ PUSH2 0x1929 JUMPI PUSH1 0x40 MLOAD SWAP2 POP PUSH1 0x1F NOT PUSH1 0x3F RETURNDATASIZE ADD AND DUP3 ADD PUSH1 0x40 MSTORE RETURNDATASIZE DUP3 MSTORE RETURNDATASIZE PUSH0 PUSH1 0x20 DUP5 ADD RETURNDATACOPY PUSH2 0x192E JUMP JUMPDEST PUSH1 0x60 SWAP2 POP JUMPDEST POP SWAP1 SWAP3 POP SWAP1 POP PUSH2 0x13DA JUMP JUMPDEST DUP4 PUSH1 0xFF AND PUSH1 0x1 SUB PUSH2 0x1998 JUMPI DUP8 PUSH1 0x1 PUSH1 0x1 PUSH1 0xA0 SHL SUB AND DUP4 DUP8 DUP8 PUSH1 0x40 MLOAD PUSH2 0x195F SWAP3 SWAP2 SWAP1 PUSH2 0x26F5 JUMP JUMPDEST PUSH0 PUSH1 0x40 MLOAD DUP1 DUP4 SUB DUP2 DUP7 DUP7 DELEGATECALL SWAP3 POP POP POP RETURNDATASIZE DUP1 PUSH0 DUP2 EQ PUSH2 0x1929 JUMPI PUSH1 0x40 MLOAD SWAP2 POP PUSH1 0x1F NOT PUSH1 0x3F RETURNDATASIZE ADD AND DUP3 ADD PUSH1 0x40 MSTORE RETURNDATASIZE DUP3 MSTORE RETURNDATASIZE PUSH0 PUSH1 0x20 DUP5 ADD RETURNDATACOPY PUSH2 0x192E JUMP JUMPDEST PUSH1 0x40 MLOAD PUSH3 0x461BCD PUSH1 0xE5 SHL DUP2 MSTORE PUSH1 0x20 PUSH1 0x4 DUP3 ADD MSTORE PUSH1 0x11 PUSH1 0x24 DUP3 ADD MSTORE PUSH17 0x24B73B30B634B21037B832B930BA34B7B7 PUSH1 0x79 SHL PUSH1 0x44 DUP3 ADD MSTORE PUSH1 0x64 ADD PUSH2 0x901 JUMP JUMPDEST PUSH32 0xF0C57E16840DF040F15088DC2F81FE391C3923BEC73E23A9662EFC9C229C6A00 SLOAD PUSH1 0x1 PUSH1 0x40 SHL SWAP1 DIV PUSH1 0xFF AND PUSH2 0x1094 JUMPI PUSH1 0x40 MLOAD PUSH4 0x1AFCD79F PUSH1 0xE3 SHL DUP2 MSTORE PUSH1 0x4 ADD PUSH1 0x40 MLOAD DUP1 SWAP2 SUB SWAP1 REVERT JUMPDEST PUSH2 0x1A25 PUSH2 0x19D4 JUMP JUMPDEST PUSH0 MLOAD PUSH1 0x20 PUSH2 0x2851 PUSH0 CODECOPY PUSH0 MLOAD SWAP1 PUSH0 MSTORE PUSH32 0xA16A46D94261C7517CC8FF89F61C0CE93598E3C849801011DEE649A6A557D102 PUSH2 0x1A5E DUP5 DUP3 PUSH2 0x2748 JUMP JUMPDEST POP PUSH1 0x3 DUP2 ADD PUSH2 0x1A6D DUP4 DUP3 PUSH2 0x2748 JUMP JUMPDEST POP PUSH0 DUP1 DUP3 SSTORE PUSH1 0x1 SWAP1 SWAP2 ADD SSTORE POP POP JUMP JUMPDEST PUSH1 0x40 DUP1 MLOAD PUSH1 0x60 DUP1 DUP3 MSTORE PUSH1 0x80 DUP3 ADD SWAP1 SWAP3 MSTORE PUSH0 SWAP2 DUP3 SWAP2 DUP3 SWAP2 DUP3 SWAP2 SWAP1 PUSH1 0x20 DUP3 ADD DUP2 DUP1 CALLDATASIZE DUP4 CALLDATACOPY ADD SWAP1 POP POP SWAP1 POP PUSH1 0x60 PUSH1 0x4D PUSH1 0x20 DUP4 ADD DUP8 EXTCODECOPY DUP1 DUP1 PUSH1 0x20 ADD SWAP1 MLOAD DUP2 ADD SWAP1 PUSH2 0x1AC2 SWAP2 SWAP1 PUSH2 0x2802 JUMP JUMPDEST SWAP4 POP SWAP4 POP SWAP4 POP POP SWAP2 SWAP4 SWAP1 SWAP3 POP JUMP JUMPDEST PUSH0 PUSH1 0x1 PUSH1 0x1 PUSH1 0xE0 SHL SUB NOT DUP3 AND PUSH4 0x3CE4A3E9 PUSH1 0xE0 SHL EQ DUP1 PUSH2 0x1B00 JUMPI POP PUSH1 0x1 PUSH1 0x1 PUSH1 0xE0 SHL SUB NOT DUP3 AND PUSH4 0x1FFC9A7 PUSH1 0xE0 SHL EQ JUMPDEST DUP1 PUSH2 0x1B1B JUMPI POP PUSH1 0x1 PUSH1 0x1 PUSH1 0xE0 SHL SUB NOT DUP3 AND PUSH4 0x6608BDF PUSH1 0xE2 SHL EQ JUMPDEST DUP1 PUSH2 0x1B36 JUMPI POP PUSH1 0x1 PUSH1 0x1 PUSH1 0xE0 SHL SUB NOT DUP3 AND PUSH4 0xB135D3F PUSH1 0xE1 SHL EQ JUMPDEST DUP1 PUSH2 0x1B51 JUMPI POP PUSH1 0x1 PUSH1 0x1 PUSH1 0xE0 SHL SUB NOT DUP3 AND PUSH4 0x2711897 PUSH1 0xE5 SHL EQ JUMPDEST DUP1 PUSH2 0x5EC JUMPI POP PUSH1 0x1 PUSH1 0x1 PUSH1 0xE0 SHL SUB NOT DUP3 AND PUSH4 0x51945447 PUSH1 0xE0 SHL EQ SWAP3 SWAP2 POP POP JUMP JUMPDEST PUSH0 PUSH0 PUSH0 DUP4 MLOAD PUSH1 0x41 SUB PUSH2 0x1BA8 JUMPI PUSH1 0x20 DUP5 ADD MLOAD PUSH1 0x40 DUP6 ADD MLOAD PUSH1 0x60 DUP7 ADD MLOAD PUSH0 BYTE PUSH2 0x1B9A DUP9 DUP3 DUP6 DUP6 PUSH2 0x157C JUMP JUMPDEST SWAP6 POP SWAP6 POP SWAP6 POP POP POP POP PUSH2 0x1BB3 JUMP JUMPDEST POP POP DUP2 MLOAD PUSH0 SWAP2 POP PUSH1 0x2 SWAP1 JUMPDEST SWAP3 POP SWAP3 POP SWAP3 JUMP JUMPDEST DUP1 PUSH1 0x1 PUSH1 0x1 PUSH1 0xA0 SHL SUB AND EXTCODESIZE PUSH0 SUB PUSH2 0x1BEF JUMPI PUSH1 0x40 MLOAD PUSH4 0x4C9C8CE3 PUSH1 0xE0 SHL DUP2 MSTORE PUSH1 0x1 PUSH1 0x1 PUSH1 0xA0 SHL SUB DUP3 AND PUSH1 0x4 DUP3 ADD MSTORE PUSH1 0x24 ADD PUSH2 0x901 JUMP JUMPDEST PUSH0 MLOAD PUSH1 0x20 PUSH2 0x2871 PUSH0 CODECOPY PUSH0 MLOAD SWAP1 PUSH0 MSTORE DUP1 SLOAD PUSH1 0x1 PUSH1 0x1 PUSH1 0xA0 SHL SUB NOT AND PUSH1 0x1 PUSH1 0x1 PUSH1 0xA0 SHL SUB SWAP3 SWAP1 SWAP3 AND SWAP2 SWAP1 SWAP2 OR SWAP1 SSTORE JUMP JUMPDEST PUSH1 0x60 PUSH0 PUSH0 DUP5 PUSH1 0x1 PUSH1 0x1 PUSH1 0xA0 SHL SUB AND DUP5 PUSH1 0x40 MLOAD PUSH2 0x1C39 SWAP2 SWAP1 PUSH2 0x283A JUMP JUMPDEST PUSH0 PUSH1 0x40 MLOAD DUP1 DUP4 SUB DUP2 DUP6 GAS DELEGATECALL SWAP2 POP POP RETURNDATASIZE DUP1 PUSH0 DUP2 EQ PUSH2 0x1C71 JUMPI PUSH1 0x40 MLOAD SWAP2 POP PUSH1 0x1F NOT PUSH1 0x3F RETURNDATASIZE ADD AND DUP3 ADD PUSH1 0x40 MSTORE RETURNDATASIZE DUP3 MSTORE RETURNDATASIZE PUSH0 PUSH1 0x20 DUP5 ADD RETURNDATACOPY PUSH2 0x1C76 JUMP JUMPDEST PUSH1 0x60 SWAP2 POP JUMPDEST POP SWAP2 POP SWAP2 POP PUSH2 0x1C86 DUP6 DUP4 DUP4 PUSH2 0x1CAE JUMP JUMPDEST SWAP6 SWAP5 POP POP POP POP POP JUMP JUMPDEST CALLVALUE ISZERO PUSH2 0x1094 JUMPI PUSH1 0x40 MLOAD PUSH4 0xB398979F PUSH1 0xE0 SHL DUP2 MSTORE PUSH1 0x4 ADD PUSH1 0x40 MLOAD DUP1 SWAP2 SUB SWAP1 REVERT JUMPDEST PUSH1 0x60 DUP3 PUSH2 0x1CC3 JUMPI PUSH2 0x1CBE DUP3 PUSH2 0x1D0A JUMP JUMPDEST PUSH2 0x823 JUMP JUMPDEST DUP2 MLOAD ISZERO DUP1 ISZERO PUSH2 0x1CDA JUMPI POP PUSH1 0x1 PUSH1 0x1 PUSH1 0xA0 SHL SUB DUP5 AND EXTCODESIZE ISZERO JUMPDEST ISZERO PUSH2 0x1D03 JUMPI PUSH1 0x40 MLOAD PUSH4 0x9996B315 PUSH1 0xE0 SHL DUP2 MSTORE PUSH1 0x1 PUSH1 0x1 PUSH1 0xA0 SHL SUB DUP6 AND PUSH1 0x4 DUP3 ADD MSTORE PUSH1 0x24 ADD PUSH2 0x901 JUMP JUMPDEST POP DUP1 PUSH2 0x823 JUMP JUMPDEST DUP1 MLOAD ISZERO PUSH2 0x1D1A JUMPI DUP1 MLOAD DUP1 DUP3 PUSH1 0x20 ADD REVERT JUMPDEST PUSH1 0x40 MLOAD PUSH4 0xD6BDA275 PUSH1 0xE0 SHL DUP2 MSTORE PUSH1 0x4 ADD PUSH1 0x40 MLOAD DUP1 SWAP2 SUB SWAP1 REVERT JUMPDEST PUSH1 0x1 PUSH1 0x1 PUSH1 0xA0 SHL SUB DUP2 AND DUP2 EQ PUSH2 0x1139 JUMPI PUSH0 PUSH0 REVERT JUMPDEST PUSH0 PUSH0 DUP4 PUSH1 0x1F DUP5 ADD SLT PUSH2 0x1D57 JUMPI PUSH0 PUSH0 REVERT JUMPDEST POP DUP2 CALLDATALOAD PUSH1 0x1 PUSH1 0x1 PUSH1 0x40 SHL SUB DUP2 GT ISZERO PUSH2 0x1D6D JUMPI PUSH0 PUSH0 REVERT JUMPDEST PUSH1 0x20 DUP4 ADD SWAP2 POP DUP4 PUSH1 0x20 DUP3 DUP6 ADD ADD GT ISZERO PUSH2 0x1D84 JUMPI PUSH0 PUSH0 REVERT JUMPDEST SWAP3 POP SWAP3 SWAP1 POP JUMP JUMPDEST PUSH0 PUSH0 PUSH0 PUSH0 PUSH0 PUSH0 PUSH0 PUSH0 PUSH1 0xC0 DUP10 DUP12 SUB SLT ISZERO PUSH2 0x1DA2 JUMPI PUSH0 PUSH0 REVERT JUMPDEST DUP9 CALLDATALOAD PUSH2 0x1DAD DUP2 PUSH2 0x1D33 JUMP JUMPDEST SWAP8 POP PUSH1 0x20 DUP10 ADD CALLDATALOAD PUSH2 0x1DBD DUP2 PUSH2 0x1D33 JUMP JUMPDEST SWAP7 POP PUSH1 0x40 DUP10 ADD CALLDATALOAD PUSH2 0x1DCD DUP2 PUSH2 0x1D33 JUMP JUMPDEST SWAP6 POP PUSH1 0x60 DUP10 ADD CALLDATALOAD SWAP5 POP PUSH1 0x80 DUP10 ADD CALLDATALOAD PUSH1 0x1 PUSH1 0x1 PUSH1 0x40 SHL SUB DUP2 GT ISZERO PUSH2 0x1DEE JUMPI PUSH0 PUSH0 REVERT JUMPDEST PUSH2 0x1DFA DUP12 DUP3 DUP13 ADD PUSH2 0x1D47 JUMP JUMPDEST SWAP1 SWAP6 POP SWAP4 POP POP PUSH1 0xA0 DUP10 ADD CALLDATALOAD PUSH1 0x1 PUSH1 0x1 PUSH1 0x40 SHL SUB DUP2 GT ISZERO PUSH2 0x1E18 JUMPI PUSH0 PUSH0 REVERT JUMPDEST PUSH2 0x1E24 DUP12 DUP3 DUP13 ADD PUSH2 0x1D47 JUMP JUMPDEST SWAP10 SWAP13 SWAP9 SWAP12 POP SWAP7 SWAP10 POP SWAP5 SWAP8 SWAP4 SWAP7 SWAP3 SWAP6 SWAP5 POP POP POP JUMP JUMPDEST PUSH1 0x1 PUSH1 0x1 PUSH1 0xE0 SHL SUB NOT DUP2 AND DUP2 EQ PUSH2 0x1139 JUMPI PUSH0 PUSH0 REVERT JUMPDEST PUSH0 PUSH1 0x20 DUP3 DUP5 SUB SLT ISZERO PUSH2 0x1E5D JUMPI PUSH0 PUSH0 REVERT JUMPDEST DUP2 CALLDATALOAD PUSH2 0x823 DUP2 PUSH2 0x1E38 JUMP JUMPDEST PUSH0 PUSH0 PUSH0 PUSH0 PUSH0 PUSH0 PUSH1 0x80 DUP8 DUP10 SUB SLT ISZERO PUSH2 0x1E7D JUMPI PUSH0 PUSH0 REVERT JUMPDEST DUP7 CALLDATALOAD PUSH2 0x1E88 DUP2 PUSH2 0x1D33 JUMP JUMPDEST SWAP6 POP PUSH1 0x20 DUP8 ADD CALLDATALOAD PUSH1 0x1 PUSH1 0x1 PUSH1 0x40 SHL SUB DUP2 GT ISZERO PUSH2 0x1EA2 JUMPI PUSH0 PUSH0 REVERT JUMPDEST PUSH2 0x1EAE DUP10 DUP3 DUP11 ADD PUSH2 0x1D47 JUMP JUMPDEST SWAP1 SWAP7 POP SWAP5 POP POP PUSH1 0x40 DUP8 ADD CALLDATALOAD PUSH1 0x1 PUSH1 0x1 PUSH1 0x40 SHL SUB DUP2 GT ISZERO PUSH2 0x1ECC JUMPI PUSH0 PUSH0 REVERT JUMPDEST PUSH2 0x1ED8 DUP10 DUP3 DUP11 ADD PUSH2 0x1D47 JUMP JUMPDEST SWAP1 SWAP5 POP SWAP3 POP POP PUSH1 0x60 DUP8 ADD CALLDATALOAD PUSH2 0x1EEC DUP2 PUSH2 0x1D33 JUMP JUMPDEST DUP1 SWAP2 POP POP SWAP3 SWAP6 POP SWAP3 SWAP6 POP SWAP3 SWAP6 JUMP JUMPDEST PUSH0 PUSH1 0x20 DUP3 DUP5 SUB SLT ISZERO PUSH2 0x1F0A JUMPI PUSH0 PUSH0 REVERT JUMPDEST DUP2 CALLDATALOAD PUSH2 0x823 DUP2 PUSH2 0x1D33 JUMP JUMPDEST PUSH0 PUSH0 PUSH0 PUSH0 PUSH0 PUSH1 0x80 DUP7 DUP9 SUB SLT ISZERO PUSH2 0x1F29 JUMPI PUSH0 PUSH0 REVERT JUMPDEST DUP6 CALLDATALOAD PUSH2 0x1F34 DUP2 PUSH2 0x1D33 JUMP JUMPDEST SWAP5 POP PUSH1 0x20 DUP7 ADD CALLDATALOAD PUSH2 0x1F44 DUP2 PUSH2 0x1D33 JUMP JUMPDEST SWAP4 POP PUSH1 0x40 DUP7 ADD CALLDATALOAD SWAP3 POP PUSH1 0x60 DUP7 ADD CALLDATALOAD PUSH1 0x1 PUSH1 0x1 PUSH1 0x40 SHL SUB DUP2 GT ISZERO PUSH2 0x1F65 JUMPI PUSH0 PUSH0 REVERT JUMPDEST PUSH2 0x1F71 DUP9 DUP3 DUP10 ADD PUSH2 0x1D47 JUMP JUMPDEST SWAP7 SWAP10 SWAP6 SWAP9 POP SWAP4 SWAP7 POP SWAP3 SWAP5 SWAP4 SWAP3 POP POP POP JUMP JUMPDEST PUSH4 0x4E487B71 PUSH1 0xE0 SHL PUSH0 MSTORE PUSH1 0x41 PUSH1 0x4 MSTORE PUSH1 0x24 PUSH0 REVERT JUMPDEST PUSH0 DUP3 PUSH1 0x1F DUP4 ADD SLT PUSH2 0x1FA5 JUMPI PUSH0 PUSH0 REVERT JUMPDEST DUP2 CALLDATALOAD PUSH1 0x1 PUSH1 0x1 PUSH1 0x40 SHL SUB DUP2 GT ISZERO PUSH2 0x1FBE JUMPI PUSH2 0x1FBE PUSH2 0x1F82 JUMP JUMPDEST PUSH1 0x40 MLOAD PUSH1 0x1F DUP3 ADD PUSH1 0x1F NOT SWAP1 DUP2 AND PUSH1 0x3F ADD AND DUP2 ADD PUSH1 0x1 PUSH1 0x1 PUSH1 0x40 SHL SUB DUP2 GT DUP3 DUP3 LT OR ISZERO PUSH2 0x1FEC JUMPI PUSH2 0x1FEC PUSH2 0x1F82 JUMP JUMPDEST PUSH1 0x40 MSTORE DUP2 DUP2 MSTORE DUP4 DUP3 ADD PUSH1 0x20 ADD DUP6 LT ISZERO PUSH2 0x2003 JUMPI PUSH0 PUSH0 REVERT JUMPDEST DUP2 PUSH1 0x20 DUP6 ADD PUSH1 0x20 DUP4 ADD CALLDATACOPY PUSH0 SWAP2 DUP2 ADD PUSH1 0x20 ADD SWAP2 SWAP1 SWAP2 MSTORE SWAP4 SWAP3 POP POP POP JUMP JUMPDEST PUSH0 PUSH0 PUSH1 0x40 DUP4 DUP6 SUB SLT ISZERO PUSH2 0x2030 JUMPI PUSH0 PUSH0 REVERT JUMPDEST DUP3 CALLDATALOAD SWAP2 POP PUSH1 0x20 DUP4 ADD CALLDATALOAD PUSH1 0x1 PUSH1 0x1 PUSH1 0x40 SHL SUB DUP2 GT ISZERO PUSH2 0x204C JUMPI PUSH0 PUSH0 REVERT JUMPDEST PUSH2 0x2058 DUP6 DUP3 DUP7 ADD PUSH2 0x1F96 JUMP JUMPDEST SWAP2 POP POP SWAP3 POP SWAP3 SWAP1 POP JUMP JUMPDEST PUSH0 PUSH0 PUSH0 PUSH1 0x60 DUP5 DUP7 SUB SLT ISZERO PUSH2 0x2074 JUMPI PUSH0 PUSH0 REVERT JUMPDEST DUP4 CALLDATALOAD PUSH1 0x1 PUSH1 0x1 PUSH1 0x40 SHL SUB DUP2 GT ISZERO PUSH2 0x2089 JUMPI PUSH0 PUSH0 REVERT JUMPDEST DUP5 ADD PUSH2 0x120 DUP2 DUP8 SUB SLT ISZERO PUSH2 0x209B JUMPI PUSH0 PUSH0 REVERT JUMPDEST SWAP6 PUSH1 0x20 DUP6 ADD CALLDATALOAD SWAP6 POP PUSH1 0x40 SWAP1 SWAP5 ADD CALLDATALOAD SWAP4 SWAP3 POP POP POP JUMP JUMPDEST PUSH0 PUSH0 DUP4 PUSH1 0x1F DUP5 ADD SLT PUSH2 0x20C0 JUMPI PUSH0 PUSH0 REVERT JUMPDEST POP DUP2 CALLDATALOAD PUSH1 0x1 PUSH1 0x1 PUSH1 0x40 SHL SUB DUP2 GT ISZERO PUSH2 0x20D6 JUMPI PUSH0 PUSH0 REVERT JUMPDEST PUSH1 0x20 DUP4 ADD SWAP2 POP DUP4 PUSH1 0x20 DUP3 PUSH1 0x5 SHL DUP6 ADD ADD GT ISZERO PUSH2 0x1D84 JUMPI PUSH0 PUSH0 REVERT JUMPDEST PUSH0 PUSH0 PUSH1 0x20 DUP4 DUP6 SUB SLT ISZERO PUSH2 0x2101 JUMPI PUSH0 PUSH0 REVERT JUMPDEST DUP3 CALLDATALOAD PUSH1 0x1 PUSH1 0x1 PUSH1 0x40 SHL SUB DUP2 GT ISZERO PUSH2 0x2116 JUMPI PUSH0 PUSH0 REVERT JUMPDEST PUSH2 0x2122 DUP6 DUP3 DUP7 ADD PUSH2 0x20B0 JUMP JUMPDEST SWAP1 SWAP7 SWAP1 SWAP6 POP SWAP4 POP POP POP POP JUMP JUMPDEST PUSH0 PUSH0 PUSH1 0x40 DUP4 DUP6 SUB SLT ISZERO PUSH2 0x213F JUMPI PUSH0 PUSH0 REVERT JUMPDEST DUP3 CALLDATALOAD PUSH2 0x214A DUP2 PUSH2 0x1D33 JUMP JUMPDEST SWAP2 POP PUSH1 0x20 DUP4 ADD CALLDATALOAD PUSH1 0x1 PUSH1 0x1 PUSH1 0x40 SHL SUB DUP2 GT ISZERO PUSH2 0x204C JUMPI PUSH0 PUSH0 REVERT JUMPDEST DUP1 CALLDATALOAD PUSH1 0xFF DUP2 AND DUP2 EQ PUSH2 0x2174 JUMPI PUSH0 PUSH0 REVERT JUMPDEST SWAP2 SWAP1 POP JUMP JUMPDEST PUSH0 PUSH0 PUSH0 PUSH0 PUSH0 PUSH1 0x80 DUP7 DUP9 SUB SLT ISZERO PUSH2 0x218D JUMPI PUSH0 PUSH0 REVERT JUMPDEST DUP6 CALLDATALOAD PUSH2 0x2198 DUP2 PUSH2 0x1D33 JUMP JUMPDEST SWAP5 POP PUSH1 0x20 DUP7 ADD CALLDATALOAD SWAP4 POP PUSH1 0x40 DUP7 ADD CALLDATALOAD PUSH1 0x1 PUSH1 0x1 PUSH1 0x40 SHL SUB DUP2 GT ISZERO PUSH2 0x21B9 JUMPI PUSH0 PUSH0 REVERT JUMPDEST PUSH2 0x21C5 DUP9 DUP3 DUP10 ADD PUSH2 0x1D47 JUMP JUMPDEST SWAP1 SWAP5 POP SWAP3 POP PUSH2 0x21D8 SWAP1 POP PUSH1 0x60 DUP8 ADD PUSH2 0x2164 JUMP JUMPDEST SWAP1 POP SWAP3 SWAP6 POP SWAP3 SWAP6 SWAP1 SWAP4 POP JUMP JUMPDEST PUSH0 DUP2 MLOAD DUP1 DUP5 MSTORE DUP1 PUSH1 0x20 DUP5 ADD PUSH1 0x20 DUP7 ADD MCOPY PUSH0 PUSH1 0x20 DUP3 DUP7 ADD ADD MSTORE PUSH1 0x20 PUSH1 0x1F NOT PUSH1 0x1F DUP4 ADD AND DUP6 ADD ADD SWAP2 POP POP SWAP3 SWAP2 POP POP JUMP JUMPDEST PUSH1 0x20 DUP2 MSTORE PUSH0 PUSH2 0x823 PUSH1 0x20 DUP4 ADD DUP5 PUSH2 0x21E4 JUMP JUMPDEST PUSH0 PUSH0 PUSH0 PUSH1 0x40 DUP5 DUP7 SUB SLT ISZERO PUSH2 0x2236 JUMPI PUSH0 PUSH0 REVERT JUMPDEST DUP4 CALLDATALOAD PUSH2 0x2241 DUP2 PUSH2 0x1D33 JUMP JUMPDEST SWAP3 POP PUSH1 0x20 DUP5 ADD CALLDATALOAD PUSH1 0x1 PUSH1 0x1 PUSH1 0x40 SHL SUB DUP2 GT ISZERO PUSH2 0x225B JUMPI PUSH0 PUSH0 REVERT JUMPDEST PUSH2 0x2267 DUP7 DUP3 DUP8 ADD PUSH2 0x1D47 JUMP JUMPDEST SWAP5 SWAP8 SWAP1 SWAP7 POP SWAP4 SWAP5 POP POP POP POP JUMP JUMPDEST PUSH1 0xFF PUSH1 0xF8 SHL DUP9 AND DUP2 MSTORE PUSH1 0xE0 PUSH1 0x20 DUP3 ADD MSTORE PUSH0 PUSH2 0x2292 PUSH1 0xE0 DUP4 ADD DUP10 PUSH2 0x21E4 JUMP JUMPDEST DUP3 DUP2 SUB PUSH1 0x40 DUP5 ADD MSTORE PUSH2 0x22A4 DUP2 DUP10 PUSH2 0x21E4 JUMP JUMPDEST PUSH1 0x60 DUP5 ADD DUP9 SWAP1 MSTORE PUSH1 0x1 PUSH1 0x1 PUSH1 0xA0 SHL SUB DUP8 AND PUSH1 0x80 DUP6 ADD MSTORE PUSH1 0xA0 DUP5 ADD DUP7 SWAP1 MSTORE DUP4 DUP2 SUB PUSH1 0xC0 DUP6 ADD MSTORE DUP5 MLOAD DUP1 DUP3 MSTORE PUSH1 0x20 DUP1 DUP8 ADD SWAP4 POP SWAP1 SWAP2 ADD SWAP1 PUSH0 JUMPDEST DUP2 DUP2 LT ISZERO PUSH2 0x22F9 JUMPI DUP4 MLOAD DUP4 MSTORE PUSH1 0x20 SWAP4 DUP5 ADD SWAP4 SWAP1 SWAP3 ADD SWAP2 PUSH1 0x1 ADD PUSH2 0x22DB JUMP JUMPDEST POP SWAP1 SWAP12 SWAP11 POP POP POP POP POP POP POP POP POP POP POP JUMP JUMPDEST PUSH0 PUSH0 PUSH0 PUSH0 PUSH1 0x60 DUP6 DUP8 SUB SLT ISZERO PUSH2 0x231D JUMPI PUSH0 PUSH0 REVERT JUMPDEST DUP5 CALLDATALOAD PUSH2 0x2328 DUP2 PUSH2 0x1D33 JUMP JUMPDEST SWAP4 POP PUSH1 0x20 DUP6 ADD CALLDATALOAD SWAP3 POP PUSH1 0x40 DUP6 ADD CALLDATALOAD PUSH1 0x1 PUSH1 0x1 PUSH1 0x40 SHL SUB DUP2 GT ISZERO PUSH2 0x2349 JUMPI PUSH0 PUSH0 REVERT JUMPDEST PUSH2 0x2355 DUP8 DUP3 DUP9 ADD PUSH2 0x1D47 JUMP JUMPDEST SWAP6 SWAP9 SWAP5 SWAP8 POP SWAP6 POP POP POP POP JUMP JUMPDEST PUSH0 PUSH0 PUSH0 PUSH0 PUSH0 PUSH0 PUSH0 PUSH0 PUSH1 0xA0 DUP10 DUP12 SUB SLT ISZERO PUSH2 0x2378 JUMPI PUSH0 PUSH0 REVERT JUMPDEST DUP9 CALLDATALOAD PUSH2 0x2383 DUP2 PUSH2 0x1D33 JUMP JUMPDEST SWAP8 POP PUSH1 0x20 DUP10 ADD CALLDATALOAD PUSH2 0x2393 DUP2 PUSH2 0x1D33 JUMP JUMPDEST SWAP7 POP PUSH1 0x40 DUP10 ADD CALLDATALOAD PUSH1 0x1 PUSH1 0x1 PUSH1 0x40 SHL SUB DUP2 GT ISZERO PUSH2 0x23AD JUMPI PUSH0 PUSH0 REVERT JUMPDEST PUSH2 0x23B9 DUP12 DUP3 DUP13 ADD PUSH2 0x20B0 JUMP JUMPDEST SWAP1 SWAP8 POP SWAP6 POP POP PUSH1 0x60 DUP10 ADD CALLDATALOAD PUSH1 0x1 PUSH1 0x1 PUSH1 0x40 SHL SUB DUP2 GT ISZERO PUSH2 0x23D7 JUMPI PUSH0 PUSH0 REVERT JUMPDEST PUSH2 0x23E3 DUP12 DUP3 DUP13 ADD PUSH2 0x20B0 JUMP JUMPDEST SWAP1 SWAP6 POP SWAP4 POP POP PUSH1 0x80 DUP10 ADD CALLDATALOAD PUSH1 0x1 PUSH1 0x1 PUSH1 0x40 SHL SUB DUP2 GT ISZERO PUSH2 0x1E18 JUMPI PUSH0 PUSH0 REVERT JUMPDEST PUSH0 PUSH0 PUSH0 PUSH0 PUSH0 PUSH0 PUSH1 0xA0 DUP8 DUP10 SUB SLT ISZERO PUSH2 0x2416 JUMPI PUSH0 PUSH0 REVERT JUMPDEST DUP7 CALLDATALOAD PUSH2 0x2421 DUP2 PUSH2 0x1D33 JUMP JUMPDEST SWAP6 POP PUSH1 0x20 DUP8 ADD CALLDATALOAD SWAP5 POP PUSH1 0x40 DUP8 ADD CALLDATALOAD PUSH1 0x1 PUSH1 0x1 PUSH1 0x40 SHL SUB DUP2 GT ISZERO PUSH2 0x2442 JUMPI PUSH0 PUSH0 REVERT JUMPDEST PUSH2 0x244E DUP10 DUP3 DUP11 ADD PUSH2 0x1D47 JUMP JUMPDEST SWAP1 SWAP6 POP SWAP4 POP PUSH2 0x2461 SWAP1 POP PUSH1 0x60 DUP9 ADD PUSH2 0x2164 JUMP JUMPDEST SWAP6 SWAP9 SWAP5 SWAP8 POP SWAP3 SWAP6 SWAP2 SWAP5 SWAP4 PUSH1 0x80 SWAP1 SWAP3 ADD CALLDATALOAD SWAP3 POP POP JUMP JUMPDEST PUSH0 PUSH0 PUSH1 0x40 DUP4 DUP6 SUB SLT ISZERO PUSH2 0x2487 JUMPI PUSH0 PUSH0 REVERT JUMPDEST DUP3 CALLDATALOAD PUSH2 0x2492 DUP2 PUSH2 0x1D33 JUMP JUMPDEST SWAP5 PUSH1 0x20 SWAP4 SWAP1 SWAP4 ADD CALLDATALOAD SWAP4 POP POP POP JUMP JUMPDEST PUSH0 PUSH0 PUSH0 PUSH0 PUSH0 PUSH0 PUSH1 0xA0 DUP8 DUP10 SUB SLT ISZERO PUSH2 0x24B5 JUMPI PUSH0 PUSH0 REVERT JUMPDEST DUP7 CALLDATALOAD PUSH2 0x24C0 DUP2 PUSH2 0x1D33 JUMP JUMPDEST SWAP6 POP PUSH1 0x20 DUP8 ADD CALLDATALOAD PUSH2 0x24D0 DUP2 PUSH2 0x1D33 JUMP JUMPDEST SWAP5 POP PUSH1 0x40 DUP8 ADD CALLDATALOAD SWAP4 POP PUSH1 0x60 DUP8 ADD CALLDATALOAD SWAP3 POP PUSH1 0x80 DUP8 ADD CALLDATALOAD PUSH1 0x1 PUSH1 0x1 PUSH1 0x40 SHL SUB DUP2 GT ISZERO PUSH2 0x24F8 JUMPI PUSH0 PUSH0 REVERT JUMPDEST PUSH2 0x2504 DUP10 DUP3 DUP11 ADD PUSH2 0x1D47 JUMP JUMPDEST SWAP8 SWAP11 SWAP7 SWAP10 POP SWAP5 SWAP8 POP SWAP3 SWAP6 SWAP4 SWAP5 SWAP3 POP POP POP JUMP JUMPDEST DUP3 DUP2 MSTORE PUSH1 0x40 PUSH1 0x20 DUP3 ADD MSTORE PUSH0 PUSH2 0x982 PUSH1 0x40 DUP4 ADD DUP5 PUSH2 0x21E4 JUMP JUMPDEST PUSH0 PUSH1 0x20 DUP3 DUP5 SUB SLT ISZERO PUSH2 0x253E JUMPI PUSH0 PUSH0 REVERT JUMPDEST DUP2 MLOAD PUSH2 0x823 DUP2 PUSH2 0x1E38 JUMP JUMPDEST PUSH4 0x4E487B71 PUSH1 0xE0 SHL PUSH0 MSTORE PUSH1 0x32 PUSH1 0x4 MSTORE PUSH1 0x24 PUSH0 REVERT JUMPDEST PUSH0 DUP3 CALLDATALOAD PUSH1 0x5E NOT DUP4 CALLDATASIZE SUB ADD DUP2 SLT PUSH2 0x2571 JUMPI PUSH0 PUSH0 REVERT JUMPDEST SWAP2 SWAP1 SWAP2 ADD SWAP3 SWAP2 POP POP JUMP JUMPDEST PUSH0 PUSH0 DUP4 CALLDATALOAD PUSH1 0x1E NOT DUP5 CALLDATASIZE SUB ADD DUP2 SLT PUSH2 0x2590 JUMPI PUSH0 PUSH0 REVERT JUMPDEST DUP4 ADD DUP1 CALLDATALOAD SWAP2 POP PUSH1 0x1 PUSH1 0x1 PUSH1 0x40 SHL SUB DUP3 GT ISZERO PUSH2 0x25A9 JUMPI PUSH0 PUSH0 REVERT JUMPDEST PUSH1 0x20 ADD SWAP2 POP CALLDATASIZE DUP2 SWAP1 SUB DUP3 SGT ISZERO PUSH2 0x1D84 JUMPI PUSH0 PUSH0 REVERT JUMPDEST PUSH0 PUSH1 0x20 DUP3 DUP5 SUB SLT ISZERO PUSH2 0x25CD JUMPI PUSH0 PUSH0 REVERT JUMPDEST DUP2 MLOAD PUSH2 0x823 DUP2 PUSH2 0x1D33 JUMP JUMPDEST PUSH0 PUSH1 0x20 DUP3 DUP5 SUB SLT ISZERO PUSH2 0x25E8 JUMPI PUSH0 PUSH0 REVERT JUMPDEST POP MLOAD SWAP2 SWAP1 POP JUMP JUMPDEST PUSH4 0x4E487B71 PUSH1 0xE0 SHL PUSH0 MSTORE PUSH1 0x11 PUSH1 0x4 MSTORE PUSH1 0x24 PUSH0 REVERT JUMPDEST DUP2 DUP2 SUB DUP2 DUP2 GT ISZERO PUSH2 0x5EC JUMPI PUSH2 0x5EC PUSH2 0x25EF JUMP JUMPDEST DUP2 DUP4 MSTORE DUP2 DUP2 PUSH1 0x20 DUP6 ADD CALLDATACOPY POP PUSH0 DUP3 DUP3 ADD PUSH1 0x20 SWAP1 DUP2 ADD SWAP2 SWAP1 SWAP2 MSTORE PUSH1 0x1F SWAP1 SWAP2 ADD PUSH1 0x1F NOT AND SWAP1 SWAP2 ADD ADD SWAP1 JUMP JUMPDEST PUSH1 0x1 PUSH1 0x1 PUSH1 0xA0 SHL SUB DUP8 AND DUP2 MSTORE PUSH1 0x80 PUSH1 0x20 DUP3 ADD DUP2 SWAP1 MSTORE PUSH0 SWAP1 PUSH2 0x2662 SWAP1 DUP4 ADD DUP8 DUP10 PUSH2 0x2616 JUMP JUMPDEST DUP3 DUP2 SUB PUSH1 0x40 DUP5 ADD MSTORE PUSH2 0x2675 DUP2 DUP7 DUP9 PUSH2 0x2616 JUMP JUMPDEST SWAP2 POP POP PUSH1 0x1 DUP1 PUSH1 0xA0 SHL SUB DUP4 AND PUSH1 0x60 DUP4 ADD MSTORE SWAP8 SWAP7 POP POP POP POP POP POP POP JUMP JUMPDEST PUSH0 PUSH1 0x1 DUP3 ADD PUSH2 0x26A2 JUMPI PUSH2 0x26A2 PUSH2 0x25EF JUMP JUMPDEST POP PUSH1 0x1 ADD SWAP1 JUMP JUMPDEST PUSH1 0x1 DUP2 DUP2 SHR SWAP1 DUP3 AND DUP1 PUSH2 0x26BD JUMPI PUSH1 0x7F DUP3 AND SWAP2 POP JUMPDEST PUSH1 0x20 DUP3 LT DUP2 SUB PUSH2 0x26DB JUMPI PUSH4 0x4E487B71 PUSH1 0xE0 SHL PUSH0 MSTORE PUSH1 0x22 PUSH1 0x4 MSTORE PUSH1 0x24 PUSH0 REVERT JUMPDEST POP SWAP2 SWAP1 POP JUMP JUMPDEST PUSH4 0x4E487B71 PUSH1 0xE0 SHL PUSH0 MSTORE PUSH1 0x21 PUSH1 0x4 MSTORE PUSH1 0x24 PUSH0 REVERT JUMPDEST DUP2 DUP4 DUP3 CALLDATACOPY PUSH0 SWAP2 ADD SWAP1 DUP2 MSTORE SWAP2 SWAP1 POP JUMP JUMPDEST PUSH1 0x1F DUP3 GT ISZERO PUSH2 0x1389 JUMPI DUP1 PUSH0 MSTORE PUSH1 0x20 PUSH0 KECCAK256 PUSH1 0x1F DUP5 ADD PUSH1 0x5 SHR DUP2 ADD PUSH1 0x20 DUP6 LT ISZERO PUSH2 0x2729 JUMPI POP DUP1 JUMPDEST PUSH1 0x1F DUP5 ADD PUSH1 0x5 SHR DUP3 ADD SWAP2 POP JUMPDEST DUP2 DUP2 LT ISZERO PUSH2 0xB9E JUMPI PUSH0 DUP2 SSTORE PUSH1 0x1 ADD PUSH2 0x2735 JUMP JUMPDEST DUP2 MLOAD PUSH1 0x1 PUSH1 0x1 PUSH1 0x40 SHL SUB DUP2 GT ISZERO PUSH2 0x2761 JUMPI PUSH2 0x2761 PUSH2 0x1F82 JUMP JUMPDEST PUSH2 0x2775 DUP2 PUSH2 0x276F DUP5 SLOAD PUSH2 0x26A9 JUMP JUMPDEST DUP5 PUSH2 0x2704 JUMP JUMPDEST PUSH1 0x20 PUSH1 0x1F DUP3 GT PUSH1 0x1 DUP2 EQ PUSH2 0x27A7 JUMPI PUSH0 DUP4 ISZERO PUSH2 0x2790 JUMPI POP DUP5 DUP3 ADD MLOAD JUMPDEST PUSH0 NOT PUSH1 0x3 DUP6 SWAP1 SHL SHR NOT AND PUSH1 0x1 DUP5 SWAP1 SHL OR DUP5 SSTORE PUSH2 0xB9E JUMP JUMPDEST PUSH0 DUP5 DUP2 MSTORE PUSH1 0x20 DUP2 KECCAK256 PUSH1 0x1F NOT DUP6 AND SWAP2 JUMPDEST DUP3 DUP2 LT ISZERO PUSH2 0x27D6 JUMPI DUP8 DUP6 ADD MLOAD DUP3 SSTORE PUSH1 0x20 SWAP5 DUP6 ADD SWAP5 PUSH1 0x1 SWAP1 SWAP3 ADD SWAP2 ADD PUSH2 0x27B6 JUMP JUMPDEST POP DUP5 DUP3 LT ISZERO PUSH2 0x27F3 JUMPI DUP7 DUP5 ADD MLOAD PUSH0 NOT PUSH1 0x3 DUP8 SWAP1 SHL PUSH1 0xF8 AND SHR NOT AND DUP2 SSTORE JUMPDEST POP POP POP POP PUSH1 0x1 SWAP1 DUP2 SHL ADD SWAP1 SSTORE POP JUMP JUMPDEST PUSH0 PUSH0 PUSH0 PUSH1 0x60 DUP5 DUP7 SUB SLT ISZERO PUSH2 0x2814 JUMPI PUSH0 PUSH0 REVERT JUMPDEST DUP4 MLOAD PUSH1 0x20 DUP6 ADD MLOAD SWAP1 SWAP4 POP PUSH2 0x2827 DUP2 PUSH2 0x1D33 JUMP JUMPDEST PUSH1 0x40 SWAP5 SWAP1 SWAP5 ADD MLOAD SWAP3 SWAP6 SWAP4 SWAP5 POP SWAP2 SWAP3 SWAP2 POP POP JUMP JUMPDEST PUSH0 DUP3 MLOAD DUP1 PUSH1 0x20 DUP6 ADD DUP5 MCOPY PUSH0 SWAP3 ADD SWAP2 DUP3 MSTORE POP SWAP2 SWAP1 POP JUMP INVALID LOG1 PUSH11 0x46D94261C7517CC8FF89F6 SHR 0xC 0xE9 CALLDATALOAD SWAP9 0xE3 0xC8 BLOBHASH DUP1 LT GT 0xDE 0xE6 BLOBHASH 0xA6 0xA5 JUMPI 0xD1 STOP CALLDATASIZE ADDMOD SWAP5 LOG1 EXTCODESIZE LOG1 LOG3 0x21 MOD PUSH8 0xC828492DB98DCA3E KECCAK256 PUSH23 0xCC3735A920A3CA505D382BBC35BBE4873C895459AB4BDA PUSH0 0x26 PUSH0 MCOPY PUSH0 0xA6 MCOPY 0x4B SWAP2 TLOAD 0xBE DUP14 0xC2 PUSH27 0xDF6EA1FA3BA400A2646970667358221220F16405238AFEB9882385 CALLER PUSH5 0x5916DC1AF1 0xBF ADDRESS SWAP6 0x4D EXTCODESIZE JUMPI 0x4E PUSH20 0x4AA82B24F372C164736F6C634300081C00330000 ",
  "sha1": "86426a283f05794aeb19f4e6937e89873dc699e3",
  "source": "// SPDX-License-Identifier: Apache-2.0\npragma solidity ^0.8.27;\n\nimport {HyperAccountMinterUpgradable} from \"./HyperAccountMinterUpgradable.sol\";\nimport {IHyperAccountPermissioned} from \"../../src/interfaces/IHyperAccountPermissioned.sol\";\n\ncontract HyperAccountPermissionedMinter is IHyperAccountPermissioned, HyperAccountMinterUpgradable {\n    // Errors\n    error InsufficientAllowance(address who);\n\n    /// @dev The storage slot at which HyperAccountPermissionedMinter storage starts, following the EIP-7201 standard.\n    /// @dev Calculated as `keccak256(abi.encode(uint256(keccak256(\"hyperware.HyperAccountPermissionedMinter.storage\")) - 1)) & ~bytes32(uint256(0xff))`.\n    bytes32 private constant _HYPERACCOUNT_PERMISSIONED_MINTER_STORAGE =\n        0x35bbe4873c895459ab4bda5f265f5e5fa65e4b915cbe8dc27adf6ea1fa3ba400;\n\n    struct HyperAccountPermissionedMinterStorage {\n        mapping(address => uint256) allowances;\n    }\n\n    function _getHyperAccountPermissionedMinterStorage()\n        internal\n        pure\n        returns (HyperAccountPermissionedMinterStorage storage $)\n    {\n        assembly {\n            $.slot := _HYPERACCOUNT_PERMISSIONED_MINTER_STORAGE\n        }\n    }\n\n    constructor(address _hypermap) HyperAccountMinterUpgradable(_hypermap) {}\n\n    function initialize() public initializer {\n        __UUPSUpgradeable_init();\n        __EIP712_init(\"HyperAccountPermissionedMinter\", \"1\");\n    }\n\n    /// @notice Authorize a minter to mint a specific number of sub-entries\n    function auth(address who, uint256 _allowance) external virtual onlyOperator {\n        HyperAccountPermissionedMinterStorage storage $ = _getHyperAccountPermissionedMinterStorage();\n        $.allowances[who] = _allowance;\n    }\n\n    function deauth(address who) external virtual onlyOperator {\n        HyperAccountPermissionedMinterStorage storage $ = _getHyperAccountPermissionedMinterStorage();\n        $.allowances[who] = 0;\n    }\n\n    function allowance(address who) external view returns (uint256) {\n        HyperAccountPermissionedMinterStorage storage $ = _getHyperAccountPermissionedMinterStorage();\n        return $.allowances[who];\n    }\n\n    function supportsInterface(bytes4 interfaceId)\n        public\n        view\n        virtual\n        override(HyperAccountMinterUpgradable)\n        returns (bool)\n    {\n        return super.supportsInterface(interfaceId) || interfaceId == type(IHyperAccountPermissioned).interfaceId;\n    }\n\n    function _mint(address to, bytes calldata name, bytes calldata initialization, address implementation)\n        internal\n        virtual\n        override\n        returns (address tba)\n    {\n        HyperAccountPermissionedMinterStorage storage $ = _getHyperAccountPermissionedMinterStorage();\n\n        if ($.allowances[msg.sender] < 1) {\n            revert InsufficientAllowance(msg.sender);\n        }\n        $.allowances[msg.sender] -= 1;\n        return _HYPERMAP.mint(to, name, initialization, implementation);\n    }\n}\n",
  "sourcePath": "src/account/HyperAccountPermissionedMinter.sol",
  "type": "contract"
}