{"abi":[{"type":"receive","stateMutability":"payable"},{"type":"function","name":"SIG_VALIDATION_FAILED","inputs":[],"outputs":[{"name":"","type":"uint256","internalType":"uint256"}],"stateMutability":"view"},{"type":"function","name":"SIG_VALIDATION_SUCCEEDED","inputs":[],"outputs":[{"name":"","type":"uint256","internalType":"uint256"}],"stateMutability":"view"},{"type":"function","name":"entryPoint","inputs":[],"outputs":[{"name":"","type":"address","internalType":"contract IEntryPoint"}],"stateMutability":"view"},{"type":"function","name":"execute","inputs":[{"name":"to","type":"address","internalType":"address"},{"name":"value","type":"uint256","internalType":"uint256"},{"name":"data","type":"bytes","internalType":"bytes"},{"name":"operation","type":"uint8","internalType":"uint8"}],"outputs":[{"name":"returnData","type":"bytes","internalType":"bytes"}],"stateMutability":"payable"},{"type":"function","name":"execute","inputs":[{"name":"target","type":"address","internalType":"address"},{"name":"value","type":"uint256","internalType":"uint256"},{"name":"data","type":"bytes","internalType":"bytes"}],"outputs":[],"stateMutability":"nonpayable"},{"type":"function","name":"execute","inputs":[{"name":"to","type":"address","internalType":"address"},{"name":"value","type":"uint256","internalType":"uint256"},{"name":"data","type":"bytes","internalType":"bytes"},{"name":"operation","type":"uint8","internalType":"uint8"},{"name":"txGas","type":"uint256","internalType":"uint256"}],"outputs":[{"name":"returnData","type":"bytes","internalType":"bytes"}],"stateMutability":"payable"},{"type":"function","name":"executeBatch","inputs":[{"name":"calls","type":"tuple[]","internalType":"struct BaseAccount.Call[]","components":[{"name":"target","type":"address","internalType":"address"},{"name":"value","type":"uint256","internalType":"uint256"},{"name":"data","type":"bytes","internalType":"bytes"}]}],"outputs":[],"stateMutability":"nonpayable"},{"type":"function","name":"getNonce","inputs":[],"outputs":[{"name":"","type":"uint256","internalType":"uint256"}],"stateMutability":"view"},{"type":"function","name":"isOperator","inputs":[{"name":"signer","type":"address","internalType":"address"}],"outputs":[{"name":"","type":"bool","internalType":"bool"}],"stateMutability":"view"},{"type":"function","name":"isValidSignature","inputs":[{"name":"hash","type":"bytes32","internalType":"bytes32"},{"name":"signature","type":"bytes","internalType":"bytes"}],"outputs":[{"name":"magicValue","type":"bytes4","internalType":"bytes4"}],"stateMutability":"view"},{"type":"function","name":"isValidSigner","inputs":[{"name":"signer","type":"address","internalType":"address"},{"name":"","type":"bytes","internalType":"bytes"}],"outputs":[{"name":"magicValue","type":"bytes4","internalType":"bytes4"}],"stateMutability":"view"},{"type":"function","name":"onERC1155BatchReceived","inputs":[{"name":"","type":"address","internalType":"address"},{"name":"","type":"address","internalType":"address"},{"name":"","type":"uint256[]","internalType":"uint256[]"},{"name":"","type":"uint256[]","internalType":"uint256[]"},{"name":"","type":"bytes","internalType":"bytes"}],"outputs":[{"name":"","type":"bytes4","internalType":"bytes4"}],"stateMutability":"view"},{"type":"function","name":"onERC1155Received","inputs":[{"name":"","type":"address","internalType":"address"},{"name":"","type":"address","internalType":"address"},{"name":"","type":"uint256","internalType":"uint256"},{"name":"","type":"uint256","internalType":"uint256"},{"name":"","type":"bytes","internalType":"bytes"}],"outputs":[{"name":"","type":"bytes4","internalType":"bytes4"}],"stateMutability":"view"},{"type":"function","name":"onERC721Received","inputs":[{"name":"","type":"address","internalType":"address"},{"name":"","type":"address","internalType":"address"},{"name":"receivedTokenId","type":"uint256","internalType":"uint256"},{"name":"","type":"bytes","internalType":"bytes"}],"outputs":[{"name":"","type":"bytes4","internalType":"bytes4"}],"stateMutability":"view"},{"type":"function","name":"state","inputs":[],"outputs":[{"name":"","type":"uint256","internalType":"uint256"}],"stateMutability":"view"},{"type":"function","name":"supportsInterface","inputs":[{"name":"interfaceId","type":"bytes4","internalType":"bytes4"}],"outputs":[{"name":"","type":"bool","internalType":"bool"}],"stateMutability":"view"},{"type":"function","name":"token","inputs":[],"outputs":[{"name":"chainId","type":"uint256","internalType":"uint256"},{"name":"tokenContract","type":"address","internalType":"address"},{"name":"tokenId","type":"uint256","internalType":"uint256"}],"stateMutability":"view"},{"type":"function","name":"tokensReceived","inputs":[{"name":"","type":"address","internalType":"address"},{"name":"","type":"address","internalType":"address"},{"name":"","type":"address","internalType":"address"},{"name":"","type":"uint256","internalType":"uint256"},{"name":"","type":"bytes","internalType":"bytes"},{"name":"","type":"bytes","internalType":"bytes"}],"outputs":[],"stateMutability":"pure"},{"type":"function","name":"validateUserOp","inputs":[{"name":"userOp","type":"tuple","internalType":"struct PackedUserOperation","components":[{"name":"sender","type":"address","internalType":"address"},{"name":"nonce","type":"uint256","internalType":"uint256"},{"name":"initCode","type":"bytes","internalType":"bytes"},{"name":"callData","type":"bytes","internalType":"bytes"},{"name":"accountGasLimits","type":"bytes32","internalType":"bytes32"},{"name":"preVerificationGas","type":"uint256","internalType":"uint256"},{"name":"gasFees","type":"bytes32","internalType":"bytes32"},{"name":"paymasterAndData","type":"bytes","internalType":"bytes"},{"name":"signature","type":"bytes","internalType":"bytes"}]},{"name":"userOpHash","type":"bytes32","internalType":"bytes32"},{"name":"missingAccountFunds","type":"uint256","internalType":"uint256"}],"outputs":[{"name":"validationData","type":"uint256","internalType":"uint256"}],"stateMutability":"nonpayable"},{"type":"error","name":"ECDSAInvalidSignature","inputs":[]},{"type":"error","name":"ECDSAInvalidSignatureLength","inputs":[{"name":"length","type":"uint256","internalType":"uint256"}]},{"type":"error","name":"ECDSAInvalidSignatureS","inputs":[{"name":"s","type":"bytes32","internalType":"bytes32"}]},{"type":"error","name":"ExecuteError","inputs":[{"name":"index","type":"uint256","internalType":"uint256"},{"name":"error","type":"bytes","internalType":"bytes"}]},{"type":"error","name":"NotOperatorOrEntryPoint","inputs":[]},{"type":"error","name":"OwnershipCycle","inputs":[]}],"bytecode":{"object":"0x6080604052348015600e575f5ffd5b506118788061001c5f395ff3fe608060405260043610610112575f3560e01c80638f41ec5a1161009d578063c19d93fb11610062578063c19d93fb1461031a578063ca3b98bb1461032e578063d087d28814610341578063f23a6e6114610355578063fc0c546a14610381575f5ffd5b80638f41ec5a146102785780639cdf379c1461028c578063b0d691fe1461029f578063b61d27f6146102cd578063bc197c81146102ec575f5ffd5b806319822f7c116100e357806319822f7c146101ce57806334fcd5be146101fb578063519454471461021a578063523e32601461023a5780636d70f7ae14610259575f5ffd5b806223de291461011d57806301ffc9a714610143578063150b7a02146101775780631626ba7e146101af575f5ffd5b3661011957005b5f5ffd5b348015610128575f5ffd5b506101416101373660046110f9565b5050505050505050565b005b34801561014e575f5ffd5b5061016261015d3660046111bb565b6103b8565b60405190151581526020015b60405180910390f35b348015610182575f5ffd5b506101966101913660046111d6565b6103e3565b6040516001600160e01b0319909116815260200161016e565b3480156101ba575f5ffd5b506101966101c9366004611257565b61043d565b3480156101d9575f5ffd5b506101ed6101e8366004611311565b610562565b60405190815260200161016e565b348015610206575f5ffd5b5061014161021536600461139f565b610594565b61022d6102283660046113f2565b610684565b60405161016e919061148b565b348015610245575f5ffd5b5061019661025436600461149d565b6106b0565b348015610264575f5ffd5b506101626102733660046114ed565b6106d5565b348015610283575f5ffd5b506101ed600181565b348015610297575f5ffd5b506101ed5f81565b3480156102aa575f5ffd5b50604051734337084d9e255ff0702461cf8895ce9e3b5ff108815260200161016e565b3480156102d8575f5ffd5b506101416102e7366004611508565b610773565b3480156102f7575f5ffd5b5061019661030636600461155f565b63bc197c8160e01b98975050505050505050565b348015610325575f5ffd5b506101ed6107d2565b61022d61033c3660046115ff565b6108b9565b34801561034c575f5ffd5b506101ed6108f2565b348015610360575f5ffd5b5061019661036f366004611674565b63f23a6e6160e01b9695505050505050565b34801561038c575f5ffd5b5061039561097b565b604080519384526001600160a01b0390921660208401529082015260600161016e565b5f6103c282610991565b806103dd57506001600160e01b03198216636faff5f160e01b145b92915050565b5f5f5f6103ee61097b565b909350915050336001600160a01b03831614801561040b57508086145b156104295760405163b79e3f3f60e01b815260040160405180910390fd5b50630a85bd0160e11b979650505050505050565b5f5f5f5f61045d85602081015160408201516060909201515f1a92909190565b9094509250905060ff81165f03610528578285830160200161047e826106d5565b15801561049457506001600160a01b0382163014155b156104af57506001600160e01b031994506103dd9350505050565b604051630b135d3f60e11b81526001600160a01b03831690631626ba7e906104dd908b9085906004016116ea565b602060405180830381865afa1580156104f8573d5f5f3e3d5ffd5b505050506040513d601f19601f8201168201806040525081019061051c9190611702565b955050505050506103dd565b61053761027387838686610a32565b1561054f5750630b135d3f60e11b92506103dd915050565b506001600160e01b031995945050505050565b5f61056b610a5e565b6105758484610ac3565b90506105848460200135610bd0565b61058d82610c19565b9392505050565b61059c610c5e565b805f5b8181101561067e57368484838181106105ba576105ba61171d565b90506020028101906105cc9190611731565b90505f61062a6105df60208401846114ed565b60208401356105f1604086018661174f565b8080601f0160208091040260200160405190810160405280939291908181526020018383808284375f920191909152505050505a610c66565b905080610674578360010361064657610641610c7c565b610674565b826106505f610c8d565b604051635a15467560e01b815260040161066b9291906116ea565b60405180910390fd5b505060010161059f565b50505050565b60605f61069587878787875a610cbe565b92509050806106a657815160208301fd5b5095945050505050565b5f6106ba846106d5565b6106c4575f6106cd565b630291f19360e51b5b949350505050565b5f5f5f6106e061097b565b6040516331a9108f60e11b81526004810182905291945092506001600160a01b038087169250841690636352211e90602401602060405180830381865afa15801561072d573d5f5f3e3d5ffd5b505050506040513d601f19601f820116820180604052508101906107519190611791565b6001600160a01b03161480156106cd57505050506001600160a01b0316151590565b61077b610c5e565b5f6107bc858585858080601f0160208091040260200160405190810160405280939291908181526020018383808284375f920191909152505050505a610c66565b9050806107cb576107cb610c7c565b5050505050565b5f807fe4b1c7558f331d2752f6cb495b2cf8e1b8ae3112bcc78ec0c3bfebfbe3cd480090505f734337084d9e255ff0702461cf8895ce9e3b5ff108604051631aab3f0d60e11b81523060048201525f60248201526001600160a01b0391909116906335567e1a90604401602060405180830381865afa158015610857573d5f5f3e3d5ffd5b505050506040513d601f19601f8201168201806040525081019061087b91906117ac565b825460405191925061089a918390602001918252602082015260400190565b604051602081830303815290604052805190602001205f1c9250505090565b60605f6108d6888888888888156108d05788610cbe565b5a610cbe565b92509050806108e757815160208301fd5b509695505050505050565b5f734337084d9e255ff0702461cf8895ce9e3b5ff108604051631aab3f0d60e11b81523060048201525f60248201526001600160a01b0391909116906335567e1a90604401602060405180830381865afa158015610952573d5f5f3e3d5ffd5b505050506040513d601f19601f8201168201806040525081019061097691906117ac565b905090565b5f5f5f610986610d15565b925092509250909192565b5f6001600160e01b03198216633ce4a3e960e01b14806109c157506001600160e01b031982166301ffc9a760e01b145b806109dc57506001600160e01b031982166306608bdf60e21b145b806109f757506001600160e01b03198216630b135d3f60e11b145b80610a1257506001600160e01b03198216630271189760e51b145b806103dd57506001600160e01b03198216635194544760e01b1492915050565b5f5f5f5f610a4288888888610d21565b925092509250610a528282610de9565b50909695505050505050565b33734337084d9e255ff0702461cf8895ce9e3b5ff10814610ac15760405162461bcd60e51b815260206004820152601c60248201527f6163636f756e743a206e6f742066726f6d20456e747279506f696e7400000000604482015260640161066b565b565b5f8080610b1184610ad861010088018861174f565b8080601f0160208091040260200160405190810160405280939291908181526020018383808284375f92019190915250610ea592505050565b5090925090505f816003811115610b2a57610b2a6117c3565b148015610b3b5750610b3b826106d5565b15610b4a575f925050506103dd565b7f19457468657265756d205369676e6564204d6573736167653a0a3332000000005f908152601c859052603c9020610b8a81610ad861010089018961174f565b5090935091505f826003811115610ba357610ba36117c3565b148015610bb45750610bb4836106d5565b15610bc4575f93505050506103dd565b50600195945050505050565b6001600160401b038110610c165760405162461bcd60e51b815260206004820152600d60248201526c496e76616c6964206e6f6e636560981b604482015260640161066b565b50565b8015610c16576040515f90339083908381818185875af1925050503d805f81146107cb576040519150601f19603f3d011682016040523d82523d5f602084013e6107cb565b610ac1610a5e565b5f5f5f845160208601878987f195945050505050565b610ac1610c885f610c8d565b610eee565b60603d8215610ca15782811115610ca15750815b604051602082018101604052818152815f602083013e9392505050565b7fe4b1c7558f331d2752f6cb495b2cf8e1b8ae3112bcc78ec0c3bfebfbe3cd480080545f916060918184610cf1836117d7565b9190505550610d04898989898989610ef6565b92509250505b965096945050505050565b5f5f5f6109863061104d565b5f80807f7fffffffffffffffffffffffffffffff5d576e7357a4501ddfe92f46681b20a0841115610d5a57505f91506003905082610ddf565b604080515f808252602082018084528a905260ff891692820192909252606081018790526080810186905260019060a0016020604051602081039080840390855afa158015610dab573d5f5f3e3d5ffd5b5050604051601f1901519150506001600160a01b038116610dd657505f925060019150829050610ddf565b92505f91508190505b9450945094915050565b5f826003811115610dfc57610dfc6117c3565b03610e05575050565b6001826003811115610e1957610e196117c3565b03610e375760405163f645eedf60e01b815260040160405180910390fd5b6002826003811115610e4b57610e4b6117c3565b03610e6c5760405163fce698f760e01b81526004810182905260240161066b565b6003826003811115610e8057610e806117c3565b03610ea1576040516335e2f38360e21b81526004810182905260240161066b565b5050565b5f5f5f8351604103610edc576020840151604085015160608601515f1a610ece88828585610d21565b955095509550505050610ee7565b505081515f91506002905b9250925092565b805160208201fd5b5f6060610f02336106d5565b158015610f23575033734337084d9e255ff0702461cf8895ce9e3b5ff10814155b15610f4157604051634780295360e11b815260040160405180910390fd5b8360ff165f03610fb257876001600160a01b031683888888604051610f679291906117fb565b5f60405180830381858888f193505050503d805f8114610fa2576040519150601f19603f3d011682016040523d82523d5f602084013e610fa7565b606091505b509092509050610d0a565b8360ff1660010361101157876001600160a01b0316838787604051610fd89291906117fb565b5f604051808303818686f4925050503d805f8114610fa2576040519150601f19603f3d011682016040523d82523d5f602084013e610fa7565b60405162461bcd60e51b815260206004820152601160248201527024b73b30b634b21037b832b930ba34b7b760791b604482015260640161066b565b604080516060808252608082019092525f91829182918291906020820181803683370190505090506060604d60208301873c80806020019051810190611093919061180a565b935093509350509193909250565b6001600160a01b0381168114610c16575f5ffd5b5f5f83601f8401126110c5575f5ffd5b5081356001600160401b038111156110db575f5ffd5b6020830191508360208285010111156110f2575f5ffd5b9250929050565b5f5f5f5f5f5f5f5f60c0898b031215611110575f5ffd5b883561111b816110a1565b9750602089013561112b816110a1565b9650604089013561113b816110a1565b95506060890135945060808901356001600160401b0381111561115c575f5ffd5b6111688b828c016110b5565b90955093505060a08901356001600160401b03811115611186575f5ffd5b6111928b828c016110b5565b999c989b5096995094979396929594505050565b6001600160e01b031981168114610c16575f5ffd5b5f602082840312156111cb575f5ffd5b813561058d816111a6565b5f5f5f5f5f608086880312156111ea575f5ffd5b85356111f5816110a1565b94506020860135611205816110a1565b93506040860135925060608601356001600160401b03811115611226575f5ffd5b611232888289016110b5565b969995985093965092949392505050565b634e487b7160e01b5f52604160045260245ffd5b5f5f60408385031215611268575f5ffd5b8235915060208301356001600160401b03811115611284575f5ffd5b8301601f81018513611294575f5ffd5b80356001600160401b038111156112ad576112ad611243565b604051601f8201601f19908116603f011681016001600160401b03811182821017156112db576112db611243565b6040528181528282016020018710156112f2575f5ffd5b816020840160208301375f602083830101528093505050509250929050565b5f5f5f60608486031215611323575f5ffd5b83356001600160401b03811115611338575f5ffd5b8401610120818703121561134a575f5ffd5b95602085013595506040909401359392505050565b5f5f83601f84011261136f575f5ffd5b5081356001600160401b03811115611385575f5ffd5b6020830191508360208260051b85010111156110f2575f5ffd5b5f5f602083850312156113b0575f5ffd5b82356001600160401b038111156113c5575f5ffd5b6113d18582860161135f565b90969095509350505050565b803560ff811681146113ed575f5ffd5b919050565b5f5f5f5f5f60808688031215611406575f5ffd5b8535611411816110a1565b94506020860135935060408601356001600160401b03811115611432575f5ffd5b61143e888289016110b5565b90945092506114519050606087016113dd565b90509295509295909350565b5f81518084528060208401602086015e5f602082860101526020601f19601f83011685010191505092915050565b602081525f61058d602083018461145d565b5f5f5f604084860312156114af575f5ffd5b83356114ba816110a1565b925060208401356001600160401b038111156114d4575f5ffd5b6114e0868287016110b5565b9497909650939450505050565b5f602082840312156114fd575f5ffd5b813561058d816110a1565b5f5f5f5f6060858703121561151b575f5ffd5b8435611526816110a1565b93506020850135925060408501356001600160401b03811115611547575f5ffd5b611553878288016110b5565b95989497509550505050565b5f5f5f5f5f5f5f5f60a0898b031215611576575f5ffd5b8835611581816110a1565b97506020890135611591816110a1565b965060408901356001600160401b038111156115ab575f5ffd5b6115b78b828c0161135f565b90975095505060608901356001600160401b038111156115d5575f5ffd5b6115e18b828c0161135f565b90955093505060808901356001600160401b03811115611186575f5ffd5b5f5f5f5f5f5f60a08789031215611614575f5ffd5b863561161f816110a1565b95506020870135945060408701356001600160401b03811115611640575f5ffd5b61164c89828a016110b5565b909550935061165f9050606088016113dd565b95989497509295919493608090920135925050565b5f5f5f5f5f5f60a08789031215611689575f5ffd5b8635611694816110a1565b955060208701356116a4816110a1565b9450604087013593506060870135925060808701356001600160401b038111156116cc575f5ffd5b6116d889828a016110b5565b979a9699509497509295939492505050565b828152604060208201525f6106cd604083018461145d565b5f60208284031215611712575f5ffd5b815161058d816111a6565b634e487b7160e01b5f52603260045260245ffd5b5f8235605e19833603018112611745575f5ffd5b9190910192915050565b5f5f8335601e19843603018112611764575f5ffd5b8301803591506001600160401b0382111561177d575f5ffd5b6020019150368190038213156110f2575f5ffd5b5f602082840312156117a1575f5ffd5b815161058d816110a1565b5f602082840312156117bc575f5ffd5b5051919050565b634e487b7160e01b5f52602160045260245ffd5b5f600182016117f457634e487b7160e01b5f52601160045260245ffd5b5060010190565b818382375f9101908152919050565b5f5f5f6060848603121561181c575f5ffd5b8351602085015190935061182f816110a1565b604094909401519295939450919291505056fea264697066735822122026b84c7e0030ace2dad6873636642127a17736dad1010cae2604a26e8c3d668864736f6c634300081c0033","linkReferences":{}},"methodIdentifiers":{"SIG_VALIDATION_FAILED()":"8f41ec5a","SIG_VALIDATION_SUCCEEDED()":"9cdf379c","entryPoint()":"b0d691fe","execute(address,uint256,bytes)":"b61d27f6","execute(address,uint256,bytes,uint8)":"51945447","execute(address,uint256,bytes,uint8,uint256)":"ca3b98bb","executeBatch((address,uint256,bytes)[])":"34fcd5be","getNonce()":"d087d288","isOperator(address)":"6d70f7ae","isValidSignature(bytes32,bytes)":"1626ba7e","isValidSigner(address,bytes)":"523e3260","onERC1155BatchReceived(address,address,uint256[],uint256[],bytes)":"bc197c81","onERC1155Received(address,address,uint256,uint256,bytes)":"f23a6e61","onERC721Received(address,address,uint256,bytes)":"150b7a02","state()":"c19d93fb","supportsInterface(bytes4)":"01ffc9a7","token()":"fc0c546a","tokensReceived(address,address,address,uint256,bytes,bytes)":"0023de29","validateUserOp((address,uint256,bytes,bytes,bytes32,uint256,bytes32,bytes,bytes),bytes32,uint256)":"19822f7c"},"id":166}