{
  "abi": [
    {
      "inputs": [
        {
          "internalType": "address",
          "name": "_hypermap",
          "type": "address"
        },
        {
          "internalType": "uint256",
          "name": "_minCommitAge",
          "type": "uint256"
        },
        {
          "internalType": "uint256",
          "name": "_maxCommitAge",
          "type": "uint256"
        }
      ],
      "stateMutability": "nonpayable",
      "type": "constructor"
    },
    {
      "inputs": [
        {
          "internalType": "address",
          "name": "target",
          "type": "address"
        }
      ],
      "name": "AddressEmptyCode",
      "type": "error"
    },
    {
      "inputs": [],
      "name": "CommitNotFound",
      "type": "error"
    },
    {
      "inputs": [],
      "name": "CommitTooNew",
      "type": "error"
    },
    {
      "inputs": [],
      "name": "CommitTooOld",
      "type": "error"
    },
    {
      "inputs": [],
      "name": "ECDSAInvalidSignature",
      "type": "error"
    },
    {
      "inputs": [
        {
          "internalType": "uint256",
          "name": "length",
          "type": "uint256"
        }
      ],
      "name": "ECDSAInvalidSignatureLength",
      "type": "error"
    },
    {
      "inputs": [
        {
          "internalType": "bytes32",
          "name": "s",
          "type": "bytes32"
        }
      ],
      "name": "ECDSAInvalidSignatureS",
      "type": "error"
    },
    {
      "inputs": [
        {
          "internalType": "address",
          "name": "implementation",
          "type": "address"
        }
      ],
      "name": "ERC1967InvalidImplementation",
      "type": "error"
    },
    {
      "inputs": [],
      "name": "ERC1967NonPayable",
      "type": "error"
    },
    {
      "inputs": [
        {
          "internalType": "uint256",
          "name": "index",
          "type": "uint256"
        },
        {
          "internalType": "bytes",
          "name": "error",
          "type": "bytes"
        }
      ],
      "name": "ExecuteError",
      "type": "error"
    },
    {
      "inputs": [],
      "name": "FailedCall",
      "type": "error"
    },
    {
      "inputs": [],
      "name": "InvalidInitialization",
      "type": "error"
    },
    {
      "inputs": [
        {
          "internalType": "address",
          "name": "actual",
          "type": "address"
        },
        {
          "internalType": "address",
          "name": "expected",
          "type": "address"
        }
      ],
      "name": "InvalidSignature",
      "type": "error"
    },
    {
      "inputs": [],
      "name": "NotInitializing",
      "type": "error"
    },
    {
      "inputs": [],
      "name": "NotOperatorOrEntryPoint",
      "type": "error"
    },
    {
      "inputs": [],
      "name": "OwnershipCycle",
      "type": "error"
    },
    {
      "inputs": [
        {
          "internalType": "uint256",
          "name": "minCommitAge",
          "type": "uint256"
        },
        {
          "internalType": "uint256",
          "name": "maxCommitAge",
          "type": "uint256"
        }
      ],
      "name": "SetupMinGreaterThanMaxAge",
      "type": "error"
    },
    {
      "inputs": [
        {
          "internalType": "uint256",
          "name": "minCommitAge",
          "type": "uint256"
        },
        {
          "internalType": "uint256",
          "name": "maxCommitAge",
          "type": "uint256"
        },
        {
          "internalType": "uint256",
          "name": "smallestAllowedDiff",
          "type": "uint256"
        }
      ],
      "name": "SetupMinMaxAgeGapTooSmall",
      "type": "error"
    },
    {
      "inputs": [],
      "name": "UUPSUnauthorizedCallContext",
      "type": "error"
    },
    {
      "inputs": [
        {
          "internalType": "bytes32",
          "name": "slot",
          "type": "bytes32"
        }
      ],
      "name": "UUPSUnsupportedProxiableUUID",
      "type": "error"
    },
    {
      "inputs": [],
      "name": "UnexpiredCommitExists",
      "type": "error"
    },
    {
      "anonymous": false,
      "inputs": [],
      "name": "EIP712DomainChanged",
      "type": "event"
    },
    {
      "anonymous": false,
      "inputs": [
        {
          "indexed": false,
          "internalType": "uint64",
          "name": "version",
          "type": "uint64"
        }
      ],
      "name": "Initialized",
      "type": "event"
    },
    {
      "anonymous": false,
      "inputs": [
        {
          "indexed": true,
          "internalType": "address",
          "name": "implementation",
          "type": "address"
        }
      ],
      "name": "Upgraded",
      "type": "event"
    },
    {
      "inputs": [],
      "name": "SIG_VALIDATION_FAILED",
      "outputs": [
        {
          "internalType": "uint256",
          "name": "",
          "type": "uint256"
        }
      ],
      "stateMutability": "view",
      "type": "function"
    },
    {
      "inputs": [],
      "name": "SIG_VALIDATION_SUCCEEDED",
      "outputs": [
        {
          "internalType": "uint256",
          "name": "",
          "type": "uint256"
        }
      ],
      "stateMutability": "view",
      "type": "function"
    },
    {
      "inputs": [],
      "name": "UPGRADE_INTERFACE_VERSION",
      "outputs": [
        {
          "internalType": "string",
          "name": "",
          "type": "string"
        }
      ],
      "stateMutability": "view",
      "type": "function"
    },
    {
      "inputs": [
        {
          "internalType": "bytes32",
          "name": "_commit",
          "type": "bytes32"
        }
      ],
      "name": "commit",
      "outputs": [],
      "stateMutability": "nonpayable",
      "type": "function"
    },
    {
      "inputs": [],
      "name": "eip712Domain",
      "outputs": [
        {
          "internalType": "bytes1",
          "name": "fields",
          "type": "bytes1"
        },
        {
          "internalType": "string",
          "name": "name",
          "type": "string"
        },
        {
          "internalType": "string",
          "name": "version",
          "type": "string"
        },
        {
          "internalType": "uint256",
          "name": "chainId",
          "type": "uint256"
        },
        {
          "internalType": "address",
          "name": "verifyingContract",
          "type": "address"
        },
        {
          "internalType": "bytes32",
          "name": "salt",
          "type": "bytes32"
        },
        {
          "internalType": "uint256[]",
          "name": "extensions",
          "type": "uint256[]"
        }
      ],
      "stateMutability": "view",
      "type": "function"
    },
    {
      "inputs": [],
      "name": "entryPoint",
      "outputs": [
        {
          "internalType": "contract IEntryPoint",
          "name": "",
          "type": "address"
        }
      ],
      "stateMutability": "view",
      "type": "function"
    },
    {
      "inputs": [
        {
          "internalType": "address",
          "name": "to",
          "type": "address"
        },
        {
          "internalType": "uint256",
          "name": "value",
          "type": "uint256"
        },
        {
          "internalType": "bytes",
          "name": "data",
          "type": "bytes"
        },
        {
          "internalType": "uint8",
          "name": "operation",
          "type": "uint8"
        }
      ],
      "name": "execute",
      "outputs": [
        {
          "internalType": "bytes",
          "name": "returnData",
          "type": "bytes"
        }
      ],
      "stateMutability": "payable",
      "type": "function"
    },
    {
      "inputs": [
        {
          "internalType": "address",
          "name": "target",
          "type": "address"
        },
        {
          "internalType": "uint256",
          "name": "value",
          "type": "uint256"
        },
        {
          "internalType": "bytes",
          "name": "data",
          "type": "bytes"
        }
      ],
      "name": "execute",
      "outputs": [],
      "stateMutability": "nonpayable",
      "type": "function"
    },
    {
      "inputs": [
        {
          "internalType": "address",
          "name": "to",
          "type": "address"
        },
        {
          "internalType": "uint256",
          "name": "value",
          "type": "uint256"
        },
        {
          "internalType": "bytes",
          "name": "data",
          "type": "bytes"
        },
        {
          "internalType": "uint8",
          "name": "operation",
          "type": "uint8"
        },
        {
          "internalType": "uint256",
          "name": "txGas",
          "type": "uint256"
        }
      ],
      "name": "execute",
      "outputs": [
        {
          "internalType": "bytes",
          "name": "returnData",
          "type": "bytes"
        }
      ],
      "stateMutability": "payable",
      "type": "function"
    },
    {
      "inputs": [
        {
          "components": [
            {
              "internalType": "address",
              "name": "target",
              "type": "address"
            },
            {
              "internalType": "uint256",
              "name": "value",
              "type": "uint256"
            },
            {
              "internalType": "bytes",
              "name": "data",
              "type": "bytes"
            }
          ],
          "internalType": "struct BaseAccount.Call[]",
          "name": "calls",
          "type": "tuple[]"
        }
      ],
      "name": "executeBatch",
      "outputs": [],
      "stateMutability": "nonpayable",
      "type": "function"
    },
    {
      "inputs": [
        {
          "internalType": "bytes32",
          "name": "_commit",
          "type": "bytes32"
        }
      ],
      "name": "getCommit",
      "outputs": [
        {
          "internalType": "uint256",
          "name": "",
          "type": "uint256"
        }
      ],
      "stateMutability": "view",
      "type": "function"
    },
    {
      "inputs": [
        {
          "internalType": "bytes",
          "name": "name",
          "type": "bytes"
        },
        {
          "internalType": "address",
          "name": "sender",
          "type": "address"
        }
      ],
      "name": "getCommitHash",
      "outputs": [
        {
          "internalType": "bytes32",
          "name": "",
          "type": "bytes32"
        }
      ],
      "stateMutability": "pure",
      "type": "function"
    },
    {
      "inputs": [],
      "name": "getNonce",
      "outputs": [
        {
          "internalType": "uint256",
          "name": "",
          "type": "uint256"
        }
      ],
      "stateMutability": "view",
      "type": "function"
    },
    {
      "inputs": [],
      "name": "hypermap",
      "outputs": [
        {
          "internalType": "contract IHypermap",
          "name": "",
          "type": "address"
        }
      ],
      "stateMutability": "view",
      "type": "function"
    },
    {
      "inputs": [],
      "name": "initialize",
      "outputs": [],
      "stateMutability": "nonpayable",
      "type": "function"
    },
    {
      "inputs": [
        {
          "internalType": "address",
          "name": "signer",
          "type": "address"
        }
      ],
      "name": "isOperator",
      "outputs": [
        {
          "internalType": "bool",
          "name": "",
          "type": "bool"
        }
      ],
      "stateMutability": "view",
      "type": "function"
    },
    {
      "inputs": [
        {
          "internalType": "bytes32",
          "name": "hash",
          "type": "bytes32"
        },
        {
          "internalType": "bytes",
          "name": "signature",
          "type": "bytes"
        }
      ],
      "name": "isValidSignature",
      "outputs": [
        {
          "internalType": "bytes4",
          "name": "magicValue",
          "type": "bytes4"
        }
      ],
      "stateMutability": "view",
      "type": "function"
    },
    {
      "inputs": [
        {
          "internalType": "address",
          "name": "signer",
          "type": "address"
        },
        {
          "internalType": "bytes",
          "name": "",
          "type": "bytes"
        }
      ],
      "name": "isValidSigner",
      "outputs": [
        {
          "internalType": "bytes4",
          "name": "magicValue",
          "type": "bytes4"
        }
      ],
      "stateMutability": "view",
      "type": "function"
    },
    {
      "inputs": [],
      "name": "maxCommitAge",
      "outputs": [
        {
          "internalType": "uint256",
          "name": "",
          "type": "uint256"
        }
      ],
      "stateMutability": "view",
      "type": "function"
    },
    {
      "inputs": [],
      "name": "minCommitAge",
      "outputs": [
        {
          "internalType": "uint256",
          "name": "",
          "type": "uint256"
        }
      ],
      "stateMutability": "view",
      "type": "function"
    },
    {
      "inputs": [
        {
          "internalType": "address",
          "name": "to",
          "type": "address"
        },
        {
          "internalType": "bytes",
          "name": "name",
          "type": "bytes"
        },
        {
          "internalType": "bytes",
          "name": "initialization",
          "type": "bytes"
        },
        {
          "internalType": "address",
          "name": "implementation",
          "type": "address"
        }
      ],
      "name": "mint",
      "outputs": [
        {
          "internalType": "address",
          "name": "tba",
          "type": "address"
        }
      ],
      "stateMutability": "payable",
      "type": "function"
    },
    {
      "inputs": [
        {
          "internalType": "address",
          "name": "",
          "type": "address"
        },
        {
          "internalType": "address",
          "name": "",
          "type": "address"
        },
        {
          "internalType": "uint256[]",
          "name": "",
          "type": "uint256[]"
        },
        {
          "internalType": "uint256[]",
          "name": "",
          "type": "uint256[]"
        },
        {
          "internalType": "bytes",
          "name": "",
          "type": "bytes"
        }
      ],
      "name": "onERC1155BatchReceived",
      "outputs": [
        {
          "internalType": "bytes4",
          "name": "",
          "type": "bytes4"
        }
      ],
      "stateMutability": "view",
      "type": "function"
    },
    {
      "inputs": [
        {
          "internalType": "address",
          "name": "",
          "type": "address"
        },
        {
          "internalType": "address",
          "name": "",
          "type": "address"
        },
        {
          "internalType": "uint256",
          "name": "",
          "type": "uint256"
        },
        {
          "internalType": "uint256",
          "name": "",
          "type": "uint256"
        },
        {
          "internalType": "bytes",
          "name": "",
          "type": "bytes"
        }
      ],
      "name": "onERC1155Received",
      "outputs": [
        {
          "internalType": "bytes4",
          "name": "",
          "type": "bytes4"
        }
      ],
      "stateMutability": "view",
      "type": "function"
    },
    {
      "inputs": [
        {
          "internalType": "address",
          "name": "",
          "type": "address"
        },
        {
          "internalType": "address",
          "name": "",
          "type": "address"
        },
        {
          "internalType": "uint256",
          "name": "receivedTokenId",
          "type": "uint256"
        },
        {
          "internalType": "bytes",
          "name": "",
          "type": "bytes"
        }
      ],
      "name": "onERC721Received",
      "outputs": [
        {
          "internalType": "bytes4",
          "name": "",
          "type": "bytes4"
        }
      ],
      "stateMutability": "view",
      "type": "function"
    },
    {
      "inputs": [],
      "name": "proxiableUUID",
      "outputs": [
        {
          "internalType": "bytes32",
          "name": "",
          "type": "bytes32"
        }
      ],
      "stateMutability": "view",
      "type": "function"
    },
    {
      "inputs": [],
      "name": "state",
      "outputs": [
        {
          "internalType": "uint256",
          "name": "",
          "type": "uint256"
        }
      ],
      "stateMutability": "view",
      "type": "function"
    },
    {
      "inputs": [
        {
          "internalType": "bytes4",
          "name": "interfaceId",
          "type": "bytes4"
        }
      ],
      "name": "supportsInterface",
      "outputs": [
        {
          "internalType": "bool",
          "name": "",
          "type": "bool"
        }
      ],
      "stateMutability": "view",
      "type": "function"
    },
    {
      "inputs": [],
      "name": "token",
      "outputs": [
        {
          "internalType": "uint256",
          "name": "chainId",
          "type": "uint256"
        },
        {
          "internalType": "address",
          "name": "tokenContract",
          "type": "address"
        },
        {
          "internalType": "uint256",
          "name": "tokenId",
          "type": "uint256"
        }
      ],
      "stateMutability": "view",
      "type": "function"
    },
    {
      "inputs": [
        {
          "internalType": "address",
          "name": "",
          "type": "address"
        },
        {
          "internalType": "address",
          "name": "",
          "type": "address"
        },
        {
          "internalType": "address",
          "name": "",
          "type": "address"
        },
        {
          "internalType": "uint256",
          "name": "",
          "type": "uint256"
        },
        {
          "internalType": "bytes",
          "name": "",
          "type": "bytes"
        },
        {
          "internalType": "bytes",
          "name": "",
          "type": "bytes"
        }
      ],
      "name": "tokensReceived",
      "outputs": [],
      "stateMutability": "pure",
      "type": "function"
    },
    {
      "inputs": [
        {
          "internalType": "address",
          "name": "newImplementation",
          "type": "address"
        },
        {
          "internalType": "bytes",
          "name": "data",
          "type": "bytes"
        }
      ],
      "name": "upgradeToAndCall",
      "outputs": [],
      "stateMutability": "payable",
      "type": "function"
    },
    {
      "inputs": [
        {
          "components": [
            {
              "internalType": "address",
              "name": "sender",
              "type": "address"
            },
            {
              "internalType": "uint256",
              "name": "nonce",
              "type": "uint256"
            },
            {
              "internalType": "bytes",
              "name": "initCode",
              "type": "bytes"
            },
            {
              "internalType": "bytes",
              "name": "callData",
              "type": "bytes"
            },
            {
              "internalType": "bytes32",
              "name": "accountGasLimits",
              "type": "bytes32"
            },
            {
              "internalType": "uint256",
              "name": "preVerificationGas",
              "type": "uint256"
            },
            {
              "internalType": "bytes32",
              "name": "gasFees",
              "type": "bytes32"
            },
            {
              "internalType": "bytes",
              "name": "paymasterAndData",
              "type": "bytes"
            },
            {
              "internalType": "bytes",
              "name": "signature",
              "type": "bytes"
            }
          ],
          "internalType": "struct PackedUserOperation",
          "name": "userOp",
          "type": "tuple"
        },
        {
          "internalType": "bytes32",
          "name": "userOpHash",
          "type": "bytes32"
        },
        {
          "internalType": "uint256",
          "name": "missingAccountFunds",
          "type": "uint256"
        }
      ],
      "name": "validateUserOp",
      "outputs": [
        {
          "internalType": "uint256",
          "name": "validationData",
          "type": "uint256"
        }
      ],
      "stateMutability": "nonpayable",
      "type": "function"
    },
    {
      "stateMutability": "payable",
      "type": "receive"
    }
  ],
  "bytecode": "61010060405230608052348015610014575f5ffd5b50604051612d09380380612d098339810160408190526100339161017c565b8282828261003f6100ca565b6001600160a01b031660a0528082111561007b5760405163417bc5b560e01b815260048101839052602481018290526044015b60405180910390fd5b603c61008783836101bb565b10156100b757604051638d1b692360e01b81526004810183905260248101829052603c6044820152606401610072565b60c09190915260e052506101e092505050565b7ff0c57e16840df040f15088dc2f81fe391c3923bec73e23a9662efc9c229c6a00805468010000000000000000900460ff161561011a5760405163f92ee8a960e01b815260040160405180910390fd5b80546001600160401b03908116146101795780546001600160401b0319166001600160401b0390811782556040519081527fc7f505b2f371ae2175ee4913f4499e1f2633a7b5936321eed1cdaeb6115181d29060200160405180910390a15b50565b5f5f5f6060848603121561018e575f5ffd5b83516001600160a01b03811681146101a4575f5ffd5b602085015160409095015190969495509392505050565b818103818111156101da57634e487b7160e01b5f52601160045260245ffd5b92915050565b60805160a05160c05160e051612acc61023d5f395f81816105a901528181610ec701526115fa01525f818161033501526115d601525f81816104ec015261167f01525f81816111a9015281816111d201526113ad0152612acc5ff3fe6080604052600436106101d2575f3560e01c806384b0196e116100fd578063bc197c8111610092578063d72ceb9c11610062578063d72ceb9c14610598578063f14fcbc8146105cb578063f23a6e61146105ea578063fc0c546a14610616575f5ffd5b8063bc197c811461052f578063c19d93fb1461055d578063ca3b98bb14610571578063d087d28814610584575f5ffd5b8063ad3cb1cc116100cd578063ad3cb1cc14610488578063b0d691fe146104b8578063b479d600146104de578063b61d27f614610510575f5ffd5b806384b0196e146103f05780638784ea96146104175780638f41ec5a146104615780639cdf379c14610475575f5ffd5b806334fcd5be11610173578063523e326011610143578063523e32601461038a57806352d1902d146103a95780636d70f7ae146103bd5780638129fc1c146103dc575f5ffd5b806334fcd5be14610305578063382e3de7146103245780634f1ef28614610357578063519454471461036a575f5ffd5b8063150b7a02116101ae578063150b7a02146102625780631626ba7e1461029a57806319822f7c146102b957806332556b4d146102e6575f5ffd5b806223de29146101dd57806301ffc9a714610203578063094cefed14610237575f5ffd5b366101d957005b5f5ffd5b3480156101e8575f5ffd5b506102016101f7366004611f1a565b5050505050505050565b005b34801561020e575f5ffd5b5061022261021d366004611fdc565b61064d565b60405190151581526020015b60405180910390f35b61024a610245366004611ff7565b610678565b6040516001600160a01b03909116815260200161022e565b34801561026d575f5ffd5b5061028161027c366004612089565b610692565b6040516001600160e01b0319909116815260200161022e565b3480156102a5575f5ffd5b506102816102b4366004612193565b6106ec565b3480156102c4575f5ffd5b506102d86102d33660046121d6565b610811565b60405190815260200161022e565b3480156102f1575f5ffd5b506102d8610300366004612224565b610843565b348015610310575f5ffd5b5061020161031f3660046122b2565b61084e565b34801561032f575f5ffd5b506102d87f000000000000000000000000000000000000000000000000000000000000000081565b6102016103653660046122f0565b61093e565b61037d61037836600461233b565b61095d565b60405161022e91906123d4565b348015610395575f5ffd5b506102816103a43660046123e6565b610989565b3480156103b4575f5ffd5b506102d86109ae565b3480156103c8575f5ffd5b506102226103d7366004612436565b6109c9565b3480156103e7575f5ffd5b50610201610a67565b3480156103fb575f5ffd5b50610404610bc9565b60405161022e9796959493929190612451565b348015610422575f5ffd5b506102d86104313660046124e7565b5f9081527f659d6b2d1cd4038bbdc740615487e3191db8a386ca05e11a459fedc97f38df00602052604090205490565b34801561046c575f5ffd5b506102d8600181565b348015610480575f5ffd5b506102d85f81565b348015610493575f5ffd5b5061037d604051806040016040528060058152602001640352e302e360dc1b81525081565b3480156104c3575f5ffd5b50734337084d9e255ff0702461cf8895ce9e3b5ff10861024a565b3480156104e9575f5ffd5b507f000000000000000000000000000000000000000000000000000000000000000061024a565b34801561051b575f5ffd5b5061020161052a3660046124fe565b610c72565b34801561053a575f5ffd5b50610281610549366004612555565b63bc197c8160e01b98975050505050505050565b348015610568575f5ffd5b506102d8610cca565b61037d61057f3660046125f5565b610db1565b34801561058f575f5ffd5b506102d8610dea565b3480156105a3575f5ffd5b506102d87f000000000000000000000000000000000000000000000000000000000000000081565b3480156105d6575f5ffd5b506102016105e53660046124e7565b610e73565b3480156105f5575f5ffd5b5061028161060436600461266a565b63f23a6e6160e01b9695505050505050565b348015610621575f5ffd5b5061062a610efe565b604080519384526001600160a01b0390921660208401529082015260600161022e565b5f61065782610f14565b8061067257506001600160e01b0319821663449e4a1360e01b145b92915050565b5f610687878787878787610f3e565b979650505050505050565b5f5f5f61069d610efe565b909350915050336001600160a01b0383161480156106ba57508086145b156106d85760405163b79e3f3f60e01b815260040160405180910390fd5b50630a85bd0160e11b979650505050505050565b5f5f5f5f61070c85602081015160408201516060909201515f1a92909190565b9094509250905060ff81165f036107d7578285830160200161072d826109c9565b15801561074357506001600160a01b0382163014155b1561075e57506001600160e01b031994506106729350505050565b604051630b135d3f60e11b81526001600160a01b03831690631626ba7e9061078c908b9085906004016126e0565b602060405180830381865afa1580156107a7573d5f5f3e3d5ffd5b505050506040513d601f19601f820116820180604052508101906107cb91906126f8565b95505050505050610672565b6107e66103d787838686610f90565b156107fe5750630b135d3f60e11b9250610672915050565b506001600160e01b031995945050505050565b5f61081a610fbc565b6108248484611021565b9050610833846020013561107e565b61083c826110c7565b9392505050565b5f61083c838361110c565b61085661113e565b805f5b81811015610938573684848381811061087457610874612713565b90506020028101906108869190612727565b90505f6108e46108996020840184612436565b60208401356108ab6040860186612745565b8080601f0160208091040260200160405190810160405280939291908181526020018383808284375f920191909152505050505a611146565b90508061092e5783600103610900576108fb61115c565b61092e565b8261090a5f61116d565b604051635a15467560e01b81526004016109259291906126e0565b60405180910390fd5b5050600101610859565b50505050565b61094661119e565b61094f82611242565b610959828261128a565b5050565b60605f61096e87878787875a61134b565b925090508061097f57815160208301fd5b5095945050505050565b5f610993846109c9565b61099d575f6109a6565b630291f19360e51b5b949350505050565b5f6109b76113a2565b505f516020612a775f395f51905f5290565b5f5f5f6109d4610efe565b6040516331a9108f60e11b81526004810182905291945092506001600160a01b038087169250841690636352211e90602401602060405180830381865afa158015610a21573d5f5f3e3d5ffd5b505050506040513d601f19601f82011682018060405250810190610a459190612787565b6001600160a01b03161480156109a657505050506001600160a01b0316151590565b7ff0c57e16840df040f15088dc2f81fe391c3923bec73e23a9662efc9c229c6a008054600160401b810460ff1615906001600160401b03165f81158015610aab5750825b90505f826001600160401b03166001148015610ac65750303b155b905081158015610ad4575080155b15610af25760405163f92ee8a960e01b815260040160405180910390fd5b845467ffffffffffffffff191660011785558315610b1c57845460ff60401b1916600160401b1785555b610b246113eb565b610b7c6040518060400160405280601d81526020017f48797065724163636f756e743943686172436f6d6d69744d696e746572000000815250604051806040016040528060018152602001603160f81b8152506113f3565b8315610bc257845460ff60401b19168555604051600181527fc7f505b2f371ae2175ee4913f4499e1f2633a7b5936321eed1cdaeb6115181d29060200160405180910390a15b5050505050565b5f60608082808083815f516020612a575f395f51905f528054909150158015610bf457506001810154155b610c385760405162461bcd60e51b81526020600482015260156024820152741152540dcc4c8e88155b9a5b9a5d1a585b1a5e9959605a1b6044820152606401610925565b610c40611405565b610c486114c5565b604080515f80825260208201909252600f60f81b9c939b5091995046985030975095509350915050565b610c7a61113e565b5f610cbb858585858080601f0160208091040260200160405190810160405280939291908181526020018383808284375f920191909152505050505a611146565b905080610bc257610bc261115c565b5f807fe4b1c7558f331d2752f6cb495b2cf8e1b8ae3112bcc78ec0c3bfebfbe3cd480090505f734337084d9e255ff0702461cf8895ce9e3b5ff108604051631aab3f0d60e11b81523060048201525f60248201526001600160a01b0391909116906335567e1a90604401602060405180830381865afa158015610d4f573d5f5f3e3d5ffd5b505050506040513d601f19601f82011682018060405250810190610d7391906127a2565b8254604051919250610d92918390602001918252602082015260400190565b604051602081830303815290604052805190602001205f1c9250505090565b60605f610dce88888888888815610dc8578861134b565b5a61134b565b9250905080610ddf57815160208301fd5b509695505050505050565b5f734337084d9e255ff0702461cf8895ce9e3b5ff108604051631aab3f0d60e11b81523060048201525f60248201526001600160a01b0391909116906335567e1a90604401602060405180830381865afa158015610e4a573d5f5f3e3d5ffd5b505050506040513d601f19601f82011682018060405250810190610e6e91906127a2565b905090565b5f8181527f659d6b2d1cd4038bbdc740615487e3191db8a386ca05e11a459fedc97f38df0060208190526040909120544211610ec2576040516317d57db160e21b815260040160405180910390fd5b610eec7f0000000000000000000000000000000000000000000000000000000000000000426127cd565b5f838152602083905260409020555050565b5f5f5f610f09611503565b925092509250909192565b5f610f1e8261150f565b8061067257506001600160e01b03198216633c1cc5f160e01b1492915050565b5f6009851015610f825760405162461bcd60e51b815260206004820152600f60248201526e131858995b081d1bdbc81cda1bdc9d608a1b6044820152606401610925565b610687878787878787611539565b5f5f5f5f610fa08888888861170b565b925092509250610fb082826117d3565b50909695505050505050565b33734337084d9e255ff0702461cf8895ce9e3b5ff1081461101f5760405162461bcd60e51b815260206004820152601c60248201527f6163636f756e743a206e6f742066726f6d20456e747279506f696e74000000006044820152606401610925565b565b5f60046110316060850185612745565b90501115611074575f61104f61104a6060860186612745565b61188b565b905063f6b3101360e01b6001600160e01b0319821601611072575f915050610672565b505b61083c83836118a2565b6001600160401b0381106110c45760405162461bcd60e51b815260206004820152600d60248201526c496e76616c6964206e6f6e636560981b6044820152606401610925565b50565b80156110c4576040515f90339083908381818185875af1925050503d805f8114610bc2576040519150601f19603f3d011682016040523d82523d5f602084013e610bc2565b5f82826040516020016111209291906127e0565b60405160208183030381529060405280519060200120905092915050565b61101f610fbc565b5f5f5f845160208601878987f195945050505050565b61101f6111685f61116d565b6119af565b60603d821561118157828111156111815750815b604051602082018101604052818152815f602083013e9392505050565b306001600160a01b037f000000000000000000000000000000000000000000000000000000000000000016148061122457507f00000000000000000000000000000000000000000000000000000000000000006001600160a01b03166112185f516020612a775f395f51905f52546001600160a01b031690565b6001600160a01b031614155b1561101f5760405163703e46dd60e11b815260040160405180910390fd5b61124b336109c9565b15801561126c575033734337084d9e255ff0702461cf8895ce9e3b5ff10814155b156110c457604051634780295360e11b815260040160405180910390fd5b816001600160a01b03166352d1902d6040518163ffffffff1660e01b8152600401602060405180830381865afa9250505080156112e4575060408051601f3d908101601f191682019092526112e1918101906127a2565b60015b61130c57604051634c9c8ce360e01b81526001600160a01b0383166004820152602401610925565b5f516020612a775f395f51905f52811461133c57604051632a87526960e21b815260048101829052602401610925565b61134683836119b7565b505050565b7fe4b1c7558f331d2752f6cb495b2cf8e1b8ae3112bcc78ec0c3bfebfbe3cd480080545f91606091818461137e83612809565b9190505550611391898989898989611a0c565b92509250505b965096945050505050565b306001600160a01b037f0000000000000000000000000000000000000000000000000000000000000000161461101f5760405163703e46dd60e11b815260040160405180910390fd5b61101f611b63565b6113fb611b63565b6109598282611bac565b7fa16a46d94261c7517cc8ff89f61c0ce93598e3c849801011dee649a6a557d10280546060915f516020612a575f395f51905f529161144390612821565b80601f016020809104026020016040519081016040528092919081815260200182805461146f90612821565b80156114ba5780601f10611491576101008083540402835291602001916114ba565b820191905f5260205f20905b81548152906001019060200180831161149d57829003601f168201915b505050505091505090565b7fa16a46d94261c7517cc8ff89f61c0ce93598e3c849801011dee649a6a557d10380546060915f516020612a575f395f51905f529161144390612821565b5f5f5f610f0930611c0b565b5f61151982611c5f565b8061067257506001600160e01b03198216636faff5f160e01b1492915050565b5f807f659d6b2d1cd4038bbdc740615487e3191db8a386ca05e11a459fedc97f38df0090505f815f015f6115a38a8a8080601f0160208091040260200160405190810160405280939291908181526020018383808284375f9201919091525033925061110c915050565b81526020019081526020015f20549050805f036115d35760405163345512df60e21b815260040160405180910390fd5b427f000000000000000000000000000000000000000000000000000000000000000061161f7f000000000000000000000000000000000000000000000000000000000000000084612859565b61162991906127cd565b1061164757604051639e8ddd6d60e01b815260040160405180910390fd5b428110156116685760405163716dbcc960e01b815260040160405180910390fd5b60405163094cefed60e01b81526001600160a01b037f0000000000000000000000000000000000000000000000000000000000000000169063094cefed906116be908c908c908c908c908c908c90600401612894565b6020604051808303815f875af11580156116da573d5f5f3e3d5ffd5b505050506040513d601f19601f820116820180604052508101906116fe9190612787565b9998505050505050505050565b5f80807f7fffffffffffffffffffffffffffffff5d576e7357a4501ddfe92f46681b20a084111561174457505f915060039050826117c9565b604080515f808252602082018084528a905260ff891692820192909252606081018790526080810186905260019060a0016020604051602081039080840390855afa158015611795573d5f5f3e3d5ffd5b5050604051601f1901519150506001600160a01b0381166117c057505f9250600191508290506117c9565b92505f91508190505b9450945094915050565b5f8260038111156117e6576117e66128e7565b036117ef575050565b6001826003811115611803576118036128e7565b036118215760405163f645eedf60e01b815260040160405180910390fd5b6002826003811115611835576118356128e7565b036118565760405163fce698f760e01b815260048101829052602401610925565b600382600381111561186a5761186a6128e7565b03610959576040516335e2f38360e21b815260048101829052602401610925565b5f600482101561189c57505f610672565b50503590565b5f80806118f0846118b7610100880188612745565b8080601f0160208091040260200160405190810160405280939291908181526020018383808284375f92019190915250611d0092505050565b5090925090505f816003811115611909576119096128e7565b14801561191a575061191a826109c9565b15611929575f92505050610672565b7f19457468657265756d205369676e6564204d6573736167653a0a3332000000005f908152601c859052603c9020611969816118b7610100890189612745565b5090935091505f826003811115611982576119826128e7565b1480156119935750611993836109c9565b156119a3575f9350505050610672565b50600195945050505050565b805160208201fd5b6119c082611d49565b6040516001600160a01b038316907fbc7cd75a20ee27fd9adebab32041f755214dbc6bffa90cc0225b39da2e5c2d3b905f90a2805115611a04576113468282611dac565b610959611e1e565b5f6060611a18336109c9565b158015611a39575033734337084d9e255ff0702461cf8895ce9e3b5ff10814155b15611a5757604051634780295360e11b815260040160405180910390fd5b8360ff165f03611ac857876001600160a01b031683888888604051611a7d9291906128fb565b5f60405180830381858888f193505050503d805f8114611ab8576040519150601f19603f3d011682016040523d82523d5f602084013e611abd565b606091505b509092509050611397565b8360ff16600103611b2757876001600160a01b0316838787604051611aee9291906128fb565b5f604051808303818686f4925050503d805f8114611ab8576040519150601f19603f3d011682016040523d82523d5f602084013e611abd565b60405162461bcd60e51b815260206004820152601160248201527024b73b30b634b21037b832b930ba34b7b760791b6044820152606401610925565b7ff0c57e16840df040f15088dc2f81fe391c3923bec73e23a9662efc9c229c6a0054600160401b900460ff1661101f57604051631afcd79f60e31b815260040160405180910390fd5b611bb4611b63565b5f516020612a575f395f51905f527fa16a46d94261c7517cc8ff89f61c0ce93598e3c849801011dee649a6a557d102611bed848261294e565b5060038101611bfc838261294e565b505f8082556001909101555050565b604080516060808252608082019092525f91829182918291906020820181803683370190505090506060604d60208301873c80806020019051810190611c519190612a08565b935093509350509193909250565b5f6001600160e01b03198216633ce4a3e960e01b1480611c8f57506001600160e01b031982166301ffc9a760e01b145b80611caa57506001600160e01b031982166306608bdf60e21b145b80611cc557506001600160e01b03198216630b135d3f60e11b145b80611ce057506001600160e01b03198216630271189760e51b145b8061067257506001600160e01b03198216635194544760e01b1492915050565b5f5f5f8351604103611d37576020840151604085015160608601515f1a611d298882858561170b565b955095509550505050611d42565b505081515f91506002905b9250925092565b806001600160a01b03163b5f03611d7e57604051634c9c8ce360e01b81526001600160a01b0382166004820152602401610925565b5f516020612a775f395f51905f5280546001600160a01b0319166001600160a01b0392909216919091179055565b60605f5f846001600160a01b031684604051611dc89190612a40565b5f60405180830381855af49150503d805f8114611e00576040519150601f19603f3d011682016040523d82523d5f602084013e611e05565b606091505b5091509150611e15858383611e3d565b95945050505050565b341561101f5760405163b398979f60e01b815260040160405180910390fd5b606082611e5257611e4d82611e99565b61083c565b8151158015611e6957506001600160a01b0384163b155b15611e9257604051639996b31560e01b81526001600160a01b0385166004820152602401610925565b508061083c565b805115611ea95780518082602001fd5b60405163d6bda27560e01b815260040160405180910390fd5b6001600160a01b03811681146110c4575f5ffd5b5f5f83601f840112611ee6575f5ffd5b5081356001600160401b03811115611efc575f5ffd5b602083019150836020828501011115611f13575f5ffd5b9250929050565b5f5f5f5f5f5f5f5f60c0898b031215611f31575f5ffd5b8835611f3c81611ec2565b97506020890135611f4c81611ec2565b96506040890135611f5c81611ec2565b95506060890135945060808901356001600160401b03811115611f7d575f5ffd5b611f898b828c01611ed6565b90955093505060a08901356001600160401b03811115611fa7575f5ffd5b611fb38b828c01611ed6565b999c989b5096995094979396929594505050565b6001600160e01b0319811681146110c4575f5ffd5b5f60208284031215611fec575f5ffd5b813561083c81611fc7565b5f5f5f5f5f5f6080878903121561200c575f5ffd5b863561201781611ec2565b955060208701356001600160401b03811115612031575f5ffd5b61203d89828a01611ed6565b90965094505060408701356001600160401b0381111561205b575f5ffd5b61206789828a01611ed6565b909450925050606087013561207b81611ec2565b809150509295509295509295565b5f5f5f5f5f6080868803121561209d575f5ffd5b85356120a881611ec2565b945060208601356120b881611ec2565b93506040860135925060608601356001600160401b038111156120d9575f5ffd5b6120e588828901611ed6565b969995985093965092949392505050565b634e487b7160e01b5f52604160045260245ffd5b5f82601f830112612119575f5ffd5b81356001600160401b03811115612132576121326120f6565b604051601f8201601f19908116603f011681016001600160401b0381118282101715612160576121606120f6565b604052818152838201602001851015612177575f5ffd5b816020850160208301375f918101602001919091529392505050565b5f5f604083850312156121a4575f5ffd5b8235915060208301356001600160401b038111156121c0575f5ffd5b6121cc8582860161210a565b9150509250929050565b5f5f5f606084860312156121e8575f5ffd5b83356001600160401b038111156121fd575f5ffd5b8401610120818703121561220f575f5ffd5b95602085013595506040909401359392505050565b5f5f60408385031215612235575f5ffd5b82356001600160401b0381111561224a575f5ffd5b6122568582860161210a565b925050602083013561226781611ec2565b809150509250929050565b5f5f83601f840112612282575f5ffd5b5081356001600160401b03811115612298575f5ffd5b6020830191508360208260051b8501011115611f13575f5ffd5b5f5f602083850312156122c3575f5ffd5b82356001600160401b038111156122d8575f5ffd5b6122e485828601612272565b90969095509350505050565b5f5f60408385031215612301575f5ffd5b823561230c81611ec2565b915060208301356001600160401b038111156121c0575f5ffd5b803560ff81168114612336575f5ffd5b919050565b5f5f5f5f5f6080868803121561234f575f5ffd5b853561235a81611ec2565b94506020860135935060408601356001600160401b0381111561237b575f5ffd5b61238788828901611ed6565b909450925061239a905060608701612326565b90509295509295909350565b5f81518084528060208401602086015e5f602082860101526020601f19601f83011685010191505092915050565b602081525f61083c60208301846123a6565b5f5f5f604084860312156123f8575f5ffd5b833561240381611ec2565b925060208401356001600160401b0381111561241d575f5ffd5b61242986828701611ed6565b9497909650939450505050565b5f60208284031215612446575f5ffd5b813561083c81611ec2565b60ff60f81b8816815260e060208201525f61246f60e08301896123a6565b828103604084015261248181896123a6565b606084018890526001600160a01b038716608085015260a0840186905283810360c0850152845180825260208087019350909101905f5b818110156124d65783518352602093840193909201916001016124b8565b50909b9a5050505050505050505050565b5f602082840312156124f7575f5ffd5b5035919050565b5f5f5f5f60608587031215612511575f5ffd5b843561251c81611ec2565b93506020850135925060408501356001600160401b0381111561253d575f5ffd5b61254987828801611ed6565b95989497509550505050565b5f5f5f5f5f5f5f5f60a0898b03121561256c575f5ffd5b883561257781611ec2565b9750602089013561258781611ec2565b965060408901356001600160401b038111156125a1575f5ffd5b6125ad8b828c01612272565b90975095505060608901356001600160401b038111156125cb575f5ffd5b6125d78b828c01612272565b90955093505060808901356001600160401b03811115611fa7575f5ffd5b5f5f5f5f5f5f60a0878903121561260a575f5ffd5b863561261581611ec2565b95506020870135945060408701356001600160401b03811115612636575f5ffd5b61264289828a01611ed6565b9095509350612655905060608801612326565b95989497509295919493608090920135925050565b5f5f5f5f5f5f60a0878903121561267f575f5ffd5b863561268a81611ec2565b9550602087013561269a81611ec2565b9450604087013593506060870135925060808701356001600160401b038111156126c2575f5ffd5b6126ce89828a01611ed6565b979a9699509497509295939492505050565b828152604060208201525f6109a660408301846123a6565b5f60208284031215612708575f5ffd5b815161083c81611fc7565b634e487b7160e01b5f52603260045260245ffd5b5f8235605e1983360301811261273b575f5ffd5b9190910192915050565b5f5f8335601e1984360301811261275a575f5ffd5b8301803591506001600160401b03821115612773575f5ffd5b602001915036819003821315611f13575f5ffd5b5f60208284031215612797575f5ffd5b815161083c81611ec2565b5f602082840312156127b2575f5ffd5b5051919050565b634e487b7160e01b5f52601160045260245ffd5b80820180821115610672576106726127b9565b604081525f6127f260408301856123a6565b905060018060a01b03831660208301529392505050565b5f6001820161281a5761281a6127b9565b5060010190565b600181811c9082168061283557607f821691505b60208210810361285357634e487b7160e01b5f52602260045260245ffd5b50919050565b81810381811115610672576106726127b9565b81835281816020850137505f828201602090810191909152601f909101601f19169091010190565b6001600160a01b03871681526080602082018190525f906128b8908301878961286c565b82810360408401526128cb81868861286c565b91505060018060a01b0383166060830152979650505050505050565b634e487b7160e01b5f52602160045260245ffd5b818382375f9101908152919050565b601f82111561134657805f5260205f20601f840160051c8101602085101561292f5750805b601f840160051c820191505b81811015610bc2575f815560010161293b565b81516001600160401b03811115612967576129676120f6565b61297b816129758454612821565b8461290a565b6020601f8211600181146129ad575f83156129965750848201515b5f19600385901b1c1916600184901b178455610bc2565b5f84815260208120601f198516915b828110156129dc57878501518255602094850194600190920191016129bc565b50848210156129f957868401515f19600387901b60f8161c191681555b50505050600190811b01905550565b5f5f5f60608486031215612a1a575f5ffd5b83516020850151909350612a2d81611ec2565b6040949094015192959394509192915050565b5f82518060208501845e5f92019182525091905056fea16a46d94261c7517cc8ff89f61c0ce93598e3c849801011dee649a6a557d100360894a13ba1a3210667c828492db98dca3e2076cc3735a920a3ca505d382bbca2646970667358221220f58c9e12d248e4c83ceb8d478aa89f0e5955ddfc00b72094584abf097958406c64736f6c634300081c0033",
  "bytecodeSha1": "02e09ea151f2e03acf60c0e7d3b49e47cbde22eb",
  "compiler": {
    "evm_version": "cancun",
    "optimizer": {
      "enabled": true,
      "runs": 200
    },
    "version": "0.8.28+commit.7893614a"
  },
  "contractName": "HyperAccount9CharCommitMinter",
  "language": "Solidity",
  "natspec": {
    "errors": {
      "AddressEmptyCode(address)": [
        {
          "details": "There's no code at `target` (it is not a contract)."
        }
      ],
      "ECDSAInvalidSignature()": [
        {
          "details": "The signature derives the `address(0)`."
        }
      ],
      "ECDSAInvalidSignatureLength(uint256)": [
        {
          "details": "The signature has an invalid length."
        }
      ],
      "ECDSAInvalidSignatureS(bytes32)": [
        {
          "details": "The signature has an S value that is in the upper half order."
        }
      ],
      "ERC1967InvalidImplementation(address)": [
        {
          "details": "The `implementation` of the proxy is invalid."
        }
      ],
      "ERC1967NonPayable()": [
        {
          "details": "An upgrade function sees `msg.value > 0` that may be lost."
        }
      ],
      "FailedCall()": [
        {
          "details": "A call to an address target failed. The target may have reverted."
        }
      ],
      "InvalidInitialization()": [
        {
          "details": "The contract is already initialized."
        }
      ],
      "NotInitializing()": [
        {
          "details": "The contract is not initializing."
        }
      ],
      "UUPSUnauthorizedCallContext()": [
        {
          "details": "The call is from an unauthorized context."
        }
      ],
      "UUPSUnsupportedProxiableUUID(bytes32)": [
        {
          "details": "The storage `slot` is unsupported as a UUID."
        }
      ]
    },
    "kind": "dev",
    "methods": {
      "commit(bytes32)": {
        "notice": "Privately commit to a specific name by hashing it along with the sender's address. A commit is valid for a certain period of time, found by reading maxCommitAge(). While the commit is valid, the sender can mint.",
        "params": {
          "_commit": "The keccak256 hash of the name+sender to commit to. Can be obtained by calling getCommitHash."
        }
      },
      "eip712Domain()": {
        "details": "See {IERC-5267}."
      },
      "entryPoint()": {
        "notice": "Return the entryPoint used by this account. Subclass should return the current entryPoint used by this account."
      },
      "execute(address,uint256,bytes)": {
        "notice": "execute a single call from the account."
      },
      "execute(address,uint256,bytes,uint8)": {
        "details": "Allows the mech operator to execute arbitrary transactions",
        "params": {
          "data": "Data payload of transaction.",
          "operation": "Operation type of transaction.",
          "to": "Destination address of transaction.",
          "value": "Ether value of transaction."
        },
        "returns": {
          "returnData": "Return data of the call"
        }
      },
      "execute(address,uint256,bytes,uint8,uint256)": {
        "details": "Allows the mech operator to execute arbitrary transactions",
        "params": {
          "data": "Data payload of transaction.",
          "operation": "Operation type of transaction.",
          "to": "Destination address of transaction.",
          "txGas": "Gas to send for executing the meta transaction, if 0 all left will be sent",
          "value": "Ether value of transaction."
        },
        "returns": {
          "returnData": "Return data of the call"
        }
      },
      "executeBatch((address,uint256,bytes)[])": {
        "notice": "execute a batch of calls. revert on the first call that fails. If the batch reverts, and it contains more than a single call, then wrap the revert with ExecuteError,  to mark the failing call index."
      },
      "getCommit(bytes32)": {
        "notice": "Get an existing commit's expiration timestamp.",
        "params": {
          "_commit": "The keccak256 hash of the name to get the commit for."
        },
        "returns": {
          "_0": "The commit for the name, containing the expiration timestamp and the sender."
        }
      },
      "getCommitHash(bytes,address)": {
        "notice": "Get the keccak256 hash of a name+sender.",
        "params": {
          "name": "The name to hash.",
          "sender": "The sender's address to hash."
        },
        "returns": {
          "_0": "The keccak256 hash of the name+sender."
        }
      },
      "getNonce()": {
        "notice": "Return the account nonce. This method returns the next sequential nonce. For a nonce of a specific key, use `entrypoint.getNonce(account, key)`"
      },
      "isOperator(address)": {
        "details": "Return if the passed address is authorized to sign on behalf of the mech, must be implemented by the child contract",
        "params": {
          "signer": "The address to check"
        }
      },
      "isValidSignature(bytes32,bytes)": {
        "details": "Checks whether the signature provided is valid for the provided hash, complies with EIP-1271. A signature is valid if either:  - It's a valid ECDSA signature by the mech operator  - It's a valid EIP-1271 signature by the mech operator  - It's a valid EIP-1271 signature by the mech itself",
        "params": {
          "hash": "Hash of the data (could be either a message hash or transaction hash)",
          "signature": "Signature to validate. Can be an ECDSA signature or a EIP-1271 contract signature (identified by v=0)"
        }
      },
      "isValidSigner(address,bytes)": {
        "details": "Returns a magic value indicating whether a given signer is authorized to act on behalf of the account",
        "params": {
          "signer": "The address to check signing authorization for"
        },
        "returns": {
          "magicValue": "Magic value indicating whether the signer is valid"
        }
      },
      "proxiableUUID()": {
        "details": "Implementation of the ERC-1822 {proxiableUUID} function. This returns the storage slot used by the implementation. It is used to validate the implementation's compatibility when performing an upgrade. IMPORTANT: A proxy pointing at a proxiable contract should not be considered proxiable itself, because this risks bricking a proxy that upgrades to it, by delegating to itself until out of gas. Thus it is critical that this function revert if invoked through a proxy. This is guaranteed by the `notDelegated` modifier."
      },
      "state()": {
        "details": "Returns the current account state per EIP-6551NOTE: This does not change for arbitrary account state changes!The model used here is to change it for *owner-initiated* state changes.E.g., sending a token held by this account should change the state(),but receiving a token should not.This is to prevent griefing if, e.g., a marketplace requires constant state()from listing to sale: an attacked could send a spam token to kill the sale.However, even here, NOT ALL *OWNER-INITIATED* STATE CHANGES ARE CAPTURED.E.g., an owner might approve a contract to transferFrom from this TBA,and such transfers would NOT be reflected with a state change.As such, we advise you do NOT consider this a source of truth, but instead,for the sale-of-TBA case, commit to the state in a more comprehensive, offchain way."
      },
      "supportsInterface(bytes4)": {
        "details": "Returns true if a given interfaceId is supported by this account. This method can be extended by an override"
      },
      "token()": {
        "details": "Returns the identifier of the non-fungible token which owns the account. The return value of this function MUST be constant - it MUST NOT change over time.",
        "returns": {
          "chainId": "      The EIP-155 ID of the chain the token exists on",
          "tokenContract": "The contract address of the token",
          "tokenId": "      The ID of the token"
        }
      },
      "upgradeToAndCall(address,bytes)": {
        "custom:oz-upgrades-unsafe-allow-reachable": "delegatecall",
        "details": "Upgrade the implementation of the proxy to `newImplementation`, and subsequently execute the function call encoded in `data`. Calls {_authorizeUpgrade}. Emits an {Upgraded} event."
      },
      "validateUserOp((address,uint256,bytes,bytes,bytes32,uint256,bytes32,bytes,bytes),bytes32,uint256)": {
        "details": "Must validate caller is the entryPoint.      Must validate the signature and nonce",
        "notice": "Validate user's signature and nonce the entryPoint will make the call to the recipient only if this validation call returns successfully. signature failure should be reported by returning SIG_VALIDATION_FAILED (1). This allows making a \"simulation call\" without a valid signature Other failures (e.g. nonce mismatch, or invalid signature format) should still revert to signal failure.",
        "params": {
          "missingAccountFunds": "- Missing funds on the account's deposit in the entrypoint.                              This is the minimum amount to transfer to the sender(entryPoint) to be                              able to make the call. The excess is left as a deposit in the entrypoint                              for future calls. Can be withdrawn anytime using \"entryPoint.withdrawTo()\".                              In case there is a paymaster in the request (or the current deposit is high                              enough), this value will be zero.",
          "userOp": "- The operation that is about to be executed.",
          "userOpHash": "- Hash of the user's request data. can be used as the basis for signature."
        },
        "returns": {
          "validationData": "      - Packaged ValidationData structure. use `_packValidationData` and                              `_unpackValidationData` to encode and decode.                              <20-byte> aggregatorOrSigFail - 0 for valid signature, 1 to mark signature failure,                                 otherwise, an address of an \"aggregator\" contract.                              <6-byte> validUntil - Last timestamp this operation is valid at, or 0 for \"indefinitely\"                              <6-byte> validAfter - First timestamp this operation is valid                                                    If an account doesn't use time-range, it is enough to                                                    return SIG_VALIDATION_FAILED value (1) for signature failure.                              Note that the validation code cannot use block.timestamp (or block.number) directly."
        }
      }
    },
    "version": 1
  },
  "opcodes": "PUSH1 0x80 PUSH1 0x40 MSTORE PUSH1 0x4 CALLDATASIZE LT PUSH2 0x1D2 JUMPI PUSH0 CALLDATALOAD PUSH1 0xE0 SHR DUP1 PUSH4 0x84B0196E GT PUSH2 0xFD JUMPI DUP1 PUSH4 0xBC197C81 GT PUSH2 0x92 JUMPI DUP1 PUSH4 0xD72CEB9C GT PUSH2 0x62 JUMPI DUP1 PUSH4 0xD72CEB9C EQ PUSH2 0x598 JUMPI DUP1 PUSH4 0xF14FCBC8 EQ PUSH2 0x5CB JUMPI DUP1 PUSH4 0xF23A6E61 EQ PUSH2 0x5EA JUMPI DUP1 PUSH4 0xFC0C546A EQ PUSH2 0x616 JUMPI PUSH0 PUSH0 REVERT JUMPDEST DUP1 PUSH4 0xBC197C81 EQ PUSH2 0x52F JUMPI DUP1 PUSH4 0xC19D93FB EQ PUSH2 0x55D JUMPI DUP1 PUSH4 0xCA3B98BB EQ PUSH2 0x571 JUMPI DUP1 PUSH4 0xD087D288 EQ PUSH2 0x584 JUMPI PUSH0 PUSH0 REVERT JUMPDEST DUP1 PUSH4 0xAD3CB1CC GT PUSH2 0xCD JUMPI DUP1 PUSH4 0xAD3CB1CC EQ PUSH2 0x488 JUMPI DUP1 PUSH4 0xB0D691FE EQ PUSH2 0x4B8 JUMPI DUP1 PUSH4 0xB479D600 EQ PUSH2 0x4DE JUMPI DUP1 PUSH4 0xB61D27F6 EQ PUSH2 0x510 JUMPI PUSH0 PUSH0 REVERT JUMPDEST DUP1 PUSH4 0x84B0196E EQ PUSH2 0x3F0 JUMPI DUP1 PUSH4 0x8784EA96 EQ PUSH2 0x417 JUMPI DUP1 PUSH4 0x8F41EC5A EQ PUSH2 0x461 JUMPI DUP1 PUSH4 0x9CDF379C EQ PUSH2 0x475 JUMPI PUSH0 PUSH0 REVERT JUMPDEST DUP1 PUSH4 0x34FCD5BE GT PUSH2 0x173 JUMPI DUP1 PUSH4 0x523E3260 GT PUSH2 0x143 JUMPI DUP1 PUSH4 0x523E3260 EQ PUSH2 0x38A JUMPI DUP1 PUSH4 0x52D1902D EQ PUSH2 0x3A9 JUMPI DUP1 PUSH4 0x6D70F7AE EQ PUSH2 0x3BD JUMPI DUP1 PUSH4 0x8129FC1C EQ PUSH2 0x3DC JUMPI PUSH0 PUSH0 REVERT JUMPDEST DUP1 PUSH4 0x34FCD5BE EQ PUSH2 0x305 JUMPI DUP1 PUSH4 0x382E3DE7 EQ PUSH2 0x324 JUMPI DUP1 PUSH4 0x4F1EF286 EQ PUSH2 0x357 JUMPI DUP1 PUSH4 0x51945447 EQ PUSH2 0x36A JUMPI PUSH0 PUSH0 REVERT JUMPDEST DUP1 PUSH4 0x150B7A02 GT PUSH2 0x1AE JUMPI DUP1 PUSH4 0x150B7A02 EQ PUSH2 0x262 JUMPI DUP1 PUSH4 0x1626BA7E EQ PUSH2 0x29A JUMPI DUP1 PUSH4 0x19822F7C EQ PUSH2 0x2B9 JUMPI DUP1 PUSH4 0x32556B4D EQ PUSH2 0x2E6 JUMPI PUSH0 PUSH0 REVERT JUMPDEST DUP1 PUSH3 0x23DE29 EQ PUSH2 0x1DD JUMPI DUP1 PUSH4 0x1FFC9A7 EQ PUSH2 0x203 JUMPI DUP1 PUSH4 0x94CEFED EQ PUSH2 0x237 JUMPI PUSH0 PUSH0 REVERT JUMPDEST CALLDATASIZE PUSH2 0x1D9 JUMPI STOP JUMPDEST PUSH0 PUSH0 REVERT JUMPDEST CALLVALUE DUP1 ISZERO PUSH2 0x1E8 JUMPI PUSH0 PUSH0 REVERT JUMPDEST POP PUSH2 0x201 PUSH2 0x1F7 CALLDATASIZE PUSH1 0x4 PUSH2 0x1F1A JUMP JUMPDEST POP POP POP POP POP POP POP POP JUMP JUMPDEST STOP JUMPDEST CALLVALUE DUP1 ISZERO PUSH2 0x20E JUMPI PUSH0 PUSH0 REVERT JUMPDEST POP PUSH2 0x222 PUSH2 0x21D CALLDATASIZE PUSH1 0x4 PUSH2 0x1FDC JUMP JUMPDEST PUSH2 0x64D JUMP JUMPDEST PUSH1 0x40 MLOAD SWAP1 ISZERO ISZERO DUP2 MSTORE PUSH1 0x20 ADD JUMPDEST PUSH1 0x40 MLOAD DUP1 SWAP2 SUB SWAP1 RETURN JUMPDEST PUSH2 0x24A PUSH2 0x245 CALLDATASIZE PUSH1 0x4 PUSH2 0x1FF7 JUMP JUMPDEST PUSH2 0x678 JUMP JUMPDEST PUSH1 0x40 MLOAD PUSH1 0x1 PUSH1 0x1 PUSH1 0xA0 SHL SUB SWAP1 SWAP2 AND DUP2 MSTORE PUSH1 0x20 ADD PUSH2 0x22E JUMP JUMPDEST CALLVALUE DUP1 ISZERO PUSH2 0x26D JUMPI PUSH0 PUSH0 REVERT JUMPDEST POP PUSH2 0x281 PUSH2 0x27C CALLDATASIZE PUSH1 0x4 PUSH2 0x2089 JUMP JUMPDEST PUSH2 0x692 JUMP JUMPDEST PUSH1 0x40 MLOAD PUSH1 0x1 PUSH1 0x1 PUSH1 0xE0 SHL SUB NOT SWAP1 SWAP2 AND DUP2 MSTORE PUSH1 0x20 ADD PUSH2 0x22E JUMP JUMPDEST CALLVALUE DUP1 ISZERO PUSH2 0x2A5 JUMPI PUSH0 PUSH0 REVERT JUMPDEST POP PUSH2 0x281 PUSH2 0x2B4 CALLDATASIZE PUSH1 0x4 PUSH2 0x2193 JUMP JUMPDEST PUSH2 0x6EC JUMP JUMPDEST CALLVALUE DUP1 ISZERO PUSH2 0x2C4 JUMPI PUSH0 PUSH0 REVERT JUMPDEST POP PUSH2 0x2D8 PUSH2 0x2D3 CALLDATASIZE PUSH1 0x4 PUSH2 0x21D6 JUMP JUMPDEST PUSH2 0x811 JUMP JUMPDEST PUSH1 0x40 MLOAD SWAP1 DUP2 MSTORE PUSH1 0x20 ADD PUSH2 0x22E JUMP JUMPDEST CALLVALUE DUP1 ISZERO PUSH2 0x2F1 JUMPI PUSH0 PUSH0 REVERT JUMPDEST POP PUSH2 0x2D8 PUSH2 0x300 CALLDATASIZE PUSH1 0x4 PUSH2 0x2224 JUMP JUMPDEST PUSH2 0x843 JUMP JUMPDEST CALLVALUE DUP1 ISZERO PUSH2 0x310 JUMPI PUSH0 PUSH0 REVERT JUMPDEST POP PUSH2 0x201 PUSH2 0x31F CALLDATASIZE PUSH1 0x4 PUSH2 0x22B2 JUMP JUMPDEST PUSH2 0x84E JUMP JUMPDEST CALLVALUE DUP1 ISZERO PUSH2 0x32F JUMPI PUSH0 PUSH0 REVERT JUMPDEST POP PUSH2 0x2D8 PUSH32 0x0 DUP2 JUMP JUMPDEST PUSH2 0x201 PUSH2 0x365 CALLDATASIZE PUSH1 0x4 PUSH2 0x22F0 JUMP JUMPDEST PUSH2 0x93E JUMP JUMPDEST PUSH2 0x37D PUSH2 0x378 CALLDATASIZE PUSH1 0x4 PUSH2 0x233B JUMP JUMPDEST PUSH2 0x95D JUMP JUMPDEST PUSH1 0x40 MLOAD PUSH2 0x22E SWAP2 SWAP1 PUSH2 0x23D4 JUMP JUMPDEST CALLVALUE DUP1 ISZERO PUSH2 0x395 JUMPI PUSH0 PUSH0 REVERT JUMPDEST POP PUSH2 0x281 PUSH2 0x3A4 CALLDATASIZE PUSH1 0x4 PUSH2 0x23E6 JUMP JUMPDEST PUSH2 0x989 JUMP JUMPDEST CALLVALUE DUP1 ISZERO PUSH2 0x3B4 JUMPI PUSH0 PUSH0 REVERT JUMPDEST POP PUSH2 0x2D8 PUSH2 0x9AE JUMP JUMPDEST CALLVALUE DUP1 ISZERO PUSH2 0x3C8 JUMPI PUSH0 PUSH0 REVERT JUMPDEST POP PUSH2 0x222 PUSH2 0x3D7 CALLDATASIZE PUSH1 0x4 PUSH2 0x2436 JUMP JUMPDEST PUSH2 0x9C9 JUMP JUMPDEST CALLVALUE DUP1 ISZERO PUSH2 0x3E7 JUMPI PUSH0 PUSH0 REVERT JUMPDEST POP PUSH2 0x201 PUSH2 0xA67 JUMP JUMPDEST CALLVALUE DUP1 ISZERO PUSH2 0x3FB JUMPI PUSH0 PUSH0 REVERT JUMPDEST POP PUSH2 0x404 PUSH2 0xBC9 JUMP JUMPDEST PUSH1 0x40 MLOAD PUSH2 0x22E SWAP8 SWAP7 SWAP6 SWAP5 SWAP4 SWAP3 SWAP2 SWAP1 PUSH2 0x2451 JUMP JUMPDEST CALLVALUE DUP1 ISZERO PUSH2 0x422 JUMPI PUSH0 PUSH0 REVERT JUMPDEST POP PUSH2 0x2D8 PUSH2 0x431 CALLDATASIZE PUSH1 0x4 PUSH2 0x24E7 JUMP JUMPDEST PUSH0 SWAP1 DUP2 MSTORE PUSH32 0x659D6B2D1CD4038BBDC740615487E3191DB8A386CA05E11A459FEDC97F38DF00 PUSH1 0x20 MSTORE PUSH1 0x40 SWAP1 KECCAK256 SLOAD SWAP1 JUMP JUMPDEST CALLVALUE DUP1 ISZERO PUSH2 0x46C JUMPI PUSH0 PUSH0 REVERT JUMPDEST POP PUSH2 0x2D8 PUSH1 0x1 DUP2 JUMP JUMPDEST CALLVALUE DUP1 ISZERO PUSH2 0x480 JUMPI PUSH0 PUSH0 REVERT JUMPDEST POP PUSH2 0x2D8 PUSH0 DUP2 JUMP JUMPDEST CALLVALUE DUP1 ISZERO PUSH2 0x493 JUMPI PUSH0 PUSH0 REVERT JUMPDEST POP PUSH2 0x37D PUSH1 0x40 MLOAD DUP1 PUSH1 0x40 ADD PUSH1 0x40 MSTORE DUP1 PUSH1 0x5 DUP2 MSTORE PUSH1 0x20 ADD PUSH5 0x352E302E3 PUSH1 0xDC SHL DUP2 MSTORE POP DUP2 JUMP JUMPDEST CALLVALUE DUP1 ISZERO PUSH2 0x4C3 JUMPI PUSH0 PUSH0 REVERT JUMPDEST POP PUSH20 0x4337084D9E255FF0702461CF8895CE9E3B5FF108 PUSH2 0x24A JUMP JUMPDEST CALLVALUE DUP1 ISZERO PUSH2 0x4E9 JUMPI PUSH0 PUSH0 REVERT JUMPDEST POP PUSH32 0x0 PUSH2 0x24A JUMP JUMPDEST CALLVALUE DUP1 ISZERO PUSH2 0x51B JUMPI PUSH0 PUSH0 REVERT JUMPDEST POP PUSH2 0x201 PUSH2 0x52A CALLDATASIZE PUSH1 0x4 PUSH2 0x24FE JUMP JUMPDEST PUSH2 0xC72 JUMP JUMPDEST CALLVALUE DUP1 ISZERO PUSH2 0x53A JUMPI PUSH0 PUSH0 REVERT JUMPDEST POP PUSH2 0x281 PUSH2 0x549 CALLDATASIZE PUSH1 0x4 PUSH2 0x2555 JUMP JUMPDEST PUSH4 0xBC197C81 PUSH1 0xE0 SHL SWAP9 SWAP8 POP POP POP POP POP POP POP POP JUMP JUMPDEST CALLVALUE DUP1 ISZERO PUSH2 0x568 JUMPI PUSH0 PUSH0 REVERT JUMPDEST POP PUSH2 0x2D8 PUSH2 0xCCA JUMP JUMPDEST PUSH2 0x37D PUSH2 0x57F CALLDATASIZE PUSH1 0x4 PUSH2 0x25F5 JUMP JUMPDEST PUSH2 0xDB1 JUMP JUMPDEST CALLVALUE DUP1 ISZERO PUSH2 0x58F JUMPI PUSH0 PUSH0 REVERT JUMPDEST POP PUSH2 0x2D8 PUSH2 0xDEA JUMP JUMPDEST CALLVALUE DUP1 ISZERO PUSH2 0x5A3 JUMPI PUSH0 PUSH0 REVERT JUMPDEST POP PUSH2 0x2D8 PUSH32 0x0 DUP2 JUMP JUMPDEST CALLVALUE DUP1 ISZERO PUSH2 0x5D6 JUMPI PUSH0 PUSH0 REVERT JUMPDEST POP PUSH2 0x201 PUSH2 0x5E5 CALLDATASIZE PUSH1 0x4 PUSH2 0x24E7 JUMP JUMPDEST PUSH2 0xE73 JUMP JUMPDEST CALLVALUE DUP1 ISZERO PUSH2 0x5F5 JUMPI PUSH0 PUSH0 REVERT JUMPDEST POP PUSH2 0x281 PUSH2 0x604 CALLDATASIZE PUSH1 0x4 PUSH2 0x266A JUMP JUMPDEST PUSH4 0xF23A6E61 PUSH1 0xE0 SHL SWAP7 SWAP6 POP POP POP POP POP POP JUMP JUMPDEST CALLVALUE DUP1 ISZERO PUSH2 0x621 JUMPI PUSH0 PUSH0 REVERT JUMPDEST POP PUSH2 0x62A PUSH2 0xEFE JUMP JUMPDEST PUSH1 0x40 DUP1 MLOAD SWAP4 DUP5 MSTORE PUSH1 0x1 PUSH1 0x1 PUSH1 0xA0 SHL SUB SWAP1 SWAP3 AND PUSH1 0x20 DUP5 ADD MSTORE SWAP1 DUP3 ADD MSTORE PUSH1 0x60 ADD PUSH2 0x22E JUMP JUMPDEST PUSH0 PUSH2 0x657 DUP3 PUSH2 0xF14 JUMP JUMPDEST DUP1 PUSH2 0x672 JUMPI POP PUSH1 0x1 PUSH1 0x1 PUSH1 0xE0 SHL SUB NOT DUP3 AND PUSH4 0x449E4A13 PUSH1 0xE0 SHL EQ JUMPDEST SWAP3 SWAP2 POP POP JUMP JUMPDEST PUSH0 PUSH2 0x687 DUP8 DUP8 DUP8 DUP8 DUP8 DUP8 PUSH2 0xF3E JUMP JUMPDEST SWAP8 SWAP7 POP POP POP POP POP POP POP JUMP JUMPDEST PUSH0 PUSH0 PUSH0 PUSH2 0x69D PUSH2 0xEFE JUMP JUMPDEST SWAP1 SWAP4 POP SWAP2 POP POP CALLER PUSH1 0x1 PUSH1 0x1 PUSH1 0xA0 SHL SUB DUP4 AND EQ DUP1 ISZERO PUSH2 0x6BA JUMPI POP DUP1 DUP7 EQ JUMPDEST ISZERO PUSH2 0x6D8 JUMPI PUSH1 0x40 MLOAD PUSH4 0xB79E3F3F PUSH1 0xE0 SHL DUP2 MSTORE PUSH1 0x4 ADD PUSH1 0x40 MLOAD DUP1 SWAP2 SUB SWAP1 REVERT JUMPDEST POP PUSH4 0xA85BD01 PUSH1 0xE1 SHL SWAP8 SWAP7 POP POP POP POP POP POP POP JUMP JUMPDEST PUSH0 PUSH0 PUSH0 PUSH0 PUSH2 0x70C DUP6 PUSH1 0x20 DUP2 ADD MLOAD PUSH1 0x40 DUP3 ADD MLOAD PUSH1 0x60 SWAP1 SWAP3 ADD MLOAD PUSH0 BYTE SWAP3 SWAP1 SWAP2 SWAP1 JUMP JUMPDEST SWAP1 SWAP5 POP SWAP3 POP SWAP1 POP PUSH1 0xFF DUP2 AND PUSH0 SUB PUSH2 0x7D7 JUMPI DUP3 DUP6 DUP4 ADD PUSH1 0x20 ADD PUSH2 0x72D DUP3 PUSH2 0x9C9 JUMP JUMPDEST ISZERO DUP1 ISZERO PUSH2 0x743 JUMPI POP PUSH1 0x1 PUSH1 0x1 PUSH1 0xA0 SHL SUB DUP3 AND ADDRESS EQ ISZERO JUMPDEST ISZERO PUSH2 0x75E JUMPI POP PUSH1 0x1 PUSH1 0x1 PUSH1 0xE0 SHL SUB NOT SWAP5 POP PUSH2 0x672 SWAP4 POP POP POP POP JUMP JUMPDEST PUSH1 0x40 MLOAD PUSH4 0xB135D3F PUSH1 0xE1 SHL DUP2 MSTORE PUSH1 0x1 PUSH1 0x1 PUSH1 0xA0 SHL SUB DUP4 AND SWAP1 PUSH4 0x1626BA7E SWAP1 PUSH2 0x78C SWAP1 DUP12 SWAP1 DUP6 SWAP1 PUSH1 0x4 ADD PUSH2 0x26E0 JUMP JUMPDEST PUSH1 0x20 PUSH1 0x40 MLOAD DUP1 DUP4 SUB DUP2 DUP7 GAS STATICCALL ISZERO DUP1 ISZERO PUSH2 0x7A7 JUMPI RETURNDATASIZE PUSH0 PUSH0 RETURNDATACOPY RETURNDATASIZE PUSH0 REVERT JUMPDEST POP POP POP POP PUSH1 0x40 MLOAD RETURNDATASIZE PUSH1 0x1F NOT PUSH1 0x1F DUP3 ADD AND DUP3 ADD DUP1 PUSH1 0x40 MSTORE POP DUP2 ADD SWAP1 PUSH2 0x7CB SWAP2 SWAP1 PUSH2 0x26F8 JUMP JUMPDEST SWAP6 POP POP POP POP POP POP PUSH2 0x672 JUMP JUMPDEST PUSH2 0x7E6 PUSH2 0x3D7 DUP8 DUP4 DUP7 DUP7 PUSH2 0xF90 JUMP JUMPDEST ISZERO PUSH2 0x7FE JUMPI POP PUSH4 0xB135D3F PUSH1 0xE1 SHL SWAP3 POP PUSH2 0x672 SWAP2 POP POP JUMP JUMPDEST POP PUSH1 0x1 PUSH1 0x1 PUSH1 0xE0 SHL SUB NOT SWAP6 SWAP5 POP POP POP POP POP JUMP JUMPDEST PUSH0 PUSH2 0x81A PUSH2 0xFBC JUMP JUMPDEST PUSH2 0x824 DUP5 DUP5 PUSH2 0x1021 JUMP JUMPDEST SWAP1 POP PUSH2 0x833 DUP5 PUSH1 0x20 ADD CALLDATALOAD PUSH2 0x107E JUMP JUMPDEST PUSH2 0x83C DUP3 PUSH2 0x10C7 JUMP JUMPDEST SWAP4 SWAP3 POP POP POP JUMP JUMPDEST PUSH0 PUSH2 0x83C DUP4 DUP4 PUSH2 0x110C JUMP JUMPDEST PUSH2 0x856 PUSH2 0x113E JUMP JUMPDEST DUP1 PUSH0 JUMPDEST DUP2 DUP2 LT ISZERO PUSH2 0x938 JUMPI CALLDATASIZE DUP5 DUP5 DUP4 DUP2 DUP2 LT PUSH2 0x874 JUMPI PUSH2 0x874 PUSH2 0x2713 JUMP JUMPDEST SWAP1 POP PUSH1 0x20 MUL DUP2 ADD SWAP1 PUSH2 0x886 SWAP2 SWAP1 PUSH2 0x2727 JUMP JUMPDEST SWAP1 POP PUSH0 PUSH2 0x8E4 PUSH2 0x899 PUSH1 0x20 DUP5 ADD DUP5 PUSH2 0x2436 JUMP JUMPDEST PUSH1 0x20 DUP5 ADD CALLDATALOAD PUSH2 0x8AB PUSH1 0x40 DUP7 ADD DUP7 PUSH2 0x2745 JUMP JUMPDEST DUP1 DUP1 PUSH1 0x1F ADD PUSH1 0x20 DUP1 SWAP2 DIV MUL PUSH1 0x20 ADD PUSH1 0x40 MLOAD SWAP1 DUP2 ADD PUSH1 0x40 MSTORE DUP1 SWAP4 SWAP3 SWAP2 SWAP1 DUP2 DUP2 MSTORE PUSH1 0x20 ADD DUP4 DUP4 DUP1 DUP3 DUP5 CALLDATACOPY PUSH0 SWAP3 ADD SWAP2 SWAP1 SWAP2 MSTORE POP POP POP POP GAS PUSH2 0x1146 JUMP JUMPDEST SWAP1 POP DUP1 PUSH2 0x92E JUMPI DUP4 PUSH1 0x1 SUB PUSH2 0x900 JUMPI PUSH2 0x8FB PUSH2 0x115C JUMP JUMPDEST PUSH2 0x92E JUMP JUMPDEST DUP3 PUSH2 0x90A PUSH0 PUSH2 0x116D JUMP JUMPDEST PUSH1 0x40 MLOAD PUSH4 0x5A154675 PUSH1 0xE0 SHL DUP2 MSTORE PUSH1 0x4 ADD PUSH2 0x925 SWAP3 SWAP2 SWAP1 PUSH2 0x26E0 JUMP JUMPDEST PUSH1 0x40 MLOAD DUP1 SWAP2 SUB SWAP1 REVERT JUMPDEST POP POP PUSH1 0x1 ADD PUSH2 0x859 JUMP JUMPDEST POP POP POP POP JUMP JUMPDEST PUSH2 0x946 PUSH2 0x119E JUMP JUMPDEST PUSH2 0x94F DUP3 PUSH2 0x1242 JUMP JUMPDEST PUSH2 0x959 DUP3 DUP3 PUSH2 0x128A JUMP JUMPDEST POP POP JUMP JUMPDEST PUSH1 0x60 PUSH0 PUSH2 0x96E DUP8 DUP8 DUP8 DUP8 DUP8 GAS PUSH2 0x134B JUMP JUMPDEST SWAP3 POP SWAP1 POP DUP1 PUSH2 0x97F JUMPI DUP2 MLOAD PUSH1 0x20 DUP4 ADD REVERT JUMPDEST POP SWAP6 SWAP5 POP POP POP POP POP JUMP JUMPDEST PUSH0 PUSH2 0x993 DUP5 PUSH2 0x9C9 JUMP JUMPDEST PUSH2 0x99D JUMPI PUSH0 PUSH2 0x9A6 JUMP JUMPDEST PUSH4 0x291F193 PUSH1 0xE5 SHL JUMPDEST SWAP5 SWAP4 POP POP POP POP JUMP JUMPDEST PUSH0 PUSH2 0x9B7 PUSH2 0x13A2 JUMP JUMPDEST POP PUSH0 MLOAD PUSH1 0x20 PUSH2 0x2A77 PUSH0 CODECOPY PUSH0 MLOAD SWAP1 PUSH0 MSTORE SWAP1 JUMP JUMPDEST PUSH0 PUSH0 PUSH0 PUSH2 0x9D4 PUSH2 0xEFE JUMP JUMPDEST PUSH1 0x40 MLOAD PUSH4 0x31A9108F PUSH1 0xE1 SHL DUP2 MSTORE PUSH1 0x4 DUP2 ADD DUP3 SWAP1 MSTORE SWAP2 SWAP5 POP SWAP3 POP PUSH1 0x1 PUSH1 0x1 PUSH1 0xA0 SHL SUB DUP1 DUP8 AND SWAP3 POP DUP5 AND SWAP1 PUSH4 0x6352211E SWAP1 PUSH1 0x24 ADD PUSH1 0x20 PUSH1 0x40 MLOAD DUP1 DUP4 SUB DUP2 DUP7 GAS STATICCALL ISZERO DUP1 ISZERO PUSH2 0xA21 JUMPI RETURNDATASIZE PUSH0 PUSH0 RETURNDATACOPY RETURNDATASIZE PUSH0 REVERT JUMPDEST POP POP POP POP PUSH1 0x40 MLOAD RETURNDATASIZE PUSH1 0x1F NOT PUSH1 0x1F DUP3 ADD AND DUP3 ADD DUP1 PUSH1 0x40 MSTORE POP DUP2 ADD SWAP1 PUSH2 0xA45 SWAP2 SWAP1 PUSH2 0x2787 JUMP JUMPDEST PUSH1 0x1 PUSH1 0x1 PUSH1 0xA0 SHL SUB AND EQ DUP1 ISZERO PUSH2 0x9A6 JUMPI POP POP POP POP PUSH1 0x1 PUSH1 0x1 PUSH1 0xA0 SHL SUB AND ISZERO ISZERO SWAP1 JUMP JUMPDEST PUSH32 0xF0C57E16840DF040F15088DC2F81FE391C3923BEC73E23A9662EFC9C229C6A00 DUP1 SLOAD PUSH1 0x1 PUSH1 0x40 SHL DUP2 DIV PUSH1 0xFF AND ISZERO SWAP1 PUSH1 0x1 PUSH1 0x1 PUSH1 0x40 SHL SUB AND PUSH0 DUP2 ISZERO DUP1 ISZERO PUSH2 0xAAB JUMPI POP DUP3 JUMPDEST SWAP1 POP PUSH0 DUP3 PUSH1 0x1 PUSH1 0x1 PUSH1 0x40 SHL SUB AND PUSH1 0x1 EQ DUP1 ISZERO PUSH2 0xAC6 JUMPI POP ADDRESS EXTCODESIZE ISZERO JUMPDEST SWAP1 POP DUP2 ISZERO DUP1 ISZERO PUSH2 0xAD4 JUMPI POP DUP1 ISZERO JUMPDEST ISZERO PUSH2 0xAF2 JUMPI PUSH1 0x40 MLOAD PUSH4 0xF92EE8A9 PUSH1 0xE0 SHL DUP2 MSTORE PUSH1 0x4 ADD PUSH1 0x40 MLOAD DUP1 SWAP2 SUB SWAP1 REVERT JUMPDEST DUP5 SLOAD PUSH8 0xFFFFFFFFFFFFFFFF NOT AND PUSH1 0x1 OR DUP6 SSTORE DUP4 ISZERO PUSH2 0xB1C JUMPI DUP5 SLOAD PUSH1 0xFF PUSH1 0x40 SHL NOT AND PUSH1 0x1 PUSH1 0x40 SHL OR DUP6 SSTORE JUMPDEST PUSH2 0xB24 PUSH2 0x13EB JUMP JUMPDEST PUSH2 0xB7C PUSH1 0x40 MLOAD DUP1 PUSH1 0x40 ADD PUSH1 0x40 MSTORE DUP1 PUSH1 0x1D DUP2 MSTORE PUSH1 0x20 ADD PUSH32 0x48797065724163636F756E743943686172436F6D6D69744D696E746572000000 DUP2 MSTORE POP PUSH1 0x40 MLOAD DUP1 PUSH1 0x40 ADD PUSH1 0x40 MSTORE DUP1 PUSH1 0x1 DUP2 MSTORE PUSH1 0x20 ADD PUSH1 0x31 PUSH1 0xF8 SHL DUP2 MSTORE POP PUSH2 0x13F3 JUMP JUMPDEST DUP4 ISZERO PUSH2 0xBC2 JUMPI DUP5 SLOAD PUSH1 0xFF PUSH1 0x40 SHL NOT AND DUP6 SSTORE PUSH1 0x40 MLOAD PUSH1 0x1 DUP2 MSTORE PUSH32 0xC7F505B2F371AE2175EE4913F4499E1F2633A7B5936321EED1CDAEB6115181D2 SWAP1 PUSH1 0x20 ADD PUSH1 0x40 MLOAD DUP1 SWAP2 SUB SWAP1 LOG1 JUMPDEST POP POP POP POP POP JUMP JUMPDEST PUSH0 PUSH1 0x60 DUP1 DUP3 DUP1 DUP1 DUP4 DUP2 PUSH0 MLOAD PUSH1 0x20 PUSH2 0x2A57 PUSH0 CODECOPY PUSH0 MLOAD SWAP1 PUSH0 MSTORE DUP1 SLOAD SWAP1 SWAP2 POP ISZERO DUP1 ISZERO PUSH2 0xBF4 JUMPI POP PUSH1 0x1 DUP2 ADD SLOAD ISZERO JUMPDEST PUSH2 0xC38 JUMPI PUSH1 0x40 MLOAD PUSH3 0x461BCD PUSH1 0xE5 SHL DUP2 MSTORE PUSH1 0x20 PUSH1 0x4 DUP3 ADD MSTORE PUSH1 0x15 PUSH1 0x24 DUP3 ADD MSTORE PUSH21 0x1152540DCC4C8E88155B9A5B9A5D1A585B1A5E9959 PUSH1 0x5A SHL PUSH1 0x44 DUP3 ADD MSTORE PUSH1 0x64 ADD PUSH2 0x925 JUMP JUMPDEST PUSH2 0xC40 PUSH2 0x1405 JUMP JUMPDEST PUSH2 0xC48 PUSH2 0x14C5 JUMP JUMPDEST PUSH1 0x40 DUP1 MLOAD PUSH0 DUP1 DUP3 MSTORE PUSH1 0x20 DUP3 ADD SWAP1 SWAP3 MSTORE PUSH1 0xF PUSH1 0xF8 SHL SWAP13 SWAP4 SWAP12 POP SWAP2 SWAP10 POP CHAINID SWAP9 POP ADDRESS SWAP8 POP SWAP6 POP SWAP4 POP SWAP2 POP POP JUMP JUMPDEST PUSH2 0xC7A PUSH2 0x113E JUMP JUMPDEST PUSH0 PUSH2 0xCBB DUP6 DUP6 DUP6 DUP6 DUP1 DUP1 PUSH1 0x1F ADD PUSH1 0x20 DUP1 SWAP2 DIV MUL PUSH1 0x20 ADD PUSH1 0x40 MLOAD SWAP1 DUP2 ADD PUSH1 0x40 MSTORE DUP1 SWAP4 SWAP3 SWAP2 SWAP1 DUP2 DUP2 MSTORE PUSH1 0x20 ADD DUP4 DUP4 DUP1 DUP3 DUP5 CALLDATACOPY PUSH0 SWAP3 ADD SWAP2 SWAP1 SWAP2 MSTORE POP POP POP POP GAS PUSH2 0x1146 JUMP JUMPDEST SWAP1 POP DUP1 PUSH2 0xBC2 JUMPI PUSH2 0xBC2 PUSH2 0x115C JUMP JUMPDEST PUSH0 DUP1 PUSH32 0xE4B1C7558F331D2752F6CB495B2CF8E1B8AE3112BCC78EC0C3BFEBFBE3CD4800 SWAP1 POP PUSH0 PUSH20 0x4337084D9E255FF0702461CF8895CE9E3B5FF108 PUSH1 0x40 MLOAD PUSH4 0x1AAB3F0D PUSH1 0xE1 SHL DUP2 MSTORE ADDRESS PUSH1 0x4 DUP3 ADD MSTORE PUSH0 PUSH1 0x24 DUP3 ADD MSTORE PUSH1 0x1 PUSH1 0x1 PUSH1 0xA0 SHL SUB SWAP2 SWAP1 SWAP2 AND SWAP1 PUSH4 0x35567E1A SWAP1 PUSH1 0x44 ADD PUSH1 0x20 PUSH1 0x40 MLOAD DUP1 DUP4 SUB DUP2 DUP7 GAS STATICCALL ISZERO DUP1 ISZERO PUSH2 0xD4F JUMPI RETURNDATASIZE PUSH0 PUSH0 RETURNDATACOPY RETURNDATASIZE PUSH0 REVERT JUMPDEST POP POP POP POP PUSH1 0x40 MLOAD RETURNDATASIZE PUSH1 0x1F NOT PUSH1 0x1F DUP3 ADD AND DUP3 ADD DUP1 PUSH1 0x40 MSTORE POP DUP2 ADD SWAP1 PUSH2 0xD73 SWAP2 SWAP1 PUSH2 0x27A2 JUMP JUMPDEST DUP3 SLOAD PUSH1 0x40 MLOAD SWAP2 SWAP3 POP PUSH2 0xD92 SWAP2 DUP4 SWAP1 PUSH1 0x20 ADD SWAP2 DUP3 MSTORE PUSH1 0x20 DUP3 ADD MSTORE PUSH1 0x40 ADD SWAP1 JUMP JUMPDEST PUSH1 0x40 MLOAD PUSH1 0x20 DUP2 DUP4 SUB SUB DUP2 MSTORE SWAP1 PUSH1 0x40 MSTORE DUP1 MLOAD SWAP1 PUSH1 0x20 ADD KECCAK256 PUSH0 SHR SWAP3 POP POP POP SWAP1 JUMP JUMPDEST PUSH1 0x60 PUSH0 PUSH2 0xDCE DUP9 DUP9 DUP9 DUP9 DUP9 DUP9 ISZERO PUSH2 0xDC8 JUMPI DUP9 PUSH2 0x134B JUMP JUMPDEST GAS PUSH2 0x134B JUMP JUMPDEST SWAP3 POP SWAP1 POP DUP1 PUSH2 0xDDF JUMPI DUP2 MLOAD PUSH1 0x20 DUP4 ADD REVERT JUMPDEST POP SWAP7 SWAP6 POP POP POP POP POP POP JUMP JUMPDEST PUSH0 PUSH20 0x4337084D9E255FF0702461CF8895CE9E3B5FF108 PUSH1 0x40 MLOAD PUSH4 0x1AAB3F0D PUSH1 0xE1 SHL DUP2 MSTORE ADDRESS PUSH1 0x4 DUP3 ADD MSTORE PUSH0 PUSH1 0x24 DUP3 ADD MSTORE PUSH1 0x1 PUSH1 0x1 PUSH1 0xA0 SHL SUB SWAP2 SWAP1 SWAP2 AND SWAP1 PUSH4 0x35567E1A SWAP1 PUSH1 0x44 ADD PUSH1 0x20 PUSH1 0x40 MLOAD DUP1 DUP4 SUB DUP2 DUP7 GAS STATICCALL ISZERO DUP1 ISZERO PUSH2 0xE4A JUMPI RETURNDATASIZE PUSH0 PUSH0 RETURNDATACOPY RETURNDATASIZE PUSH0 REVERT JUMPDEST POP POP POP POP PUSH1 0x40 MLOAD RETURNDATASIZE PUSH1 0x1F NOT PUSH1 0x1F DUP3 ADD AND DUP3 ADD DUP1 PUSH1 0x40 MSTORE POP DUP2 ADD SWAP1 PUSH2 0xE6E SWAP2 SWAP1 PUSH2 0x27A2 JUMP JUMPDEST SWAP1 POP SWAP1 JUMP JUMPDEST PUSH0 DUP2 DUP2 MSTORE PUSH32 0x659D6B2D1CD4038BBDC740615487E3191DB8A386CA05E11A459FEDC97F38DF00 PUSH1 0x20 DUP2 SWAP1 MSTORE PUSH1 0x40 SWAP1 SWAP2 KECCAK256 SLOAD TIMESTAMP GT PUSH2 0xEC2 JUMPI PUSH1 0x40 MLOAD PUSH4 0x17D57DB1 PUSH1 0xE2 SHL DUP2 MSTORE PUSH1 0x4 ADD PUSH1 0x40 MLOAD DUP1 SWAP2 SUB SWAP1 REVERT JUMPDEST PUSH2 0xEEC PUSH32 0x0 TIMESTAMP PUSH2 0x27CD JUMP JUMPDEST PUSH0 DUP4 DUP2 MSTORE PUSH1 0x20 DUP4 SWAP1 MSTORE PUSH1 0x40 SWAP1 KECCAK256 SSTORE POP POP JUMP JUMPDEST PUSH0 PUSH0 PUSH0 PUSH2 0xF09 PUSH2 0x1503 JUMP JUMPDEST SWAP3 POP SWAP3 POP SWAP3 POP SWAP1 SWAP2 SWAP3 JUMP JUMPDEST PUSH0 PUSH2 0xF1E DUP3 PUSH2 0x150F JUMP JUMPDEST DUP1 PUSH2 0x672 JUMPI POP PUSH1 0x1 PUSH1 0x1 PUSH1 0xE0 SHL SUB NOT DUP3 AND PUSH4 0x3C1CC5F1 PUSH1 0xE0 SHL EQ SWAP3 SWAP2 POP POP JUMP JUMPDEST PUSH0 PUSH1 0x9 DUP6 LT ISZERO PUSH2 0xF82 JUMPI PUSH1 0x40 MLOAD PUSH3 0x461BCD PUSH1 0xE5 SHL DUP2 MSTORE PUSH1 0x20 PUSH1 0x4 DUP3 ADD MSTORE PUSH1 0xF PUSH1 0x24 DUP3 ADD MSTORE PUSH15 0x131858995B081D1BDBC81CDA1BDC9D PUSH1 0x8A SHL PUSH1 0x44 DUP3 ADD MSTORE PUSH1 0x64 ADD PUSH2 0x925 JUMP JUMPDEST PUSH2 0x687 DUP8 DUP8 DUP8 DUP8 DUP8 DUP8 PUSH2 0x1539 JUMP JUMPDEST PUSH0 PUSH0 PUSH0 PUSH0 PUSH2 0xFA0 DUP9 DUP9 DUP9 DUP9 PUSH2 0x170B JUMP JUMPDEST SWAP3 POP SWAP3 POP SWAP3 POP PUSH2 0xFB0 DUP3 DUP3 PUSH2 0x17D3 JUMP JUMPDEST POP SWAP1 SWAP7 SWAP6 POP POP POP POP POP POP JUMP JUMPDEST CALLER PUSH20 0x4337084D9E255FF0702461CF8895CE9E3B5FF108 EQ PUSH2 0x101F JUMPI PUSH1 0x40 MLOAD PUSH3 0x461BCD PUSH1 0xE5 SHL DUP2 MSTORE PUSH1 0x20 PUSH1 0x4 DUP3 ADD MSTORE PUSH1 0x1C PUSH1 0x24 DUP3 ADD MSTORE PUSH32 0x6163636F756E743A206E6F742066726F6D20456E747279506F696E7400000000 PUSH1 0x44 DUP3 ADD MSTORE PUSH1 0x64 ADD PUSH2 0x925 JUMP JUMPDEST JUMP JUMPDEST PUSH0 PUSH1 0x4 PUSH2 0x1031 PUSH1 0x60 DUP6 ADD DUP6 PUSH2 0x2745 JUMP JUMPDEST SWAP1 POP GT ISZERO PUSH2 0x1074 JUMPI PUSH0 PUSH2 0x104F PUSH2 0x104A PUSH1 0x60 DUP7 ADD DUP7 PUSH2 0x2745 JUMP JUMPDEST PUSH2 0x188B JUMP JUMPDEST SWAP1 POP PUSH4 0xF6B31013 PUSH1 0xE0 SHL PUSH1 0x1 PUSH1 0x1 PUSH1 0xE0 SHL SUB NOT DUP3 AND ADD PUSH2 0x1072 JUMPI PUSH0 SWAP2 POP POP PUSH2 0x672 JUMP JUMPDEST POP JUMPDEST PUSH2 0x83C DUP4 DUP4 PUSH2 0x18A2 JUMP JUMPDEST PUSH1 0x1 PUSH1 0x1 PUSH1 0x40 SHL SUB DUP2 LT PUSH2 0x10C4 JUMPI PUSH1 0x40 MLOAD PUSH3 0x461BCD PUSH1 0xE5 SHL DUP2 MSTORE PUSH1 0x20 PUSH1 0x4 DUP3 ADD MSTORE PUSH1 0xD PUSH1 0x24 DUP3 ADD MSTORE PUSH13 0x496E76616C6964206E6F6E6365 PUSH1 0x98 SHL PUSH1 0x44 DUP3 ADD MSTORE PUSH1 0x64 ADD PUSH2 0x925 JUMP JUMPDEST POP JUMP JUMPDEST DUP1 ISZERO PUSH2 0x10C4 JUMPI PUSH1 0x40 MLOAD PUSH0 SWAP1 CALLER SWAP1 DUP4 SWAP1 DUP4 DUP2 DUP2 DUP2 DUP6 DUP8 GAS CALL SWAP3 POP POP POP RETURNDATASIZE DUP1 PUSH0 DUP2 EQ PUSH2 0xBC2 JUMPI PUSH1 0x40 MLOAD SWAP2 POP PUSH1 0x1F NOT PUSH1 0x3F RETURNDATASIZE ADD AND DUP3 ADD PUSH1 0x40 MSTORE RETURNDATASIZE DUP3 MSTORE RETURNDATASIZE PUSH0 PUSH1 0x20 DUP5 ADD RETURNDATACOPY PUSH2 0xBC2 JUMP JUMPDEST PUSH0 DUP3 DUP3 PUSH1 0x40 MLOAD PUSH1 0x20 ADD PUSH2 0x1120 SWAP3 SWAP2 SWAP1 PUSH2 0x27E0 JUMP JUMPDEST PUSH1 0x40 MLOAD PUSH1 0x20 DUP2 DUP4 SUB SUB DUP2 MSTORE SWAP1 PUSH1 0x40 MSTORE DUP1 MLOAD SWAP1 PUSH1 0x20 ADD KECCAK256 SWAP1 POP SWAP3 SWAP2 POP POP JUMP JUMPDEST PUSH2 0x101F PUSH2 0xFBC JUMP JUMPDEST PUSH0 PUSH0 PUSH0 DUP5 MLOAD PUSH1 0x20 DUP7 ADD DUP8 DUP10 DUP8 CALL SWAP6 SWAP5 POP POP POP POP POP JUMP JUMPDEST PUSH2 0x101F PUSH2 0x1168 PUSH0 PUSH2 0x116D JUMP JUMPDEST PUSH2 0x19AF JUMP JUMPDEST PUSH1 0x60 RETURNDATASIZE DUP3 ISZERO PUSH2 0x1181 JUMPI DUP3 DUP2 GT ISZERO PUSH2 0x1181 JUMPI POP DUP2 JUMPDEST PUSH1 0x40 MLOAD PUSH1 0x20 DUP3 ADD DUP2 ADD PUSH1 0x40 MSTORE DUP2 DUP2 MSTORE DUP2 PUSH0 PUSH1 0x20 DUP4 ADD RETURNDATACOPY SWAP4 SWAP3 POP POP POP JUMP JUMPDEST ADDRESS PUSH1 0x1 PUSH1 0x1 PUSH1 0xA0 SHL SUB PUSH32 0x0 AND EQ DUP1 PUSH2 0x1224 JUMPI POP PUSH32 0x0 PUSH1 0x1 PUSH1 0x1 PUSH1 0xA0 SHL SUB AND PUSH2 0x1218 PUSH0 MLOAD PUSH1 0x20 PUSH2 0x2A77 PUSH0 CODECOPY PUSH0 MLOAD SWAP1 PUSH0 MSTORE SLOAD PUSH1 0x1 PUSH1 0x1 PUSH1 0xA0 SHL SUB AND SWAP1 JUMP JUMPDEST PUSH1 0x1 PUSH1 0x1 PUSH1 0xA0 SHL SUB AND EQ ISZERO JUMPDEST ISZERO PUSH2 0x101F JUMPI PUSH1 0x40 MLOAD PUSH4 0x703E46DD PUSH1 0xE1 SHL DUP2 MSTORE PUSH1 0x4 ADD PUSH1 0x40 MLOAD DUP1 SWAP2 SUB SWAP1 REVERT JUMPDEST PUSH2 0x124B CALLER PUSH2 0x9C9 JUMP JUMPDEST ISZERO DUP1 ISZERO PUSH2 0x126C JUMPI POP CALLER PUSH20 0x4337084D9E255FF0702461CF8895CE9E3B5FF108 EQ ISZERO JUMPDEST ISZERO PUSH2 0x10C4 JUMPI PUSH1 0x40 MLOAD PUSH4 0x47802953 PUSH1 0xE1 SHL DUP2 MSTORE PUSH1 0x4 ADD PUSH1 0x40 MLOAD DUP1 SWAP2 SUB SWAP1 REVERT JUMPDEST DUP2 PUSH1 0x1 PUSH1 0x1 PUSH1 0xA0 SHL SUB AND PUSH4 0x52D1902D PUSH1 0x40 MLOAD DUP2 PUSH4 0xFFFFFFFF AND PUSH1 0xE0 SHL DUP2 MSTORE PUSH1 0x4 ADD PUSH1 0x20 PUSH1 0x40 MLOAD DUP1 DUP4 SUB DUP2 DUP7 GAS STATICCALL SWAP3 POP POP POP DUP1 ISZERO PUSH2 0x12E4 JUMPI POP PUSH1 0x40 DUP1 MLOAD PUSH1 0x1F RETURNDATASIZE SWAP1 DUP2 ADD PUSH1 0x1F NOT AND DUP3 ADD SWAP1 SWAP3 MSTORE PUSH2 0x12E1 SWAP2 DUP2 ADD SWAP1 PUSH2 0x27A2 JUMP JUMPDEST PUSH1 0x1 JUMPDEST PUSH2 0x130C JUMPI PUSH1 0x40 MLOAD PUSH4 0x4C9C8CE3 PUSH1 0xE0 SHL DUP2 MSTORE PUSH1 0x1 PUSH1 0x1 PUSH1 0xA0 SHL SUB DUP4 AND PUSH1 0x4 DUP3 ADD MSTORE PUSH1 0x24 ADD PUSH2 0x925 JUMP JUMPDEST PUSH0 MLOAD PUSH1 0x20 PUSH2 0x2A77 PUSH0 CODECOPY PUSH0 MLOAD SWAP1 PUSH0 MSTORE DUP2 EQ PUSH2 0x133C JUMPI PUSH1 0x40 MLOAD PUSH4 0x2A875269 PUSH1 0xE2 SHL DUP2 MSTORE PUSH1 0x4 DUP2 ADD DUP3 SWAP1 MSTORE PUSH1 0x24 ADD PUSH2 0x925 JUMP JUMPDEST PUSH2 0x1346 DUP4 DUP4 PUSH2 0x19B7 JUMP JUMPDEST POP POP POP JUMP JUMPDEST PUSH32 0xE4B1C7558F331D2752F6CB495B2CF8E1B8AE3112BCC78EC0C3BFEBFBE3CD4800 DUP1 SLOAD PUSH0 SWAP2 PUSH1 0x60 SWAP2 DUP2 DUP5 PUSH2 0x137E DUP4 PUSH2 0x2809 JUMP JUMPDEST SWAP2 SWAP1 POP SSTORE POP PUSH2 0x1391 DUP10 DUP10 DUP10 DUP10 DUP10 DUP10 PUSH2 0x1A0C JUMP JUMPDEST SWAP3 POP SWAP3 POP POP JUMPDEST SWAP7 POP SWAP7 SWAP5 POP POP POP POP POP JUMP JUMPDEST ADDRESS PUSH1 0x1 PUSH1 0x1 PUSH1 0xA0 SHL SUB PUSH32 0x0 AND EQ PUSH2 0x101F JUMPI PUSH1 0x40 MLOAD PUSH4 0x703E46DD PUSH1 0xE1 SHL DUP2 MSTORE PUSH1 0x4 ADD PUSH1 0x40 MLOAD DUP1 SWAP2 SUB SWAP1 REVERT JUMPDEST PUSH2 0x101F PUSH2 0x1B63 JUMP JUMPDEST PUSH2 0x13FB PUSH2 0x1B63 JUMP JUMPDEST PUSH2 0x959 DUP3 DUP3 PUSH2 0x1BAC JUMP JUMPDEST PUSH32 0xA16A46D94261C7517CC8FF89F61C0CE93598E3C849801011DEE649A6A557D102 DUP1 SLOAD PUSH1 0x60 SWAP2 PUSH0 MLOAD PUSH1 0x20 PUSH2 0x2A57 PUSH0 CODECOPY PUSH0 MLOAD SWAP1 PUSH0 MSTORE SWAP2 PUSH2 0x1443 SWAP1 PUSH2 0x2821 JUMP JUMPDEST DUP1 PUSH1 0x1F ADD PUSH1 0x20 DUP1 SWAP2 DIV MUL PUSH1 0x20 ADD PUSH1 0x40 MLOAD SWAP1 DUP2 ADD PUSH1 0x40 MSTORE DUP1 SWAP3 SWAP2 SWAP1 DUP2 DUP2 MSTORE PUSH1 0x20 ADD DUP3 DUP1 SLOAD PUSH2 0x146F SWAP1 PUSH2 0x2821 JUMP JUMPDEST DUP1 ISZERO PUSH2 0x14BA JUMPI DUP1 PUSH1 0x1F LT PUSH2 0x1491 JUMPI PUSH2 0x100 DUP1 DUP4 SLOAD DIV MUL DUP4 MSTORE SWAP2 PUSH1 0x20 ADD SWAP2 PUSH2 0x14BA JUMP JUMPDEST DUP3 ADD SWAP2 SWAP1 PUSH0 MSTORE PUSH1 0x20 PUSH0 KECCAK256 SWAP1 JUMPDEST DUP2 SLOAD DUP2 MSTORE SWAP1 PUSH1 0x1 ADD SWAP1 PUSH1 0x20 ADD DUP1 DUP4 GT PUSH2 0x149D JUMPI DUP3 SWAP1 SUB PUSH1 0x1F AND DUP3 ADD SWAP2 JUMPDEST POP POP POP POP POP SWAP2 POP POP SWAP1 JUMP JUMPDEST PUSH32 0xA16A46D94261C7517CC8FF89F61C0CE93598E3C849801011DEE649A6A557D103 DUP1 SLOAD PUSH1 0x60 SWAP2 PUSH0 MLOAD PUSH1 0x20 PUSH2 0x2A57 PUSH0 CODECOPY PUSH0 MLOAD SWAP1 PUSH0 MSTORE SWAP2 PUSH2 0x1443 SWAP1 PUSH2 0x2821 JUMP JUMPDEST PUSH0 PUSH0 PUSH0 PUSH2 0xF09 ADDRESS PUSH2 0x1C0B JUMP JUMPDEST PUSH0 PUSH2 0x1519 DUP3 PUSH2 0x1C5F JUMP JUMPDEST DUP1 PUSH2 0x672 JUMPI POP PUSH1 0x1 PUSH1 0x1 PUSH1 0xE0 SHL SUB NOT DUP3 AND PUSH4 0x6FAFF5F1 PUSH1 0xE0 SHL EQ SWAP3 SWAP2 POP POP JUMP JUMPDEST PUSH0 DUP1 PUSH32 0x659D6B2D1CD4038BBDC740615487E3191DB8A386CA05E11A459FEDC97F38DF00 SWAP1 POP PUSH0 DUP2 PUSH0 ADD PUSH0 PUSH2 0x15A3 DUP11 DUP11 DUP1 DUP1 PUSH1 0x1F ADD PUSH1 0x20 DUP1 SWAP2 DIV MUL PUSH1 0x20 ADD PUSH1 0x40 MLOAD SWAP1 DUP2 ADD PUSH1 0x40 MSTORE DUP1 SWAP4 SWAP3 SWAP2 SWAP1 DUP2 DUP2 MSTORE PUSH1 0x20 ADD DUP4 DUP4 DUP1 DUP3 DUP5 CALLDATACOPY PUSH0 SWAP3 ADD SWAP2 SWAP1 SWAP2 MSTORE POP CALLER SWAP3 POP PUSH2 0x110C SWAP2 POP POP JUMP JUMPDEST DUP2 MSTORE PUSH1 0x20 ADD SWAP1 DUP2 MSTORE PUSH1 0x20 ADD PUSH0 KECCAK256 SLOAD SWAP1 POP DUP1 PUSH0 SUB PUSH2 0x15D3 JUMPI PUSH1 0x40 MLOAD PUSH4 0x345512DF PUSH1 0xE2 SHL DUP2 MSTORE PUSH1 0x4 ADD PUSH1 0x40 MLOAD DUP1 SWAP2 SUB SWAP1 REVERT JUMPDEST TIMESTAMP PUSH32 0x0 PUSH2 0x161F PUSH32 0x0 DUP5 PUSH2 0x2859 JUMP JUMPDEST PUSH2 0x1629 SWAP2 SWAP1 PUSH2 0x27CD JUMP JUMPDEST LT PUSH2 0x1647 JUMPI PUSH1 0x40 MLOAD PUSH4 0x9E8DDD6D PUSH1 0xE0 SHL DUP2 MSTORE PUSH1 0x4 ADD PUSH1 0x40 MLOAD DUP1 SWAP2 SUB SWAP1 REVERT JUMPDEST TIMESTAMP DUP2 LT ISZERO PUSH2 0x1668 JUMPI PUSH1 0x40 MLOAD PUSH4 0x716DBCC9 PUSH1 0xE0 SHL DUP2 MSTORE PUSH1 0x4 ADD PUSH1 0x40 MLOAD DUP1 SWAP2 SUB SWAP1 REVERT JUMPDEST PUSH1 0x40 MLOAD PUSH4 0x94CEFED PUSH1 0xE0 SHL DUP2 MSTORE PUSH1 0x1 PUSH1 0x1 PUSH1 0xA0 SHL SUB PUSH32 0x0 AND SWAP1 PUSH4 0x94CEFED SWAP1 PUSH2 0x16BE SWAP1 DUP13 SWAP1 DUP13 SWAP1 DUP13 SWAP1 DUP13 SWAP1 DUP13 SWAP1 DUP13 SWAP1 PUSH1 0x4 ADD PUSH2 0x2894 JUMP JUMPDEST PUSH1 0x20 PUSH1 0x40 MLOAD DUP1 DUP4 SUB DUP2 PUSH0 DUP8 GAS CALL ISZERO DUP1 ISZERO PUSH2 0x16DA JUMPI RETURNDATASIZE PUSH0 PUSH0 RETURNDATACOPY RETURNDATASIZE PUSH0 REVERT JUMPDEST POP POP POP POP PUSH1 0x40 MLOAD RETURNDATASIZE PUSH1 0x1F NOT PUSH1 0x1F DUP3 ADD AND DUP3 ADD DUP1 PUSH1 0x40 MSTORE POP DUP2 ADD SWAP1 PUSH2 0x16FE SWAP2 SWAP1 PUSH2 0x2787 JUMP JUMPDEST SWAP10 SWAP9 POP POP POP POP POP POP POP POP POP JUMP JUMPDEST PUSH0 DUP1 DUP1 PUSH32 0x7FFFFFFFFFFFFFFFFFFFFFFFFFFFFFFF5D576E7357A4501DDFE92F46681B20A0 DUP5 GT ISZERO PUSH2 0x1744 JUMPI POP PUSH0 SWAP2 POP PUSH1 0x3 SWAP1 POP DUP3 PUSH2 0x17C9 JUMP JUMPDEST PUSH1 0x40 DUP1 MLOAD PUSH0 DUP1 DUP3 MSTORE PUSH1 0x20 DUP3 ADD DUP1 DUP5 MSTORE DUP11 SWAP1 MSTORE PUSH1 0xFF DUP10 AND SWAP3 DUP3 ADD SWAP3 SWAP1 SWAP3 MSTORE PUSH1 0x60 DUP2 ADD DUP8 SWAP1 MSTORE PUSH1 0x80 DUP2 ADD DUP7 SWAP1 MSTORE PUSH1 0x1 SWAP1 PUSH1 0xA0 ADD PUSH1 0x20 PUSH1 0x40 MLOAD PUSH1 0x20 DUP2 SUB SWAP1 DUP1 DUP5 SUB SWAP1 DUP6 GAS STATICCALL ISZERO DUP1 ISZERO PUSH2 0x1795 JUMPI RETURNDATASIZE PUSH0 PUSH0 RETURNDATACOPY RETURNDATASIZE PUSH0 REVERT JUMPDEST POP POP PUSH1 0x40 MLOAD PUSH1 0x1F NOT ADD MLOAD SWAP2 POP POP PUSH1 0x1 PUSH1 0x1 PUSH1 0xA0 SHL SUB DUP2 AND PUSH2 0x17C0 JUMPI POP PUSH0 SWAP3 POP PUSH1 0x1 SWAP2 POP DUP3 SWAP1 POP PUSH2 0x17C9 JUMP JUMPDEST SWAP3 POP PUSH0 SWAP2 POP DUP2 SWAP1 POP JUMPDEST SWAP5 POP SWAP5 POP SWAP5 SWAP2 POP POP JUMP JUMPDEST PUSH0 DUP3 PUSH1 0x3 DUP2 GT ISZERO PUSH2 0x17E6 JUMPI PUSH2 0x17E6 PUSH2 0x28E7 JUMP JUMPDEST SUB PUSH2 0x17EF JUMPI POP POP JUMP JUMPDEST PUSH1 0x1 DUP3 PUSH1 0x3 DUP2 GT ISZERO PUSH2 0x1803 JUMPI PUSH2 0x1803 PUSH2 0x28E7 JUMP JUMPDEST SUB PUSH2 0x1821 JUMPI PUSH1 0x40 MLOAD PUSH4 0xF645EEDF PUSH1 0xE0 SHL DUP2 MSTORE PUSH1 0x4 ADD PUSH1 0x40 MLOAD DUP1 SWAP2 SUB SWAP1 REVERT JUMPDEST PUSH1 0x2 DUP3 PUSH1 0x3 DUP2 GT ISZERO PUSH2 0x1835 JUMPI PUSH2 0x1835 PUSH2 0x28E7 JUMP JUMPDEST SUB PUSH2 0x1856 JUMPI PUSH1 0x40 MLOAD PUSH4 0xFCE698F7 PUSH1 0xE0 SHL DUP2 MSTORE PUSH1 0x4 DUP2 ADD DUP3 SWAP1 MSTORE PUSH1 0x24 ADD PUSH2 0x925 JUMP JUMPDEST PUSH1 0x3 DUP3 PUSH1 0x3 DUP2 GT ISZERO PUSH2 0x186A JUMPI PUSH2 0x186A PUSH2 0x28E7 JUMP JUMPDEST SUB PUSH2 0x959 JUMPI PUSH1 0x40 MLOAD PUSH4 0x35E2F383 PUSH1 0xE2 SHL DUP2 MSTORE PUSH1 0x4 DUP2 ADD DUP3 SWAP1 MSTORE PUSH1 0x24 ADD PUSH2 0x925 JUMP JUMPDEST PUSH0 PUSH1 0x4 DUP3 LT ISZERO PUSH2 0x189C JUMPI POP PUSH0 PUSH2 0x672 JUMP JUMPDEST POP POP CALLDATALOAD SWAP1 JUMP JUMPDEST PUSH0 DUP1 DUP1 PUSH2 0x18F0 DUP5 PUSH2 0x18B7 PUSH2 0x100 DUP9 ADD DUP9 PUSH2 0x2745 JUMP JUMPDEST DUP1 DUP1 PUSH1 0x1F ADD PUSH1 0x20 DUP1 SWAP2 DIV MUL PUSH1 0x20 ADD PUSH1 0x40 MLOAD SWAP1 DUP2 ADD PUSH1 0x40 MSTORE DUP1 SWAP4 SWAP3 SWAP2 SWAP1 DUP2 DUP2 MSTORE PUSH1 0x20 ADD DUP4 DUP4 DUP1 DUP3 DUP5 CALLDATACOPY PUSH0 SWAP3 ADD SWAP2 SWAP1 SWAP2 MSTORE POP PUSH2 0x1D00 SWAP3 POP POP POP JUMP JUMPDEST POP SWAP1 SWAP3 POP SWAP1 POP PUSH0 DUP2 PUSH1 0x3 DUP2 GT ISZERO PUSH2 0x1909 JUMPI PUSH2 0x1909 PUSH2 0x28E7 JUMP JUMPDEST EQ DUP1 ISZERO PUSH2 0x191A JUMPI POP PUSH2 0x191A DUP3 PUSH2 0x9C9 JUMP JUMPDEST ISZERO PUSH2 0x1929 JUMPI PUSH0 SWAP3 POP POP POP PUSH2 0x672 JUMP JUMPDEST PUSH32 0x19457468657265756D205369676E6564204D6573736167653A0A333200000000 PUSH0 SWAP1 DUP2 MSTORE PUSH1 0x1C DUP6 SWAP1 MSTORE PUSH1 0x3C SWAP1 KECCAK256 PUSH2 0x1969 DUP2 PUSH2 0x18B7 PUSH2 0x100 DUP10 ADD DUP10 PUSH2 0x2745 JUMP JUMPDEST POP SWAP1 SWAP4 POP SWAP2 POP PUSH0 DUP3 PUSH1 0x3 DUP2 GT ISZERO PUSH2 0x1982 JUMPI PUSH2 0x1982 PUSH2 0x28E7 JUMP JUMPDEST EQ DUP1 ISZERO PUSH2 0x1993 JUMPI POP PUSH2 0x1993 DUP4 PUSH2 0x9C9 JUMP JUMPDEST ISZERO PUSH2 0x19A3 JUMPI PUSH0 SWAP4 POP POP POP POP PUSH2 0x672 JUMP JUMPDEST POP PUSH1 0x1 SWAP6 SWAP5 POP POP POP POP POP JUMP JUMPDEST DUP1 MLOAD PUSH1 0x20 DUP3 ADD REVERT JUMPDEST PUSH2 0x19C0 DUP3 PUSH2 0x1D49 JUMP JUMPDEST PUSH1 0x40 MLOAD PUSH1 0x1 PUSH1 0x1 PUSH1 0xA0 SHL SUB DUP4 AND SWAP1 PUSH32 0xBC7CD75A20EE27FD9ADEBAB32041F755214DBC6BFFA90CC0225B39DA2E5C2D3B SWAP1 PUSH0 SWAP1 LOG2 DUP1 MLOAD ISZERO PUSH2 0x1A04 JUMPI PUSH2 0x1346 DUP3 DUP3 PUSH2 0x1DAC JUMP JUMPDEST PUSH2 0x959 PUSH2 0x1E1E JUMP JUMPDEST PUSH0 PUSH1 0x60 PUSH2 0x1A18 CALLER PUSH2 0x9C9 JUMP JUMPDEST ISZERO DUP1 ISZERO PUSH2 0x1A39 JUMPI POP CALLER PUSH20 0x4337084D9E255FF0702461CF8895CE9E3B5FF108 EQ ISZERO JUMPDEST ISZERO PUSH2 0x1A57 JUMPI PUSH1 0x40 MLOAD PUSH4 0x47802953 PUSH1 0xE1 SHL DUP2 MSTORE PUSH1 0x4 ADD PUSH1 0x40 MLOAD DUP1 SWAP2 SUB SWAP1 REVERT JUMPDEST DUP4 PUSH1 0xFF AND PUSH0 SUB PUSH2 0x1AC8 JUMPI DUP8 PUSH1 0x1 PUSH1 0x1 PUSH1 0xA0 SHL SUB AND DUP4 DUP9 DUP9 DUP9 PUSH1 0x40 MLOAD PUSH2 0x1A7D SWAP3 SWAP2 SWAP1 PUSH2 0x28FB JUMP JUMPDEST PUSH0 PUSH1 0x40 MLOAD DUP1 DUP4 SUB DUP2 DUP6 DUP9 DUP9 CALL SWAP4 POP POP POP POP RETURNDATASIZE DUP1 PUSH0 DUP2 EQ PUSH2 0x1AB8 JUMPI PUSH1 0x40 MLOAD SWAP2 POP PUSH1 0x1F NOT PUSH1 0x3F RETURNDATASIZE ADD AND DUP3 ADD PUSH1 0x40 MSTORE RETURNDATASIZE DUP3 MSTORE RETURNDATASIZE PUSH0 PUSH1 0x20 DUP5 ADD RETURNDATACOPY PUSH2 0x1ABD JUMP JUMPDEST PUSH1 0x60 SWAP2 POP JUMPDEST POP SWAP1 SWAP3 POP SWAP1 POP PUSH2 0x1397 JUMP JUMPDEST DUP4 PUSH1 0xFF AND PUSH1 0x1 SUB PUSH2 0x1B27 JUMPI DUP8 PUSH1 0x1 PUSH1 0x1 PUSH1 0xA0 SHL SUB AND DUP4 DUP8 DUP8 PUSH1 0x40 MLOAD PUSH2 0x1AEE SWAP3 SWAP2 SWAP1 PUSH2 0x28FB JUMP JUMPDEST PUSH0 PUSH1 0x40 MLOAD DUP1 DUP4 SUB DUP2 DUP7 DUP7 DELEGATECALL SWAP3 POP POP POP RETURNDATASIZE DUP1 PUSH0 DUP2 EQ PUSH2 0x1AB8 JUMPI PUSH1 0x40 MLOAD SWAP2 POP PUSH1 0x1F NOT PUSH1 0x3F RETURNDATASIZE ADD AND DUP3 ADD PUSH1 0x40 MSTORE RETURNDATASIZE DUP3 MSTORE RETURNDATASIZE PUSH0 PUSH1 0x20 DUP5 ADD RETURNDATACOPY PUSH2 0x1ABD JUMP JUMPDEST PUSH1 0x40 MLOAD PUSH3 0x461BCD PUSH1 0xE5 SHL DUP2 MSTORE PUSH1 0x20 PUSH1 0x4 DUP3 ADD MSTORE PUSH1 0x11 PUSH1 0x24 DUP3 ADD MSTORE PUSH17 0x24B73B30B634B21037B832B930BA34B7B7 PUSH1 0x79 SHL PUSH1 0x44 DUP3 ADD MSTORE PUSH1 0x64 ADD PUSH2 0x925 JUMP JUMPDEST PUSH32 0xF0C57E16840DF040F15088DC2F81FE391C3923BEC73E23A9662EFC9C229C6A00 SLOAD PUSH1 0x1 PUSH1 0x40 SHL SWAP1 DIV PUSH1 0xFF AND PUSH2 0x101F JUMPI PUSH1 0x40 MLOAD PUSH4 0x1AFCD79F PUSH1 0xE3 SHL DUP2 MSTORE PUSH1 0x4 ADD PUSH1 0x40 MLOAD DUP1 SWAP2 SUB SWAP1 REVERT JUMPDEST PUSH2 0x1BB4 PUSH2 0x1B63 JUMP JUMPDEST PUSH0 MLOAD PUSH1 0x20 PUSH2 0x2A57 PUSH0 CODECOPY PUSH0 MLOAD SWAP1 PUSH0 MSTORE PUSH32 0xA16A46D94261C7517CC8FF89F61C0CE93598E3C849801011DEE649A6A557D102 PUSH2 0x1BED DUP5 DUP3 PUSH2 0x294E JUMP JUMPDEST POP PUSH1 0x3 DUP2 ADD PUSH2 0x1BFC DUP4 DUP3 PUSH2 0x294E JUMP JUMPDEST POP PUSH0 DUP1 DUP3 SSTORE PUSH1 0x1 SWAP1 SWAP2 ADD SSTORE POP POP JUMP JUMPDEST PUSH1 0x40 DUP1 MLOAD PUSH1 0x60 DUP1 DUP3 MSTORE PUSH1 0x80 DUP3 ADD SWAP1 SWAP3 MSTORE PUSH0 SWAP2 DUP3 SWAP2 DUP3 SWAP2 DUP3 SWAP2 SWAP1 PUSH1 0x20 DUP3 ADD DUP2 DUP1 CALLDATASIZE DUP4 CALLDATACOPY ADD SWAP1 POP POP SWAP1 POP PUSH1 0x60 PUSH1 0x4D PUSH1 0x20 DUP4 ADD DUP8 EXTCODECOPY DUP1 DUP1 PUSH1 0x20 ADD SWAP1 MLOAD DUP2 ADD SWAP1 PUSH2 0x1C51 SWAP2 SWAP1 PUSH2 0x2A08 JUMP JUMPDEST SWAP4 POP SWAP4 POP SWAP4 POP POP SWAP2 SWAP4 SWAP1 SWAP3 POP JUMP JUMPDEST PUSH0 PUSH1 0x1 PUSH1 0x1 PUSH1 0xE0 SHL SUB NOT DUP3 AND PUSH4 0x3CE4A3E9 PUSH1 0xE0 SHL EQ DUP1 PUSH2 0x1C8F JUMPI POP PUSH1 0x1 PUSH1 0x1 PUSH1 0xE0 SHL SUB NOT DUP3 AND PUSH4 0x1FFC9A7 PUSH1 0xE0 SHL EQ JUMPDEST DUP1 PUSH2 0x1CAA JUMPI POP PUSH1 0x1 PUSH1 0x1 PUSH1 0xE0 SHL SUB NOT DUP3 AND PUSH4 0x6608BDF PUSH1 0xE2 SHL EQ JUMPDEST DUP1 PUSH2 0x1CC5 JUMPI POP PUSH1 0x1 PUSH1 0x1 PUSH1 0xE0 SHL SUB NOT DUP3 AND PUSH4 0xB135D3F PUSH1 0xE1 SHL EQ JUMPDEST DUP1 PUSH2 0x1CE0 JUMPI POP PUSH1 0x1 PUSH1 0x1 PUSH1 0xE0 SHL SUB NOT DUP3 AND PUSH4 0x2711897 PUSH1 0xE5 SHL EQ JUMPDEST DUP1 PUSH2 0x672 JUMPI POP PUSH1 0x1 PUSH1 0x1 PUSH1 0xE0 SHL SUB NOT DUP3 AND PUSH4 0x51945447 PUSH1 0xE0 SHL EQ SWAP3 SWAP2 POP POP JUMP JUMPDEST PUSH0 PUSH0 PUSH0 DUP4 MLOAD PUSH1 0x41 SUB PUSH2 0x1D37 JUMPI PUSH1 0x20 DUP5 ADD MLOAD PUSH1 0x40 DUP6 ADD MLOAD PUSH1 0x60 DUP7 ADD MLOAD PUSH0 BYTE PUSH2 0x1D29 DUP9 DUP3 DUP6 DUP6 PUSH2 0x170B JUMP JUMPDEST SWAP6 POP SWAP6 POP SWAP6 POP POP POP POP PUSH2 0x1D42 JUMP JUMPDEST POP POP DUP2 MLOAD PUSH0 SWAP2 POP PUSH1 0x2 SWAP1 JUMPDEST SWAP3 POP SWAP3 POP SWAP3 JUMP JUMPDEST DUP1 PUSH1 0x1 PUSH1 0x1 PUSH1 0xA0 SHL SUB AND EXTCODESIZE PUSH0 SUB PUSH2 0x1D7E JUMPI PUSH1 0x40 MLOAD PUSH4 0x4C9C8CE3 PUSH1 0xE0 SHL DUP2 MSTORE PUSH1 0x1 PUSH1 0x1 PUSH1 0xA0 SHL SUB DUP3 AND PUSH1 0x4 DUP3 ADD MSTORE PUSH1 0x24 ADD PUSH2 0x925 JUMP JUMPDEST PUSH0 MLOAD PUSH1 0x20 PUSH2 0x2A77 PUSH0 CODECOPY PUSH0 MLOAD SWAP1 PUSH0 MSTORE DUP1 SLOAD PUSH1 0x1 PUSH1 0x1 PUSH1 0xA0 SHL SUB NOT AND PUSH1 0x1 PUSH1 0x1 PUSH1 0xA0 SHL SUB SWAP3 SWAP1 SWAP3 AND SWAP2 SWAP1 SWAP2 OR SWAP1 SSTORE JUMP JUMPDEST PUSH1 0x60 PUSH0 PUSH0 DUP5 PUSH1 0x1 PUSH1 0x1 PUSH1 0xA0 SHL SUB AND DUP5 PUSH1 0x40 MLOAD PUSH2 0x1DC8 SWAP2 SWAP1 PUSH2 0x2A40 JUMP JUMPDEST PUSH0 PUSH1 0x40 MLOAD DUP1 DUP4 SUB DUP2 DUP6 GAS DELEGATECALL SWAP2 POP POP RETURNDATASIZE DUP1 PUSH0 DUP2 EQ PUSH2 0x1E00 JUMPI PUSH1 0x40 MLOAD SWAP2 POP PUSH1 0x1F NOT PUSH1 0x3F RETURNDATASIZE ADD AND DUP3 ADD PUSH1 0x40 MSTORE RETURNDATASIZE DUP3 MSTORE RETURNDATASIZE PUSH0 PUSH1 0x20 DUP5 ADD RETURNDATACOPY PUSH2 0x1E05 JUMP JUMPDEST PUSH1 0x60 SWAP2 POP JUMPDEST POP SWAP2 POP SWAP2 POP PUSH2 0x1E15 DUP6 DUP4 DUP4 PUSH2 0x1E3D JUMP JUMPDEST SWAP6 SWAP5 POP POP POP POP POP JUMP JUMPDEST CALLVALUE ISZERO PUSH2 0x101F JUMPI PUSH1 0x40 MLOAD PUSH4 0xB398979F PUSH1 0xE0 SHL DUP2 MSTORE PUSH1 0x4 ADD PUSH1 0x40 MLOAD DUP1 SWAP2 SUB SWAP1 REVERT JUMPDEST PUSH1 0x60 DUP3 PUSH2 0x1E52 JUMPI PUSH2 0x1E4D DUP3 PUSH2 0x1E99 JUMP JUMPDEST PUSH2 0x83C JUMP JUMPDEST DUP2 MLOAD ISZERO DUP1 ISZERO PUSH2 0x1E69 JUMPI POP PUSH1 0x1 PUSH1 0x1 PUSH1 0xA0 SHL SUB DUP5 AND EXTCODESIZE ISZERO JUMPDEST ISZERO PUSH2 0x1E92 JUMPI PUSH1 0x40 MLOAD PUSH4 0x9996B315 PUSH1 0xE0 SHL DUP2 MSTORE PUSH1 0x1 PUSH1 0x1 PUSH1 0xA0 SHL SUB DUP6 AND PUSH1 0x4 DUP3 ADD MSTORE PUSH1 0x24 ADD PUSH2 0x925 JUMP JUMPDEST POP DUP1 PUSH2 0x83C JUMP JUMPDEST DUP1 MLOAD ISZERO PUSH2 0x1EA9 JUMPI DUP1 MLOAD DUP1 DUP3 PUSH1 0x20 ADD REVERT JUMPDEST PUSH1 0x40 MLOAD PUSH4 0xD6BDA275 PUSH1 0xE0 SHL DUP2 MSTORE PUSH1 0x4 ADD PUSH1 0x40 MLOAD DUP1 SWAP2 SUB SWAP1 REVERT JUMPDEST PUSH1 0x1 PUSH1 0x1 PUSH1 0xA0 SHL SUB DUP2 AND DUP2 EQ PUSH2 0x10C4 JUMPI PUSH0 PUSH0 REVERT JUMPDEST PUSH0 PUSH0 DUP4 PUSH1 0x1F DUP5 ADD SLT PUSH2 0x1EE6 JUMPI PUSH0 PUSH0 REVERT JUMPDEST POP DUP2 CALLDATALOAD PUSH1 0x1 PUSH1 0x1 PUSH1 0x40 SHL SUB DUP2 GT ISZERO PUSH2 0x1EFC JUMPI PUSH0 PUSH0 REVERT JUMPDEST PUSH1 0x20 DUP4 ADD SWAP2 POP DUP4 PUSH1 0x20 DUP3 DUP6 ADD ADD GT ISZERO PUSH2 0x1F13 JUMPI PUSH0 PUSH0 REVERT JUMPDEST SWAP3 POP SWAP3 SWAP1 POP JUMP JUMPDEST PUSH0 PUSH0 PUSH0 PUSH0 PUSH0 PUSH0 PUSH0 PUSH0 PUSH1 0xC0 DUP10 DUP12 SUB SLT ISZERO PUSH2 0x1F31 JUMPI PUSH0 PUSH0 REVERT JUMPDEST DUP9 CALLDATALOAD PUSH2 0x1F3C DUP2 PUSH2 0x1EC2 JUMP JUMPDEST SWAP8 POP PUSH1 0x20 DUP10 ADD CALLDATALOAD PUSH2 0x1F4C DUP2 PUSH2 0x1EC2 JUMP JUMPDEST SWAP7 POP PUSH1 0x40 DUP10 ADD CALLDATALOAD PUSH2 0x1F5C DUP2 PUSH2 0x1EC2 JUMP JUMPDEST SWAP6 POP PUSH1 0x60 DUP10 ADD CALLDATALOAD SWAP5 POP PUSH1 0x80 DUP10 ADD CALLDATALOAD PUSH1 0x1 PUSH1 0x1 PUSH1 0x40 SHL SUB DUP2 GT ISZERO PUSH2 0x1F7D JUMPI PUSH0 PUSH0 REVERT JUMPDEST PUSH2 0x1F89 DUP12 DUP3 DUP13 ADD PUSH2 0x1ED6 JUMP JUMPDEST SWAP1 SWAP6 POP SWAP4 POP POP PUSH1 0xA0 DUP10 ADD CALLDATALOAD PUSH1 0x1 PUSH1 0x1 PUSH1 0x40 SHL SUB DUP2 GT ISZERO PUSH2 0x1FA7 JUMPI PUSH0 PUSH0 REVERT JUMPDEST PUSH2 0x1FB3 DUP12 DUP3 DUP13 ADD PUSH2 0x1ED6 JUMP JUMPDEST SWAP10 SWAP13 SWAP9 SWAP12 POP SWAP7 SWAP10 POP SWAP5 SWAP8 SWAP4 SWAP7 SWAP3 SWAP6 SWAP5 POP POP POP JUMP JUMPDEST PUSH1 0x1 PUSH1 0x1 PUSH1 0xE0 SHL SUB NOT DUP2 AND DUP2 EQ PUSH2 0x10C4 JUMPI PUSH0 PUSH0 REVERT JUMPDEST PUSH0 PUSH1 0x20 DUP3 DUP5 SUB SLT ISZERO PUSH2 0x1FEC JUMPI PUSH0 PUSH0 REVERT JUMPDEST DUP2 CALLDATALOAD PUSH2 0x83C DUP2 PUSH2 0x1FC7 JUMP JUMPDEST PUSH0 PUSH0 PUSH0 PUSH0 PUSH0 PUSH0 PUSH1 0x80 DUP8 DUP10 SUB SLT ISZERO PUSH2 0x200C JUMPI PUSH0 PUSH0 REVERT JUMPDEST DUP7 CALLDATALOAD PUSH2 0x2017 DUP2 PUSH2 0x1EC2 JUMP JUMPDEST SWAP6 POP PUSH1 0x20 DUP8 ADD CALLDATALOAD PUSH1 0x1 PUSH1 0x1 PUSH1 0x40 SHL SUB DUP2 GT ISZERO PUSH2 0x2031 JUMPI PUSH0 PUSH0 REVERT JUMPDEST PUSH2 0x203D DUP10 DUP3 DUP11 ADD PUSH2 0x1ED6 JUMP JUMPDEST SWAP1 SWAP7 POP SWAP5 POP POP PUSH1 0x40 DUP8 ADD CALLDATALOAD PUSH1 0x1 PUSH1 0x1 PUSH1 0x40 SHL SUB DUP2 GT ISZERO PUSH2 0x205B JUMPI PUSH0 PUSH0 REVERT JUMPDEST PUSH2 0x2067 DUP10 DUP3 DUP11 ADD PUSH2 0x1ED6 JUMP JUMPDEST SWAP1 SWAP5 POP SWAP3 POP POP PUSH1 0x60 DUP8 ADD CALLDATALOAD PUSH2 0x207B DUP2 PUSH2 0x1EC2 JUMP JUMPDEST DUP1 SWAP2 POP POP SWAP3 SWAP6 POP SWAP3 SWAP6 POP SWAP3 SWAP6 JUMP JUMPDEST PUSH0 PUSH0 PUSH0 PUSH0 PUSH0 PUSH1 0x80 DUP7 DUP9 SUB SLT ISZERO PUSH2 0x209D JUMPI PUSH0 PUSH0 REVERT JUMPDEST DUP6 CALLDATALOAD PUSH2 0x20A8 DUP2 PUSH2 0x1EC2 JUMP JUMPDEST SWAP5 POP PUSH1 0x20 DUP7 ADD CALLDATALOAD PUSH2 0x20B8 DUP2 PUSH2 0x1EC2 JUMP JUMPDEST SWAP4 POP PUSH1 0x40 DUP7 ADD CALLDATALOAD SWAP3 POP PUSH1 0x60 DUP7 ADD CALLDATALOAD PUSH1 0x1 PUSH1 0x1 PUSH1 0x40 SHL SUB DUP2 GT ISZERO PUSH2 0x20D9 JUMPI PUSH0 PUSH0 REVERT JUMPDEST PUSH2 0x20E5 DUP9 DUP3 DUP10 ADD PUSH2 0x1ED6 JUMP JUMPDEST SWAP7 SWAP10 SWAP6 SWAP9 POP SWAP4 SWAP7 POP SWAP3 SWAP5 SWAP4 SWAP3 POP POP POP JUMP JUMPDEST PUSH4 0x4E487B71 PUSH1 0xE0 SHL PUSH0 MSTORE PUSH1 0x41 PUSH1 0x4 MSTORE PUSH1 0x24 PUSH0 REVERT JUMPDEST PUSH0 DUP3 PUSH1 0x1F DUP4 ADD SLT PUSH2 0x2119 JUMPI PUSH0 PUSH0 REVERT JUMPDEST DUP2 CALLDATALOAD PUSH1 0x1 PUSH1 0x1 PUSH1 0x40 SHL SUB DUP2 GT ISZERO PUSH2 0x2132 JUMPI PUSH2 0x2132 PUSH2 0x20F6 JUMP JUMPDEST PUSH1 0x40 MLOAD PUSH1 0x1F DUP3 ADD PUSH1 0x1F NOT SWAP1 DUP2 AND PUSH1 0x3F ADD AND DUP2 ADD PUSH1 0x1 PUSH1 0x1 PUSH1 0x40 SHL SUB DUP2 GT DUP3 DUP3 LT OR ISZERO PUSH2 0x2160 JUMPI PUSH2 0x2160 PUSH2 0x20F6 JUMP JUMPDEST PUSH1 0x40 MSTORE DUP2 DUP2 MSTORE DUP4 DUP3 ADD PUSH1 0x20 ADD DUP6 LT ISZERO PUSH2 0x2177 JUMPI PUSH0 PUSH0 REVERT JUMPDEST DUP2 PUSH1 0x20 DUP6 ADD PUSH1 0x20 DUP4 ADD CALLDATACOPY PUSH0 SWAP2 DUP2 ADD PUSH1 0x20 ADD SWAP2 SWAP1 SWAP2 MSTORE SWAP4 SWAP3 POP POP POP JUMP JUMPDEST PUSH0 PUSH0 PUSH1 0x40 DUP4 DUP6 SUB SLT ISZERO PUSH2 0x21A4 JUMPI PUSH0 PUSH0 REVERT JUMPDEST DUP3 CALLDATALOAD SWAP2 POP PUSH1 0x20 DUP4 ADD CALLDATALOAD PUSH1 0x1 PUSH1 0x1 PUSH1 0x40 SHL SUB DUP2 GT ISZERO PUSH2 0x21C0 JUMPI PUSH0 PUSH0 REVERT JUMPDEST PUSH2 0x21CC DUP6 DUP3 DUP7 ADD PUSH2 0x210A JUMP JUMPDEST SWAP2 POP POP SWAP3 POP SWAP3 SWAP1 POP JUMP JUMPDEST PUSH0 PUSH0 PUSH0 PUSH1 0x60 DUP5 DUP7 SUB SLT ISZERO PUSH2 0x21E8 JUMPI PUSH0 PUSH0 REVERT JUMPDEST DUP4 CALLDATALOAD PUSH1 0x1 PUSH1 0x1 PUSH1 0x40 SHL SUB DUP2 GT ISZERO PUSH2 0x21FD JUMPI PUSH0 PUSH0 REVERT JUMPDEST DUP5 ADD PUSH2 0x120 DUP2 DUP8 SUB SLT ISZERO PUSH2 0x220F JUMPI PUSH0 PUSH0 REVERT JUMPDEST SWAP6 PUSH1 0x20 DUP6 ADD CALLDATALOAD SWAP6 POP PUSH1 0x40 SWAP1 SWAP5 ADD CALLDATALOAD SWAP4 SWAP3 POP POP POP JUMP JUMPDEST PUSH0 PUSH0 PUSH1 0x40 DUP4 DUP6 SUB SLT ISZERO PUSH2 0x2235 JUMPI PUSH0 PUSH0 REVERT JUMPDEST DUP3 CALLDATALOAD PUSH1 0x1 PUSH1 0x1 PUSH1 0x40 SHL SUB DUP2 GT ISZERO PUSH2 0x224A JUMPI PUSH0 PUSH0 REVERT JUMPDEST PUSH2 0x2256 DUP6 DUP3 DUP7 ADD PUSH2 0x210A JUMP JUMPDEST SWAP3 POP POP PUSH1 0x20 DUP4 ADD CALLDATALOAD PUSH2 0x2267 DUP2 PUSH2 0x1EC2 JUMP JUMPDEST DUP1 SWAP2 POP POP SWAP3 POP SWAP3 SWAP1 POP JUMP JUMPDEST PUSH0 PUSH0 DUP4 PUSH1 0x1F DUP5 ADD SLT PUSH2 0x2282 JUMPI PUSH0 PUSH0 REVERT JUMPDEST POP DUP2 CALLDATALOAD PUSH1 0x1 PUSH1 0x1 PUSH1 0x40 SHL SUB DUP2 GT ISZERO PUSH2 0x2298 JUMPI PUSH0 PUSH0 REVERT JUMPDEST PUSH1 0x20 DUP4 ADD SWAP2 POP DUP4 PUSH1 0x20 DUP3 PUSH1 0x5 SHL DUP6 ADD ADD GT ISZERO PUSH2 0x1F13 JUMPI PUSH0 PUSH0 REVERT JUMPDEST PUSH0 PUSH0 PUSH1 0x20 DUP4 DUP6 SUB SLT ISZERO PUSH2 0x22C3 JUMPI PUSH0 PUSH0 REVERT JUMPDEST DUP3 CALLDATALOAD PUSH1 0x1 PUSH1 0x1 PUSH1 0x40 SHL SUB DUP2 GT ISZERO PUSH2 0x22D8 JUMPI PUSH0 PUSH0 REVERT JUMPDEST PUSH2 0x22E4 DUP6 DUP3 DUP7 ADD PUSH2 0x2272 JUMP JUMPDEST SWAP1 SWAP7 SWAP1 SWAP6 POP SWAP4 POP POP POP POP JUMP JUMPDEST PUSH0 PUSH0 PUSH1 0x40 DUP4 DUP6 SUB SLT ISZERO PUSH2 0x2301 JUMPI PUSH0 PUSH0 REVERT JUMPDEST DUP3 CALLDATALOAD PUSH2 0x230C DUP2 PUSH2 0x1EC2 JUMP JUMPDEST SWAP2 POP PUSH1 0x20 DUP4 ADD CALLDATALOAD PUSH1 0x1 PUSH1 0x1 PUSH1 0x40 SHL SUB DUP2 GT ISZERO PUSH2 0x21C0 JUMPI PUSH0 PUSH0 REVERT JUMPDEST DUP1 CALLDATALOAD PUSH1 0xFF DUP2 AND DUP2 EQ PUSH2 0x2336 JUMPI PUSH0 PUSH0 REVERT JUMPDEST SWAP2 SWAP1 POP JUMP JUMPDEST PUSH0 PUSH0 PUSH0 PUSH0 PUSH0 PUSH1 0x80 DUP7 DUP9 SUB SLT ISZERO PUSH2 0x234F JUMPI PUSH0 PUSH0 REVERT JUMPDEST DUP6 CALLDATALOAD PUSH2 0x235A DUP2 PUSH2 0x1EC2 JUMP JUMPDEST SWAP5 POP PUSH1 0x20 DUP7 ADD CALLDATALOAD SWAP4 POP PUSH1 0x40 DUP7 ADD CALLDATALOAD PUSH1 0x1 PUSH1 0x1 PUSH1 0x40 SHL SUB DUP2 GT ISZERO PUSH2 0x237B JUMPI PUSH0 PUSH0 REVERT JUMPDEST PUSH2 0x2387 DUP9 DUP3 DUP10 ADD PUSH2 0x1ED6 JUMP JUMPDEST SWAP1 SWAP5 POP SWAP3 POP PUSH2 0x239A SWAP1 POP PUSH1 0x60 DUP8 ADD PUSH2 0x2326 JUMP JUMPDEST SWAP1 POP SWAP3 SWAP6 POP SWAP3 SWAP6 SWAP1 SWAP4 POP JUMP JUMPDEST PUSH0 DUP2 MLOAD DUP1 DUP5 MSTORE DUP1 PUSH1 0x20 DUP5 ADD PUSH1 0x20 DUP7 ADD MCOPY PUSH0 PUSH1 0x20 DUP3 DUP7 ADD ADD MSTORE PUSH1 0x20 PUSH1 0x1F NOT PUSH1 0x1F DUP4 ADD AND DUP6 ADD ADD SWAP2 POP POP SWAP3 SWAP2 POP POP JUMP JUMPDEST PUSH1 0x20 DUP2 MSTORE PUSH0 PUSH2 0x83C PUSH1 0x20 DUP4 ADD DUP5 PUSH2 0x23A6 JUMP JUMPDEST PUSH0 PUSH0 PUSH0 PUSH1 0x40 DUP5 DUP7 SUB SLT ISZERO PUSH2 0x23F8 JUMPI PUSH0 PUSH0 REVERT JUMPDEST DUP4 CALLDATALOAD PUSH2 0x2403 DUP2 PUSH2 0x1EC2 JUMP JUMPDEST SWAP3 POP PUSH1 0x20 DUP5 ADD CALLDATALOAD PUSH1 0x1 PUSH1 0x1 PUSH1 0x40 SHL SUB DUP2 GT ISZERO PUSH2 0x241D JUMPI PUSH0 PUSH0 REVERT JUMPDEST PUSH2 0x2429 DUP7 DUP3 DUP8 ADD PUSH2 0x1ED6 JUMP JUMPDEST SWAP5 SWAP8 SWAP1 SWAP7 POP SWAP4 SWAP5 POP POP POP POP JUMP JUMPDEST PUSH0 PUSH1 0x20 DUP3 DUP5 SUB SLT ISZERO PUSH2 0x2446 JUMPI PUSH0 PUSH0 REVERT JUMPDEST DUP2 CALLDATALOAD PUSH2 0x83C DUP2 PUSH2 0x1EC2 JUMP JUMPDEST PUSH1 0xFF PUSH1 0xF8 SHL DUP9 AND DUP2 MSTORE PUSH1 0xE0 PUSH1 0x20 DUP3 ADD MSTORE PUSH0 PUSH2 0x246F PUSH1 0xE0 DUP4 ADD DUP10 PUSH2 0x23A6 JUMP JUMPDEST DUP3 DUP2 SUB PUSH1 0x40 DUP5 ADD MSTORE PUSH2 0x2481 DUP2 DUP10 PUSH2 0x23A6 JUMP JUMPDEST PUSH1 0x60 DUP5 ADD DUP9 SWAP1 MSTORE PUSH1 0x1 PUSH1 0x1 PUSH1 0xA0 SHL SUB DUP8 AND PUSH1 0x80 DUP6 ADD MSTORE PUSH1 0xA0 DUP5 ADD DUP7 SWAP1 MSTORE DUP4 DUP2 SUB PUSH1 0xC0 DUP6 ADD MSTORE DUP5 MLOAD DUP1 DUP3 MSTORE PUSH1 0x20 DUP1 DUP8 ADD SWAP4 POP SWAP1 SWAP2 ADD SWAP1 PUSH0 JUMPDEST DUP2 DUP2 LT ISZERO PUSH2 0x24D6 JUMPI DUP4 MLOAD DUP4 MSTORE PUSH1 0x20 SWAP4 DUP5 ADD SWAP4 SWAP1 SWAP3 ADD SWAP2 PUSH1 0x1 ADD PUSH2 0x24B8 JUMP JUMPDEST POP SWAP1 SWAP12 SWAP11 POP POP POP POP POP POP POP POP POP POP POP JUMP JUMPDEST PUSH0 PUSH1 0x20 DUP3 DUP5 SUB SLT ISZERO PUSH2 0x24F7 JUMPI PUSH0 PUSH0 REVERT JUMPDEST POP CALLDATALOAD SWAP2 SWAP1 POP JUMP JUMPDEST PUSH0 PUSH0 PUSH0 PUSH0 PUSH1 0x60 DUP6 DUP8 SUB SLT ISZERO PUSH2 0x2511 JUMPI PUSH0 PUSH0 REVERT JUMPDEST DUP5 CALLDATALOAD PUSH2 0x251C DUP2 PUSH2 0x1EC2 JUMP JUMPDEST SWAP4 POP PUSH1 0x20 DUP6 ADD CALLDATALOAD SWAP3 POP PUSH1 0x40 DUP6 ADD CALLDATALOAD PUSH1 0x1 PUSH1 0x1 PUSH1 0x40 SHL SUB DUP2 GT ISZERO PUSH2 0x253D JUMPI PUSH0 PUSH0 REVERT JUMPDEST PUSH2 0x2549 DUP8 DUP3 DUP9 ADD PUSH2 0x1ED6 JUMP JUMPDEST SWAP6 SWAP9 SWAP5 SWAP8 POP SWAP6 POP POP POP POP JUMP JUMPDEST PUSH0 PUSH0 PUSH0 PUSH0 PUSH0 PUSH0 PUSH0 PUSH0 PUSH1 0xA0 DUP10 DUP12 SUB SLT ISZERO PUSH2 0x256C JUMPI PUSH0 PUSH0 REVERT JUMPDEST DUP9 CALLDATALOAD PUSH2 0x2577 DUP2 PUSH2 0x1EC2 JUMP JUMPDEST SWAP8 POP PUSH1 0x20 DUP10 ADD CALLDATALOAD PUSH2 0x2587 DUP2 PUSH2 0x1EC2 JUMP JUMPDEST SWAP7 POP PUSH1 0x40 DUP10 ADD CALLDATALOAD PUSH1 0x1 PUSH1 0x1 PUSH1 0x40 SHL SUB DUP2 GT ISZERO PUSH2 0x25A1 JUMPI PUSH0 PUSH0 REVERT JUMPDEST PUSH2 0x25AD DUP12 DUP3 DUP13 ADD PUSH2 0x2272 JUMP JUMPDEST SWAP1 SWAP8 POP SWAP6 POP POP PUSH1 0x60 DUP10 ADD CALLDATALOAD PUSH1 0x1 PUSH1 0x1 PUSH1 0x40 SHL SUB DUP2 GT ISZERO PUSH2 0x25CB JUMPI PUSH0 PUSH0 REVERT JUMPDEST PUSH2 0x25D7 DUP12 DUP3 DUP13 ADD PUSH2 0x2272 JUMP JUMPDEST SWAP1 SWAP6 POP SWAP4 POP POP PUSH1 0x80 DUP10 ADD CALLDATALOAD PUSH1 0x1 PUSH1 0x1 PUSH1 0x40 SHL SUB DUP2 GT ISZERO PUSH2 0x1FA7 JUMPI PUSH0 PUSH0 REVERT JUMPDEST PUSH0 PUSH0 PUSH0 PUSH0 PUSH0 PUSH0 PUSH1 0xA0 DUP8 DUP10 SUB SLT ISZERO PUSH2 0x260A JUMPI PUSH0 PUSH0 REVERT JUMPDEST DUP7 CALLDATALOAD PUSH2 0x2615 DUP2 PUSH2 0x1EC2 JUMP JUMPDEST SWAP6 POP PUSH1 0x20 DUP8 ADD CALLDATALOAD SWAP5 POP PUSH1 0x40 DUP8 ADD CALLDATALOAD PUSH1 0x1 PUSH1 0x1 PUSH1 0x40 SHL SUB DUP2 GT ISZERO PUSH2 0x2636 JUMPI PUSH0 PUSH0 REVERT JUMPDEST PUSH2 0x2642 DUP10 DUP3 DUP11 ADD PUSH2 0x1ED6 JUMP JUMPDEST SWAP1 SWAP6 POP SWAP4 POP PUSH2 0x2655 SWAP1 POP PUSH1 0x60 DUP9 ADD PUSH2 0x2326 JUMP JUMPDEST SWAP6 SWAP9 SWAP5 SWAP8 POP SWAP3 SWAP6 SWAP2 SWAP5 SWAP4 PUSH1 0x80 SWAP1 SWAP3 ADD CALLDATALOAD SWAP3 POP POP JUMP JUMPDEST PUSH0 PUSH0 PUSH0 PUSH0 PUSH0 PUSH0 PUSH1 0xA0 DUP8 DUP10 SUB SLT ISZERO PUSH2 0x267F JUMPI PUSH0 PUSH0 REVERT JUMPDEST DUP7 CALLDATALOAD PUSH2 0x268A DUP2 PUSH2 0x1EC2 JUMP JUMPDEST SWAP6 POP PUSH1 0x20 DUP8 ADD CALLDATALOAD PUSH2 0x269A DUP2 PUSH2 0x1EC2 JUMP JUMPDEST SWAP5 POP PUSH1 0x40 DUP8 ADD CALLDATALOAD SWAP4 POP PUSH1 0x60 DUP8 ADD CALLDATALOAD SWAP3 POP PUSH1 0x80 DUP8 ADD CALLDATALOAD PUSH1 0x1 PUSH1 0x1 PUSH1 0x40 SHL SUB DUP2 GT ISZERO PUSH2 0x26C2 JUMPI PUSH0 PUSH0 REVERT JUMPDEST PUSH2 0x26CE DUP10 DUP3 DUP11 ADD PUSH2 0x1ED6 JUMP JUMPDEST SWAP8 SWAP11 SWAP7 SWAP10 POP SWAP5 SWAP8 POP SWAP3 SWAP6 SWAP4 SWAP5 SWAP3 POP POP POP JUMP JUMPDEST DUP3 DUP2 MSTORE PUSH1 0x40 PUSH1 0x20 DUP3 ADD MSTORE PUSH0 PUSH2 0x9A6 PUSH1 0x40 DUP4 ADD DUP5 PUSH2 0x23A6 JUMP JUMPDEST PUSH0 PUSH1 0x20 DUP3 DUP5 SUB SLT ISZERO PUSH2 0x2708 JUMPI PUSH0 PUSH0 REVERT JUMPDEST DUP2 MLOAD PUSH2 0x83C DUP2 PUSH2 0x1FC7 JUMP JUMPDEST PUSH4 0x4E487B71 PUSH1 0xE0 SHL PUSH0 MSTORE PUSH1 0x32 PUSH1 0x4 MSTORE PUSH1 0x24 PUSH0 REVERT JUMPDEST PUSH0 DUP3 CALLDATALOAD PUSH1 0x5E NOT DUP4 CALLDATASIZE SUB ADD DUP2 SLT PUSH2 0x273B JUMPI PUSH0 PUSH0 REVERT JUMPDEST SWAP2 SWAP1 SWAP2 ADD SWAP3 SWAP2 POP POP JUMP JUMPDEST PUSH0 PUSH0 DUP4 CALLDATALOAD PUSH1 0x1E NOT DUP5 CALLDATASIZE SUB ADD DUP2 SLT PUSH2 0x275A JUMPI PUSH0 PUSH0 REVERT JUMPDEST DUP4 ADD DUP1 CALLDATALOAD SWAP2 POP PUSH1 0x1 PUSH1 0x1 PUSH1 0x40 SHL SUB DUP3 GT ISZERO PUSH2 0x2773 JUMPI PUSH0 PUSH0 REVERT JUMPDEST PUSH1 0x20 ADD SWAP2 POP CALLDATASIZE DUP2 SWAP1 SUB DUP3 SGT ISZERO PUSH2 0x1F13 JUMPI PUSH0 PUSH0 REVERT JUMPDEST PUSH0 PUSH1 0x20 DUP3 DUP5 SUB SLT ISZERO PUSH2 0x2797 JUMPI PUSH0 PUSH0 REVERT JUMPDEST DUP2 MLOAD PUSH2 0x83C DUP2 PUSH2 0x1EC2 JUMP JUMPDEST PUSH0 PUSH1 0x20 DUP3 DUP5 SUB SLT ISZERO PUSH2 0x27B2 JUMPI PUSH0 PUSH0 REVERT JUMPDEST POP MLOAD SWAP2 SWAP1 POP JUMP JUMPDEST PUSH4 0x4E487B71 PUSH1 0xE0 SHL PUSH0 MSTORE PUSH1 0x11 PUSH1 0x4 MSTORE PUSH1 0x24 PUSH0 REVERT JUMPDEST DUP1 DUP3 ADD DUP1 DUP3 GT ISZERO PUSH2 0x672 JUMPI PUSH2 0x672 PUSH2 0x27B9 JUMP JUMPDEST PUSH1 0x40 DUP2 MSTORE PUSH0 PUSH2 0x27F2 PUSH1 0x40 DUP4 ADD DUP6 PUSH2 0x23A6 JUMP JUMPDEST SWAP1 POP PUSH1 0x1 DUP1 PUSH1 0xA0 SHL SUB DUP4 AND PUSH1 0x20 DUP4 ADD MSTORE SWAP4 SWAP3 POP POP POP JUMP JUMPDEST PUSH0 PUSH1 0x1 DUP3 ADD PUSH2 0x281A JUMPI PUSH2 0x281A PUSH2 0x27B9 JUMP JUMPDEST POP PUSH1 0x1 ADD SWAP1 JUMP JUMPDEST PUSH1 0x1 DUP2 DUP2 SHR SWAP1 DUP3 AND DUP1 PUSH2 0x2835 JUMPI PUSH1 0x7F DUP3 AND SWAP2 POP JUMPDEST PUSH1 0x20 DUP3 LT DUP2 SUB PUSH2 0x2853 JUMPI PUSH4 0x4E487B71 PUSH1 0xE0 SHL PUSH0 MSTORE PUSH1 0x22 PUSH1 0x4 MSTORE PUSH1 0x24 PUSH0 REVERT JUMPDEST POP SWAP2 SWAP1 POP JUMP JUMPDEST DUP2 DUP2 SUB DUP2 DUP2 GT ISZERO PUSH2 0x672 JUMPI PUSH2 0x672 PUSH2 0x27B9 JUMP JUMPDEST DUP2 DUP4 MSTORE DUP2 DUP2 PUSH1 0x20 DUP6 ADD CALLDATACOPY POP PUSH0 DUP3 DUP3 ADD PUSH1 0x20 SWAP1 DUP2 ADD SWAP2 SWAP1 SWAP2 MSTORE PUSH1 0x1F SWAP1 SWAP2 ADD PUSH1 0x1F NOT AND SWAP1 SWAP2 ADD ADD SWAP1 JUMP JUMPDEST PUSH1 0x1 PUSH1 0x1 PUSH1 0xA0 SHL SUB DUP8 AND DUP2 MSTORE PUSH1 0x80 PUSH1 0x20 DUP3 ADD DUP2 SWAP1 MSTORE PUSH0 SWAP1 PUSH2 0x28B8 SWAP1 DUP4 ADD DUP8 DUP10 PUSH2 0x286C JUMP JUMPDEST DUP3 DUP2 SUB PUSH1 0x40 DUP5 ADD MSTORE PUSH2 0x28CB DUP2 DUP7 DUP9 PUSH2 0x286C JUMP JUMPDEST SWAP2 POP POP PUSH1 0x1 DUP1 PUSH1 0xA0 SHL SUB DUP4 AND PUSH1 0x60 DUP4 ADD MSTORE SWAP8 SWAP7 POP POP POP POP POP POP POP JUMP JUMPDEST PUSH4 0x4E487B71 PUSH1 0xE0 SHL PUSH0 MSTORE PUSH1 0x21 PUSH1 0x4 MSTORE PUSH1 0x24 PUSH0 REVERT JUMPDEST DUP2 DUP4 DUP3 CALLDATACOPY PUSH0 SWAP2 ADD SWAP1 DUP2 MSTORE SWAP2 SWAP1 POP JUMP JUMPDEST PUSH1 0x1F DUP3 GT ISZERO PUSH2 0x1346 JUMPI DUP1 PUSH0 MSTORE PUSH1 0x20 PUSH0 KECCAK256 PUSH1 0x1F DUP5 ADD PUSH1 0x5 SHR DUP2 ADD PUSH1 0x20 DUP6 LT ISZERO PUSH2 0x292F JUMPI POP DUP1 JUMPDEST PUSH1 0x1F DUP5 ADD PUSH1 0x5 SHR DUP3 ADD SWAP2 POP JUMPDEST DUP2 DUP2 LT ISZERO PUSH2 0xBC2 JUMPI PUSH0 DUP2 SSTORE PUSH1 0x1 ADD PUSH2 0x293B JUMP JUMPDEST DUP2 MLOAD PUSH1 0x1 PUSH1 0x1 PUSH1 0x40 SHL SUB DUP2 GT ISZERO PUSH2 0x2967 JUMPI PUSH2 0x2967 PUSH2 0x20F6 JUMP JUMPDEST PUSH2 0x297B DUP2 PUSH2 0x2975 DUP5 SLOAD PUSH2 0x2821 JUMP JUMPDEST DUP5 PUSH2 0x290A JUMP JUMPDEST PUSH1 0x20 PUSH1 0x1F DUP3 GT PUSH1 0x1 DUP2 EQ PUSH2 0x29AD JUMPI PUSH0 DUP4 ISZERO PUSH2 0x2996 JUMPI POP DUP5 DUP3 ADD MLOAD JUMPDEST PUSH0 NOT PUSH1 0x3 DUP6 SWAP1 SHL SHR NOT AND PUSH1 0x1 DUP5 SWAP1 SHL OR DUP5 SSTORE PUSH2 0xBC2 JUMP JUMPDEST PUSH0 DUP5 DUP2 MSTORE PUSH1 0x20 DUP2 KECCAK256 PUSH1 0x1F NOT DUP6 AND SWAP2 JUMPDEST DUP3 DUP2 LT ISZERO PUSH2 0x29DC JUMPI DUP8 DUP6 ADD MLOAD DUP3 SSTORE PUSH1 0x20 SWAP5 DUP6 ADD SWAP5 PUSH1 0x1 SWAP1 SWAP3 ADD SWAP2 ADD PUSH2 0x29BC JUMP JUMPDEST POP DUP5 DUP3 LT ISZERO PUSH2 0x29F9 JUMPI DUP7 DUP5 ADD MLOAD PUSH0 NOT PUSH1 0x3 DUP8 SWAP1 SHL PUSH1 0xF8 AND SHR NOT AND DUP2 SSTORE JUMPDEST POP POP POP POP PUSH1 0x1 SWAP1 DUP2 SHL ADD SWAP1 SSTORE POP JUMP JUMPDEST PUSH0 PUSH0 PUSH0 PUSH1 0x60 DUP5 DUP7 SUB SLT ISZERO PUSH2 0x2A1A JUMPI PUSH0 PUSH0 REVERT JUMPDEST DUP4 MLOAD PUSH1 0x20 DUP6 ADD MLOAD SWAP1 SWAP4 POP PUSH2 0x2A2D DUP2 PUSH2 0x1EC2 JUMP JUMPDEST PUSH1 0x40 SWAP5 SWAP1 SWAP5 ADD MLOAD SWAP3 SWAP6 SWAP4 SWAP5 POP SWAP2 SWAP3 SWAP2 POP POP JUMP JUMPDEST PUSH0 DUP3 MLOAD DUP1 PUSH1 0x20 DUP6 ADD DUP5 MCOPY PUSH0 SWAP3 ADD SWAP2 DUP3 MSTORE POP SWAP2 SWAP1 POP JUMP INVALID LOG1 PUSH11 0x46D94261C7517CC8FF89F6 SHR 0xC 0xE9 CALLDATALOAD SWAP9 0xE3 0xC8 BLOBHASH DUP1 LT GT 0xDE 0xE6 BLOBHASH 0xA6 0xA5 JUMPI 0xD1 STOP CALLDATASIZE ADDMOD SWAP5 LOG1 EXTCODESIZE LOG1 LOG3 0x21 MOD PUSH8 0xC828492DB98DCA3E KECCAK256 PUSH23 0xCC3735A920A3CA505D382BBCA2646970667358221220F5 DUP13 SWAP15 SLT 0xD2 BASEFEE 0xE4 0xC8 EXTCODECOPY 0xEB DUP14 SELFBALANCE DUP11 0xA8 SWAP16 0xE MSIZE SSTORE 0xDD 0xFC STOP 0xB7 KECCAK256 SWAP5 PC BLOBBASEFEE 0xBF MULMOD PUSH26 0x58406C64736F6C634300081C0033000000000000000000000000 ",
  "sha1": "ae3b9d77647da6d23be3c66af6c1c4eee7378199",
  "source": "// SPDX-License-Identifier: Apache-2.0\npragma solidity ^0.8.27;\n\nimport {HyperAccountCommitMinter} from \"./HyperAccountCommitMinter.sol\";\n\ncontract HyperAccount9CharCommitMinter is HyperAccountCommitMinter {\n    constructor(address _hypermap, uint256 _minCommitAge, uint256 _maxCommitAge)\n        HyperAccountCommitMinter(_hypermap, _minCommitAge, _maxCommitAge)\n    {}\n\n    function initialize() public override initializer {\n        __UUPSUpgradeable_init();\n        __EIP712_init(\"HyperAccount9CharCommitMinter\", \"1\");\n    }\n\n    function _mint(address to, bytes calldata name, bytes calldata initialization, address implementation)\n        internal\n        override\n        returns (address tba)\n    {\n        if (name.length < 9) revert(\"Label too short\");\n        return super._mint(to, name, initialization, implementation);\n    }\n}\n",
  "sourcePath": "src/account/HyperAccount9CharCommitMinter.sol",
  "type": "contract"
}