{
  "abi": [
    {
      "inputs": [
        {
          "internalType": "address",
          "name": "_hypermap",
          "type": "address"
        }
      ],
      "stateMutability": "nonpayable",
      "type": "constructor"
    },
    {
      "inputs": [
        {
          "internalType": "address",
          "name": "target",
          "type": "address"
        }
      ],
      "name": "AddressEmptyCode",
      "type": "error"
    },
    {
      "inputs": [],
      "name": "ECDSAInvalidSignature",
      "type": "error"
    },
    {
      "inputs": [
        {
          "internalType": "uint256",
          "name": "length",
          "type": "uint256"
        }
      ],
      "name": "ECDSAInvalidSignatureLength",
      "type": "error"
    },
    {
      "inputs": [
        {
          "internalType": "bytes32",
          "name": "s",
          "type": "bytes32"
        }
      ],
      "name": "ECDSAInvalidSignatureS",
      "type": "error"
    },
    {
      "inputs": [
        {
          "internalType": "address",
          "name": "implementation",
          "type": "address"
        }
      ],
      "name": "ERC1967InvalidImplementation",
      "type": "error"
    },
    {
      "inputs": [],
      "name": "ERC1967NonPayable",
      "type": "error"
    },
    {
      "inputs": [
        {
          "internalType": "uint256",
          "name": "index",
          "type": "uint256"
        },
        {
          "internalType": "bytes",
          "name": "error",
          "type": "bytes"
        }
      ],
      "name": "ExecuteError",
      "type": "error"
    },
    {
      "inputs": [],
      "name": "FailedCall",
      "type": "error"
    },
    {
      "inputs": [],
      "name": "InvalidInitialization",
      "type": "error"
    },
    {
      "inputs": [
        {
          "internalType": "address",
          "name": "actual",
          "type": "address"
        },
        {
          "internalType": "address",
          "name": "expected",
          "type": "address"
        }
      ],
      "name": "InvalidSignature",
      "type": "error"
    },
    {
      "inputs": [],
      "name": "NotInitializing",
      "type": "error"
    },
    {
      "inputs": [],
      "name": "NotOperatorOrEntryPoint",
      "type": "error"
    },
    {
      "inputs": [],
      "name": "OwnershipCycle",
      "type": "error"
    },
    {
      "inputs": [],
      "name": "UUPSUnauthorizedCallContext",
      "type": "error"
    },
    {
      "inputs": [
        {
          "internalType": "bytes32",
          "name": "slot",
          "type": "bytes32"
        }
      ],
      "name": "UUPSUnsupportedProxiableUUID",
      "type": "error"
    },
    {
      "anonymous": false,
      "inputs": [],
      "name": "EIP712DomainChanged",
      "type": "event"
    },
    {
      "anonymous": false,
      "inputs": [
        {
          "indexed": false,
          "internalType": "uint64",
          "name": "version",
          "type": "uint64"
        }
      ],
      "name": "Initialized",
      "type": "event"
    },
    {
      "anonymous": false,
      "inputs": [
        {
          "indexed": true,
          "internalType": "address",
          "name": "implementation",
          "type": "address"
        }
      ],
      "name": "Upgraded",
      "type": "event"
    },
    {
      "inputs": [],
      "name": "SIG_VALIDATION_FAILED",
      "outputs": [
        {
          "internalType": "uint256",
          "name": "",
          "type": "uint256"
        }
      ],
      "stateMutability": "view",
      "type": "function"
    },
    {
      "inputs": [],
      "name": "SIG_VALIDATION_SUCCEEDED",
      "outputs": [
        {
          "internalType": "uint256",
          "name": "",
          "type": "uint256"
        }
      ],
      "stateMutability": "view",
      "type": "function"
    },
    {
      "inputs": [],
      "name": "UPGRADE_INTERFACE_VERSION",
      "outputs": [
        {
          "internalType": "string",
          "name": "",
          "type": "string"
        }
      ],
      "stateMutability": "view",
      "type": "function"
    },
    {
      "inputs": [],
      "name": "eip712Domain",
      "outputs": [
        {
          "internalType": "bytes1",
          "name": "fields",
          "type": "bytes1"
        },
        {
          "internalType": "string",
          "name": "name",
          "type": "string"
        },
        {
          "internalType": "string",
          "name": "version",
          "type": "string"
        },
        {
          "internalType": "uint256",
          "name": "chainId",
          "type": "uint256"
        },
        {
          "internalType": "address",
          "name": "verifyingContract",
          "type": "address"
        },
        {
          "internalType": "bytes32",
          "name": "salt",
          "type": "bytes32"
        },
        {
          "internalType": "uint256[]",
          "name": "extensions",
          "type": "uint256[]"
        }
      ],
      "stateMutability": "view",
      "type": "function"
    },
    {
      "inputs": [],
      "name": "entryPoint",
      "outputs": [
        {
          "internalType": "contract IEntryPoint",
          "name": "",
          "type": "address"
        }
      ],
      "stateMutability": "view",
      "type": "function"
    },
    {
      "inputs": [
        {
          "internalType": "address",
          "name": "to",
          "type": "address"
        },
        {
          "internalType": "uint256",
          "name": "value",
          "type": "uint256"
        },
        {
          "internalType": "bytes",
          "name": "data",
          "type": "bytes"
        },
        {
          "internalType": "uint8",
          "name": "operation",
          "type": "uint8"
        }
      ],
      "name": "execute",
      "outputs": [
        {
          "internalType": "bytes",
          "name": "returnData",
          "type": "bytes"
        }
      ],
      "stateMutability": "payable",
      "type": "function"
    },
    {
      "inputs": [
        {
          "internalType": "address",
          "name": "target",
          "type": "address"
        },
        {
          "internalType": "uint256",
          "name": "value",
          "type": "uint256"
        },
        {
          "internalType": "bytes",
          "name": "data",
          "type": "bytes"
        }
      ],
      "name": "execute",
      "outputs": [],
      "stateMutability": "nonpayable",
      "type": "function"
    },
    {
      "inputs": [
        {
          "internalType": "address",
          "name": "to",
          "type": "address"
        },
        {
          "internalType": "uint256",
          "name": "value",
          "type": "uint256"
        },
        {
          "internalType": "bytes",
          "name": "data",
          "type": "bytes"
        },
        {
          "internalType": "uint8",
          "name": "operation",
          "type": "uint8"
        },
        {
          "internalType": "uint256",
          "name": "txGas",
          "type": "uint256"
        }
      ],
      "name": "execute",
      "outputs": [
        {
          "internalType": "bytes",
          "name": "returnData",
          "type": "bytes"
        }
      ],
      "stateMutability": "payable",
      "type": "function"
    },
    {
      "inputs": [
        {
          "components": [
            {
              "internalType": "address",
              "name": "target",
              "type": "address"
            },
            {
              "internalType": "uint256",
              "name": "value",
              "type": "uint256"
            },
            {
              "internalType": "bytes",
              "name": "data",
              "type": "bytes"
            }
          ],
          "internalType": "struct BaseAccount.Call[]",
          "name": "calls",
          "type": "tuple[]"
        }
      ],
      "name": "executeBatch",
      "outputs": [],
      "stateMutability": "nonpayable",
      "type": "function"
    },
    {
      "inputs": [],
      "name": "getNonce",
      "outputs": [
        {
          "internalType": "uint256",
          "name": "",
          "type": "uint256"
        }
      ],
      "stateMutability": "view",
      "type": "function"
    },
    {
      "inputs": [],
      "name": "hypermap",
      "outputs": [
        {
          "internalType": "contract IHypermap",
          "name": "",
          "type": "address"
        }
      ],
      "stateMutability": "view",
      "type": "function"
    },
    {
      "inputs": [],
      "name": "initialize",
      "outputs": [],
      "stateMutability": "nonpayable",
      "type": "function"
    },
    {
      "inputs": [
        {
          "internalType": "address",
          "name": "signer",
          "type": "address"
        }
      ],
      "name": "isOperator",
      "outputs": [
        {
          "internalType": "bool",
          "name": "",
          "type": "bool"
        }
      ],
      "stateMutability": "view",
      "type": "function"
    },
    {
      "inputs": [
        {
          "internalType": "bytes32",
          "name": "hash",
          "type": "bytes32"
        },
        {
          "internalType": "bytes",
          "name": "signature",
          "type": "bytes"
        }
      ],
      "name": "isValidSignature",
      "outputs": [
        {
          "internalType": "bytes4",
          "name": "magicValue",
          "type": "bytes4"
        }
      ],
      "stateMutability": "view",
      "type": "function"
    },
    {
      "inputs": [
        {
          "internalType": "address",
          "name": "signer",
          "type": "address"
        },
        {
          "internalType": "bytes",
          "name": "",
          "type": "bytes"
        }
      ],
      "name": "isValidSigner",
      "outputs": [
        {
          "internalType": "bytes4",
          "name": "magicValue",
          "type": "bytes4"
        }
      ],
      "stateMutability": "view",
      "type": "function"
    },
    {
      "inputs": [
        {
          "internalType": "address",
          "name": "to",
          "type": "address"
        },
        {
          "internalType": "bytes",
          "name": "name",
          "type": "bytes"
        },
        {
          "internalType": "bytes",
          "name": "initialization",
          "type": "bytes"
        },
        {
          "internalType": "address",
          "name": "implementation",
          "type": "address"
        }
      ],
      "name": "mint",
      "outputs": [
        {
          "internalType": "address",
          "name": "tba",
          "type": "address"
        }
      ],
      "stateMutability": "payable",
      "type": "function"
    },
    {
      "inputs": [
        {
          "internalType": "address",
          "name": "",
          "type": "address"
        },
        {
          "internalType": "address",
          "name": "",
          "type": "address"
        },
        {
          "internalType": "uint256[]",
          "name": "",
          "type": "uint256[]"
        },
        {
          "internalType": "uint256[]",
          "name": "",
          "type": "uint256[]"
        },
        {
          "internalType": "bytes",
          "name": "",
          "type": "bytes"
        }
      ],
      "name": "onERC1155BatchReceived",
      "outputs": [
        {
          "internalType": "bytes4",
          "name": "",
          "type": "bytes4"
        }
      ],
      "stateMutability": "view",
      "type": "function"
    },
    {
      "inputs": [
        {
          "internalType": "address",
          "name": "",
          "type": "address"
        },
        {
          "internalType": "address",
          "name": "",
          "type": "address"
        },
        {
          "internalType": "uint256",
          "name": "",
          "type": "uint256"
        },
        {
          "internalType": "uint256",
          "name": "",
          "type": "uint256"
        },
        {
          "internalType": "bytes",
          "name": "",
          "type": "bytes"
        }
      ],
      "name": "onERC1155Received",
      "outputs": [
        {
          "internalType": "bytes4",
          "name": "",
          "type": "bytes4"
        }
      ],
      "stateMutability": "view",
      "type": "function"
    },
    {
      "inputs": [
        {
          "internalType": "address",
          "name": "",
          "type": "address"
        },
        {
          "internalType": "address",
          "name": "",
          "type": "address"
        },
        {
          "internalType": "uint256",
          "name": "receivedTokenId",
          "type": "uint256"
        },
        {
          "internalType": "bytes",
          "name": "",
          "type": "bytes"
        }
      ],
      "name": "onERC721Received",
      "outputs": [
        {
          "internalType": "bytes4",
          "name": "",
          "type": "bytes4"
        }
      ],
      "stateMutability": "view",
      "type": "function"
    },
    {
      "inputs": [],
      "name": "proxiableUUID",
      "outputs": [
        {
          "internalType": "bytes32",
          "name": "",
          "type": "bytes32"
        }
      ],
      "stateMutability": "view",
      "type": "function"
    },
    {
      "inputs": [],
      "name": "state",
      "outputs": [
        {
          "internalType": "uint256",
          "name": "",
          "type": "uint256"
        }
      ],
      "stateMutability": "view",
      "type": "function"
    },
    {
      "inputs": [
        {
          "internalType": "bytes4",
          "name": "interfaceId",
          "type": "bytes4"
        }
      ],
      "name": "supportsInterface",
      "outputs": [
        {
          "internalType": "bool",
          "name": "",
          "type": "bool"
        }
      ],
      "stateMutability": "view",
      "type": "function"
    },
    {
      "inputs": [],
      "name": "token",
      "outputs": [
        {
          "internalType": "uint256",
          "name": "chainId",
          "type": "uint256"
        },
        {
          "internalType": "address",
          "name": "tokenContract",
          "type": "address"
        },
        {
          "internalType": "uint256",
          "name": "tokenId",
          "type": "uint256"
        }
      ],
      "stateMutability": "view",
      "type": "function"
    },
    {
      "inputs": [
        {
          "internalType": "address",
          "name": "",
          "type": "address"
        },
        {
          "internalType": "address",
          "name": "",
          "type": "address"
        },
        {
          "internalType": "address",
          "name": "",
          "type": "address"
        },
        {
          "internalType": "uint256",
          "name": "",
          "type": "uint256"
        },
        {
          "internalType": "bytes",
          "name": "",
          "type": "bytes"
        },
        {
          "internalType": "bytes",
          "name": "",
          "type": "bytes"
        }
      ],
      "name": "tokensReceived",
      "outputs": [],
      "stateMutability": "pure",
      "type": "function"
    },
    {
      "inputs": [
        {
          "internalType": "address",
          "name": "newImplementation",
          "type": "address"
        },
        {
          "internalType": "bytes",
          "name": "data",
          "type": "bytes"
        }
      ],
      "name": "upgradeToAndCall",
      "outputs": [],
      "stateMutability": "payable",
      "type": "function"
    },
    {
      "inputs": [
        {
          "components": [
            {
              "internalType": "address",
              "name": "sender",
              "type": "address"
            },
            {
              "internalType": "uint256",
              "name": "nonce",
              "type": "uint256"
            },
            {
              "internalType": "bytes",
              "name": "initCode",
              "type": "bytes"
            },
            {
              "internalType": "bytes",
              "name": "callData",
              "type": "bytes"
            },
            {
              "internalType": "bytes32",
              "name": "accountGasLimits",
              "type": "bytes32"
            },
            {
              "internalType": "uint256",
              "name": "preVerificationGas",
              "type": "uint256"
            },
            {
              "internalType": "bytes32",
              "name": "gasFees",
              "type": "bytes32"
            },
            {
              "internalType": "bytes",
              "name": "paymasterAndData",
              "type": "bytes"
            },
            {
              "internalType": "bytes",
              "name": "signature",
              "type": "bytes"
            }
          ],
          "internalType": "struct PackedUserOperation",
          "name": "userOp",
          "type": "tuple"
        },
        {
          "internalType": "bytes32",
          "name": "userOpHash",
          "type": "bytes32"
        },
        {
          "internalType": "uint256",
          "name": "missingAccountFunds",
          "type": "uint256"
        }
      ],
      "name": "validateUserOp",
      "outputs": [
        {
          "internalType": "uint256",
          "name": "validationData",
          "type": "uint256"
        }
      ],
      "stateMutability": "nonpayable",
      "type": "function"
    },
    {
      "stateMutability": "payable",
      "type": "receive"
    }
  ],
  "bytecode": "60c060405230608052348015610013575f5ffd5b506040516127a63803806127a6833981016040819052610032916100ff565b8061003b61004d565b6001600160a01b031660a0525061012c565b7ff0c57e16840df040f15088dc2f81fe391c3923bec73e23a9662efc9c229c6a00805468010000000000000000900460ff161561009d5760405163f92ee8a960e01b815260040160405180910390fd5b80546001600160401b03908116146100fc5780546001600160401b0319166001600160401b0390811782556040519081527fc7f505b2f371ae2175ee4913f4499e1f2633a7b5936321eed1cdaeb6115181d29060200160405180910390a15b50565b5f6020828403121561010f575f5ffd5b81516001600160a01b0381168114610125575f5ffd5b9392505050565b60805160a0516126446101625f395f81816103fb0152610d7301525f8181610fd90152818161100201526111dd01526126445ff3fe60806040526004361061017d575f3560e01c806384b0196e116100cd578063b61d27f611610087578063ca3b98bb11610062578063ca3b98bb14610480578063d087d28814610493578063f23a6e61146104a7578063fc0c546a146104d3575f5ffd5b8063b61d27f61461041f578063bc197c811461043e578063c19d93fb1461046c575f5ffd5b806384b0196e146103495780638f41ec5a146103705780639cdf379c14610384578063ad3cb1cc14610397578063b0d691fe146103c7578063b479d600146103ed575f5ffd5b806334fcd5be11610138578063523e326011610113578063523e3260146102e357806352d1902d146103025780636d70f7ae146103165780638129fc1c14610335575f5ffd5b806334fcd5be146102915780634f1ef286146102b057806351945447146102c3575f5ffd5b806223de291461018857806301ffc9a7146101ae578063094cefed146101e2578063150b7a021461020d5780631626ba7e1461024557806319822f7c14610264575f5ffd5b3661018457005b5f5ffd5b348015610193575f5ffd5b506101ac6101a2366004611b4e565b5050505050505050565b005b3480156101b9575f5ffd5b506101cd6101c8366004611c10565b61050a565b60405190151581526020015b60405180910390f35b6101f56101f0366004611c2b565b610535565b6040516001600160a01b0390911681526020016101d9565b348015610218575f5ffd5b5061022c610227366004611cbd565b61054f565b6040516001600160e01b031990911681526020016101d9565b348015610250575f5ffd5b5061022c61025f366004611dc7565b6105a9565b34801561026f575f5ffd5b5061028361027e366004611e0a565b6106ce565b6040519081526020016101d9565b34801561029c575f5ffd5b506101ac6102ab366004611e98565b610700565b6101ac6102be366004611ed6565b6107f0565b6102d66102d1366004611f21565b61080f565b6040516101d99190611fba565b3480156102ee575f5ffd5b5061022c6102fd366004611fcc565b61083b565b34801561030d575f5ffd5b50610283610860565b348015610321575f5ffd5b506101cd61033036600461201c565b61087b565b348015610340575f5ffd5b506101ac610919565b348015610354575f5ffd5b5061035d610a70565b6040516101d99796959493929190612037565b34801561037b575f5ffd5b50610283600181565b34801561038f575f5ffd5b506102835f81565b3480156103a2575f5ffd5b506102d6604051806040016040528060058152602001640352e302e360dc1b81525081565b3480156103d2575f5ffd5b50734337084d9e255ff0702461cf8895ce9e3b5ff1086101f5565b3480156103f8575f5ffd5b507f00000000000000000000000000000000000000000000000000000000000000006101f5565b34801561042a575f5ffd5b506101ac6104393660046120cd565b610b19565b348015610449575f5ffd5b5061022c610458366004612124565b63bc197c8160e01b98975050505050505050565b348015610477575f5ffd5b50610283610b71565b6102d661048e3660046121c4565b610c58565b34801561049e575f5ffd5b50610283610c91565b3480156104b2575f5ffd5b5061022c6104c1366004612239565b63f23a6e6160e01b9695505050505050565b3480156104de575f5ffd5b506104e7610d1a565b604080519384526001600160a01b039092166020840152908201526060016101d9565b5f61051482610d30565b8061052f57506001600160e01b03198216633c1cc5f160e01b145b92915050565b5f610544878787878787610d5a565b979650505050505050565b5f5f5f61055a610d1a565b909350915050336001600160a01b03831614801561057757508086145b156105955760405163b79e3f3f60e01b815260040160405180910390fd5b50630a85bd0160e11b979650505050505050565b5f5f5f5f6105c985602081015160408201516060909201515f1a92909190565b9094509250905060ff81165f0361069457828583016020016105ea8261087b565b15801561060057506001600160a01b0382163014155b1561061b57506001600160e01b0319945061052f9350505050565b604051630b135d3f60e11b81526001600160a01b03831690631626ba7e90610649908b9085906004016122af565b602060405180830381865afa158015610664573d5f5f3e3d5ffd5b505050506040513d601f19601f8201168201806040525081019061068891906122c7565b9550505050505061052f565b6106a361033087838686610df2565b156106bb5750630b135d3f60e11b925061052f915050565b506001600160e01b031995945050505050565b5f6106d7610e1e565b6106e18484610e83565b90506106f08460200135610ee0565b6106f982610f29565b9392505050565b610708610f6e565b805f5b818110156107ea5736848483818110610726576107266122e2565b905060200281019061073891906122f6565b90505f61079661074b602084018461201c565b602084013561075d6040860186612314565b8080601f0160208091040260200160405190810160405280939291908181526020018383808284375f920191909152505050505a610f76565b9050806107e057836001036107b2576107ad610f8c565b6107e0565b826107bc5f610f9d565b604051635a15467560e01b81526004016107d79291906122af565b60405180910390fd5b505060010161070b565b50505050565b6107f8610fce565b61080182611072565b61080b82826110ba565b5050565b60605f61082087878787875a61117b565b925090508061083157815160208301fd5b5095945050505050565b5f6108458461087b565b61084f575f610858565b630291f19360e51b5b949350505050565b5f6108696111d2565b505f5160206125ef5f395f51905f5290565b5f5f5f610886610d1a565b6040516331a9108f60e11b81526004810182905291945092506001600160a01b038087169250841690636352211e90602401602060405180830381865afa1580156108d3573d5f5f3e3d5ffd5b505050506040513d601f19601f820116820180604052508101906108f79190612356565b6001600160a01b031614801561085857505050506001600160a01b0316151590565b7ff0c57e16840df040f15088dc2f81fe391c3923bec73e23a9662efc9c229c6a008054600160401b810460ff1615906001600160401b03165f8115801561095d5750825b90505f826001600160401b031660011480156109785750303b155b905081158015610986575080155b156109a45760405163f92ee8a960e01b815260040160405180910390fd5b845467ffffffffffffffff1916600117855583156109ce57845460ff60401b1916600160401b1785555b6109d661121b565b610a2360405180604001604052806012815260200171243cb832b920b1b1b7bab73a26b4b73a32b960711b815250604051806040016040528060018152602001603160f81b815250611223565b8315610a6957845460ff60401b19168555604051600181527fc7f505b2f371ae2175ee4913f4499e1f2633a7b5936321eed1cdaeb6115181d29060200160405180910390a15b5050505050565b5f60608082808083815f5160206125cf5f395f51905f528054909150158015610a9b57506001810154155b610adf5760405162461bcd60e51b81526020600482015260156024820152741152540dcc4c8e88155b9a5b9a5d1a585b1a5e9959605a1b60448201526064016107d7565b610ae7611235565b610aef6112f5565b604080515f80825260208201909252600f60f81b9c939b5091995046985030975095509350915050565b610b21610f6e565b5f610b62858585858080601f0160208091040260200160405190810160405280939291908181526020018383808284375f920191909152505050505a610f76565b905080610a6957610a69610f8c565b5f807fe4b1c7558f331d2752f6cb495b2cf8e1b8ae3112bcc78ec0c3bfebfbe3cd480090505f734337084d9e255ff0702461cf8895ce9e3b5ff108604051631aab3f0d60e11b81523060048201525f60248201526001600160a01b0391909116906335567e1a90604401602060405180830381865afa158015610bf6573d5f5f3e3d5ffd5b505050506040513d601f19601f82011682018060405250810190610c1a9190612371565b8254604051919250610c39918390602001918252602082015260400190565b604051602081830303815290604052805190602001205f1c9250505090565b60605f610c7588888888888815610c6f578861117b565b5a61117b565b9250905080610c8657815160208301fd5b509695505050505050565b5f734337084d9e255ff0702461cf8895ce9e3b5ff108604051631aab3f0d60e11b81523060048201525f60248201526001600160a01b0391909116906335567e1a90604401602060405180830381865afa158015610cf1573d5f5f3e3d5ffd5b505050506040513d601f19601f82011682018060405250810190610d159190612371565b905090565b5f5f5f610d25611333565b925092509250909192565b5f610d3a8261133f565b8061052f57506001600160e01b03198216636faff5f160e01b1492915050565b60405163094cefed60e01b81525f906001600160a01b037f0000000000000000000000000000000000000000000000000000000000000000169063094cefed90610db2908a908a908a908a908a908a906004016123b0565b6020604051808303815f875af1158015610dce573d5f5f3e3d5ffd5b505050506040513d601f19601f820116820180604052508101906105449190612356565b5f5f5f5f610e02888888886113e0565b925092509250610e1282826114a8565b50909695505050505050565b33734337084d9e255ff0702461cf8895ce9e3b5ff10814610e815760405162461bcd60e51b815260206004820152601c60248201527f6163636f756e743a206e6f742066726f6d20456e747279506f696e740000000060448201526064016107d7565b565b5f6004610e936060850185612314565b90501115610ed6575f610eb1610eac6060860186612314565b611560565b905063f6b3101360e01b6001600160e01b0319821601610ed4575f91505061052f565b505b6106f98383611577565b6001600160401b038110610f265760405162461bcd60e51b815260206004820152600d60248201526c496e76616c6964206e6f6e636560981b60448201526064016107d7565b50565b8015610f26576040515f90339083908381818185875af1925050503d805f8114610a69576040519150601f19603f3d011682016040523d82523d5f602084013e610a69565b610e81610e1e565b5f5f5f845160208601878987f195945050505050565b610e81610f985f610f9d565b611684565b60603d8215610fb15782811115610fb15750815b604051602082018101604052818152815f602083013e9392505050565b306001600160a01b037f000000000000000000000000000000000000000000000000000000000000000016148061105457507f00000000000000000000000000000000000000000000000000000000000000006001600160a01b03166110485f5160206125ef5f395f51905f52546001600160a01b031690565b6001600160a01b031614155b15610e815760405163703e46dd60e11b815260040160405180910390fd5b61107b3361087b565b15801561109c575033734337084d9e255ff0702461cf8895ce9e3b5ff10814155b15610f2657604051634780295360e11b815260040160405180910390fd5b816001600160a01b03166352d1902d6040518163ffffffff1660e01b8152600401602060405180830381865afa925050508015611114575060408051601f3d908101601f1916820190925261111191810190612371565b60015b61113c57604051634c9c8ce360e01b81526001600160a01b03831660048201526024016107d7565b5f5160206125ef5f395f51905f52811461116c57604051632a87526960e21b8152600481018290526024016107d7565b611176838361168c565b505050565b7fe4b1c7558f331d2752f6cb495b2cf8e1b8ae3112bcc78ec0c3bfebfbe3cd480080545f9160609181846111ae83612403565b91905055506111c18989898989896116e1565b92509250505b965096945050505050565b306001600160a01b037f00000000000000000000000000000000000000000000000000000000000000001614610e815760405163703e46dd60e11b815260040160405180910390fd5b610e81611838565b61122b611838565b61080b8282611881565b7fa16a46d94261c7517cc8ff89f61c0ce93598e3c849801011dee649a6a557d10280546060915f5160206125cf5f395f51905f529161127390612427565b80601f016020809104026020016040519081016040528092919081815260200182805461129f90612427565b80156112ea5780601f106112c1576101008083540402835291602001916112ea565b820191905f5260205f20905b8154815290600101906020018083116112cd57829003601f168201915b505050505091505090565b7fa16a46d94261c7517cc8ff89f61c0ce93598e3c849801011dee649a6a557d10380546060915f5160206125cf5f395f51905f529161127390612427565b5f5f5f610d25306118e0565b5f6001600160e01b03198216633ce4a3e960e01b148061136f57506001600160e01b031982166301ffc9a760e01b145b8061138a57506001600160e01b031982166306608bdf60e21b145b806113a557506001600160e01b03198216630b135d3f60e11b145b806113c057506001600160e01b03198216630271189760e51b145b8061052f57506001600160e01b03198216635194544760e01b1492915050565b5f80807f7fffffffffffffffffffffffffffffff5d576e7357a4501ddfe92f46681b20a084111561141957505f9150600390508261149e565b604080515f808252602082018084528a905260ff891692820192909252606081018790526080810186905260019060a0016020604051602081039080840390855afa15801561146a573d5f5f3e3d5ffd5b5050604051601f1901519150506001600160a01b03811661149557505f92506001915082905061149e565b92505f91508190505b9450945094915050565b5f8260038111156114bb576114bb61245f565b036114c4575050565b60018260038111156114d8576114d861245f565b036114f65760405163f645eedf60e01b815260040160405180910390fd5b600282600381111561150a5761150a61245f565b0361152b5760405163fce698f760e01b8152600481018290526024016107d7565b600382600381111561153f5761153f61245f565b0361080b576040516335e2f38360e21b8152600481018290526024016107d7565b5f600482101561157157505f61052f565b50503590565b5f80806115c58461158c610100880188612314565b8080601f0160208091040260200160405190810160405280939291908181526020018383808284375f9201919091525061193492505050565b5090925090505f8160038111156115de576115de61245f565b1480156115ef57506115ef8261087b565b156115fe575f9250505061052f565b7f19457468657265756d205369676e6564204d6573736167653a0a3332000000005f908152601c859052603c902061163e8161158c610100890189612314565b5090935091505f8260038111156116575761165761245f565b14801561166857506116688361087b565b15611678575f935050505061052f565b50600195945050505050565b805160208201fd5b6116958261197d565b6040516001600160a01b038316907fbc7cd75a20ee27fd9adebab32041f755214dbc6bffa90cc0225b39da2e5c2d3b905f90a28051156116d95761117682826119e0565b61080b611a52565b5f60606116ed3361087b565b15801561170e575033734337084d9e255ff0702461cf8895ce9e3b5ff10814155b1561172c57604051634780295360e11b815260040160405180910390fd5b8360ff165f0361179d57876001600160a01b031683888888604051611752929190612473565b5f60405180830381858888f193505050503d805f811461178d576040519150601f19603f3d011682016040523d82523d5f602084013e611792565b606091505b5090925090506111c7565b8360ff166001036117fc57876001600160a01b03168387876040516117c3929190612473565b5f604051808303818686f4925050503d805f811461178d576040519150601f19603f3d011682016040523d82523d5f602084013e611792565b60405162461bcd60e51b815260206004820152601160248201527024b73b30b634b21037b832b930ba34b7b760791b60448201526064016107d7565b7ff0c57e16840df040f15088dc2f81fe391c3923bec73e23a9662efc9c229c6a0054600160401b900460ff16610e8157604051631afcd79f60e31b815260040160405180910390fd5b611889611838565b5f5160206125cf5f395f51905f527fa16a46d94261c7517cc8ff89f61c0ce93598e3c849801011dee649a6a557d1026118c284826124c6565b50600381016118d183826124c6565b505f8082556001909101555050565b604080516060808252608082019092525f91829182918291906020820181803683370190505090506060604d60208301873c808060200190518101906119269190612580565b935093509350509193909250565b5f5f5f835160410361196b576020840151604085015160608601515f1a61195d888285856113e0565b955095509550505050611976565b505081515f91506002905b9250925092565b806001600160a01b03163b5f036119b257604051634c9c8ce360e01b81526001600160a01b03821660048201526024016107d7565b5f5160206125ef5f395f51905f5280546001600160a01b0319166001600160a01b0392909216919091179055565b60605f5f846001600160a01b0316846040516119fc91906125b8565b5f60405180830381855af49150503d805f8114611a34576040519150601f19603f3d011682016040523d82523d5f602084013e611a39565b606091505b5091509150611a49858383611a71565b95945050505050565b3415610e815760405163b398979f60e01b815260040160405180910390fd5b606082611a8657611a8182611acd565b6106f9565b8151158015611a9d57506001600160a01b0384163b155b15611ac657604051639996b31560e01b81526001600160a01b03851660048201526024016107d7565b50806106f9565b805115611add5780518082602001fd5b60405163d6bda27560e01b815260040160405180910390fd5b6001600160a01b0381168114610f26575f5ffd5b5f5f83601f840112611b1a575f5ffd5b5081356001600160401b03811115611b30575f5ffd5b602083019150836020828501011115611b47575f5ffd5b9250929050565b5f5f5f5f5f5f5f5f60c0898b031215611b65575f5ffd5b8835611b7081611af6565b97506020890135611b8081611af6565b96506040890135611b9081611af6565b95506060890135945060808901356001600160401b03811115611bb1575f5ffd5b611bbd8b828c01611b0a565b90955093505060a08901356001600160401b03811115611bdb575f5ffd5b611be78b828c01611b0a565b999c989b5096995094979396929594505050565b6001600160e01b031981168114610f26575f5ffd5b5f60208284031215611c20575f5ffd5b81356106f981611bfb565b5f5f5f5f5f5f60808789031215611c40575f5ffd5b8635611c4b81611af6565b955060208701356001600160401b03811115611c65575f5ffd5b611c7189828a01611b0a565b90965094505060408701356001600160401b03811115611c8f575f5ffd5b611c9b89828a01611b0a565b9094509250506060870135611caf81611af6565b809150509295509295509295565b5f5f5f5f5f60808688031215611cd1575f5ffd5b8535611cdc81611af6565b94506020860135611cec81611af6565b93506040860135925060608601356001600160401b03811115611d0d575f5ffd5b611d1988828901611b0a565b969995985093965092949392505050565b634e487b7160e01b5f52604160045260245ffd5b5f82601f830112611d4d575f5ffd5b81356001600160401b03811115611d6657611d66611d2a565b604051601f8201601f19908116603f011681016001600160401b0381118282101715611d9457611d94611d2a565b604052818152838201602001851015611dab575f5ffd5b816020850160208301375f918101602001919091529392505050565b5f5f60408385031215611dd8575f5ffd5b8235915060208301356001600160401b03811115611df4575f5ffd5b611e0085828601611d3e565b9150509250929050565b5f5f5f60608486031215611e1c575f5ffd5b83356001600160401b03811115611e31575f5ffd5b84016101208187031215611e43575f5ffd5b95602085013595506040909401359392505050565b5f5f83601f840112611e68575f5ffd5b5081356001600160401b03811115611e7e575f5ffd5b6020830191508360208260051b8501011115611b47575f5ffd5b5f5f60208385031215611ea9575f5ffd5b82356001600160401b03811115611ebe575f5ffd5b611eca85828601611e58565b90969095509350505050565b5f5f60408385031215611ee7575f5ffd5b8235611ef281611af6565b915060208301356001600160401b03811115611df4575f5ffd5b803560ff81168114611f1c575f5ffd5b919050565b5f5f5f5f5f60808688031215611f35575f5ffd5b8535611f4081611af6565b94506020860135935060408601356001600160401b03811115611f61575f5ffd5b611f6d88828901611b0a565b9094509250611f80905060608701611f0c565b90509295509295909350565b5f81518084528060208401602086015e5f602082860101526020601f19601f83011685010191505092915050565b602081525f6106f96020830184611f8c565b5f5f5f60408486031215611fde575f5ffd5b8335611fe981611af6565b925060208401356001600160401b03811115612003575f5ffd5b61200f86828701611b0a565b9497909650939450505050565b5f6020828403121561202c575f5ffd5b81356106f981611af6565b60ff60f81b8816815260e060208201525f61205560e0830189611f8c565b82810360408401526120678189611f8c565b606084018890526001600160a01b038716608085015260a0840186905283810360c0850152845180825260208087019350909101905f5b818110156120bc57835183526020938401939092019160010161209e565b50909b9a5050505050505050505050565b5f5f5f5f606085870312156120e0575f5ffd5b84356120eb81611af6565b93506020850135925060408501356001600160401b0381111561210c575f5ffd5b61211887828801611b0a565b95989497509550505050565b5f5f5f5f5f5f5f5f60a0898b03121561213b575f5ffd5b883561214681611af6565b9750602089013561215681611af6565b965060408901356001600160401b03811115612170575f5ffd5b61217c8b828c01611e58565b90975095505060608901356001600160401b0381111561219a575f5ffd5b6121a68b828c01611e58565b90955093505060808901356001600160401b03811115611bdb575f5ffd5b5f5f5f5f5f5f60a087890312156121d9575f5ffd5b86356121e481611af6565b95506020870135945060408701356001600160401b03811115612205575f5ffd5b61221189828a01611b0a565b9095509350612224905060608801611f0c565b95989497509295919493608090920135925050565b5f5f5f5f5f5f60a0878903121561224e575f5ffd5b863561225981611af6565b9550602087013561226981611af6565b9450604087013593506060870135925060808701356001600160401b03811115612291575f5ffd5b61229d89828a01611b0a565b979a9699509497509295939492505050565b828152604060208201525f6108586040830184611f8c565b5f602082840312156122d7575f5ffd5b81516106f981611bfb565b634e487b7160e01b5f52603260045260245ffd5b5f8235605e1983360301811261230a575f5ffd5b9190910192915050565b5f5f8335601e19843603018112612329575f5ffd5b8301803591506001600160401b03821115612342575f5ffd5b602001915036819003821315611b47575f5ffd5b5f60208284031215612366575f5ffd5b81516106f981611af6565b5f60208284031215612381575f5ffd5b5051919050565b81835281816020850137505f828201602090810191909152601f909101601f19169091010190565b6001600160a01b03871681526080602082018190525f906123d49083018789612388565b82810360408401526123e7818688612388565b91505060018060a01b0383166060830152979650505050505050565b5f6001820161242057634e487b7160e01b5f52601160045260245ffd5b5060010190565b600181811c9082168061243b57607f821691505b60208210810361245957634e487b7160e01b5f52602260045260245ffd5b50919050565b634e487b7160e01b5f52602160045260245ffd5b818382375f9101908152919050565b601f82111561117657805f5260205f20601f840160051c810160208510156124a75750805b601f840160051c820191505b81811015610a69575f81556001016124b3565b81516001600160401b038111156124df576124df611d2a565b6124f3816124ed8454612427565b84612482565b6020601f821160018114612525575f831561250e5750848201515b5f19600385901b1c1916600184901b178455610a69565b5f84815260208120601f198516915b828110156125545787850151825560209485019460019092019101612534565b508482101561257157868401515f19600387901b60f8161c191681555b50505050600190811b01905550565b5f5f5f60608486031215612592575f5ffd5b835160208501519093506125a581611af6565b6040949094015192959394509192915050565b5f82518060208501845e5f92019182525091905056fea16a46d94261c7517cc8ff89f61c0ce93598e3c849801011dee649a6a557d100360894a13ba1a3210667c828492db98dca3e2076cc3735a920a3ca505d382bbca26469706673582212202d9195153796a61a31575e98d6460d6d9b6075e2cc83d0732c7382b9a0de079e64736f6c634300081c0033",
  "bytecodeSha1": "0a25298b3fd8dc7d4af992cd3441fee663981bec",
  "compiler": {
    "evm_version": "cancun",
    "optimizer": {
      "enabled": true,
      "runs": 200
    },
    "version": "0.8.28+commit.7893614a"
  },
  "contractName": "HyperAccountMinter",
  "language": "Solidity",
  "natspec": {
    "errors": {
      "AddressEmptyCode(address)": [
        {
          "details": "There's no code at `target` (it is not a contract)."
        }
      ],
      "ECDSAInvalidSignature()": [
        {
          "details": "The signature derives the `address(0)`."
        }
      ],
      "ECDSAInvalidSignatureLength(uint256)": [
        {
          "details": "The signature has an invalid length."
        }
      ],
      "ECDSAInvalidSignatureS(bytes32)": [
        {
          "details": "The signature has an S value that is in the upper half order."
        }
      ],
      "ERC1967InvalidImplementation(address)": [
        {
          "details": "The `implementation` of the proxy is invalid."
        }
      ],
      "ERC1967NonPayable()": [
        {
          "details": "An upgrade function sees `msg.value > 0` that may be lost."
        }
      ],
      "FailedCall()": [
        {
          "details": "A call to an address target failed. The target may have reverted."
        }
      ],
      "InvalidInitialization()": [
        {
          "details": "The contract is already initialized."
        }
      ],
      "NotInitializing()": [
        {
          "details": "The contract is not initializing."
        }
      ],
      "UUPSUnauthorizedCallContext()": [
        {
          "details": "The call is from an unauthorized context."
        }
      ],
      "UUPSUnsupportedProxiableUUID(bytes32)": [
        {
          "details": "The storage `slot` is unsupported as a UUID."
        }
      ]
    },
    "kind": "dev",
    "methods": {
      "eip712Domain()": {
        "details": "See {IERC-5267}."
      },
      "entryPoint()": {
        "notice": "Return the entryPoint used by this account. Subclass should return the current entryPoint used by this account."
      },
      "execute(address,uint256,bytes)": {
        "notice": "execute a single call from the account."
      },
      "execute(address,uint256,bytes,uint8)": {
        "details": "Allows the mech operator to execute arbitrary transactions",
        "params": {
          "data": "Data payload of transaction.",
          "operation": "Operation type of transaction.",
          "to": "Destination address of transaction.",
          "value": "Ether value of transaction."
        },
        "returns": {
          "returnData": "Return data of the call"
        }
      },
      "execute(address,uint256,bytes,uint8,uint256)": {
        "details": "Allows the mech operator to execute arbitrary transactions",
        "params": {
          "data": "Data payload of transaction.",
          "operation": "Operation type of transaction.",
          "to": "Destination address of transaction.",
          "txGas": "Gas to send for executing the meta transaction, if 0 all left will be sent",
          "value": "Ether value of transaction."
        },
        "returns": {
          "returnData": "Return data of the call"
        }
      },
      "executeBatch((address,uint256,bytes)[])": {
        "notice": "execute a batch of calls. revert on the first call that fails. If the batch reverts, and it contains more than a single call, then wrap the revert with ExecuteError,  to mark the failing call index."
      },
      "getNonce()": {
        "notice": "Return the account nonce. This method returns the next sequential nonce. For a nonce of a specific key, use `entrypoint.getNonce(account, key)`"
      },
      "isOperator(address)": {
        "details": "Return if the passed address is authorized to sign on behalf of the mech, must be implemented by the child contract",
        "params": {
          "signer": "The address to check"
        }
      },
      "isValidSignature(bytes32,bytes)": {
        "details": "Checks whether the signature provided is valid for the provided hash, complies with EIP-1271. A signature is valid if either:  - It's a valid ECDSA signature by the mech operator  - It's a valid EIP-1271 signature by the mech operator  - It's a valid EIP-1271 signature by the mech itself",
        "params": {
          "hash": "Hash of the data (could be either a message hash or transaction hash)",
          "signature": "Signature to validate. Can be an ECDSA signature or a EIP-1271 contract signature (identified by v=0)"
        }
      },
      "isValidSigner(address,bytes)": {
        "details": "Returns a magic value indicating whether a given signer is authorized to act on behalf of the account",
        "params": {
          "signer": "The address to check signing authorization for"
        },
        "returns": {
          "magicValue": "Magic value indicating whether the signer is valid"
        }
      },
      "proxiableUUID()": {
        "details": "Implementation of the ERC-1822 {proxiableUUID} function. This returns the storage slot used by the implementation. It is used to validate the implementation's compatibility when performing an upgrade. IMPORTANT: A proxy pointing at a proxiable contract should not be considered proxiable itself, because this risks bricking a proxy that upgrades to it, by delegating to itself until out of gas. Thus it is critical that this function revert if invoked through a proxy. This is guaranteed by the `notDelegated` modifier."
      },
      "state()": {
        "details": "Returns the current account state per EIP-6551NOTE: This does not change for arbitrary account state changes!The model used here is to change it for *owner-initiated* state changes.E.g., sending a token held by this account should change the state(),but receiving a token should not.This is to prevent griefing if, e.g., a marketplace requires constant state()from listing to sale: an attacked could send a spam token to kill the sale.However, even here, NOT ALL *OWNER-INITIATED* STATE CHANGES ARE CAPTURED.E.g., an owner might approve a contract to transferFrom from this TBA,and such transfers would NOT be reflected with a state change.As such, we advise you do NOT consider this a source of truth, but instead,for the sale-of-TBA case, commit to the state in a more comprehensive, offchain way."
      },
      "supportsInterface(bytes4)": {
        "details": "Returns true if a given interfaceId is supported by this account. This method can be extended by an override"
      },
      "token()": {
        "details": "Returns the identifier of the non-fungible token which owns the account. The return value of this function MUST be constant - it MUST NOT change over time.",
        "returns": {
          "chainId": "      The EIP-155 ID of the chain the token exists on",
          "tokenContract": "The contract address of the token",
          "tokenId": "      The ID of the token"
        }
      },
      "upgradeToAndCall(address,bytes)": {
        "custom:oz-upgrades-unsafe-allow-reachable": "delegatecall",
        "details": "Upgrade the implementation of the proxy to `newImplementation`, and subsequently execute the function call encoded in `data`. Calls {_authorizeUpgrade}. Emits an {Upgraded} event."
      },
      "validateUserOp((address,uint256,bytes,bytes,bytes32,uint256,bytes32,bytes,bytes),bytes32,uint256)": {
        "details": "Must validate caller is the entryPoint.      Must validate the signature and nonce",
        "notice": "Validate user's signature and nonce the entryPoint will make the call to the recipient only if this validation call returns successfully. signature failure should be reported by returning SIG_VALIDATION_FAILED (1). This allows making a \"simulation call\" without a valid signature Other failures (e.g. nonce mismatch, or invalid signature format) should still revert to signal failure.",
        "params": {
          "missingAccountFunds": "- Missing funds on the account's deposit in the entrypoint.                              This is the minimum amount to transfer to the sender(entryPoint) to be                              able to make the call. The excess is left as a deposit in the entrypoint                              for future calls. Can be withdrawn anytime using \"entryPoint.withdrawTo()\".                              In case there is a paymaster in the request (or the current deposit is high                              enough), this value will be zero.",
          "userOp": "- The operation that is about to be executed.",
          "userOpHash": "- Hash of the user's request data. can be used as the basis for signature."
        },
        "returns": {
          "validationData": "      - Packaged ValidationData structure. use `_packValidationData` and                              `_unpackValidationData` to encode and decode.                              <20-byte> aggregatorOrSigFail - 0 for valid signature, 1 to mark signature failure,                                 otherwise, an address of an \"aggregator\" contract.                              <6-byte> validUntil - Last timestamp this operation is valid at, or 0 for \"indefinitely\"                              <6-byte> validAfter - First timestamp this operation is valid                                                    If an account doesn't use time-range, it is enough to                                                    return SIG_VALIDATION_FAILED value (1) for signature failure.                              Note that the validation code cannot use block.timestamp (or block.number) directly."
        }
      }
    },
    "version": 1
  },
  "opcodes": "PUSH1 0x80 PUSH1 0x40 MSTORE PUSH1 0x4 CALLDATASIZE LT PUSH2 0x17D JUMPI PUSH0 CALLDATALOAD PUSH1 0xE0 SHR DUP1 PUSH4 0x84B0196E GT PUSH2 0xCD JUMPI DUP1 PUSH4 0xB61D27F6 GT PUSH2 0x87 JUMPI DUP1 PUSH4 0xCA3B98BB GT PUSH2 0x62 JUMPI DUP1 PUSH4 0xCA3B98BB EQ PUSH2 0x480 JUMPI DUP1 PUSH4 0xD087D288 EQ PUSH2 0x493 JUMPI DUP1 PUSH4 0xF23A6E61 EQ PUSH2 0x4A7 JUMPI DUP1 PUSH4 0xFC0C546A EQ PUSH2 0x4D3 JUMPI PUSH0 PUSH0 REVERT JUMPDEST DUP1 PUSH4 0xB61D27F6 EQ PUSH2 0x41F JUMPI DUP1 PUSH4 0xBC197C81 EQ PUSH2 0x43E JUMPI DUP1 PUSH4 0xC19D93FB EQ PUSH2 0x46C JUMPI PUSH0 PUSH0 REVERT JUMPDEST DUP1 PUSH4 0x84B0196E EQ PUSH2 0x349 JUMPI DUP1 PUSH4 0x8F41EC5A EQ PUSH2 0x370 JUMPI DUP1 PUSH4 0x9CDF379C EQ PUSH2 0x384 JUMPI DUP1 PUSH4 0xAD3CB1CC EQ PUSH2 0x397 JUMPI DUP1 PUSH4 0xB0D691FE EQ PUSH2 0x3C7 JUMPI DUP1 PUSH4 0xB479D600 EQ PUSH2 0x3ED JUMPI PUSH0 PUSH0 REVERT JUMPDEST DUP1 PUSH4 0x34FCD5BE GT PUSH2 0x138 JUMPI DUP1 PUSH4 0x523E3260 GT PUSH2 0x113 JUMPI DUP1 PUSH4 0x523E3260 EQ PUSH2 0x2E3 JUMPI DUP1 PUSH4 0x52D1902D EQ PUSH2 0x302 JUMPI DUP1 PUSH4 0x6D70F7AE EQ PUSH2 0x316 JUMPI DUP1 PUSH4 0x8129FC1C EQ PUSH2 0x335 JUMPI PUSH0 PUSH0 REVERT JUMPDEST DUP1 PUSH4 0x34FCD5BE EQ PUSH2 0x291 JUMPI DUP1 PUSH4 0x4F1EF286 EQ PUSH2 0x2B0 JUMPI DUP1 PUSH4 0x51945447 EQ PUSH2 0x2C3 JUMPI PUSH0 PUSH0 REVERT JUMPDEST DUP1 PUSH3 0x23DE29 EQ PUSH2 0x188 JUMPI DUP1 PUSH4 0x1FFC9A7 EQ PUSH2 0x1AE JUMPI DUP1 PUSH4 0x94CEFED EQ PUSH2 0x1E2 JUMPI DUP1 PUSH4 0x150B7A02 EQ PUSH2 0x20D JUMPI DUP1 PUSH4 0x1626BA7E EQ PUSH2 0x245 JUMPI DUP1 PUSH4 0x19822F7C EQ PUSH2 0x264 JUMPI PUSH0 PUSH0 REVERT JUMPDEST CALLDATASIZE PUSH2 0x184 JUMPI STOP JUMPDEST PUSH0 PUSH0 REVERT JUMPDEST CALLVALUE DUP1 ISZERO PUSH2 0x193 JUMPI PUSH0 PUSH0 REVERT JUMPDEST POP PUSH2 0x1AC PUSH2 0x1A2 CALLDATASIZE PUSH1 0x4 PUSH2 0x1B4E JUMP JUMPDEST POP POP POP POP POP POP POP POP JUMP JUMPDEST STOP JUMPDEST CALLVALUE DUP1 ISZERO PUSH2 0x1B9 JUMPI PUSH0 PUSH0 REVERT JUMPDEST POP PUSH2 0x1CD PUSH2 0x1C8 CALLDATASIZE PUSH1 0x4 PUSH2 0x1C10 JUMP JUMPDEST PUSH2 0x50A JUMP JUMPDEST PUSH1 0x40 MLOAD SWAP1 ISZERO ISZERO DUP2 MSTORE PUSH1 0x20 ADD JUMPDEST PUSH1 0x40 MLOAD DUP1 SWAP2 SUB SWAP1 RETURN JUMPDEST PUSH2 0x1F5 PUSH2 0x1F0 CALLDATASIZE PUSH1 0x4 PUSH2 0x1C2B JUMP JUMPDEST PUSH2 0x535 JUMP JUMPDEST PUSH1 0x40 MLOAD PUSH1 0x1 PUSH1 0x1 PUSH1 0xA0 SHL SUB SWAP1 SWAP2 AND DUP2 MSTORE PUSH1 0x20 ADD PUSH2 0x1D9 JUMP JUMPDEST CALLVALUE DUP1 ISZERO PUSH2 0x218 JUMPI PUSH0 PUSH0 REVERT JUMPDEST POP PUSH2 0x22C PUSH2 0x227 CALLDATASIZE PUSH1 0x4 PUSH2 0x1CBD JUMP JUMPDEST PUSH2 0x54F JUMP JUMPDEST PUSH1 0x40 MLOAD PUSH1 0x1 PUSH1 0x1 PUSH1 0xE0 SHL SUB NOT SWAP1 SWAP2 AND DUP2 MSTORE PUSH1 0x20 ADD PUSH2 0x1D9 JUMP JUMPDEST CALLVALUE DUP1 ISZERO PUSH2 0x250 JUMPI PUSH0 PUSH0 REVERT JUMPDEST POP PUSH2 0x22C PUSH2 0x25F CALLDATASIZE PUSH1 0x4 PUSH2 0x1DC7 JUMP JUMPDEST PUSH2 0x5A9 JUMP JUMPDEST CALLVALUE DUP1 ISZERO PUSH2 0x26F JUMPI PUSH0 PUSH0 REVERT JUMPDEST POP PUSH2 0x283 PUSH2 0x27E CALLDATASIZE PUSH1 0x4 PUSH2 0x1E0A JUMP JUMPDEST PUSH2 0x6CE JUMP JUMPDEST PUSH1 0x40 MLOAD SWAP1 DUP2 MSTORE PUSH1 0x20 ADD PUSH2 0x1D9 JUMP JUMPDEST CALLVALUE DUP1 ISZERO PUSH2 0x29C JUMPI PUSH0 PUSH0 REVERT JUMPDEST POP PUSH2 0x1AC PUSH2 0x2AB CALLDATASIZE PUSH1 0x4 PUSH2 0x1E98 JUMP JUMPDEST PUSH2 0x700 JUMP JUMPDEST PUSH2 0x1AC PUSH2 0x2BE CALLDATASIZE PUSH1 0x4 PUSH2 0x1ED6 JUMP JUMPDEST PUSH2 0x7F0 JUMP JUMPDEST PUSH2 0x2D6 PUSH2 0x2D1 CALLDATASIZE PUSH1 0x4 PUSH2 0x1F21 JUMP JUMPDEST PUSH2 0x80F JUMP JUMPDEST PUSH1 0x40 MLOAD PUSH2 0x1D9 SWAP2 SWAP1 PUSH2 0x1FBA JUMP JUMPDEST CALLVALUE DUP1 ISZERO PUSH2 0x2EE JUMPI PUSH0 PUSH0 REVERT JUMPDEST POP PUSH2 0x22C PUSH2 0x2FD CALLDATASIZE PUSH1 0x4 PUSH2 0x1FCC JUMP JUMPDEST PUSH2 0x83B JUMP JUMPDEST CALLVALUE DUP1 ISZERO PUSH2 0x30D JUMPI PUSH0 PUSH0 REVERT JUMPDEST POP PUSH2 0x283 PUSH2 0x860 JUMP JUMPDEST CALLVALUE DUP1 ISZERO PUSH2 0x321 JUMPI PUSH0 PUSH0 REVERT JUMPDEST POP PUSH2 0x1CD PUSH2 0x330 CALLDATASIZE PUSH1 0x4 PUSH2 0x201C JUMP JUMPDEST PUSH2 0x87B JUMP JUMPDEST CALLVALUE DUP1 ISZERO PUSH2 0x340 JUMPI PUSH0 PUSH0 REVERT JUMPDEST POP PUSH2 0x1AC PUSH2 0x919 JUMP JUMPDEST CALLVALUE DUP1 ISZERO PUSH2 0x354 JUMPI PUSH0 PUSH0 REVERT JUMPDEST POP PUSH2 0x35D PUSH2 0xA70 JUMP JUMPDEST PUSH1 0x40 MLOAD PUSH2 0x1D9 SWAP8 SWAP7 SWAP6 SWAP5 SWAP4 SWAP3 SWAP2 SWAP1 PUSH2 0x2037 JUMP JUMPDEST CALLVALUE DUP1 ISZERO PUSH2 0x37B JUMPI PUSH0 PUSH0 REVERT JUMPDEST POP PUSH2 0x283 PUSH1 0x1 DUP2 JUMP JUMPDEST CALLVALUE DUP1 ISZERO PUSH2 0x38F JUMPI PUSH0 PUSH0 REVERT JUMPDEST POP PUSH2 0x283 PUSH0 DUP2 JUMP JUMPDEST CALLVALUE DUP1 ISZERO PUSH2 0x3A2 JUMPI PUSH0 PUSH0 REVERT JUMPDEST POP PUSH2 0x2D6 PUSH1 0x40 MLOAD DUP1 PUSH1 0x40 ADD PUSH1 0x40 MSTORE DUP1 PUSH1 0x5 DUP2 MSTORE PUSH1 0x20 ADD PUSH5 0x352E302E3 PUSH1 0xDC SHL DUP2 MSTORE POP DUP2 JUMP JUMPDEST CALLVALUE DUP1 ISZERO PUSH2 0x3D2 JUMPI PUSH0 PUSH0 REVERT JUMPDEST POP PUSH20 0x4337084D9E255FF0702461CF8895CE9E3B5FF108 PUSH2 0x1F5 JUMP JUMPDEST CALLVALUE DUP1 ISZERO PUSH2 0x3F8 JUMPI PUSH0 PUSH0 REVERT JUMPDEST POP PUSH32 0x0 PUSH2 0x1F5 JUMP JUMPDEST CALLVALUE DUP1 ISZERO PUSH2 0x42A JUMPI PUSH0 PUSH0 REVERT JUMPDEST POP PUSH2 0x1AC PUSH2 0x439 CALLDATASIZE PUSH1 0x4 PUSH2 0x20CD JUMP JUMPDEST PUSH2 0xB19 JUMP JUMPDEST CALLVALUE DUP1 ISZERO PUSH2 0x449 JUMPI PUSH0 PUSH0 REVERT JUMPDEST POP PUSH2 0x22C PUSH2 0x458 CALLDATASIZE PUSH1 0x4 PUSH2 0x2124 JUMP JUMPDEST PUSH4 0xBC197C81 PUSH1 0xE0 SHL SWAP9 SWAP8 POP POP POP POP POP POP POP POP JUMP JUMPDEST CALLVALUE DUP1 ISZERO PUSH2 0x477 JUMPI PUSH0 PUSH0 REVERT JUMPDEST POP PUSH2 0x283 PUSH2 0xB71 JUMP JUMPDEST PUSH2 0x2D6 PUSH2 0x48E CALLDATASIZE PUSH1 0x4 PUSH2 0x21C4 JUMP JUMPDEST PUSH2 0xC58 JUMP JUMPDEST CALLVALUE DUP1 ISZERO PUSH2 0x49E JUMPI PUSH0 PUSH0 REVERT JUMPDEST POP PUSH2 0x283 PUSH2 0xC91 JUMP JUMPDEST CALLVALUE DUP1 ISZERO PUSH2 0x4B2 JUMPI PUSH0 PUSH0 REVERT JUMPDEST POP PUSH2 0x22C PUSH2 0x4C1 CALLDATASIZE PUSH1 0x4 PUSH2 0x2239 JUMP JUMPDEST PUSH4 0xF23A6E61 PUSH1 0xE0 SHL SWAP7 SWAP6 POP POP POP POP POP POP JUMP JUMPDEST CALLVALUE DUP1 ISZERO PUSH2 0x4DE JUMPI PUSH0 PUSH0 REVERT JUMPDEST POP PUSH2 0x4E7 PUSH2 0xD1A JUMP JUMPDEST PUSH1 0x40 DUP1 MLOAD SWAP4 DUP5 MSTORE PUSH1 0x1 PUSH1 0x1 PUSH1 0xA0 SHL SUB SWAP1 SWAP3 AND PUSH1 0x20 DUP5 ADD MSTORE SWAP1 DUP3 ADD MSTORE PUSH1 0x60 ADD PUSH2 0x1D9 JUMP JUMPDEST PUSH0 PUSH2 0x514 DUP3 PUSH2 0xD30 JUMP JUMPDEST DUP1 PUSH2 0x52F JUMPI POP PUSH1 0x1 PUSH1 0x1 PUSH1 0xE0 SHL SUB NOT DUP3 AND PUSH4 0x3C1CC5F1 PUSH1 0xE0 SHL EQ JUMPDEST SWAP3 SWAP2 POP POP JUMP JUMPDEST PUSH0 PUSH2 0x544 DUP8 DUP8 DUP8 DUP8 DUP8 DUP8 PUSH2 0xD5A JUMP JUMPDEST SWAP8 SWAP7 POP POP POP POP POP POP POP JUMP JUMPDEST PUSH0 PUSH0 PUSH0 PUSH2 0x55A PUSH2 0xD1A JUMP JUMPDEST SWAP1 SWAP4 POP SWAP2 POP POP CALLER PUSH1 0x1 PUSH1 0x1 PUSH1 0xA0 SHL SUB DUP4 AND EQ DUP1 ISZERO PUSH2 0x577 JUMPI POP DUP1 DUP7 EQ JUMPDEST ISZERO PUSH2 0x595 JUMPI PUSH1 0x40 MLOAD PUSH4 0xB79E3F3F PUSH1 0xE0 SHL DUP2 MSTORE PUSH1 0x4 ADD PUSH1 0x40 MLOAD DUP1 SWAP2 SUB SWAP1 REVERT JUMPDEST POP PUSH4 0xA85BD01 PUSH1 0xE1 SHL SWAP8 SWAP7 POP POP POP POP POP POP POP JUMP JUMPDEST PUSH0 PUSH0 PUSH0 PUSH0 PUSH2 0x5C9 DUP6 PUSH1 0x20 DUP2 ADD MLOAD PUSH1 0x40 DUP3 ADD MLOAD PUSH1 0x60 SWAP1 SWAP3 ADD MLOAD PUSH0 BYTE SWAP3 SWAP1 SWAP2 SWAP1 JUMP JUMPDEST SWAP1 SWAP5 POP SWAP3 POP SWAP1 POP PUSH1 0xFF DUP2 AND PUSH0 SUB PUSH2 0x694 JUMPI DUP3 DUP6 DUP4 ADD PUSH1 0x20 ADD PUSH2 0x5EA DUP3 PUSH2 0x87B JUMP JUMPDEST ISZERO DUP1 ISZERO PUSH2 0x600 JUMPI POP PUSH1 0x1 PUSH1 0x1 PUSH1 0xA0 SHL SUB DUP3 AND ADDRESS EQ ISZERO JUMPDEST ISZERO PUSH2 0x61B JUMPI POP PUSH1 0x1 PUSH1 0x1 PUSH1 0xE0 SHL SUB NOT SWAP5 POP PUSH2 0x52F SWAP4 POP POP POP POP JUMP JUMPDEST PUSH1 0x40 MLOAD PUSH4 0xB135D3F PUSH1 0xE1 SHL DUP2 MSTORE PUSH1 0x1 PUSH1 0x1 PUSH1 0xA0 SHL SUB DUP4 AND SWAP1 PUSH4 0x1626BA7E SWAP1 PUSH2 0x649 SWAP1 DUP12 SWAP1 DUP6 SWAP1 PUSH1 0x4 ADD PUSH2 0x22AF JUMP JUMPDEST PUSH1 0x20 PUSH1 0x40 MLOAD DUP1 DUP4 SUB DUP2 DUP7 GAS STATICCALL ISZERO DUP1 ISZERO PUSH2 0x664 JUMPI RETURNDATASIZE PUSH0 PUSH0 RETURNDATACOPY RETURNDATASIZE PUSH0 REVERT JUMPDEST POP POP POP POP PUSH1 0x40 MLOAD RETURNDATASIZE PUSH1 0x1F NOT PUSH1 0x1F DUP3 ADD AND DUP3 ADD DUP1 PUSH1 0x40 MSTORE POP DUP2 ADD SWAP1 PUSH2 0x688 SWAP2 SWAP1 PUSH2 0x22C7 JUMP JUMPDEST SWAP6 POP POP POP POP POP POP PUSH2 0x52F JUMP JUMPDEST PUSH2 0x6A3 PUSH2 0x330 DUP8 DUP4 DUP7 DUP7 PUSH2 0xDF2 JUMP JUMPDEST ISZERO PUSH2 0x6BB JUMPI POP PUSH4 0xB135D3F PUSH1 0xE1 SHL SWAP3 POP PUSH2 0x52F SWAP2 POP POP JUMP JUMPDEST POP PUSH1 0x1 PUSH1 0x1 PUSH1 0xE0 SHL SUB NOT SWAP6 SWAP5 POP POP POP POP POP JUMP JUMPDEST PUSH0 PUSH2 0x6D7 PUSH2 0xE1E JUMP JUMPDEST PUSH2 0x6E1 DUP5 DUP5 PUSH2 0xE83 JUMP JUMPDEST SWAP1 POP PUSH2 0x6F0 DUP5 PUSH1 0x20 ADD CALLDATALOAD PUSH2 0xEE0 JUMP JUMPDEST PUSH2 0x6F9 DUP3 PUSH2 0xF29 JUMP JUMPDEST SWAP4 SWAP3 POP POP POP JUMP JUMPDEST PUSH2 0x708 PUSH2 0xF6E JUMP JUMPDEST DUP1 PUSH0 JUMPDEST DUP2 DUP2 LT ISZERO PUSH2 0x7EA JUMPI CALLDATASIZE DUP5 DUP5 DUP4 DUP2 DUP2 LT PUSH2 0x726 JUMPI PUSH2 0x726 PUSH2 0x22E2 JUMP JUMPDEST SWAP1 POP PUSH1 0x20 MUL DUP2 ADD SWAP1 PUSH2 0x738 SWAP2 SWAP1 PUSH2 0x22F6 JUMP JUMPDEST SWAP1 POP PUSH0 PUSH2 0x796 PUSH2 0x74B PUSH1 0x20 DUP5 ADD DUP5 PUSH2 0x201C JUMP JUMPDEST PUSH1 0x20 DUP5 ADD CALLDATALOAD PUSH2 0x75D PUSH1 0x40 DUP7 ADD DUP7 PUSH2 0x2314 JUMP JUMPDEST DUP1 DUP1 PUSH1 0x1F ADD PUSH1 0x20 DUP1 SWAP2 DIV MUL PUSH1 0x20 ADD PUSH1 0x40 MLOAD SWAP1 DUP2 ADD PUSH1 0x40 MSTORE DUP1 SWAP4 SWAP3 SWAP2 SWAP1 DUP2 DUP2 MSTORE PUSH1 0x20 ADD DUP4 DUP4 DUP1 DUP3 DUP5 CALLDATACOPY PUSH0 SWAP3 ADD SWAP2 SWAP1 SWAP2 MSTORE POP POP POP POP GAS PUSH2 0xF76 JUMP JUMPDEST SWAP1 POP DUP1 PUSH2 0x7E0 JUMPI DUP4 PUSH1 0x1 SUB PUSH2 0x7B2 JUMPI PUSH2 0x7AD PUSH2 0xF8C JUMP JUMPDEST PUSH2 0x7E0 JUMP JUMPDEST DUP3 PUSH2 0x7BC PUSH0 PUSH2 0xF9D JUMP JUMPDEST PUSH1 0x40 MLOAD PUSH4 0x5A154675 PUSH1 0xE0 SHL DUP2 MSTORE PUSH1 0x4 ADD PUSH2 0x7D7 SWAP3 SWAP2 SWAP1 PUSH2 0x22AF JUMP JUMPDEST PUSH1 0x40 MLOAD DUP1 SWAP2 SUB SWAP1 REVERT JUMPDEST POP POP PUSH1 0x1 ADD PUSH2 0x70B JUMP JUMPDEST POP POP POP POP JUMP JUMPDEST PUSH2 0x7F8 PUSH2 0xFCE JUMP JUMPDEST PUSH2 0x801 DUP3 PUSH2 0x1072 JUMP JUMPDEST PUSH2 0x80B DUP3 DUP3 PUSH2 0x10BA JUMP JUMPDEST POP POP JUMP JUMPDEST PUSH1 0x60 PUSH0 PUSH2 0x820 DUP8 DUP8 DUP8 DUP8 DUP8 GAS PUSH2 0x117B JUMP JUMPDEST SWAP3 POP SWAP1 POP DUP1 PUSH2 0x831 JUMPI DUP2 MLOAD PUSH1 0x20 DUP4 ADD REVERT JUMPDEST POP SWAP6 SWAP5 POP POP POP POP POP JUMP JUMPDEST PUSH0 PUSH2 0x845 DUP5 PUSH2 0x87B JUMP JUMPDEST PUSH2 0x84F JUMPI PUSH0 PUSH2 0x858 JUMP JUMPDEST PUSH4 0x291F193 PUSH1 0xE5 SHL JUMPDEST SWAP5 SWAP4 POP POP POP POP JUMP JUMPDEST PUSH0 PUSH2 0x869 PUSH2 0x11D2 JUMP JUMPDEST POP PUSH0 MLOAD PUSH1 0x20 PUSH2 0x25EF PUSH0 CODECOPY PUSH0 MLOAD SWAP1 PUSH0 MSTORE SWAP1 JUMP JUMPDEST PUSH0 PUSH0 PUSH0 PUSH2 0x886 PUSH2 0xD1A JUMP JUMPDEST PUSH1 0x40 MLOAD PUSH4 0x31A9108F PUSH1 0xE1 SHL DUP2 MSTORE PUSH1 0x4 DUP2 ADD DUP3 SWAP1 MSTORE SWAP2 SWAP5 POP SWAP3 POP PUSH1 0x1 PUSH1 0x1 PUSH1 0xA0 SHL SUB DUP1 DUP8 AND SWAP3 POP DUP5 AND SWAP1 PUSH4 0x6352211E SWAP1 PUSH1 0x24 ADD PUSH1 0x20 PUSH1 0x40 MLOAD DUP1 DUP4 SUB DUP2 DUP7 GAS STATICCALL ISZERO DUP1 ISZERO PUSH2 0x8D3 JUMPI RETURNDATASIZE PUSH0 PUSH0 RETURNDATACOPY RETURNDATASIZE PUSH0 REVERT JUMPDEST POP POP POP POP PUSH1 0x40 MLOAD RETURNDATASIZE PUSH1 0x1F NOT PUSH1 0x1F DUP3 ADD AND DUP3 ADD DUP1 PUSH1 0x40 MSTORE POP DUP2 ADD SWAP1 PUSH2 0x8F7 SWAP2 SWAP1 PUSH2 0x2356 JUMP JUMPDEST PUSH1 0x1 PUSH1 0x1 PUSH1 0xA0 SHL SUB AND EQ DUP1 ISZERO PUSH2 0x858 JUMPI POP POP POP POP PUSH1 0x1 PUSH1 0x1 PUSH1 0xA0 SHL SUB AND ISZERO ISZERO SWAP1 JUMP JUMPDEST PUSH32 0xF0C57E16840DF040F15088DC2F81FE391C3923BEC73E23A9662EFC9C229C6A00 DUP1 SLOAD PUSH1 0x1 PUSH1 0x40 SHL DUP2 DIV PUSH1 0xFF AND ISZERO SWAP1 PUSH1 0x1 PUSH1 0x1 PUSH1 0x40 SHL SUB AND PUSH0 DUP2 ISZERO DUP1 ISZERO PUSH2 0x95D JUMPI POP DUP3 JUMPDEST SWAP1 POP PUSH0 DUP3 PUSH1 0x1 PUSH1 0x1 PUSH1 0x40 SHL SUB AND PUSH1 0x1 EQ DUP1 ISZERO PUSH2 0x978 JUMPI POP ADDRESS EXTCODESIZE ISZERO JUMPDEST SWAP1 POP DUP2 ISZERO DUP1 ISZERO PUSH2 0x986 JUMPI POP DUP1 ISZERO JUMPDEST ISZERO PUSH2 0x9A4 JUMPI PUSH1 0x40 MLOAD PUSH4 0xF92EE8A9 PUSH1 0xE0 SHL DUP2 MSTORE PUSH1 0x4 ADD PUSH1 0x40 MLOAD DUP1 SWAP2 SUB SWAP1 REVERT JUMPDEST DUP5 SLOAD PUSH8 0xFFFFFFFFFFFFFFFF NOT AND PUSH1 0x1 OR DUP6 SSTORE DUP4 ISZERO PUSH2 0x9CE JUMPI DUP5 SLOAD PUSH1 0xFF PUSH1 0x40 SHL NOT AND PUSH1 0x1 PUSH1 0x40 SHL OR DUP6 SSTORE JUMPDEST PUSH2 0x9D6 PUSH2 0x121B JUMP JUMPDEST PUSH2 0xA23 PUSH1 0x40 MLOAD DUP1 PUSH1 0x40 ADD PUSH1 0x40 MSTORE DUP1 PUSH1 0x12 DUP2 MSTORE PUSH1 0x20 ADD PUSH18 0x243CB832B920B1B1B7BAB73A26B4B73A32B9 PUSH1 0x71 SHL DUP2 MSTORE POP PUSH1 0x40 MLOAD DUP1 PUSH1 0x40 ADD PUSH1 0x40 MSTORE DUP1 PUSH1 0x1 DUP2 MSTORE PUSH1 0x20 ADD PUSH1 0x31 PUSH1 0xF8 SHL DUP2 MSTORE POP PUSH2 0x1223 JUMP JUMPDEST DUP4 ISZERO PUSH2 0xA69 JUMPI DUP5 SLOAD PUSH1 0xFF PUSH1 0x40 SHL NOT AND DUP6 SSTORE PUSH1 0x40 MLOAD PUSH1 0x1 DUP2 MSTORE PUSH32 0xC7F505B2F371AE2175EE4913F4499E1F2633A7B5936321EED1CDAEB6115181D2 SWAP1 PUSH1 0x20 ADD PUSH1 0x40 MLOAD DUP1 SWAP2 SUB SWAP1 LOG1 JUMPDEST POP POP POP POP POP JUMP JUMPDEST PUSH0 PUSH1 0x60 DUP1 DUP3 DUP1 DUP1 DUP4 DUP2 PUSH0 MLOAD PUSH1 0x20 PUSH2 0x25CF PUSH0 CODECOPY PUSH0 MLOAD SWAP1 PUSH0 MSTORE DUP1 SLOAD SWAP1 SWAP2 POP ISZERO DUP1 ISZERO PUSH2 0xA9B JUMPI POP PUSH1 0x1 DUP2 ADD SLOAD ISZERO JUMPDEST PUSH2 0xADF JUMPI PUSH1 0x40 MLOAD PUSH3 0x461BCD PUSH1 0xE5 SHL DUP2 MSTORE PUSH1 0x20 PUSH1 0x4 DUP3 ADD MSTORE PUSH1 0x15 PUSH1 0x24 DUP3 ADD MSTORE PUSH21 0x1152540DCC4C8E88155B9A5B9A5D1A585B1A5E9959 PUSH1 0x5A SHL PUSH1 0x44 DUP3 ADD MSTORE PUSH1 0x64 ADD PUSH2 0x7D7 JUMP JUMPDEST PUSH2 0xAE7 PUSH2 0x1235 JUMP JUMPDEST PUSH2 0xAEF PUSH2 0x12F5 JUMP JUMPDEST PUSH1 0x40 DUP1 MLOAD PUSH0 DUP1 DUP3 MSTORE PUSH1 0x20 DUP3 ADD SWAP1 SWAP3 MSTORE PUSH1 0xF PUSH1 0xF8 SHL SWAP13 SWAP4 SWAP12 POP SWAP2 SWAP10 POP CHAINID SWAP9 POP ADDRESS SWAP8 POP SWAP6 POP SWAP4 POP SWAP2 POP POP JUMP JUMPDEST PUSH2 0xB21 PUSH2 0xF6E JUMP JUMPDEST PUSH0 PUSH2 0xB62 DUP6 DUP6 DUP6 DUP6 DUP1 DUP1 PUSH1 0x1F ADD PUSH1 0x20 DUP1 SWAP2 DIV MUL PUSH1 0x20 ADD PUSH1 0x40 MLOAD SWAP1 DUP2 ADD PUSH1 0x40 MSTORE DUP1 SWAP4 SWAP3 SWAP2 SWAP1 DUP2 DUP2 MSTORE PUSH1 0x20 ADD DUP4 DUP4 DUP1 DUP3 DUP5 CALLDATACOPY PUSH0 SWAP3 ADD SWAP2 SWAP1 SWAP2 MSTORE POP POP POP POP GAS PUSH2 0xF76 JUMP JUMPDEST SWAP1 POP DUP1 PUSH2 0xA69 JUMPI PUSH2 0xA69 PUSH2 0xF8C JUMP JUMPDEST PUSH0 DUP1 PUSH32 0xE4B1C7558F331D2752F6CB495B2CF8E1B8AE3112BCC78EC0C3BFEBFBE3CD4800 SWAP1 POP PUSH0 PUSH20 0x4337084D9E255FF0702461CF8895CE9E3B5FF108 PUSH1 0x40 MLOAD PUSH4 0x1AAB3F0D PUSH1 0xE1 SHL DUP2 MSTORE ADDRESS PUSH1 0x4 DUP3 ADD MSTORE PUSH0 PUSH1 0x24 DUP3 ADD MSTORE PUSH1 0x1 PUSH1 0x1 PUSH1 0xA0 SHL SUB SWAP2 SWAP1 SWAP2 AND SWAP1 PUSH4 0x35567E1A SWAP1 PUSH1 0x44 ADD PUSH1 0x20 PUSH1 0x40 MLOAD DUP1 DUP4 SUB DUP2 DUP7 GAS STATICCALL ISZERO DUP1 ISZERO PUSH2 0xBF6 JUMPI RETURNDATASIZE PUSH0 PUSH0 RETURNDATACOPY RETURNDATASIZE PUSH0 REVERT JUMPDEST POP POP POP POP PUSH1 0x40 MLOAD RETURNDATASIZE PUSH1 0x1F NOT PUSH1 0x1F DUP3 ADD AND DUP3 ADD DUP1 PUSH1 0x40 MSTORE POP DUP2 ADD SWAP1 PUSH2 0xC1A SWAP2 SWAP1 PUSH2 0x2371 JUMP JUMPDEST DUP3 SLOAD PUSH1 0x40 MLOAD SWAP2 SWAP3 POP PUSH2 0xC39 SWAP2 DUP4 SWAP1 PUSH1 0x20 ADD SWAP2 DUP3 MSTORE PUSH1 0x20 DUP3 ADD MSTORE PUSH1 0x40 ADD SWAP1 JUMP JUMPDEST PUSH1 0x40 MLOAD PUSH1 0x20 DUP2 DUP4 SUB SUB DUP2 MSTORE SWAP1 PUSH1 0x40 MSTORE DUP1 MLOAD SWAP1 PUSH1 0x20 ADD KECCAK256 PUSH0 SHR SWAP3 POP POP POP SWAP1 JUMP JUMPDEST PUSH1 0x60 PUSH0 PUSH2 0xC75 DUP9 DUP9 DUP9 DUP9 DUP9 DUP9 ISZERO PUSH2 0xC6F JUMPI DUP9 PUSH2 0x117B JUMP JUMPDEST GAS PUSH2 0x117B JUMP JUMPDEST SWAP3 POP SWAP1 POP DUP1 PUSH2 0xC86 JUMPI DUP2 MLOAD PUSH1 0x20 DUP4 ADD REVERT JUMPDEST POP SWAP7 SWAP6 POP POP POP POP POP POP JUMP JUMPDEST PUSH0 PUSH20 0x4337084D9E255FF0702461CF8895CE9E3B5FF108 PUSH1 0x40 MLOAD PUSH4 0x1AAB3F0D PUSH1 0xE1 SHL DUP2 MSTORE ADDRESS PUSH1 0x4 DUP3 ADD MSTORE PUSH0 PUSH1 0x24 DUP3 ADD MSTORE PUSH1 0x1 PUSH1 0x1 PUSH1 0xA0 SHL SUB SWAP2 SWAP1 SWAP2 AND SWAP1 PUSH4 0x35567E1A SWAP1 PUSH1 0x44 ADD PUSH1 0x20 PUSH1 0x40 MLOAD DUP1 DUP4 SUB DUP2 DUP7 GAS STATICCALL ISZERO DUP1 ISZERO PUSH2 0xCF1 JUMPI RETURNDATASIZE PUSH0 PUSH0 RETURNDATACOPY RETURNDATASIZE PUSH0 REVERT JUMPDEST POP POP POP POP PUSH1 0x40 MLOAD RETURNDATASIZE PUSH1 0x1F NOT PUSH1 0x1F DUP3 ADD AND DUP3 ADD DUP1 PUSH1 0x40 MSTORE POP DUP2 ADD SWAP1 PUSH2 0xD15 SWAP2 SWAP1 PUSH2 0x2371 JUMP JUMPDEST SWAP1 POP SWAP1 JUMP JUMPDEST PUSH0 PUSH0 PUSH0 PUSH2 0xD25 PUSH2 0x1333 JUMP JUMPDEST SWAP3 POP SWAP3 POP SWAP3 POP SWAP1 SWAP2 SWAP3 JUMP JUMPDEST PUSH0 PUSH2 0xD3A DUP3 PUSH2 0x133F JUMP JUMPDEST DUP1 PUSH2 0x52F JUMPI POP PUSH1 0x1 PUSH1 0x1 PUSH1 0xE0 SHL SUB NOT DUP3 AND PUSH4 0x6FAFF5F1 PUSH1 0xE0 SHL EQ SWAP3 SWAP2 POP POP JUMP JUMPDEST PUSH1 0x40 MLOAD PUSH4 0x94CEFED PUSH1 0xE0 SHL DUP2 MSTORE PUSH0 SWAP1 PUSH1 0x1 PUSH1 0x1 PUSH1 0xA0 SHL SUB PUSH32 0x0 AND SWAP1 PUSH4 0x94CEFED SWAP1 PUSH2 0xDB2 SWAP1 DUP11 SWAP1 DUP11 SWAP1 DUP11 SWAP1 DUP11 SWAP1 DUP11 SWAP1 DUP11 SWAP1 PUSH1 0x4 ADD PUSH2 0x23B0 JUMP JUMPDEST PUSH1 0x20 PUSH1 0x40 MLOAD DUP1 DUP4 SUB DUP2 PUSH0 DUP8 GAS CALL ISZERO DUP1 ISZERO PUSH2 0xDCE JUMPI RETURNDATASIZE PUSH0 PUSH0 RETURNDATACOPY RETURNDATASIZE PUSH0 REVERT JUMPDEST POP POP POP POP PUSH1 0x40 MLOAD RETURNDATASIZE PUSH1 0x1F NOT PUSH1 0x1F DUP3 ADD AND DUP3 ADD DUP1 PUSH1 0x40 MSTORE POP DUP2 ADD SWAP1 PUSH2 0x544 SWAP2 SWAP1 PUSH2 0x2356 JUMP JUMPDEST PUSH0 PUSH0 PUSH0 PUSH0 PUSH2 0xE02 DUP9 DUP9 DUP9 DUP9 PUSH2 0x13E0 JUMP JUMPDEST SWAP3 POP SWAP3 POP SWAP3 POP PUSH2 0xE12 DUP3 DUP3 PUSH2 0x14A8 JUMP JUMPDEST POP SWAP1 SWAP7 SWAP6 POP POP POP POP POP POP JUMP JUMPDEST CALLER PUSH20 0x4337084D9E255FF0702461CF8895CE9E3B5FF108 EQ PUSH2 0xE81 JUMPI PUSH1 0x40 MLOAD PUSH3 0x461BCD PUSH1 0xE5 SHL DUP2 MSTORE PUSH1 0x20 PUSH1 0x4 DUP3 ADD MSTORE PUSH1 0x1C PUSH1 0x24 DUP3 ADD MSTORE PUSH32 0x6163636F756E743A206E6F742066726F6D20456E747279506F696E7400000000 PUSH1 0x44 DUP3 ADD MSTORE PUSH1 0x64 ADD PUSH2 0x7D7 JUMP JUMPDEST JUMP JUMPDEST PUSH0 PUSH1 0x4 PUSH2 0xE93 PUSH1 0x60 DUP6 ADD DUP6 PUSH2 0x2314 JUMP JUMPDEST SWAP1 POP GT ISZERO PUSH2 0xED6 JUMPI PUSH0 PUSH2 0xEB1 PUSH2 0xEAC PUSH1 0x60 DUP7 ADD DUP7 PUSH2 0x2314 JUMP JUMPDEST PUSH2 0x1560 JUMP JUMPDEST SWAP1 POP PUSH4 0xF6B31013 PUSH1 0xE0 SHL PUSH1 0x1 PUSH1 0x1 PUSH1 0xE0 SHL SUB NOT DUP3 AND ADD PUSH2 0xED4 JUMPI PUSH0 SWAP2 POP POP PUSH2 0x52F JUMP JUMPDEST POP JUMPDEST PUSH2 0x6F9 DUP4 DUP4 PUSH2 0x1577 JUMP JUMPDEST PUSH1 0x1 PUSH1 0x1 PUSH1 0x40 SHL SUB DUP2 LT PUSH2 0xF26 JUMPI PUSH1 0x40 MLOAD PUSH3 0x461BCD PUSH1 0xE5 SHL DUP2 MSTORE PUSH1 0x20 PUSH1 0x4 DUP3 ADD MSTORE PUSH1 0xD PUSH1 0x24 DUP3 ADD MSTORE PUSH13 0x496E76616C6964206E6F6E6365 PUSH1 0x98 SHL PUSH1 0x44 DUP3 ADD MSTORE PUSH1 0x64 ADD PUSH2 0x7D7 JUMP JUMPDEST POP JUMP JUMPDEST DUP1 ISZERO PUSH2 0xF26 JUMPI PUSH1 0x40 MLOAD PUSH0 SWAP1 CALLER SWAP1 DUP4 SWAP1 DUP4 DUP2 DUP2 DUP2 DUP6 DUP8 GAS CALL SWAP3 POP POP POP RETURNDATASIZE DUP1 PUSH0 DUP2 EQ PUSH2 0xA69 JUMPI PUSH1 0x40 MLOAD SWAP2 POP PUSH1 0x1F NOT PUSH1 0x3F RETURNDATASIZE ADD AND DUP3 ADD PUSH1 0x40 MSTORE RETURNDATASIZE DUP3 MSTORE RETURNDATASIZE PUSH0 PUSH1 0x20 DUP5 ADD RETURNDATACOPY PUSH2 0xA69 JUMP JUMPDEST PUSH2 0xE81 PUSH2 0xE1E JUMP JUMPDEST PUSH0 PUSH0 PUSH0 DUP5 MLOAD PUSH1 0x20 DUP7 ADD DUP8 DUP10 DUP8 CALL SWAP6 SWAP5 POP POP POP POP POP JUMP JUMPDEST PUSH2 0xE81 PUSH2 0xF98 PUSH0 PUSH2 0xF9D JUMP JUMPDEST PUSH2 0x1684 JUMP JUMPDEST PUSH1 0x60 RETURNDATASIZE DUP3 ISZERO PUSH2 0xFB1 JUMPI DUP3 DUP2 GT ISZERO PUSH2 0xFB1 JUMPI POP DUP2 JUMPDEST PUSH1 0x40 MLOAD PUSH1 0x20 DUP3 ADD DUP2 ADD PUSH1 0x40 MSTORE DUP2 DUP2 MSTORE DUP2 PUSH0 PUSH1 0x20 DUP4 ADD RETURNDATACOPY SWAP4 SWAP3 POP POP POP JUMP JUMPDEST ADDRESS PUSH1 0x1 PUSH1 0x1 PUSH1 0xA0 SHL SUB PUSH32 0x0 AND EQ DUP1 PUSH2 0x1054 JUMPI POP PUSH32 0x0 PUSH1 0x1 PUSH1 0x1 PUSH1 0xA0 SHL SUB AND PUSH2 0x1048 PUSH0 MLOAD PUSH1 0x20 PUSH2 0x25EF PUSH0 CODECOPY PUSH0 MLOAD SWAP1 PUSH0 MSTORE SLOAD PUSH1 0x1 PUSH1 0x1 PUSH1 0xA0 SHL SUB AND SWAP1 JUMP JUMPDEST PUSH1 0x1 PUSH1 0x1 PUSH1 0xA0 SHL SUB AND EQ ISZERO JUMPDEST ISZERO PUSH2 0xE81 JUMPI PUSH1 0x40 MLOAD PUSH4 0x703E46DD PUSH1 0xE1 SHL DUP2 MSTORE PUSH1 0x4 ADD PUSH1 0x40 MLOAD DUP1 SWAP2 SUB SWAP1 REVERT JUMPDEST PUSH2 0x107B CALLER PUSH2 0x87B JUMP JUMPDEST ISZERO DUP1 ISZERO PUSH2 0x109C JUMPI POP CALLER PUSH20 0x4337084D9E255FF0702461CF8895CE9E3B5FF108 EQ ISZERO JUMPDEST ISZERO PUSH2 0xF26 JUMPI PUSH1 0x40 MLOAD PUSH4 0x47802953 PUSH1 0xE1 SHL DUP2 MSTORE PUSH1 0x4 ADD PUSH1 0x40 MLOAD DUP1 SWAP2 SUB SWAP1 REVERT JUMPDEST DUP2 PUSH1 0x1 PUSH1 0x1 PUSH1 0xA0 SHL SUB AND PUSH4 0x52D1902D PUSH1 0x40 MLOAD DUP2 PUSH4 0xFFFFFFFF AND PUSH1 0xE0 SHL DUP2 MSTORE PUSH1 0x4 ADD PUSH1 0x20 PUSH1 0x40 MLOAD DUP1 DUP4 SUB DUP2 DUP7 GAS STATICCALL SWAP3 POP POP POP DUP1 ISZERO PUSH2 0x1114 JUMPI POP PUSH1 0x40 DUP1 MLOAD PUSH1 0x1F RETURNDATASIZE SWAP1 DUP2 ADD PUSH1 0x1F NOT AND DUP3 ADD SWAP1 SWAP3 MSTORE PUSH2 0x1111 SWAP2 DUP2 ADD SWAP1 PUSH2 0x2371 JUMP JUMPDEST PUSH1 0x1 JUMPDEST PUSH2 0x113C JUMPI PUSH1 0x40 MLOAD PUSH4 0x4C9C8CE3 PUSH1 0xE0 SHL DUP2 MSTORE PUSH1 0x1 PUSH1 0x1 PUSH1 0xA0 SHL SUB DUP4 AND PUSH1 0x4 DUP3 ADD MSTORE PUSH1 0x24 ADD PUSH2 0x7D7 JUMP JUMPDEST PUSH0 MLOAD PUSH1 0x20 PUSH2 0x25EF PUSH0 CODECOPY PUSH0 MLOAD SWAP1 PUSH0 MSTORE DUP2 EQ PUSH2 0x116C JUMPI PUSH1 0x40 MLOAD PUSH4 0x2A875269 PUSH1 0xE2 SHL DUP2 MSTORE PUSH1 0x4 DUP2 ADD DUP3 SWAP1 MSTORE PUSH1 0x24 ADD PUSH2 0x7D7 JUMP JUMPDEST PUSH2 0x1176 DUP4 DUP4 PUSH2 0x168C JUMP JUMPDEST POP POP POP JUMP JUMPDEST PUSH32 0xE4B1C7558F331D2752F6CB495B2CF8E1B8AE3112BCC78EC0C3BFEBFBE3CD4800 DUP1 SLOAD PUSH0 SWAP2 PUSH1 0x60 SWAP2 DUP2 DUP5 PUSH2 0x11AE DUP4 PUSH2 0x2403 JUMP JUMPDEST SWAP2 SWAP1 POP SSTORE POP PUSH2 0x11C1 DUP10 DUP10 DUP10 DUP10 DUP10 DUP10 PUSH2 0x16E1 JUMP JUMPDEST SWAP3 POP SWAP3 POP POP JUMPDEST SWAP7 POP SWAP7 SWAP5 POP POP POP POP POP JUMP JUMPDEST ADDRESS PUSH1 0x1 PUSH1 0x1 PUSH1 0xA0 SHL SUB PUSH32 0x0 AND EQ PUSH2 0xE81 JUMPI PUSH1 0x40 MLOAD PUSH4 0x703E46DD PUSH1 0xE1 SHL DUP2 MSTORE PUSH1 0x4 ADD PUSH1 0x40 MLOAD DUP1 SWAP2 SUB SWAP1 REVERT JUMPDEST PUSH2 0xE81 PUSH2 0x1838 JUMP JUMPDEST PUSH2 0x122B PUSH2 0x1838 JUMP JUMPDEST PUSH2 0x80B DUP3 DUP3 PUSH2 0x1881 JUMP JUMPDEST PUSH32 0xA16A46D94261C7517CC8FF89F61C0CE93598E3C849801011DEE649A6A557D102 DUP1 SLOAD PUSH1 0x60 SWAP2 PUSH0 MLOAD PUSH1 0x20 PUSH2 0x25CF PUSH0 CODECOPY PUSH0 MLOAD SWAP1 PUSH0 MSTORE SWAP2 PUSH2 0x1273 SWAP1 PUSH2 0x2427 JUMP JUMPDEST DUP1 PUSH1 0x1F ADD PUSH1 0x20 DUP1 SWAP2 DIV MUL PUSH1 0x20 ADD PUSH1 0x40 MLOAD SWAP1 DUP2 ADD PUSH1 0x40 MSTORE DUP1 SWAP3 SWAP2 SWAP1 DUP2 DUP2 MSTORE PUSH1 0x20 ADD DUP3 DUP1 SLOAD PUSH2 0x129F SWAP1 PUSH2 0x2427 JUMP JUMPDEST DUP1 ISZERO PUSH2 0x12EA JUMPI DUP1 PUSH1 0x1F LT PUSH2 0x12C1 JUMPI PUSH2 0x100 DUP1 DUP4 SLOAD DIV MUL DUP4 MSTORE SWAP2 PUSH1 0x20 ADD SWAP2 PUSH2 0x12EA JUMP JUMPDEST DUP3 ADD SWAP2 SWAP1 PUSH0 MSTORE PUSH1 0x20 PUSH0 KECCAK256 SWAP1 JUMPDEST DUP2 SLOAD DUP2 MSTORE SWAP1 PUSH1 0x1 ADD SWAP1 PUSH1 0x20 ADD DUP1 DUP4 GT PUSH2 0x12CD JUMPI DUP3 SWAP1 SUB PUSH1 0x1F AND DUP3 ADD SWAP2 JUMPDEST POP POP POP POP POP SWAP2 POP POP SWAP1 JUMP JUMPDEST PUSH32 0xA16A46D94261C7517CC8FF89F61C0CE93598E3C849801011DEE649A6A557D103 DUP1 SLOAD PUSH1 0x60 SWAP2 PUSH0 MLOAD PUSH1 0x20 PUSH2 0x25CF PUSH0 CODECOPY PUSH0 MLOAD SWAP1 PUSH0 MSTORE SWAP2 PUSH2 0x1273 SWAP1 PUSH2 0x2427 JUMP JUMPDEST PUSH0 PUSH0 PUSH0 PUSH2 0xD25 ADDRESS PUSH2 0x18E0 JUMP JUMPDEST PUSH0 PUSH1 0x1 PUSH1 0x1 PUSH1 0xE0 SHL SUB NOT DUP3 AND PUSH4 0x3CE4A3E9 PUSH1 0xE0 SHL EQ DUP1 PUSH2 0x136F JUMPI POP PUSH1 0x1 PUSH1 0x1 PUSH1 0xE0 SHL SUB NOT DUP3 AND PUSH4 0x1FFC9A7 PUSH1 0xE0 SHL EQ JUMPDEST DUP1 PUSH2 0x138A JUMPI POP PUSH1 0x1 PUSH1 0x1 PUSH1 0xE0 SHL SUB NOT DUP3 AND PUSH4 0x6608BDF PUSH1 0xE2 SHL EQ JUMPDEST DUP1 PUSH2 0x13A5 JUMPI POP PUSH1 0x1 PUSH1 0x1 PUSH1 0xE0 SHL SUB NOT DUP3 AND PUSH4 0xB135D3F PUSH1 0xE1 SHL EQ JUMPDEST DUP1 PUSH2 0x13C0 JUMPI POP PUSH1 0x1 PUSH1 0x1 PUSH1 0xE0 SHL SUB NOT DUP3 AND PUSH4 0x2711897 PUSH1 0xE5 SHL EQ JUMPDEST DUP1 PUSH2 0x52F JUMPI POP PUSH1 0x1 PUSH1 0x1 PUSH1 0xE0 SHL SUB NOT DUP3 AND PUSH4 0x51945447 PUSH1 0xE0 SHL EQ SWAP3 SWAP2 POP POP JUMP JUMPDEST PUSH0 DUP1 DUP1 PUSH32 0x7FFFFFFFFFFFFFFFFFFFFFFFFFFFFFFF5D576E7357A4501DDFE92F46681B20A0 DUP5 GT ISZERO PUSH2 0x1419 JUMPI POP PUSH0 SWAP2 POP PUSH1 0x3 SWAP1 POP DUP3 PUSH2 0x149E JUMP JUMPDEST PUSH1 0x40 DUP1 MLOAD PUSH0 DUP1 DUP3 MSTORE PUSH1 0x20 DUP3 ADD DUP1 DUP5 MSTORE DUP11 SWAP1 MSTORE PUSH1 0xFF DUP10 AND SWAP3 DUP3 ADD SWAP3 SWAP1 SWAP3 MSTORE PUSH1 0x60 DUP2 ADD DUP8 SWAP1 MSTORE PUSH1 0x80 DUP2 ADD DUP7 SWAP1 MSTORE PUSH1 0x1 SWAP1 PUSH1 0xA0 ADD PUSH1 0x20 PUSH1 0x40 MLOAD PUSH1 0x20 DUP2 SUB SWAP1 DUP1 DUP5 SUB SWAP1 DUP6 GAS STATICCALL ISZERO DUP1 ISZERO PUSH2 0x146A JUMPI RETURNDATASIZE PUSH0 PUSH0 RETURNDATACOPY RETURNDATASIZE PUSH0 REVERT JUMPDEST POP POP PUSH1 0x40 MLOAD PUSH1 0x1F NOT ADD MLOAD SWAP2 POP POP PUSH1 0x1 PUSH1 0x1 PUSH1 0xA0 SHL SUB DUP2 AND PUSH2 0x1495 JUMPI POP PUSH0 SWAP3 POP PUSH1 0x1 SWAP2 POP DUP3 SWAP1 POP PUSH2 0x149E JUMP JUMPDEST SWAP3 POP PUSH0 SWAP2 POP DUP2 SWAP1 POP JUMPDEST SWAP5 POP SWAP5 POP SWAP5 SWAP2 POP POP JUMP JUMPDEST PUSH0 DUP3 PUSH1 0x3 DUP2 GT ISZERO PUSH2 0x14BB JUMPI PUSH2 0x14BB PUSH2 0x245F JUMP JUMPDEST SUB PUSH2 0x14C4 JUMPI POP POP JUMP JUMPDEST PUSH1 0x1 DUP3 PUSH1 0x3 DUP2 GT ISZERO PUSH2 0x14D8 JUMPI PUSH2 0x14D8 PUSH2 0x245F JUMP JUMPDEST SUB PUSH2 0x14F6 JUMPI PUSH1 0x40 MLOAD PUSH4 0xF645EEDF PUSH1 0xE0 SHL DUP2 MSTORE PUSH1 0x4 ADD PUSH1 0x40 MLOAD DUP1 SWAP2 SUB SWAP1 REVERT JUMPDEST PUSH1 0x2 DUP3 PUSH1 0x3 DUP2 GT ISZERO PUSH2 0x150A JUMPI PUSH2 0x150A PUSH2 0x245F JUMP JUMPDEST SUB PUSH2 0x152B JUMPI PUSH1 0x40 MLOAD PUSH4 0xFCE698F7 PUSH1 0xE0 SHL DUP2 MSTORE PUSH1 0x4 DUP2 ADD DUP3 SWAP1 MSTORE PUSH1 0x24 ADD PUSH2 0x7D7 JUMP JUMPDEST PUSH1 0x3 DUP3 PUSH1 0x3 DUP2 GT ISZERO PUSH2 0x153F JUMPI PUSH2 0x153F PUSH2 0x245F JUMP JUMPDEST SUB PUSH2 0x80B JUMPI PUSH1 0x40 MLOAD PUSH4 0x35E2F383 PUSH1 0xE2 SHL DUP2 MSTORE PUSH1 0x4 DUP2 ADD DUP3 SWAP1 MSTORE PUSH1 0x24 ADD PUSH2 0x7D7 JUMP JUMPDEST PUSH0 PUSH1 0x4 DUP3 LT ISZERO PUSH2 0x1571 JUMPI POP PUSH0 PUSH2 0x52F JUMP JUMPDEST POP POP CALLDATALOAD SWAP1 JUMP JUMPDEST PUSH0 DUP1 DUP1 PUSH2 0x15C5 DUP5 PUSH2 0x158C PUSH2 0x100 DUP9 ADD DUP9 PUSH2 0x2314 JUMP JUMPDEST DUP1 DUP1 PUSH1 0x1F ADD PUSH1 0x20 DUP1 SWAP2 DIV MUL PUSH1 0x20 ADD PUSH1 0x40 MLOAD SWAP1 DUP2 ADD PUSH1 0x40 MSTORE DUP1 SWAP4 SWAP3 SWAP2 SWAP1 DUP2 DUP2 MSTORE PUSH1 0x20 ADD DUP4 DUP4 DUP1 DUP3 DUP5 CALLDATACOPY PUSH0 SWAP3 ADD SWAP2 SWAP1 SWAP2 MSTORE POP PUSH2 0x1934 SWAP3 POP POP POP JUMP JUMPDEST POP SWAP1 SWAP3 POP SWAP1 POP PUSH0 DUP2 PUSH1 0x3 DUP2 GT ISZERO PUSH2 0x15DE JUMPI PUSH2 0x15DE PUSH2 0x245F JUMP JUMPDEST EQ DUP1 ISZERO PUSH2 0x15EF JUMPI POP PUSH2 0x15EF DUP3 PUSH2 0x87B JUMP JUMPDEST ISZERO PUSH2 0x15FE JUMPI PUSH0 SWAP3 POP POP POP PUSH2 0x52F JUMP JUMPDEST PUSH32 0x19457468657265756D205369676E6564204D6573736167653A0A333200000000 PUSH0 SWAP1 DUP2 MSTORE PUSH1 0x1C DUP6 SWAP1 MSTORE PUSH1 0x3C SWAP1 KECCAK256 PUSH2 0x163E DUP2 PUSH2 0x158C PUSH2 0x100 DUP10 ADD DUP10 PUSH2 0x2314 JUMP JUMPDEST POP SWAP1 SWAP4 POP SWAP2 POP PUSH0 DUP3 PUSH1 0x3 DUP2 GT ISZERO PUSH2 0x1657 JUMPI PUSH2 0x1657 PUSH2 0x245F JUMP JUMPDEST EQ DUP1 ISZERO PUSH2 0x1668 JUMPI POP PUSH2 0x1668 DUP4 PUSH2 0x87B JUMP JUMPDEST ISZERO PUSH2 0x1678 JUMPI PUSH0 SWAP4 POP POP POP POP PUSH2 0x52F JUMP JUMPDEST POP PUSH1 0x1 SWAP6 SWAP5 POP POP POP POP POP JUMP JUMPDEST DUP1 MLOAD PUSH1 0x20 DUP3 ADD REVERT JUMPDEST PUSH2 0x1695 DUP3 PUSH2 0x197D JUMP JUMPDEST PUSH1 0x40 MLOAD PUSH1 0x1 PUSH1 0x1 PUSH1 0xA0 SHL SUB DUP4 AND SWAP1 PUSH32 0xBC7CD75A20EE27FD9ADEBAB32041F755214DBC6BFFA90CC0225B39DA2E5C2D3B SWAP1 PUSH0 SWAP1 LOG2 DUP1 MLOAD ISZERO PUSH2 0x16D9 JUMPI PUSH2 0x1176 DUP3 DUP3 PUSH2 0x19E0 JUMP JUMPDEST PUSH2 0x80B PUSH2 0x1A52 JUMP JUMPDEST PUSH0 PUSH1 0x60 PUSH2 0x16ED CALLER PUSH2 0x87B JUMP JUMPDEST ISZERO DUP1 ISZERO PUSH2 0x170E JUMPI POP CALLER PUSH20 0x4337084D9E255FF0702461CF8895CE9E3B5FF108 EQ ISZERO JUMPDEST ISZERO PUSH2 0x172C JUMPI PUSH1 0x40 MLOAD PUSH4 0x47802953 PUSH1 0xE1 SHL DUP2 MSTORE PUSH1 0x4 ADD PUSH1 0x40 MLOAD DUP1 SWAP2 SUB SWAP1 REVERT JUMPDEST DUP4 PUSH1 0xFF AND PUSH0 SUB PUSH2 0x179D JUMPI DUP8 PUSH1 0x1 PUSH1 0x1 PUSH1 0xA0 SHL SUB AND DUP4 DUP9 DUP9 DUP9 PUSH1 0x40 MLOAD PUSH2 0x1752 SWAP3 SWAP2 SWAP1 PUSH2 0x2473 JUMP JUMPDEST PUSH0 PUSH1 0x40 MLOAD DUP1 DUP4 SUB DUP2 DUP6 DUP9 DUP9 CALL SWAP4 POP POP POP POP RETURNDATASIZE DUP1 PUSH0 DUP2 EQ PUSH2 0x178D JUMPI PUSH1 0x40 MLOAD SWAP2 POP PUSH1 0x1F NOT PUSH1 0x3F RETURNDATASIZE ADD AND DUP3 ADD PUSH1 0x40 MSTORE RETURNDATASIZE DUP3 MSTORE RETURNDATASIZE PUSH0 PUSH1 0x20 DUP5 ADD RETURNDATACOPY PUSH2 0x1792 JUMP JUMPDEST PUSH1 0x60 SWAP2 POP JUMPDEST POP SWAP1 SWAP3 POP SWAP1 POP PUSH2 0x11C7 JUMP JUMPDEST DUP4 PUSH1 0xFF AND PUSH1 0x1 SUB PUSH2 0x17FC JUMPI DUP8 PUSH1 0x1 PUSH1 0x1 PUSH1 0xA0 SHL SUB AND DUP4 DUP8 DUP8 PUSH1 0x40 MLOAD PUSH2 0x17C3 SWAP3 SWAP2 SWAP1 PUSH2 0x2473 JUMP JUMPDEST PUSH0 PUSH1 0x40 MLOAD DUP1 DUP4 SUB DUP2 DUP7 DUP7 DELEGATECALL SWAP3 POP POP POP RETURNDATASIZE DUP1 PUSH0 DUP2 EQ PUSH2 0x178D JUMPI PUSH1 0x40 MLOAD SWAP2 POP PUSH1 0x1F NOT PUSH1 0x3F RETURNDATASIZE ADD AND DUP3 ADD PUSH1 0x40 MSTORE RETURNDATASIZE DUP3 MSTORE RETURNDATASIZE PUSH0 PUSH1 0x20 DUP5 ADD RETURNDATACOPY PUSH2 0x1792 JUMP JUMPDEST PUSH1 0x40 MLOAD PUSH3 0x461BCD PUSH1 0xE5 SHL DUP2 MSTORE PUSH1 0x20 PUSH1 0x4 DUP3 ADD MSTORE PUSH1 0x11 PUSH1 0x24 DUP3 ADD MSTORE PUSH17 0x24B73B30B634B21037B832B930BA34B7B7 PUSH1 0x79 SHL PUSH1 0x44 DUP3 ADD MSTORE PUSH1 0x64 ADD PUSH2 0x7D7 JUMP JUMPDEST PUSH32 0xF0C57E16840DF040F15088DC2F81FE391C3923BEC73E23A9662EFC9C229C6A00 SLOAD PUSH1 0x1 PUSH1 0x40 SHL SWAP1 DIV PUSH1 0xFF AND PUSH2 0xE81 JUMPI PUSH1 0x40 MLOAD PUSH4 0x1AFCD79F PUSH1 0xE3 SHL DUP2 MSTORE PUSH1 0x4 ADD PUSH1 0x40 MLOAD DUP1 SWAP2 SUB SWAP1 REVERT JUMPDEST PUSH2 0x1889 PUSH2 0x1838 JUMP JUMPDEST PUSH0 MLOAD PUSH1 0x20 PUSH2 0x25CF PUSH0 CODECOPY PUSH0 MLOAD SWAP1 PUSH0 MSTORE PUSH32 0xA16A46D94261C7517CC8FF89F61C0CE93598E3C849801011DEE649A6A557D102 PUSH2 0x18C2 DUP5 DUP3 PUSH2 0x24C6 JUMP JUMPDEST POP PUSH1 0x3 DUP2 ADD PUSH2 0x18D1 DUP4 DUP3 PUSH2 0x24C6 JUMP JUMPDEST POP PUSH0 DUP1 DUP3 SSTORE PUSH1 0x1 SWAP1 SWAP2 ADD SSTORE POP POP JUMP JUMPDEST PUSH1 0x40 DUP1 MLOAD PUSH1 0x60 DUP1 DUP3 MSTORE PUSH1 0x80 DUP3 ADD SWAP1 SWAP3 MSTORE PUSH0 SWAP2 DUP3 SWAP2 DUP3 SWAP2 DUP3 SWAP2 SWAP1 PUSH1 0x20 DUP3 ADD DUP2 DUP1 CALLDATASIZE DUP4 CALLDATACOPY ADD SWAP1 POP POP SWAP1 POP PUSH1 0x60 PUSH1 0x4D PUSH1 0x20 DUP4 ADD DUP8 EXTCODECOPY DUP1 DUP1 PUSH1 0x20 ADD SWAP1 MLOAD DUP2 ADD SWAP1 PUSH2 0x1926 SWAP2 SWAP1 PUSH2 0x2580 JUMP JUMPDEST SWAP4 POP SWAP4 POP SWAP4 POP POP SWAP2 SWAP4 SWAP1 SWAP3 POP JUMP JUMPDEST PUSH0 PUSH0 PUSH0 DUP4 MLOAD PUSH1 0x41 SUB PUSH2 0x196B JUMPI PUSH1 0x20 DUP5 ADD MLOAD PUSH1 0x40 DUP6 ADD MLOAD PUSH1 0x60 DUP7 ADD MLOAD PUSH0 BYTE PUSH2 0x195D DUP9 DUP3 DUP6 DUP6 PUSH2 0x13E0 JUMP JUMPDEST SWAP6 POP SWAP6 POP SWAP6 POP POP POP POP PUSH2 0x1976 JUMP JUMPDEST POP POP DUP2 MLOAD PUSH0 SWAP2 POP PUSH1 0x2 SWAP1 JUMPDEST SWAP3 POP SWAP3 POP SWAP3 JUMP JUMPDEST DUP1 PUSH1 0x1 PUSH1 0x1 PUSH1 0xA0 SHL SUB AND EXTCODESIZE PUSH0 SUB PUSH2 0x19B2 JUMPI PUSH1 0x40 MLOAD PUSH4 0x4C9C8CE3 PUSH1 0xE0 SHL DUP2 MSTORE PUSH1 0x1 PUSH1 0x1 PUSH1 0xA0 SHL SUB DUP3 AND PUSH1 0x4 DUP3 ADD MSTORE PUSH1 0x24 ADD PUSH2 0x7D7 JUMP JUMPDEST PUSH0 MLOAD PUSH1 0x20 PUSH2 0x25EF PUSH0 CODECOPY PUSH0 MLOAD SWAP1 PUSH0 MSTORE DUP1 SLOAD PUSH1 0x1 PUSH1 0x1 PUSH1 0xA0 SHL SUB NOT AND PUSH1 0x1 PUSH1 0x1 PUSH1 0xA0 SHL SUB SWAP3 SWAP1 SWAP3 AND SWAP2 SWAP1 SWAP2 OR SWAP1 SSTORE JUMP JUMPDEST PUSH1 0x60 PUSH0 PUSH0 DUP5 PUSH1 0x1 PUSH1 0x1 PUSH1 0xA0 SHL SUB AND DUP5 PUSH1 0x40 MLOAD PUSH2 0x19FC SWAP2 SWAP1 PUSH2 0x25B8 JUMP JUMPDEST PUSH0 PUSH1 0x40 MLOAD DUP1 DUP4 SUB DUP2 DUP6 GAS DELEGATECALL SWAP2 POP POP RETURNDATASIZE DUP1 PUSH0 DUP2 EQ PUSH2 0x1A34 JUMPI PUSH1 0x40 MLOAD SWAP2 POP PUSH1 0x1F NOT PUSH1 0x3F RETURNDATASIZE ADD AND DUP3 ADD PUSH1 0x40 MSTORE RETURNDATASIZE DUP3 MSTORE RETURNDATASIZE PUSH0 PUSH1 0x20 DUP5 ADD RETURNDATACOPY PUSH2 0x1A39 JUMP JUMPDEST PUSH1 0x60 SWAP2 POP JUMPDEST POP SWAP2 POP SWAP2 POP PUSH2 0x1A49 DUP6 DUP4 DUP4 PUSH2 0x1A71 JUMP JUMPDEST SWAP6 SWAP5 POP POP POP POP POP JUMP JUMPDEST CALLVALUE ISZERO PUSH2 0xE81 JUMPI PUSH1 0x40 MLOAD PUSH4 0xB398979F PUSH1 0xE0 SHL DUP2 MSTORE PUSH1 0x4 ADD PUSH1 0x40 MLOAD DUP1 SWAP2 SUB SWAP1 REVERT JUMPDEST PUSH1 0x60 DUP3 PUSH2 0x1A86 JUMPI PUSH2 0x1A81 DUP3 PUSH2 0x1ACD JUMP JUMPDEST PUSH2 0x6F9 JUMP JUMPDEST DUP2 MLOAD ISZERO DUP1 ISZERO PUSH2 0x1A9D JUMPI POP PUSH1 0x1 PUSH1 0x1 PUSH1 0xA0 SHL SUB DUP5 AND EXTCODESIZE ISZERO JUMPDEST ISZERO PUSH2 0x1AC6 JUMPI PUSH1 0x40 MLOAD PUSH4 0x9996B315 PUSH1 0xE0 SHL DUP2 MSTORE PUSH1 0x1 PUSH1 0x1 PUSH1 0xA0 SHL SUB DUP6 AND PUSH1 0x4 DUP3 ADD MSTORE PUSH1 0x24 ADD PUSH2 0x7D7 JUMP JUMPDEST POP DUP1 PUSH2 0x6F9 JUMP JUMPDEST DUP1 MLOAD ISZERO PUSH2 0x1ADD JUMPI DUP1 MLOAD DUP1 DUP3 PUSH1 0x20 ADD REVERT JUMPDEST PUSH1 0x40 MLOAD PUSH4 0xD6BDA275 PUSH1 0xE0 SHL DUP2 MSTORE PUSH1 0x4 ADD PUSH1 0x40 MLOAD DUP1 SWAP2 SUB SWAP1 REVERT JUMPDEST PUSH1 0x1 PUSH1 0x1 PUSH1 0xA0 SHL SUB DUP2 AND DUP2 EQ PUSH2 0xF26 JUMPI PUSH0 PUSH0 REVERT JUMPDEST PUSH0 PUSH0 DUP4 PUSH1 0x1F DUP5 ADD SLT PUSH2 0x1B1A JUMPI PUSH0 PUSH0 REVERT JUMPDEST POP DUP2 CALLDATALOAD PUSH1 0x1 PUSH1 0x1 PUSH1 0x40 SHL SUB DUP2 GT ISZERO PUSH2 0x1B30 JUMPI PUSH0 PUSH0 REVERT JUMPDEST PUSH1 0x20 DUP4 ADD SWAP2 POP DUP4 PUSH1 0x20 DUP3 DUP6 ADD ADD GT ISZERO PUSH2 0x1B47 JUMPI PUSH0 PUSH0 REVERT JUMPDEST SWAP3 POP SWAP3 SWAP1 POP JUMP JUMPDEST PUSH0 PUSH0 PUSH0 PUSH0 PUSH0 PUSH0 PUSH0 PUSH0 PUSH1 0xC0 DUP10 DUP12 SUB SLT ISZERO PUSH2 0x1B65 JUMPI PUSH0 PUSH0 REVERT JUMPDEST DUP9 CALLDATALOAD PUSH2 0x1B70 DUP2 PUSH2 0x1AF6 JUMP JUMPDEST SWAP8 POP PUSH1 0x20 DUP10 ADD CALLDATALOAD PUSH2 0x1B80 DUP2 PUSH2 0x1AF6 JUMP JUMPDEST SWAP7 POP PUSH1 0x40 DUP10 ADD CALLDATALOAD PUSH2 0x1B90 DUP2 PUSH2 0x1AF6 JUMP JUMPDEST SWAP6 POP PUSH1 0x60 DUP10 ADD CALLDATALOAD SWAP5 POP PUSH1 0x80 DUP10 ADD CALLDATALOAD PUSH1 0x1 PUSH1 0x1 PUSH1 0x40 SHL SUB DUP2 GT ISZERO PUSH2 0x1BB1 JUMPI PUSH0 PUSH0 REVERT JUMPDEST PUSH2 0x1BBD DUP12 DUP3 DUP13 ADD PUSH2 0x1B0A JUMP JUMPDEST SWAP1 SWAP6 POP SWAP4 POP POP PUSH1 0xA0 DUP10 ADD CALLDATALOAD PUSH1 0x1 PUSH1 0x1 PUSH1 0x40 SHL SUB DUP2 GT ISZERO PUSH2 0x1BDB JUMPI PUSH0 PUSH0 REVERT JUMPDEST PUSH2 0x1BE7 DUP12 DUP3 DUP13 ADD PUSH2 0x1B0A JUMP JUMPDEST SWAP10 SWAP13 SWAP9 SWAP12 POP SWAP7 SWAP10 POP SWAP5 SWAP8 SWAP4 SWAP7 SWAP3 SWAP6 SWAP5 POP POP POP JUMP JUMPDEST PUSH1 0x1 PUSH1 0x1 PUSH1 0xE0 SHL SUB NOT DUP2 AND DUP2 EQ PUSH2 0xF26 JUMPI PUSH0 PUSH0 REVERT JUMPDEST PUSH0 PUSH1 0x20 DUP3 DUP5 SUB SLT ISZERO PUSH2 0x1C20 JUMPI PUSH0 PUSH0 REVERT JUMPDEST DUP2 CALLDATALOAD PUSH2 0x6F9 DUP2 PUSH2 0x1BFB JUMP JUMPDEST PUSH0 PUSH0 PUSH0 PUSH0 PUSH0 PUSH0 PUSH1 0x80 DUP8 DUP10 SUB SLT ISZERO PUSH2 0x1C40 JUMPI PUSH0 PUSH0 REVERT JUMPDEST DUP7 CALLDATALOAD PUSH2 0x1C4B DUP2 PUSH2 0x1AF6 JUMP JUMPDEST SWAP6 POP PUSH1 0x20 DUP8 ADD CALLDATALOAD PUSH1 0x1 PUSH1 0x1 PUSH1 0x40 SHL SUB DUP2 GT ISZERO PUSH2 0x1C65 JUMPI PUSH0 PUSH0 REVERT JUMPDEST PUSH2 0x1C71 DUP10 DUP3 DUP11 ADD PUSH2 0x1B0A JUMP JUMPDEST SWAP1 SWAP7 POP SWAP5 POP POP PUSH1 0x40 DUP8 ADD CALLDATALOAD PUSH1 0x1 PUSH1 0x1 PUSH1 0x40 SHL SUB DUP2 GT ISZERO PUSH2 0x1C8F JUMPI PUSH0 PUSH0 REVERT JUMPDEST PUSH2 0x1C9B DUP10 DUP3 DUP11 ADD PUSH2 0x1B0A JUMP JUMPDEST SWAP1 SWAP5 POP SWAP3 POP POP PUSH1 0x60 DUP8 ADD CALLDATALOAD PUSH2 0x1CAF DUP2 PUSH2 0x1AF6 JUMP JUMPDEST DUP1 SWAP2 POP POP SWAP3 SWAP6 POP SWAP3 SWAP6 POP SWAP3 SWAP6 JUMP JUMPDEST PUSH0 PUSH0 PUSH0 PUSH0 PUSH0 PUSH1 0x80 DUP7 DUP9 SUB SLT ISZERO PUSH2 0x1CD1 JUMPI PUSH0 PUSH0 REVERT JUMPDEST DUP6 CALLDATALOAD PUSH2 0x1CDC DUP2 PUSH2 0x1AF6 JUMP JUMPDEST SWAP5 POP PUSH1 0x20 DUP7 ADD CALLDATALOAD PUSH2 0x1CEC DUP2 PUSH2 0x1AF6 JUMP JUMPDEST SWAP4 POP PUSH1 0x40 DUP7 ADD CALLDATALOAD SWAP3 POP PUSH1 0x60 DUP7 ADD CALLDATALOAD PUSH1 0x1 PUSH1 0x1 PUSH1 0x40 SHL SUB DUP2 GT ISZERO PUSH2 0x1D0D JUMPI PUSH0 PUSH0 REVERT JUMPDEST PUSH2 0x1D19 DUP9 DUP3 DUP10 ADD PUSH2 0x1B0A JUMP JUMPDEST SWAP7 SWAP10 SWAP6 SWAP9 POP SWAP4 SWAP7 POP SWAP3 SWAP5 SWAP4 SWAP3 POP POP POP JUMP JUMPDEST PUSH4 0x4E487B71 PUSH1 0xE0 SHL PUSH0 MSTORE PUSH1 0x41 PUSH1 0x4 MSTORE PUSH1 0x24 PUSH0 REVERT JUMPDEST PUSH0 DUP3 PUSH1 0x1F DUP4 ADD SLT PUSH2 0x1D4D JUMPI PUSH0 PUSH0 REVERT JUMPDEST DUP2 CALLDATALOAD PUSH1 0x1 PUSH1 0x1 PUSH1 0x40 SHL SUB DUP2 GT ISZERO PUSH2 0x1D66 JUMPI PUSH2 0x1D66 PUSH2 0x1D2A JUMP JUMPDEST PUSH1 0x40 MLOAD PUSH1 0x1F DUP3 ADD PUSH1 0x1F NOT SWAP1 DUP2 AND PUSH1 0x3F ADD AND DUP2 ADD PUSH1 0x1 PUSH1 0x1 PUSH1 0x40 SHL SUB DUP2 GT DUP3 DUP3 LT OR ISZERO PUSH2 0x1D94 JUMPI PUSH2 0x1D94 PUSH2 0x1D2A JUMP JUMPDEST PUSH1 0x40 MSTORE DUP2 DUP2 MSTORE DUP4 DUP3 ADD PUSH1 0x20 ADD DUP6 LT ISZERO PUSH2 0x1DAB JUMPI PUSH0 PUSH0 REVERT JUMPDEST DUP2 PUSH1 0x20 DUP6 ADD PUSH1 0x20 DUP4 ADD CALLDATACOPY PUSH0 SWAP2 DUP2 ADD PUSH1 0x20 ADD SWAP2 SWAP1 SWAP2 MSTORE SWAP4 SWAP3 POP POP POP JUMP JUMPDEST PUSH0 PUSH0 PUSH1 0x40 DUP4 DUP6 SUB SLT ISZERO PUSH2 0x1DD8 JUMPI PUSH0 PUSH0 REVERT JUMPDEST DUP3 CALLDATALOAD SWAP2 POP PUSH1 0x20 DUP4 ADD CALLDATALOAD PUSH1 0x1 PUSH1 0x1 PUSH1 0x40 SHL SUB DUP2 GT ISZERO PUSH2 0x1DF4 JUMPI PUSH0 PUSH0 REVERT JUMPDEST PUSH2 0x1E00 DUP6 DUP3 DUP7 ADD PUSH2 0x1D3E JUMP JUMPDEST SWAP2 POP POP SWAP3 POP SWAP3 SWAP1 POP JUMP JUMPDEST PUSH0 PUSH0 PUSH0 PUSH1 0x60 DUP5 DUP7 SUB SLT ISZERO PUSH2 0x1E1C JUMPI PUSH0 PUSH0 REVERT JUMPDEST DUP4 CALLDATALOAD PUSH1 0x1 PUSH1 0x1 PUSH1 0x40 SHL SUB DUP2 GT ISZERO PUSH2 0x1E31 JUMPI PUSH0 PUSH0 REVERT JUMPDEST DUP5 ADD PUSH2 0x120 DUP2 DUP8 SUB SLT ISZERO PUSH2 0x1E43 JUMPI PUSH0 PUSH0 REVERT JUMPDEST SWAP6 PUSH1 0x20 DUP6 ADD CALLDATALOAD SWAP6 POP PUSH1 0x40 SWAP1 SWAP5 ADD CALLDATALOAD SWAP4 SWAP3 POP POP POP JUMP JUMPDEST PUSH0 PUSH0 DUP4 PUSH1 0x1F DUP5 ADD SLT PUSH2 0x1E68 JUMPI PUSH0 PUSH0 REVERT JUMPDEST POP DUP2 CALLDATALOAD PUSH1 0x1 PUSH1 0x1 PUSH1 0x40 SHL SUB DUP2 GT ISZERO PUSH2 0x1E7E JUMPI PUSH0 PUSH0 REVERT JUMPDEST PUSH1 0x20 DUP4 ADD SWAP2 POP DUP4 PUSH1 0x20 DUP3 PUSH1 0x5 SHL DUP6 ADD ADD GT ISZERO PUSH2 0x1B47 JUMPI PUSH0 PUSH0 REVERT JUMPDEST PUSH0 PUSH0 PUSH1 0x20 DUP4 DUP6 SUB SLT ISZERO PUSH2 0x1EA9 JUMPI PUSH0 PUSH0 REVERT JUMPDEST DUP3 CALLDATALOAD PUSH1 0x1 PUSH1 0x1 PUSH1 0x40 SHL SUB DUP2 GT ISZERO PUSH2 0x1EBE JUMPI PUSH0 PUSH0 REVERT JUMPDEST PUSH2 0x1ECA DUP6 DUP3 DUP7 ADD PUSH2 0x1E58 JUMP JUMPDEST SWAP1 SWAP7 SWAP1 SWAP6 POP SWAP4 POP POP POP POP JUMP JUMPDEST PUSH0 PUSH0 PUSH1 0x40 DUP4 DUP6 SUB SLT ISZERO PUSH2 0x1EE7 JUMPI PUSH0 PUSH0 REVERT JUMPDEST DUP3 CALLDATALOAD PUSH2 0x1EF2 DUP2 PUSH2 0x1AF6 JUMP JUMPDEST SWAP2 POP PUSH1 0x20 DUP4 ADD CALLDATALOAD PUSH1 0x1 PUSH1 0x1 PUSH1 0x40 SHL SUB DUP2 GT ISZERO PUSH2 0x1DF4 JUMPI PUSH0 PUSH0 REVERT JUMPDEST DUP1 CALLDATALOAD PUSH1 0xFF DUP2 AND DUP2 EQ PUSH2 0x1F1C JUMPI PUSH0 PUSH0 REVERT JUMPDEST SWAP2 SWAP1 POP JUMP JUMPDEST PUSH0 PUSH0 PUSH0 PUSH0 PUSH0 PUSH1 0x80 DUP7 DUP9 SUB SLT ISZERO PUSH2 0x1F35 JUMPI PUSH0 PUSH0 REVERT JUMPDEST DUP6 CALLDATALOAD PUSH2 0x1F40 DUP2 PUSH2 0x1AF6 JUMP JUMPDEST SWAP5 POP PUSH1 0x20 DUP7 ADD CALLDATALOAD SWAP4 POP PUSH1 0x40 DUP7 ADD CALLDATALOAD PUSH1 0x1 PUSH1 0x1 PUSH1 0x40 SHL SUB DUP2 GT ISZERO PUSH2 0x1F61 JUMPI PUSH0 PUSH0 REVERT JUMPDEST PUSH2 0x1F6D DUP9 DUP3 DUP10 ADD PUSH2 0x1B0A JUMP JUMPDEST SWAP1 SWAP5 POP SWAP3 POP PUSH2 0x1F80 SWAP1 POP PUSH1 0x60 DUP8 ADD PUSH2 0x1F0C JUMP JUMPDEST SWAP1 POP SWAP3 SWAP6 POP SWAP3 SWAP6 SWAP1 SWAP4 POP JUMP JUMPDEST PUSH0 DUP2 MLOAD DUP1 DUP5 MSTORE DUP1 PUSH1 0x20 DUP5 ADD PUSH1 0x20 DUP7 ADD MCOPY PUSH0 PUSH1 0x20 DUP3 DUP7 ADD ADD MSTORE PUSH1 0x20 PUSH1 0x1F NOT PUSH1 0x1F DUP4 ADD AND DUP6 ADD ADD SWAP2 POP POP SWAP3 SWAP2 POP POP JUMP JUMPDEST PUSH1 0x20 DUP2 MSTORE PUSH0 PUSH2 0x6F9 PUSH1 0x20 DUP4 ADD DUP5 PUSH2 0x1F8C JUMP JUMPDEST PUSH0 PUSH0 PUSH0 PUSH1 0x40 DUP5 DUP7 SUB SLT ISZERO PUSH2 0x1FDE JUMPI PUSH0 PUSH0 REVERT JUMPDEST DUP4 CALLDATALOAD PUSH2 0x1FE9 DUP2 PUSH2 0x1AF6 JUMP JUMPDEST SWAP3 POP PUSH1 0x20 DUP5 ADD CALLDATALOAD PUSH1 0x1 PUSH1 0x1 PUSH1 0x40 SHL SUB DUP2 GT ISZERO PUSH2 0x2003 JUMPI PUSH0 PUSH0 REVERT JUMPDEST PUSH2 0x200F DUP7 DUP3 DUP8 ADD PUSH2 0x1B0A JUMP JUMPDEST SWAP5 SWAP8 SWAP1 SWAP7 POP SWAP4 SWAP5 POP POP POP POP JUMP JUMPDEST PUSH0 PUSH1 0x20 DUP3 DUP5 SUB SLT ISZERO PUSH2 0x202C JUMPI PUSH0 PUSH0 REVERT JUMPDEST DUP2 CALLDATALOAD PUSH2 0x6F9 DUP2 PUSH2 0x1AF6 JUMP JUMPDEST PUSH1 0xFF PUSH1 0xF8 SHL DUP9 AND DUP2 MSTORE PUSH1 0xE0 PUSH1 0x20 DUP3 ADD MSTORE PUSH0 PUSH2 0x2055 PUSH1 0xE0 DUP4 ADD DUP10 PUSH2 0x1F8C JUMP JUMPDEST DUP3 DUP2 SUB PUSH1 0x40 DUP5 ADD MSTORE PUSH2 0x2067 DUP2 DUP10 PUSH2 0x1F8C JUMP JUMPDEST PUSH1 0x60 DUP5 ADD DUP9 SWAP1 MSTORE PUSH1 0x1 PUSH1 0x1 PUSH1 0xA0 SHL SUB DUP8 AND PUSH1 0x80 DUP6 ADD MSTORE PUSH1 0xA0 DUP5 ADD DUP7 SWAP1 MSTORE DUP4 DUP2 SUB PUSH1 0xC0 DUP6 ADD MSTORE DUP5 MLOAD DUP1 DUP3 MSTORE PUSH1 0x20 DUP1 DUP8 ADD SWAP4 POP SWAP1 SWAP2 ADD SWAP1 PUSH0 JUMPDEST DUP2 DUP2 LT ISZERO PUSH2 0x20BC JUMPI DUP4 MLOAD DUP4 MSTORE PUSH1 0x20 SWAP4 DUP5 ADD SWAP4 SWAP1 SWAP3 ADD SWAP2 PUSH1 0x1 ADD PUSH2 0x209E JUMP JUMPDEST POP SWAP1 SWAP12 SWAP11 POP POP POP POP POP POP POP POP POP POP POP JUMP JUMPDEST PUSH0 PUSH0 PUSH0 PUSH0 PUSH1 0x60 DUP6 DUP8 SUB SLT ISZERO PUSH2 0x20E0 JUMPI PUSH0 PUSH0 REVERT JUMPDEST DUP5 CALLDATALOAD PUSH2 0x20EB DUP2 PUSH2 0x1AF6 JUMP JUMPDEST SWAP4 POP PUSH1 0x20 DUP6 ADD CALLDATALOAD SWAP3 POP PUSH1 0x40 DUP6 ADD CALLDATALOAD PUSH1 0x1 PUSH1 0x1 PUSH1 0x40 SHL SUB DUP2 GT ISZERO PUSH2 0x210C JUMPI PUSH0 PUSH0 REVERT JUMPDEST PUSH2 0x2118 DUP8 DUP3 DUP9 ADD PUSH2 0x1B0A JUMP JUMPDEST SWAP6 SWAP9 SWAP5 SWAP8 POP SWAP6 POP POP POP POP JUMP JUMPDEST PUSH0 PUSH0 PUSH0 PUSH0 PUSH0 PUSH0 PUSH0 PUSH0 PUSH1 0xA0 DUP10 DUP12 SUB SLT ISZERO PUSH2 0x213B JUMPI PUSH0 PUSH0 REVERT JUMPDEST DUP9 CALLDATALOAD PUSH2 0x2146 DUP2 PUSH2 0x1AF6 JUMP JUMPDEST SWAP8 POP PUSH1 0x20 DUP10 ADD CALLDATALOAD PUSH2 0x2156 DUP2 PUSH2 0x1AF6 JUMP JUMPDEST SWAP7 POP PUSH1 0x40 DUP10 ADD CALLDATALOAD PUSH1 0x1 PUSH1 0x1 PUSH1 0x40 SHL SUB DUP2 GT ISZERO PUSH2 0x2170 JUMPI PUSH0 PUSH0 REVERT JUMPDEST PUSH2 0x217C DUP12 DUP3 DUP13 ADD PUSH2 0x1E58 JUMP JUMPDEST SWAP1 SWAP8 POP SWAP6 POP POP PUSH1 0x60 DUP10 ADD CALLDATALOAD PUSH1 0x1 PUSH1 0x1 PUSH1 0x40 SHL SUB DUP2 GT ISZERO PUSH2 0x219A JUMPI PUSH0 PUSH0 REVERT JUMPDEST PUSH2 0x21A6 DUP12 DUP3 DUP13 ADD PUSH2 0x1E58 JUMP JUMPDEST SWAP1 SWAP6 POP SWAP4 POP POP PUSH1 0x80 DUP10 ADD CALLDATALOAD PUSH1 0x1 PUSH1 0x1 PUSH1 0x40 SHL SUB DUP2 GT ISZERO PUSH2 0x1BDB JUMPI PUSH0 PUSH0 REVERT JUMPDEST PUSH0 PUSH0 PUSH0 PUSH0 PUSH0 PUSH0 PUSH1 0xA0 DUP8 DUP10 SUB SLT ISZERO PUSH2 0x21D9 JUMPI PUSH0 PUSH0 REVERT JUMPDEST DUP7 CALLDATALOAD PUSH2 0x21E4 DUP2 PUSH2 0x1AF6 JUMP JUMPDEST SWAP6 POP PUSH1 0x20 DUP8 ADD CALLDATALOAD SWAP5 POP PUSH1 0x40 DUP8 ADD CALLDATALOAD PUSH1 0x1 PUSH1 0x1 PUSH1 0x40 SHL SUB DUP2 GT ISZERO PUSH2 0x2205 JUMPI PUSH0 PUSH0 REVERT JUMPDEST PUSH2 0x2211 DUP10 DUP3 DUP11 ADD PUSH2 0x1B0A JUMP JUMPDEST SWAP1 SWAP6 POP SWAP4 POP PUSH2 0x2224 SWAP1 POP PUSH1 0x60 DUP9 ADD PUSH2 0x1F0C JUMP JUMPDEST SWAP6 SWAP9 SWAP5 SWAP8 POP SWAP3 SWAP6 SWAP2 SWAP5 SWAP4 PUSH1 0x80 SWAP1 SWAP3 ADD CALLDATALOAD SWAP3 POP POP JUMP JUMPDEST PUSH0 PUSH0 PUSH0 PUSH0 PUSH0 PUSH0 PUSH1 0xA0 DUP8 DUP10 SUB SLT ISZERO PUSH2 0x224E JUMPI PUSH0 PUSH0 REVERT JUMPDEST DUP7 CALLDATALOAD PUSH2 0x2259 DUP2 PUSH2 0x1AF6 JUMP JUMPDEST SWAP6 POP PUSH1 0x20 DUP8 ADD CALLDATALOAD PUSH2 0x2269 DUP2 PUSH2 0x1AF6 JUMP JUMPDEST SWAP5 POP PUSH1 0x40 DUP8 ADD CALLDATALOAD SWAP4 POP PUSH1 0x60 DUP8 ADD CALLDATALOAD SWAP3 POP PUSH1 0x80 DUP8 ADD CALLDATALOAD PUSH1 0x1 PUSH1 0x1 PUSH1 0x40 SHL SUB DUP2 GT ISZERO PUSH2 0x2291 JUMPI PUSH0 PUSH0 REVERT JUMPDEST PUSH2 0x229D DUP10 DUP3 DUP11 ADD PUSH2 0x1B0A JUMP JUMPDEST SWAP8 SWAP11 SWAP7 SWAP10 POP SWAP5 SWAP8 POP SWAP3 SWAP6 SWAP4 SWAP5 SWAP3 POP POP POP JUMP JUMPDEST DUP3 DUP2 MSTORE PUSH1 0x40 PUSH1 0x20 DUP3 ADD MSTORE PUSH0 PUSH2 0x858 PUSH1 0x40 DUP4 ADD DUP5 PUSH2 0x1F8C JUMP JUMPDEST PUSH0 PUSH1 0x20 DUP3 DUP5 SUB SLT ISZERO PUSH2 0x22D7 JUMPI PUSH0 PUSH0 REVERT JUMPDEST DUP2 MLOAD PUSH2 0x6F9 DUP2 PUSH2 0x1BFB JUMP JUMPDEST PUSH4 0x4E487B71 PUSH1 0xE0 SHL PUSH0 MSTORE PUSH1 0x32 PUSH1 0x4 MSTORE PUSH1 0x24 PUSH0 REVERT JUMPDEST PUSH0 DUP3 CALLDATALOAD PUSH1 0x5E NOT DUP4 CALLDATASIZE SUB ADD DUP2 SLT PUSH2 0x230A JUMPI PUSH0 PUSH0 REVERT JUMPDEST SWAP2 SWAP1 SWAP2 ADD SWAP3 SWAP2 POP POP JUMP JUMPDEST PUSH0 PUSH0 DUP4 CALLDATALOAD PUSH1 0x1E NOT DUP5 CALLDATASIZE SUB ADD DUP2 SLT PUSH2 0x2329 JUMPI PUSH0 PUSH0 REVERT JUMPDEST DUP4 ADD DUP1 CALLDATALOAD SWAP2 POP PUSH1 0x1 PUSH1 0x1 PUSH1 0x40 SHL SUB DUP3 GT ISZERO PUSH2 0x2342 JUMPI PUSH0 PUSH0 REVERT JUMPDEST PUSH1 0x20 ADD SWAP2 POP CALLDATASIZE DUP2 SWAP1 SUB DUP3 SGT ISZERO PUSH2 0x1B47 JUMPI PUSH0 PUSH0 REVERT JUMPDEST PUSH0 PUSH1 0x20 DUP3 DUP5 SUB SLT ISZERO PUSH2 0x2366 JUMPI PUSH0 PUSH0 REVERT JUMPDEST DUP2 MLOAD PUSH2 0x6F9 DUP2 PUSH2 0x1AF6 JUMP JUMPDEST PUSH0 PUSH1 0x20 DUP3 DUP5 SUB SLT ISZERO PUSH2 0x2381 JUMPI PUSH0 PUSH0 REVERT JUMPDEST POP MLOAD SWAP2 SWAP1 POP JUMP JUMPDEST DUP2 DUP4 MSTORE DUP2 DUP2 PUSH1 0x20 DUP6 ADD CALLDATACOPY POP PUSH0 DUP3 DUP3 ADD PUSH1 0x20 SWAP1 DUP2 ADD SWAP2 SWAP1 SWAP2 MSTORE PUSH1 0x1F SWAP1 SWAP2 ADD PUSH1 0x1F NOT AND SWAP1 SWAP2 ADD ADD SWAP1 JUMP JUMPDEST PUSH1 0x1 PUSH1 0x1 PUSH1 0xA0 SHL SUB DUP8 AND DUP2 MSTORE PUSH1 0x80 PUSH1 0x20 DUP3 ADD DUP2 SWAP1 MSTORE PUSH0 SWAP1 PUSH2 0x23D4 SWAP1 DUP4 ADD DUP8 DUP10 PUSH2 0x2388 JUMP JUMPDEST DUP3 DUP2 SUB PUSH1 0x40 DUP5 ADD MSTORE PUSH2 0x23E7 DUP2 DUP7 DUP9 PUSH2 0x2388 JUMP JUMPDEST SWAP2 POP POP PUSH1 0x1 DUP1 PUSH1 0xA0 SHL SUB DUP4 AND PUSH1 0x60 DUP4 ADD MSTORE SWAP8 SWAP7 POP POP POP POP POP POP POP JUMP JUMPDEST PUSH0 PUSH1 0x1 DUP3 ADD PUSH2 0x2420 JUMPI PUSH4 0x4E487B71 PUSH1 0xE0 SHL PUSH0 MSTORE PUSH1 0x11 PUSH1 0x4 MSTORE PUSH1 0x24 PUSH0 REVERT JUMPDEST POP PUSH1 0x1 ADD SWAP1 JUMP JUMPDEST PUSH1 0x1 DUP2 DUP2 SHR SWAP1 DUP3 AND DUP1 PUSH2 0x243B JUMPI PUSH1 0x7F DUP3 AND SWAP2 POP JUMPDEST PUSH1 0x20 DUP3 LT DUP2 SUB PUSH2 0x2459 JUMPI PUSH4 0x4E487B71 PUSH1 0xE0 SHL PUSH0 MSTORE PUSH1 0x22 PUSH1 0x4 MSTORE PUSH1 0x24 PUSH0 REVERT JUMPDEST POP SWAP2 SWAP1 POP JUMP JUMPDEST PUSH4 0x4E487B71 PUSH1 0xE0 SHL PUSH0 MSTORE PUSH1 0x21 PUSH1 0x4 MSTORE PUSH1 0x24 PUSH0 REVERT JUMPDEST DUP2 DUP4 DUP3 CALLDATACOPY PUSH0 SWAP2 ADD SWAP1 DUP2 MSTORE SWAP2 SWAP1 POP JUMP JUMPDEST PUSH1 0x1F DUP3 GT ISZERO PUSH2 0x1176 JUMPI DUP1 PUSH0 MSTORE PUSH1 0x20 PUSH0 KECCAK256 PUSH1 0x1F DUP5 ADD PUSH1 0x5 SHR DUP2 ADD PUSH1 0x20 DUP6 LT ISZERO PUSH2 0x24A7 JUMPI POP DUP1 JUMPDEST PUSH1 0x1F DUP5 ADD PUSH1 0x5 SHR DUP3 ADD SWAP2 POP JUMPDEST DUP2 DUP2 LT ISZERO PUSH2 0xA69 JUMPI PUSH0 DUP2 SSTORE PUSH1 0x1 ADD PUSH2 0x24B3 JUMP JUMPDEST DUP2 MLOAD PUSH1 0x1 PUSH1 0x1 PUSH1 0x40 SHL SUB DUP2 GT ISZERO PUSH2 0x24DF JUMPI PUSH2 0x24DF PUSH2 0x1D2A JUMP JUMPDEST PUSH2 0x24F3 DUP2 PUSH2 0x24ED DUP5 SLOAD PUSH2 0x2427 JUMP JUMPDEST DUP5 PUSH2 0x2482 JUMP JUMPDEST PUSH1 0x20 PUSH1 0x1F DUP3 GT PUSH1 0x1 DUP2 EQ PUSH2 0x2525 JUMPI PUSH0 DUP4 ISZERO PUSH2 0x250E JUMPI POP DUP5 DUP3 ADD MLOAD JUMPDEST PUSH0 NOT PUSH1 0x3 DUP6 SWAP1 SHL SHR NOT AND PUSH1 0x1 DUP5 SWAP1 SHL OR DUP5 SSTORE PUSH2 0xA69 JUMP JUMPDEST PUSH0 DUP5 DUP2 MSTORE PUSH1 0x20 DUP2 KECCAK256 PUSH1 0x1F NOT DUP6 AND SWAP2 JUMPDEST DUP3 DUP2 LT ISZERO PUSH2 0x2554 JUMPI DUP8 DUP6 ADD MLOAD DUP3 SSTORE PUSH1 0x20 SWAP5 DUP6 ADD SWAP5 PUSH1 0x1 SWAP1 SWAP3 ADD SWAP2 ADD PUSH2 0x2534 JUMP JUMPDEST POP DUP5 DUP3 LT ISZERO PUSH2 0x2571 JUMPI DUP7 DUP5 ADD MLOAD PUSH0 NOT PUSH1 0x3 DUP8 SWAP1 SHL PUSH1 0xF8 AND SHR NOT AND DUP2 SSTORE JUMPDEST POP POP POP POP PUSH1 0x1 SWAP1 DUP2 SHL ADD SWAP1 SSTORE POP JUMP JUMPDEST PUSH0 PUSH0 PUSH0 PUSH1 0x60 DUP5 DUP7 SUB SLT ISZERO PUSH2 0x2592 JUMPI PUSH0 PUSH0 REVERT JUMPDEST DUP4 MLOAD PUSH1 0x20 DUP6 ADD MLOAD SWAP1 SWAP4 POP PUSH2 0x25A5 DUP2 PUSH2 0x1AF6 JUMP JUMPDEST PUSH1 0x40 SWAP5 SWAP1 SWAP5 ADD MLOAD SWAP3 SWAP6 SWAP4 SWAP5 POP SWAP2 SWAP3 SWAP2 POP POP JUMP JUMPDEST PUSH0 DUP3 MLOAD DUP1 PUSH1 0x20 DUP6 ADD DUP5 MCOPY PUSH0 SWAP3 ADD SWAP2 DUP3 MSTORE POP SWAP2 SWAP1 POP JUMP INVALID LOG1 PUSH11 0x46D94261C7517CC8FF89F6 SHR 0xC 0xE9 CALLDATALOAD SWAP9 0xE3 0xC8 BLOBHASH DUP1 LT GT 0xDE 0xE6 BLOBHASH 0xA6 0xA5 JUMPI 0xD1 STOP CALLDATASIZE ADDMOD SWAP5 LOG1 EXTCODESIZE LOG1 LOG3 0x21 MOD PUSH8 0xC828492DB98DCA3E KECCAK256 PUSH23 0xCC3735A920A3CA505D382BBCA26469706673582212202D SWAP2 SWAP6 ISZERO CALLDATACOPY SWAP7 0xA6 BYTE BALANCE JUMPI MCOPY SWAP9 0xD6 CHAINID 0xD PUSH14 0x9B6075E2CC83D0732C7382B9A0DE SMOD SWAP15 PUSH5 0x736F6C6343 STOP ADDMOD SHR STOP CALLER ",
  "sha1": "bc4c54fad80a0accdfe0651f39aeb188fcb67257",
  "source": "// SPDX-License-Identifier: Apache-2.0\npragma solidity ^0.8.27;\n\nimport {HyperAccountMinterUpgradable} from \"./HyperAccountMinterUpgradable.sol\";\n\ncontract HyperAccountMinter is HyperAccountMinterUpgradable {\n    constructor(address _hypermap) HyperAccountMinterUpgradable(_hypermap) {}\n\n    function initialize() public initializer {\n        __UUPSUpgradeable_init();\n        __EIP712_init(\"HyperAccountMinter\", \"1\");\n    }\n}\n",
  "sourcePath": "src/account/HyperAccountMinter.sol",
  "type": "contract"
}