{"abi":[{"type":"constructor","inputs":[],"stateMutability":"nonpayable"},{"type":"function","name":"DEFAULT_ADMIN_ROLE","inputs":[],"outputs":[{"name":"","type":"bytes32","internalType":"bytes32"}],"stateMutability":"view"},{"type":"function","name":"ERC6551_REGISTRY","inputs":[],"outputs":[{"name":"","type":"address","internalType":"contract IERC6551Registry"}],"stateMutability":"view"},{"type":"function","name":"METADATA_NOTE_KEY","inputs":[],"outputs":[{"name":"","type":"bytes","internalType":"bytes"}],"stateMutability":"view"},{"type":"function","name":"UPGRADE_INTERFACE_VERSION","inputs":[],"outputs":[{"name":"","type":"string","internalType":"string"}],"stateMutability":"view"},{"type":"function","name":"approve","inputs":[{"name":"to","type":"address","internalType":"address"},{"name":"tokenId","type":"uint256","internalType":"uint256"}],"outputs":[],"stateMutability":"nonpayable"},{"type":"function","name":"balanceOf","inputs":[{"name":"owner","type":"address","internalType":"address"}],"outputs":[{"name":"","type":"uint256","internalType":"uint256"}],"stateMutability":"view"},{"type":"function","name":"fact","inputs":[{"name":"_fact","type":"bytes","internalType":"bytes"},{"name":"_data","type":"bytes","internalType":"bytes"}],"outputs":[{"name":"","type":"bytes32","internalType":"bytes32"}],"stateMutability":"nonpayable"},{"type":"function","name":"gene","inputs":[{"name":"_gene","type":"address","internalType":"address"}],"outputs":[],"stateMutability":"nonpayable"},{"type":"function","name":"get","inputs":[{"name":"namehash","type":"bytes32","internalType":"bytes32"}],"outputs":[{"name":"","type":"address","internalType":"address"},{"name":"","type":"address","internalType":"address"},{"name":"","type":"bytes","internalType":"bytes"}],"stateMutability":"view"},{"type":"function","name":"getApproved","inputs":[{"name":"tokenId","type":"uint256","internalType":"uint256"}],"outputs":[{"name":"","type":"address","internalType":"address"}],"stateMutability":"view"},{"type":"function","name":"getRoleAdmin","inputs":[{"name":"role","type":"bytes32","internalType":"bytes32"}],"outputs":[{"name":"","type":"bytes32","internalType":"bytes32"}],"stateMutability":"view"},{"type":"function","name":"grantRole","inputs":[{"name":"role","type":"bytes32","internalType":"bytes32"},{"name":"account","type":"address","internalType":"address"}],"outputs":[],"stateMutability":"nonpayable"},{"type":"function","name":"hasRole","inputs":[{"name":"role","type":"bytes32","internalType":"bytes32"},{"name":"account","type":"address","internalType":"address"}],"outputs":[{"name":"","type":"bool","internalType":"bool"}],"stateMutability":"view"},{"type":"function","name":"initialize","inputs":[{"name":"_admin","type":"address","internalType":"address"}],"outputs":[],"stateMutability":"nonpayable"},{"type":"function","name":"isApprovedForAll","inputs":[{"name":"owner","type":"address","internalType":"address"},{"name":"operator","type":"address","internalType":"address"}],"outputs":[{"name":"","type":"bool","internalType":"bool"}],"stateMutability":"view"},{"type":"function","name":"leaf","inputs":[{"name":"parenthash","type":"bytes32","internalType":"bytes32"},{"name":"label","type":"bytes","internalType":"bytes"}],"outputs":[{"name":"namehash","type":"bytes32","internalType":"bytes32"}],"stateMutability":"pure"},{"type":"function","name":"leafl","inputs":[{"name":"parenthash","type":"bytes32","internalType":"bytes32"},{"name":"label","type":"bytes","internalType":"bytes"}],"outputs":[{"name":"namehash","type":"bytes32","internalType":"bytes32"},{"name":"labelhash","type":"bytes32","internalType":"bytes32"}],"stateMutability":"pure"},{"type":"function","name":"map","inputs":[{"name":"","type":"bytes32","internalType":"bytes32"}],"outputs":[{"name":"tba","type":"address","internalType":"address"},{"name":"gene","type":"address","internalType":"address"},{"name":"data","type":"bytes","internalType":"bytes"}],"stateMutability":"view"},{"type":"function","name":"mint","inputs":[{"name":"to","type":"address","internalType":"address"},{"name":"label","type":"bytes","internalType":"bytes"},{"name":"initialization","type":"bytes","internalType":"bytes"},{"name":"implementation","type":"address","internalType":"address"}],"outputs":[{"name":"tba","type":"address","internalType":"address"}],"stateMutability":"nonpayable"},{"type":"function","name":"name","inputs":[],"outputs":[{"name":"","type":"string","internalType":"string"}],"stateMutability":"view"},{"type":"function","name":"note","inputs":[{"name":"_note","type":"bytes","internalType":"bytes"},{"name":"_data","type":"bytes","internalType":"bytes"}],"outputs":[{"name":"","type":"bytes32","internalType":"bytes32"}],"stateMutability":"nonpayable"},{"type":"function","name":"onERC721Received","inputs":[{"name":"","type":"address","internalType":"address"},{"name":"","type":"address","internalType":"address"},{"name":"","type":"uint256","internalType":"uint256"},{"name":"","type":"bytes","internalType":"bytes"}],"outputs":[{"name":"","type":"bytes4","internalType":"bytes4"}],"stateMutability":"nonpayable"},{"type":"function","name":"ownerOf","inputs":[{"name":"tokenId","type":"uint256","internalType":"uint256"}],"outputs":[{"name":"","type":"address","internalType":"address"}],"stateMutability":"view"},{"type":"function","name":"proxiableUUID","inputs":[],"outputs":[{"name":"","type":"bytes32","internalType":"bytes32"}],"stateMutability":"view"},{"type":"function","name":"renounceRole","inputs":[{"name":"role","type":"bytes32","internalType":"bytes32"},{"name":"callerConfirmation","type":"address","internalType":"address"}],"outputs":[],"stateMutability":"nonpayable"},{"type":"function","name":"revokeRole","inputs":[{"name":"role","type":"bytes32","internalType":"bytes32"},{"name":"account","type":"address","internalType":"address"}],"outputs":[],"stateMutability":"nonpayable"},{"type":"function","name":"safeTransferFrom","inputs":[{"name":"from","type":"address","internalType":"address"},{"name":"to","type":"address","internalType":"address"},{"name":"tokenId","type":"uint256","internalType":"uint256"}],"outputs":[],"stateMutability":"nonpayable"},{"type":"function","name":"safeTransferFrom","inputs":[{"name":"from","type":"address","internalType":"address"},{"name":"to","type":"address","internalType":"address"},{"name":"tokenId","type":"uint256","internalType":"uint256"},{"name":"data","type":"bytes","internalType":"bytes"}],"outputs":[],"stateMutability":"nonpayable"},{"type":"function","name":"setApprovalForAll","inputs":[{"name":"operator","type":"address","internalType":"address"},{"name":"approved","type":"bool","internalType":"bool"}],"outputs":[],"stateMutability":"nonpayable"},{"type":"function","name":"supportsInterface","inputs":[{"name":"interfaceId","type":"bytes4","internalType":"bytes4"}],"outputs":[{"name":"","type":"bool","internalType":"bool"}],"stateMutability":"view"},{"type":"function","name":"symbol","inputs":[],"outputs":[{"name":"","type":"string","internalType":"string"}],"stateMutability":"view"},{"type":"function","name":"tbaOf","inputs":[{"name":"entry","type":"bytes32","internalType":"bytes32"}],"outputs":[{"name":"tba","type":"address","internalType":"address"}],"stateMutability":"view"},{"type":"function","name":"tokenURI","inputs":[{"name":"tokenId","type":"uint256","internalType":"uint256"}],"outputs":[{"name":"","type":"string","internalType":"string"}],"stateMutability":"view"},{"type":"function","name":"transferFrom","inputs":[{"name":"from","type":"address","internalType":"address"},{"name":"to","type":"address","internalType":"address"},{"name":"tokenId","type":"uint256","internalType":"uint256"}],"outputs":[],"stateMutability":"nonpayable"},{"type":"function","name":"upgradeToAndCall","inputs":[{"name":"newImplementation","type":"address","internalType":"address"},{"name":"data","type":"bytes","internalType":"bytes"}],"outputs":[],"stateMutability":"payable"},{"type":"event","name":"Approval","inputs":[{"name":"owner","type":"address","indexed":true,"internalType":"address"},{"name":"approved","type":"address","indexed":true,"internalType":"address"},{"name":"tokenId","type":"uint256","indexed":true,"internalType":"uint256"}],"anonymous":false},{"type":"event","name":"ApprovalForAll","inputs":[{"name":"owner","type":"address","indexed":true,"internalType":"address"},{"name":"operator","type":"address","indexed":true,"internalType":"address"},{"name":"approved","type":"bool","indexed":false,"internalType":"bool"}],"anonymous":false},{"type":"event","name":"Fact","inputs":[{"name":"parenthash","type":"bytes32","indexed":true,"internalType":"bytes32"},{"name":"namehash","type":"bytes32","indexed":true,"internalType":"bytes32"},{"name":"labelhash","type":"bytes","indexed":true,"internalType":"bytes"},{"name":"label","type":"bytes","indexed":false,"internalType":"bytes"},{"name":"data","type":"bytes","indexed":false,"internalType":"bytes"}],"anonymous":false},{"type":"event","name":"Gene","inputs":[{"name":"entry","type":"bytes32","indexed":true,"internalType":"bytes32"},{"name":"gene","type":"address","indexed":true,"internalType":"address"}],"anonymous":false},{"type":"event","name":"Initialized","inputs":[{"name":"version","type":"uint64","indexed":false,"internalType":"uint64"}],"anonymous":false},{"type":"event","name":"Mint","inputs":[{"name":"parenthash","type":"bytes32","indexed":true,"internalType":"bytes32"},{"name":"namehash","type":"bytes32","indexed":true,"internalType":"bytes32"},{"name":"labelhash","type":"bytes","indexed":true,"internalType":"bytes"},{"name":"label","type":"bytes","indexed":false,"internalType":"bytes"}],"anonymous":false},{"type":"event","name":"Note","inputs":[{"name":"parenthash","type":"bytes32","indexed":true,"internalType":"bytes32"},{"name":"namehash","type":"bytes32","indexed":true,"internalType":"bytes32"},{"name":"labelhash","type":"bytes","indexed":true,"internalType":"bytes"},{"name":"label","type":"bytes","indexed":false,"internalType":"bytes"},{"name":"data","type":"bytes","indexed":false,"internalType":"bytes"}],"anonymous":false},{"type":"event","name":"RoleAdminChanged","inputs":[{"name":"role","type":"bytes32","indexed":true,"internalType":"bytes32"},{"name":"previousAdminRole","type":"bytes32","indexed":true,"internalType":"bytes32"},{"name":"newAdminRole","type":"bytes32","indexed":true,"internalType":"bytes32"}],"anonymous":false},{"type":"event","name":"RoleGranted","inputs":[{"name":"role","type":"bytes32","indexed":true,"internalType":"bytes32"},{"name":"account","type":"address","indexed":true,"internalType":"address"},{"name":"sender","type":"address","indexed":true,"internalType":"address"}],"anonymous":false},{"type":"event","name":"RoleRevoked","inputs":[{"name":"role","type":"bytes32","indexed":true,"internalType":"bytes32"},{"name":"account","type":"address","indexed":true,"internalType":"address"},{"name":"sender","type":"address","indexed":true,"internalType":"address"}],"anonymous":false},{"type":"event","name":"Transfer","inputs":[{"name":"from","type":"address","indexed":true,"internalType":"address"},{"name":"to","type":"address","indexed":true,"internalType":"address"},{"name":"tokenId","type":"uint256","indexed":true,"internalType":"uint256"}],"anonymous":false},{"type":"event","name":"Upgraded","inputs":[{"name":"implementation","type":"address","indexed":true,"internalType":"address"}],"anonymous":false},{"type":"event","name":"Zero","inputs":[{"name":"zeroTba","type":"address","indexed":true,"internalType":"address"}],"anonymous":false},{"type":"error","name":"AccessControlBadConfirmation","inputs":[]},{"type":"error","name":"AccessControlUnauthorizedAccount","inputs":[{"name":"account","type":"address","internalType":"address"},{"name":"neededRole","type":"bytes32","internalType":"bytes32"}]},{"type":"error","name":"AddressEmptyCode","inputs":[{"name":"target","type":"address","internalType":"address"}]},{"type":"error","name":"CannotCreate2Proxy","inputs":[]},{"type":"error","name":"ERC1967InvalidImplementation","inputs":[{"name":"implementation","type":"address","internalType":"address"}]},{"type":"error","name":"ERC1967NonPayable","inputs":[]},{"type":"error","name":"ERC721IncorrectOwner","inputs":[{"name":"sender","type":"address","internalType":"address"},{"name":"tokenId","type":"uint256","internalType":"uint256"},{"name":"owner","type":"address","internalType":"address"}]},{"type":"error","name":"ERC721InsufficientApproval","inputs":[{"name":"operator","type":"address","internalType":"address"},{"name":"tokenId","type":"uint256","internalType":"uint256"}]},{"type":"error","name":"ERC721InvalidApprover","inputs":[{"name":"approver","type":"address","internalType":"address"}]},{"type":"error","name":"ERC721InvalidOperator","inputs":[{"name":"operator","type":"address","internalType":"address"}]},{"type":"error","name":"ERC721InvalidOwner","inputs":[{"name":"owner","type":"address","internalType":"address"}]},{"type":"error","name":"ERC721InvalidReceiver","inputs":[{"name":"receiver","type":"address","internalType":"address"}]},{"type":"error","name":"ERC721InvalidSender","inputs":[{"name":"sender","type":"address","internalType":"address"}]},{"type":"error","name":"ERC721NonexistentToken","inputs":[{"name":"tokenId","type":"uint256","internalType":"uint256"}]},{"type":"error","name":"EmptyFact","inputs":[]},{"type":"error","name":"FactAlreadyExists","inputs":[]},{"type":"error","name":"FactMustBeginWithBang","inputs":[]},{"type":"error","name":"FailedCall","inputs":[]},{"type":"error","name":"FailedToInitializeTBA","inputs":[]},{"type":"error","name":"GeneAlreadySet","inputs":[]},{"type":"error","name":"InvalidInitialization","inputs":[]},{"type":"error","name":"InvalidLabelCharacter","inputs":[]},{"type":"error","name":"LabelTooLong","inputs":[]},{"type":"error","name":"LabelTooShort","inputs":[]},{"type":"error","name":"NameAlreadyExists","inputs":[]},{"type":"error","name":"NotInitializing","inputs":[]},{"type":"error","name":"NotParent","inputs":[]},{"type":"error","name":"NoteMustBeginWithTilde","inputs":[]},{"type":"error","name":"OnlyZero","inputs":[]},{"type":"error","name":"UUPSUnauthorizedCallContext","inputs":[]},{"type":"error","name":"UUPSUnsupportedProxiableUUID","inputs":[{"name":"slot","type":"bytes32","internalType":"bytes32"}]}],"bytecode":{"object":"0x60a060405230608052348015610013575f5ffd5b5061001c610021565b6100d3565b7ff0c57e16840df040f15088dc2f81fe391c3923bec73e23a9662efc9c229c6a00805468010000000000000000900460ff16156100715760405163f92ee8a960e01b815260040160405180910390fd5b80546001600160401b03908116146100d05780546001600160401b0319166001600160401b0390811782556040519081527fc7f505b2f371ae2175ee4913f4499e1f2633a7b5936321eed1cdaeb6115181d29060200160405180910390a15b50565b608051614d356100f95f395f8181611cc101528181611cea0152611e2d0152614d355ff3fe6080604052600436106101fc575f3560e01c806370a0823111610113578063b88d4fde1161009d578063e852398b1161006d578063e852398b1461060c578063e985e9c51461062b578063edc160841461064a578063f89536451461066d578063fcdb781e146106a1575f5ffd5b8063b88d4fde14610590578063c4d66de8146105af578063c87b56dd146105ce578063d547741f146105ed575f5ffd5b806391d14854116100e357806391d14854146104fb57806395d89b411461051a578063a217fddf1461052e578063a22cb46514610541578063ad3cb1cc14610560575f5ffd5b806370a082311461047f57806374e088291461049e5780637788b5a8146104bd5780638eaa6ac0146104dc575f5ffd5b806323b872dd1161019457806336568abe1161016457806336568abe146103fb57806342842e0e1461041a5780634f1ef2861461043957806352d1902d1461044c5780636352211e14610460575f5ffd5b806323b872dd1461036a578063248a9ca31461038957806327244d1e146103a85780632f2ff15d146103dc575f5ffd5b8063095ea7b3116101cf578063095ea7b3146102ab5780630ae186a8146102cc578063150b7a02146102fa5780632124b6921461033d575f5ffd5b806301ffc9a71461020057806306fdde0314610234578063081812fc14610255578063094cefed1461028c575b5f5ffd5b34801561020b575f5ffd5b5061021f61021a3660046126d8565b6106d9565b60405190151581526020015b60405180910390f35b34801561023f575f5ffd5b506102486106e9565b60405161022b9190612721565b348015610260575f5ffd5b5061027461026f366004612733565b61078a565b6040516001600160a01b03909116815260200161022b565b348015610297575f5ffd5b506102746102a63660046127a2565b61079e565b3480156102b6575f5ffd5b506102ca6102c5366004612834565b6108f8565b005b3480156102d7575f5ffd5b506102eb6102e6366004612733565b610907565b60405161022b9392919061285e565b348015610305575f5ffd5b50610324610314366004612926565b630a85bd0160e11b949350505050565b6040516001600160e01b0319909116815260200161022b565b348015610348575f5ffd5b5061035c61035736600461298d565b6109bc565b60405190815260200161022b565b348015610375575f5ffd5b506102ca6103843660046129d4565b6109f2565b348015610394575f5ffd5b5061035c6103a3366004612733565b610a80565b3480156103b3575f5ffd5b506102746103c2366004612733565b5f908152602081905260409020546001600160a01b031690565b3480156103e7575f5ffd5b506102ca6103f6366004612a12565b610aa0565b348015610406575f5ffd5b506102ca610415366004612a12565b610abc565b348015610425575f5ffd5b506102ca6104343660046129d4565b610af4565b6102ca610447366004612a40565b610b0e565b348015610457575f5ffd5b5061035c610b29565b34801561046b575f5ffd5b5061027461047a366004612733565b610b44565b34801561048a575f5ffd5b5061035c610499366004612a8c565b610b4e565b3480156104a9575f5ffd5b506102ca6104b8366004612a8c565b610ba6565b3480156104c8575f5ffd5b5061035c6104d7366004612aa7565b610c45565b3480156104e7575f5ffd5b506102eb6104f6366004612733565b610d7f565b348015610506575f5ffd5b5061021f610515366004612a12565b610e98565b348015610525575f5ffd5b50610248610ece565b348015610539575f5ffd5b5061035c5f81565b34801561054c575f5ffd5b506102ca61055b366004612b11565b610f0c565b34801561056b575f5ffd5b50610248604051806040016040528060058152602001640352e302e360dc1b81525081565b34801561059b575f5ffd5b506102ca6105aa366004612926565b610f17565b3480156105ba575f5ffd5b506102ca6105c9366004612a8c565b610f2f565b3480156105d9575f5ffd5b506102486105e8366004612733565b611125565b3480156105f8575f5ffd5b506102ca610607366004612a12565b6113b2565b348015610617575f5ffd5b5061035c610626366004612aa7565b6113ce565b348015610636575f5ffd5b5061021f610645366004612b41565b611552565b348015610655575f5ffd5b506102746f6551c19487814612e58fe0681377575881565b348015610678575f5ffd5b5061068c61068736600461298d565b61159e565b6040805192835260208301919091520161022b565b3480156106ac575f5ffd5b506102486040518060400160405280600d81526020016c7e6d657461646174612d75726960981b81525081565b5f6106e3826115d8565b92915050565b5f516020614ca05f395f51905f52805460609190819061070890612b6d565b80601f016020809104026020016040519081016040528092919081815260200182805461073490612b6d565b801561077f5780601f106107565761010080835404028352916020019161077f565b820191905f5260205f20905b81548152906001019060200180831161076257829003601f168201915b505050505091505090565b5f61079482611617565b506106e38261164e565b5f85858080601f0160208091040260200160405190810160405280939291908181526020018383808284375f9201829052506107df93508492509050611687565b5f6107e861178a565b90505f5f6107f7838b8b6117d3565b5f85815260208190526040812060010154929450909250906001600160a01b03161561083d57505f8381526020819052604090206001908101546001600160a01b031696505b60408051602081018490520160408051601f198184030181529082905261086391612ba5565b604051809103902083857fb59dae5eda69178326b6517bb1aa33e208bf2ac347e30d3a5daf0ecb6249f7b18e8e60405161089e929190612be3565b60405180910390a46108e88c8489848d8d8080601f0160208091040260200160405190810160405280939291908181526020018383808284375f920191909152506117f092505050565b9c9b505050505050505050505050565b610903828233611a7e565b5050565b5f602081905290815260409020805460018201546002830180546001600160a01b0393841694929093169261093b90612b6d565b80601f016020809104026020016040519081016040528092919081815260200182805461096790612b6d565b80156109b25780601f10610989576101008083540402835291602001916109b2565b820191905f5260205f20905b81548152906001019060200180831161099557829003601f168201915b5050505050905083565b5f604082106109de57604051633ea2fbc360e11b815260040160405180910390fd5b6109e98484846117d3565b50949350505050565b6001600160a01b038216610a2057604051633250574960e11b81525f60048201526024015b60405180910390fd5b5f610a2c838333611a8b565b9050836001600160a01b0316816001600160a01b031614610a7a576040516364283d7b60e01b81526001600160a01b0380861660048301526024820184905282166044820152606401610a17565b50505050565b5f9081525f516020614ce05f395f51905f52602052604090206001015490565b610aa982610a80565b610ab281611b8f565b610a7a8383611b9c565b6001600160a01b0381163314610ae55760405163334bd91960e11b815260040160405180910390fd5b610aef8282611c3d565b505050565b610aef83838360405180602001604052805f815250610f17565b610b16611cb6565b610b1f82611d5c565b6109038282611d66565b5f610b32611e22565b505f516020614cc05f395f51905f5290565b5f6106e382611617565b5f5f516020614ca05f395f51905f526001600160a01b038316610b86576040516322718ad960e21b81525f6004820152602401610a17565b6001600160a01b039092165f908152600390920160205250604090205490565b5f610baf61178a565b5f818152602081905260409020600101549091506001600160a01b031615610bea5760405163f3dda33360e01b815260040160405180910390fd5b5f8181526020819052604080822060010180546001600160a01b0319166001600160a01b0386169081179091559051909183917fde0ec2494e561683ac09b109d8c4c4a08b4ddbd4fcd23b609fe107e63176ef5a9190a35050565b5f84848080601f0160208091040260200160405190810160405280939291908181526020018383808284375f920182905250845185945090925015159050610c8f57610c8f612bf6565b6020910101516001600160f81b031916603f60f91b14610cc25760405163a3b9ac9560e01b815260040160405180910390fd5b610ccd816001611687565b5f610cd661178a565b90505f5f610ce5838a8a6117d3565b5f8281526020819052604090209193509150600201610d05878983612c4e565b5060408051602081018390520160408051601f1981840301815290829052610d2c91612ba5565b604051809103902082847fe40d9f1ec78dfc3c5a94c3edae28058ba092a8f65ce8a199731840a3d20f82f48c8c8c8c604051610d6b9493929190612d07565b60405180910390a450979650505050505050565b5f8181526020818152604080832081516060818101845282546001600160a01b0390811683526001840154169482019490945260028201805486959486949290840191610dcb90612b6d565b80601f0160208091040260200160405190810160405280929190818152602001828054610df790612b6d565b8015610e425780601f10610e1957610100808354040283529160200191610e42565b820191905f5260205f20905b815481529060010190602001808311610e2557829003601f168201915b5050509190925250508151919250506001600160a01b0316610e6f57604001515f93508392509050610e91565b8051610e7a86610b44565b60405180602001604052805f815250935093509350505b9193909250565b5f9182525f516020614ce05f395f51905f52602090815260408084206001600160a01b0393909316845291905290205460ff1690565b7f80bb2b638cc20bc4d0a60d66940f3ab4a00c1d7b313497ca82fb0b4ab007930180546060915f516020614ca05f395f51905f529161070890612b6d565b610903338383611e6b565b610f228484846109f2565b610a7a3385858585611f1a565b7ff0c57e16840df040f15088dc2f81fe391c3923bec73e23a9662efc9c229c6a008054600160401b810460ff1615906001600160401b03165f81158015610f735750825b90505f826001600160401b03166001148015610f8e5750303b155b905081158015610f9c575080155b15610fba5760405163f92ee8a960e01b815260040160405180910390fd5b845467ffffffffffffffff191660011785558315610fe457845460ff60401b1916600160401b1785555b61102e60405180604001604052806008815260200167048797065726d61760c41b81525060405180604001604052806008815260200167048595045524d41560c41b815250612040565b611036612052565b61103e612052565b611046612052565b61104e612052565b5f60405161105b906126a9565b604051809103905ff080158015611074573d5f5f3e3d5ffd5b5090505f611095885f5f1b845f60405180602001604052805f8152506117f0565b90506110a15f89611b9c565b506040516001600160a01b038216907fa7dcba07b3032d87953767c0eed546a5eb7e52648856b776ba4ad8a1ff1bf3c0905f90a25050831561111d57845460ff60401b19168555604051600181527fc7f505b2f371ae2175ee4913f4499e1f2633a7b5936321eed1cdaeb6115181d29060200160405180910390a15b505050505050565b606061113082611617565b50604080518082018252600d81526c7e6d657461646174612d75726960981b602082015290516310925b4960e11b81525f913091632124b6929161117991879190600401612d38565b602060405180830381865afa158015611194573d5f5f3e3d5ffd5b505050506040513d601f19601f820116820180604052508101906111b89190612d50565b5f818152602081905260408120600201805492935090916111d890612b6d565b80601f016020809104026020016040519081016040528092919081815260200182805461120490612b6d565b801561124f5780601f106112265761010080835404028352916020019161124f565b820191905f5260205f20905b81548152906001019060200180831161123257829003601f168201915b50505050509050835f1415801561126557508051155b1561138c57604080518082018252600d81526c7e6d657461646174612d75726960981b602082015290516310925b4960e11b81523091632124b692916112af915f91600401612d38565b602060405180830381865afa1580156112ca573d5f5f3e3d5ffd5b505050506040513d601f19601f820116820180604052508101906112ee9190612d50565b5f81815260208190526040902060020180549193509061130d90612b6d565b80601f016020809104026020016040519081016040528092919081815260200182805461133990612b6d565b80156113845780601f1061135b57610100808354040283529160200191611384565b820191905f5260205f20905b81548152906001019060200180831161136757829003601f168201915b505050505090505b5f8151116113a85760405180602001604052805f8152506113aa565b805b949350505050565b6113bb82610a80565b6113c481611b8f565b610a7a8383611c3d565b5f84848080601f0160208091040260200160405190810160405280939291908181526020018383808284375f92018290525084518594509092501515905061141857611418612bf6565b6020910101516001600160f81b031916602160f81b1461144b57604051636ae27d4f60e01b815260040160405180910390fd5b611456816001611687565b5f61145f61178a565b90505f5f61146e838a8a6117d3565b915091505f5f8381526020019081526020015f20600201805461149090612b6d565b1590506114b057604051632950bb6760e21b815260040160405180910390fd5b5f8690036114d1576040516301b3720560e01b815260040160405180910390fd5b5f8281526020819052604090206002016114ec878983612c4e565b5060408051602081018390520160408051601f198184030181529082905261151391612ba5565b604051809103902082847f6df41fff09a97e34e341514998993ce9f4542c3fa8358931a96c9fff178c3adb8c8c8c8c604051610d6b9493929190612d07565b6001600160a01b039182165f9081527f80bb2b638cc20bc4d0a60d66940f3ab4a00c1d7b313497ca82fb0b4ab00793056020908152604080832093909416825291909152205460ff1690565b5f80604083106115c157604051633ea2fbc360e11b815260040160405180910390fd5b6115cc8585856117d3565b91509150935093915050565b5f6001600160e01b031982166380ac58cd60e01b148061160857506001600160e01b03198216635b5e139f60e01b145b806106e357506106e38261205a565b5f5f6116228361208e565b90506001600160a01b0381166106e357604051637e27328960e01b815260048101849052602401610a17565b5f9081527f80bb2b638cc20bc4d0a60d66940f3ab4a00c1d7b313497ca82fb0b4ab007930460205260409020546001600160a01b031690565b81518082106116a957604051631406d65b60e11b815260040160405180910390fd5b604081106116ca57604051633ea2fbc360e11b815260040160405180910390fd5b815b81811015610a7a575f8482815181106116e7576116e7612bf6565b01602001516001600160f81b0319169050600360fc1b811080159061171a5750603960f81b6001600160f81b0319821611155b8061174c5750606160f81b6001600160f81b031982161080159061174c5750603d60f91b6001600160f81b0319821611155b806117645750602d60f81b6001600160f81b03198216145b61178157604051633a1fdfd160e21b815260040160405180910390fd5b506001016116cc565b5f5f611795336120c7565b5f818152602081905260409020549093508392506001600160a01b0316331490506106e357604051631c09fe6560e11b815260040160405180910390fd5b5f5f82845f3750505f908120928152602083905260409020929050565b5f848152602081905260408120546001600160a01b03161561182557604051633480a50360e21b815260040160405180910390fd5b6f6551c19487814612e58fe068137757586001600160a01b0316638a54c52f8630604051611852906126b6565b6001600160a01b0390911681526020018190604051809103905ff590508015801561187f573d5f5f3e3d5ffd5b5060405160e083901b6001600160e01b03191681526001600160a01b039091166004820152602481018890524660448201523060648201526084810188905260a4016020604051808303815f875af11580156118dd573d5f5f3e3d5ffd5b505050506040513d601f19601f820116820180604052508101906119019190612d67565b90506040518060600160405280826001600160a01b0316815260200184611928575f61192a565b855b6001600160a01b03908116825260408051602081810183525f8083529481019190915289845283815292819020845181549084166001600160a01b0319918216178255938501516001820180549190941694169390931790915582015160028201906119969082612d82565b506119a591503090508661211b565b5f816001600160a01b031663d1f5789460e01b86856040516024016119cb929190612e3c565b60408051601f198184030181529181526020820180516001600160e01b03166001600160e01b0319909416939093179092529051611a099190612ba5565b5f604051808303815f865af19150503d805f8114611a42576040519150601f19603f3d011682016040523d82523d5f602084013e611a47565b606091505b5050905080611a695760405163169c52c760e21b815260040160405180910390fd5b611a7430888861217c565b5095945050505050565b610aef8383836001612196565b5f5f516020614ca05f395f51905f5281611aa48561208e565b90506001600160a01b03841615611ac057611ac08185876122a9565b6001600160a01b03811615611afc57611adb5f865f5f612196565b6001600160a01b0381165f908152600383016020526040902080545f190190555b6001600160a01b03861615611b2c576001600160a01b0386165f9081526003830160205260409020805460010190555b5f85815260028301602052604080822080546001600160a01b0319166001600160a01b038a811691821790925591518893918516917fddf252ad1be2c89b69c2b068fc378daa952ba7f163c4a11628f55a4df523b3ef91a49150505b9392505050565b611b99813361230d565b50565b5f5f516020614ce05f395f51905f52611bb58484610e98565b611c34575f848152602082815260408083206001600160a01b03871684529091529020805460ff19166001179055611bea3390565b6001600160a01b0316836001600160a01b0316857f2f8788117e7eff1d82e926ec794901d17c78024a50270940304540a733656f0d60405160405180910390a460019150506106e3565b5f9150506106e3565b5f5f516020614ce05f395f51905f52611c568484610e98565b15611c34575f848152602082815260408083206001600160a01b0387168085529252808320805460ff1916905551339287917ff6391f5c32d9c69d2a47ea670b442974b53935d1edc7fd64eb21e047a839171b9190a460019150506106e3565b306001600160a01b037f0000000000000000000000000000000000000000000000000000000000000000161480611d3c57507f00000000000000000000000000000000000000000000000000000000000000006001600160a01b0316611d305f516020614cc05f395f51905f52546001600160a01b031690565b6001600160a01b031614155b15611d5a5760405163703e46dd60e11b815260040160405180910390fd5b565b5f61090381611b8f565b816001600160a01b03166352d1902d6040518163ffffffff1660e01b8152600401602060405180830381865afa925050508015611dc0575060408051601f3d908101601f19168201909252611dbd91810190612d50565b60015b611de857604051634c9c8ce360e01b81526001600160a01b0383166004820152602401610a17565b5f516020614cc05f395f51905f528114611e1857604051632a87526960e21b815260048101829052602401610a17565b610aef8383612346565b306001600160a01b037f00000000000000000000000000000000000000000000000000000000000000001614611d5a5760405163703e46dd60e11b815260040160405180910390fd5b5f516020614ca05f395f51905f526001600160a01b038316611eab57604051630b61174360e31b81526001600160a01b0384166004820152602401610a17565b6001600160a01b038481165f818152600584016020908152604080832094881680845294825291829020805460ff191687151590811790915591519182527f17307eab39ab6107e8899845ad3d59bd9653f200f220920489ca2b5937696c31910160405180910390a350505050565b6001600160a01b0383163b1561203957604051630a85bd0160e11b81526001600160a01b0384169063150b7a0290611f5c908890889087908790600401612e5f565b6020604051808303815f875af1925050508015611f96575060408051601f3d908101601f19168201909252611f9391810190612e9b565b60015b611ffd573d808015611fc3576040519150601f19603f3d011682016040523d82523d5f602084013e611fc8565b606091505b5080515f03611ff557604051633250574960e11b81526001600160a01b0385166004820152602401610a17565b805181602001fd5b6001600160e01b03198116630a85bd0160e11b1461111d57604051633250574960e11b81526001600160a01b0385166004820152602401610a17565b5050505050565b61204861239b565b61090382826123e4565b611d5a61239b565b5f6001600160e01b03198216637965db0b60e01b14806106e357506301ffc9a760e01b6001600160e01b03198316146106e3565b5f9081527f80bb2b638cc20bc4d0a60d66940f3ab4a00c1d7b313497ca82fb0b4ab007930260205260409020546001600160a01b031690565b604080516060808252608082019092525f91829182918291906020820181803683370190505090506060604d60208301873c8080602001905181019061210d9190612eb6565b935093509350509193909250565b6001600160a01b03821661214457604051633250574960e11b81525f6004820152602401610a17565b5f61215083835f611a8b565b90506001600160a01b03811615610aef576040516339e3563760e11b81525f6004820152602401610a17565b610aef83838360405180602001604052805f815250612414565b5f516020614ca05f395f51905f5281806121b857506001600160a01b03831615155b15612279575f6121c785611617565b90506001600160a01b038416158015906121f35750836001600160a01b0316816001600160a01b031614155b801561220657506122048185611552565b155b1561222f5760405163a9fbf51f60e01b81526001600160a01b0385166004820152602401610a17565b82156122775784866001600160a01b0316826001600160a01b03167f8c5be1e5ebec7d5bd14f71427d1e84f3dd0314c0f7b2291e5b200ac8c7c3b92560405160405180910390a45b505b5f93845260040160205250506040902080546001600160a01b0319166001600160a01b0392909216919091179055565b6122b483838361241f565b610aef576001600160a01b0383166122e257604051637e27328960e01b815260048101829052602401610a17565b60405163177e802f60e01b81526001600160a01b038316600482015260248101829052604401610a17565b6123178282610e98565b6109035760405163e2517d3f60e01b81526001600160a01b038216600482015260248101839052604401610a17565b61234f82612483565b6040516001600160a01b038316907fbc7cd75a20ee27fd9adebab32041f755214dbc6bffa90cc0225b39da2e5c2d3b905f90a280511561239357610aef82826124e6565b610903612558565b7ff0c57e16840df040f15088dc2f81fe391c3923bec73e23a9662efc9c229c6a0054600160401b900460ff16611d5a57604051631afcd79f60e31b815260040160405180910390fd5b6123ec61239b565b5f516020614ca05f395f51905f52806124058482612d82565b5060018101610a7a8382612d82565b610f22848484612577565b5f6001600160a01b038316158015906113aa5750826001600160a01b0316846001600160a01b0316148061245857506124588484611552565b806113aa5750826001600160a01b03166124718361164e565b6001600160a01b031614949350505050565b806001600160a01b03163b5f036124b857604051634c9c8ce360e01b81526001600160a01b0382166004820152602401610a17565b5f516020614cc05f395f51905f5280546001600160a01b0319166001600160a01b0392909216919091179055565b60605f5f846001600160a01b0316846040516125029190612ba5565b5f60405180830381855af49150503d805f811461253a576040519150601f19603f3d011682016040523d82523d5f602084013e61253f565b606091505b509150915061254f858383612624565b95945050505050565b3415611d5a5760405163b398979f60e01b815260040160405180910390fd5b6001600160a01b0382166125a057604051633250574960e11b81525f6004820152602401610a17565b5f6125ac83835f611a8b565b90506001600160a01b0381166125d857604051637e27328960e01b815260048101839052602401610a17565b836001600160a01b0316816001600160a01b031614610a7a576040516364283d7b60e01b81526001600160a01b0380861660048301526024820184905282166044820152606401610a17565b6060826126395761263482612680565b611b88565b815115801561265057506001600160a01b0384163b155b1561267957604051639996b31560e01b81526001600160a01b0385166004820152602401610a17565b5080611b88565b8051156126905780518082602001fd5b60405163d6bda27560e01b815260040160405180910390fd5b61189480612eef83390190565b61051d8061478383390190565b6001600160e01b031981168114611b99575f5ffd5b5f602082840312156126e8575f5ffd5b8135611b88816126c3565b5f81518084528060208401602086015e5f602082860101526020601f19601f83011685010191505092915050565b602081525f611b8860208301846126f3565b5f60208284031215612743575f5ffd5b5035919050565b6001600160a01b0381168114611b99575f5ffd5b5f5f83601f84011261276e575f5ffd5b5081356001600160401b03811115612784575f5ffd5b60208301915083602082850101111561279b575f5ffd5b9250929050565b5f5f5f5f5f5f608087890312156127b7575f5ffd5b86356127c28161274a565b955060208701356001600160401b038111156127dc575f5ffd5b6127e889828a0161275e565b90965094505060408701356001600160401b03811115612806575f5ffd5b61281289828a0161275e565b90945092505060608701356128268161274a565b809150509295509295509295565b5f5f60408385031215612845575f5ffd5b82356128508161274a565b946020939093013593505050565b6001600160a01b038481168252831660208201526060604082018190525f9061254f908301846126f3565b634e487b7160e01b5f52604160045260245ffd5b5f82601f8301126128ac575f5ffd5b81356001600160401b038111156128c5576128c5612889565b604051601f8201601f19908116603f011681016001600160401b03811182821017156128f3576128f3612889565b60405281815283820160200185101561290a575f5ffd5b816020850160208301375f918101602001919091529392505050565b5f5f5f5f60808587031215612939575f5ffd5b84356129448161274a565b935060208501356129548161274a565b92506040850135915060608501356001600160401b03811115612975575f5ffd5b6129818782880161289d565b91505092959194509250565b5f5f5f6040848603121561299f575f5ffd5b8335925060208401356001600160401b038111156129bb575f5ffd5b6129c78682870161275e565b9497909650939450505050565b5f5f5f606084860312156129e6575f5ffd5b83356129f18161274a565b92506020840135612a018161274a565b929592945050506040919091013590565b5f5f60408385031215612a23575f5ffd5b823591506020830135612a358161274a565b809150509250929050565b5f5f60408385031215612a51575f5ffd5b8235612a5c8161274a565b915060208301356001600160401b03811115612a76575f5ffd5b612a828582860161289d565b9150509250929050565b5f60208284031215612a9c575f5ffd5b8135611b888161274a565b5f5f5f5f60408587031215612aba575f5ffd5b84356001600160401b03811115612acf575f5ffd5b612adb8782880161275e565b90955093505060208501356001600160401b03811115612af9575f5ffd5b612b058782880161275e565b95989497509550505050565b5f5f60408385031215612b22575f5ffd5b8235612b2d8161274a565b915060208301358015158114612a35575f5ffd5b5f5f60408385031215612b52575f5ffd5b8235612b5d8161274a565b91506020830135612a358161274a565b600181811c90821680612b8157607f821691505b602082108103612b9f57634e487b7160e01b5f52602260045260245ffd5b50919050565b5f82518060208501845e5f920191825250919050565b81835281816020850137505f828201602090810191909152601f909101601f19169091010190565b602081525f6113aa602083018486612bbb565b634e487b7160e01b5f52603260045260245ffd5b601f821115610aef57805f5260205f20601f840160051c81016020851015612c2f5750805b601f840160051c820191505b81811015612039575f8155600101612c3b565b6001600160401b03831115612c6557612c65612889565b612c7983612c738354612b6d565b83612c0a565b5f601f841160018114612caa575f8515612c935750838201355b5f19600387901b1c1916600186901b178355612039565b5f83815260208120601f198716915b82811015612cd95786850135825560209485019460019092019101612cb9565b5086821015612cf5575f1960f88860031b161c19848701351681555b505060018560011b0183555050505050565b604081525f612d1a604083018688612bbb565b8281036020840152612d2d818587612bbb565b979650505050505050565b828152604060208201525f6113aa60408301846126f3565b5f60208284031215612d60575f5ffd5b5051919050565b5f60208284031215612d77575f5ffd5b8151611b888161274a565b81516001600160401b03811115612d9b57612d9b612889565b612daf81612da98454612b6d565b84612c0a565b6020601f821160018114612de1575f8315612dca5750848201515b5f19600385901b1c1916600184901b178455612039565b5f84815260208120601f198516915b82811015612e105787850151825560209485019460019092019101612df0565b5084821015612e2d57868401515f19600387901b60f8161c191681555b50505050600190811b01905550565b6001600160a01b03831681526040602082018190525f906113aa908301846126f3565b6001600160a01b03858116825284166020820152604081018390526080606082018190525f90612e91908301846126f3565b9695505050505050565b5f60208284031215612eab575f5ffd5b8151611b88816126c3565b5f5f5f60608486031215612ec8575f5ffd5b83516020850151909350612edb8161274a565b604094909401519295939450919291505056fe6080604052348015600e575f5ffd5b506118788061001c5f395ff3fe608060405260043610610112575f3560e01c80638f41ec5a1161009d578063c19d93fb11610062578063c19d93fb1461031a578063ca3b98bb1461032e578063d087d28814610341578063f23a6e6114610355578063fc0c546a14610381575f5ffd5b80638f41ec5a146102785780639cdf379c1461028c578063b0d691fe1461029f578063b61d27f6146102cd578063bc197c81146102ec575f5ffd5b806319822f7c116100e357806319822f7c146101ce57806334fcd5be146101fb578063519454471461021a578063523e32601461023a5780636d70f7ae14610259575f5ffd5b806223de291461011d57806301ffc9a714610143578063150b7a02146101775780631626ba7e146101af575f5ffd5b3661011957005b5f5ffd5b348015610128575f5ffd5b506101416101373660046110f9565b5050505050505050565b005b34801561014e575f5ffd5b5061016261015d3660046111bb565b6103b8565b60405190151581526020015b60405180910390f35b348015610182575f5ffd5b506101966101913660046111d6565b6103e3565b6040516001600160e01b0319909116815260200161016e565b3480156101ba575f5ffd5b506101966101c9366004611257565b61043d565b3480156101d9575f5ffd5b506101ed6101e8366004611311565b610562565b60405190815260200161016e565b348015610206575f5ffd5b5061014161021536600461139f565b610594565b61022d6102283660046113f2565b610684565b60405161016e919061148b565b348015610245575f5ffd5b5061019661025436600461149d565b6106b0565b348015610264575f5ffd5b506101626102733660046114ed565b6106d5565b348015610283575f5ffd5b506101ed600181565b348015610297575f5ffd5b506101ed5f81565b3480156102aa575f5ffd5b50604051734337084d9e255ff0702461cf8895ce9e3b5ff108815260200161016e565b3480156102d8575f5ffd5b506101416102e7366004611508565b610773565b3480156102f7575f5ffd5b5061019661030636600461155f565b63bc197c8160e01b98975050505050505050565b348015610325575f5ffd5b506101ed6107d2565b61022d61033c3660046115ff565b6108b9565b34801561034c575f5ffd5b506101ed6108f2565b348015610360575f5ffd5b5061019661036f366004611674565b63f23a6e6160e01b9695505050505050565b34801561038c575f5ffd5b5061039561097b565b604080519384526001600160a01b0390921660208401529082015260600161016e565b5f6103c282610991565b806103dd57506001600160e01b03198216636faff5f160e01b145b92915050565b5f5f5f6103ee61097b565b909350915050336001600160a01b03831614801561040b57508086145b156104295760405163b79e3f3f60e01b815260040160405180910390fd5b50630a85bd0160e11b979650505050505050565b5f5f5f5f61045d85602081015160408201516060909201515f1a92909190565b9094509250905060ff81165f03610528578285830160200161047e826106d5565b15801561049457506001600160a01b0382163014155b156104af57506001600160e01b031994506103dd9350505050565b604051630b135d3f60e11b81526001600160a01b03831690631626ba7e906104dd908b9085906004016116ea565b602060405180830381865afa1580156104f8573d5f5f3e3d5ffd5b505050506040513d601f19601f8201168201806040525081019061051c9190611702565b955050505050506103dd565b61053761027387838686610a32565b1561054f5750630b135d3f60e11b92506103dd915050565b506001600160e01b031995945050505050565b5f61056b610a5e565b6105758484610ac3565b90506105848460200135610bd0565b61058d82610c19565b9392505050565b61059c610c5e565b805f5b8181101561067e57368484838181106105ba576105ba61171d565b90506020028101906105cc9190611731565b90505f61062a6105df60208401846114ed565b60208401356105f1604086018661174f565b8080601f0160208091040260200160405190810160405280939291908181526020018383808284375f920191909152505050505a610c66565b905080610674578360010361064657610641610c7c565b610674565b826106505f610c8d565b604051635a15467560e01b815260040161066b9291906116ea565b60405180910390fd5b505060010161059f565b50505050565b60605f61069587878787875a610cbe565b92509050806106a657815160208301fd5b5095945050505050565b5f6106ba846106d5565b6106c4575f6106cd565b630291f19360e51b5b949350505050565b5f5f5f6106e061097b565b6040516331a9108f60e11b81526004810182905291945092506001600160a01b038087169250841690636352211e90602401602060405180830381865afa15801561072d573d5f5f3e3d5ffd5b505050506040513d601f19601f820116820180604052508101906107519190611791565b6001600160a01b03161480156106cd57505050506001600160a01b0316151590565b61077b610c5e565b5f6107bc858585858080601f0160208091040260200160405190810160405280939291908181526020018383808284375f920191909152505050505a610c66565b9050806107cb576107cb610c7c565b5050505050565b5f807fe4b1c7558f331d2752f6cb495b2cf8e1b8ae3112bcc78ec0c3bfebfbe3cd480090505f734337084d9e255ff0702461cf8895ce9e3b5ff108604051631aab3f0d60e11b81523060048201525f60248201526001600160a01b0391909116906335567e1a90604401602060405180830381865afa158015610857573d5f5f3e3d5ffd5b505050506040513d601f19601f8201168201806040525081019061087b91906117ac565b825460405191925061089a918390602001918252602082015260400190565b604051602081830303815290604052805190602001205f1c9250505090565b60605f6108d6888888888888156108d05788610cbe565b5a610cbe565b92509050806108e757815160208301fd5b509695505050505050565b5f734337084d9e255ff0702461cf8895ce9e3b5ff108604051631aab3f0d60e11b81523060048201525f60248201526001600160a01b0391909116906335567e1a90604401602060405180830381865afa158015610952573d5f5f3e3d5ffd5b505050506040513d601f19601f8201168201806040525081019061097691906117ac565b905090565b5f5f5f610986610d15565b925092509250909192565b5f6001600160e01b03198216633ce4a3e960e01b14806109c157506001600160e01b031982166301ffc9a760e01b145b806109dc57506001600160e01b031982166306608bdf60e21b145b806109f757506001600160e01b03198216630b135d3f60e11b145b80610a1257506001600160e01b03198216630271189760e51b145b806103dd57506001600160e01b03198216635194544760e01b1492915050565b5f5f5f5f610a4288888888610d21565b925092509250610a528282610de9565b50909695505050505050565b33734337084d9e255ff0702461cf8895ce9e3b5ff10814610ac15760405162461bcd60e51b815260206004820152601c60248201527f6163636f756e743a206e6f742066726f6d20456e747279506f696e7400000000604482015260640161066b565b565b5f8080610b1184610ad861010088018861174f565b8080601f0160208091040260200160405190810160405280939291908181526020018383808284375f92019190915250610ea592505050565b5090925090505f816003811115610b2a57610b2a6117c3565b148015610b3b5750610b3b826106d5565b15610b4a575f925050506103dd565b7f19457468657265756d205369676e6564204d6573736167653a0a3332000000005f908152601c859052603c9020610b8a81610ad861010089018961174f565b5090935091505f826003811115610ba357610ba36117c3565b148015610bb45750610bb4836106d5565b15610bc4575f93505050506103dd565b50600195945050505050565b6001600160401b038110610c165760405162461bcd60e51b815260206004820152600d60248201526c496e76616c6964206e6f6e636560981b604482015260640161066b565b50565b8015610c16576040515f90339083908381818185875af1925050503d805f81146107cb576040519150601f19603f3d011682016040523d82523d5f602084013e6107cb565b610ac1610a5e565b5f5f5f845160208601878987f195945050505050565b610ac1610c885f610c8d565b610eee565b60603d8215610ca15782811115610ca15750815b604051602082018101604052818152815f602083013e9392505050565b7fe4b1c7558f331d2752f6cb495b2cf8e1b8ae3112bcc78ec0c3bfebfbe3cd480080545f916060918184610cf1836117d7565b9190505550610d04898989898989610ef6565b92509250505b965096945050505050565b5f5f5f6109863061104d565b5f80807f7fffffffffffffffffffffffffffffff5d576e7357a4501ddfe92f46681b20a0841115610d5a57505f91506003905082610ddf565b604080515f808252602082018084528a905260ff891692820192909252606081018790526080810186905260019060a0016020604051602081039080840390855afa158015610dab573d5f5f3e3d5ffd5b5050604051601f1901519150506001600160a01b038116610dd657505f925060019150829050610ddf565b92505f91508190505b9450945094915050565b5f826003811115610dfc57610dfc6117c3565b03610e05575050565b6001826003811115610e1957610e196117c3565b03610e375760405163f645eedf60e01b815260040160405180910390fd5b6002826003811115610e4b57610e4b6117c3565b03610e6c5760405163fce698f760e01b81526004810182905260240161066b565b6003826003811115610e8057610e806117c3565b03610ea1576040516335e2f38360e21b81526004810182905260240161066b565b5050565b5f5f5f8351604103610edc576020840151604085015160608601515f1a610ece88828585610d21565b955095509550505050610ee7565b505081515f91506002905b9250925092565b805160208201fd5b5f6060610f02336106d5565b158015610f23575033734337084d9e255ff0702461cf8895ce9e3b5ff10814155b15610f4157604051634780295360e11b815260040160405180910390fd5b8360ff165f03610fb257876001600160a01b031683888888604051610f679291906117fb565b5f60405180830381858888f193505050503d805f8114610fa2576040519150601f19603f3d011682016040523d82523d5f602084013e610fa7565b606091505b509092509050610d0a565b8360ff1660010361101157876001600160a01b0316838787604051610fd89291906117fb565b5f604051808303818686f4925050503d805f8114610fa2576040519150601f19603f3d011682016040523d82523d5f602084013e610fa7565b60405162461bcd60e51b815260206004820152601160248201527024b73b30b634b21037b832b930ba34b7b760791b604482015260640161066b565b604080516060808252608082019092525f91829182918291906020820181803683370190505090506060604d60208301873c80806020019051810190611093919061180a565b935093509350509193909250565b6001600160a01b0381168114610c16575f5ffd5b5f5f83601f8401126110c5575f5ffd5b5081356001600160401b038111156110db575f5ffd5b6020830191508360208285010111156110f2575f5ffd5b9250929050565b5f5f5f5f5f5f5f5f60c0898b031215611110575f5ffd5b883561111b816110a1565b9750602089013561112b816110a1565b9650604089013561113b816110a1565b95506060890135945060808901356001600160401b0381111561115c575f5ffd5b6111688b828c016110b5565b90955093505060a08901356001600160401b03811115611186575f5ffd5b6111928b828c016110b5565b999c989b5096995094979396929594505050565b6001600160e01b031981168114610c16575f5ffd5b5f602082840312156111cb575f5ffd5b813561058d816111a6565b5f5f5f5f5f608086880312156111ea575f5ffd5b85356111f5816110a1565b94506020860135611205816110a1565b93506040860135925060608601356001600160401b03811115611226575f5ffd5b611232888289016110b5565b969995985093965092949392505050565b634e487b7160e01b5f52604160045260245ffd5b5f5f60408385031215611268575f5ffd5b8235915060208301356001600160401b03811115611284575f5ffd5b8301601f81018513611294575f5ffd5b80356001600160401b038111156112ad576112ad611243565b604051601f8201601f19908116603f011681016001600160401b03811182821017156112db576112db611243565b6040528181528282016020018710156112f2575f5ffd5b816020840160208301375f602083830101528093505050509250929050565b5f5f5f60608486031215611323575f5ffd5b83356001600160401b03811115611338575f5ffd5b8401610120818703121561134a575f5ffd5b95602085013595506040909401359392505050565b5f5f83601f84011261136f575f5ffd5b5081356001600160401b03811115611385575f5ffd5b6020830191508360208260051b85010111156110f2575f5ffd5b5f5f602083850312156113b0575f5ffd5b82356001600160401b038111156113c5575f5ffd5b6113d18582860161135f565b90969095509350505050565b803560ff811681146113ed575f5ffd5b919050565b5f5f5f5f5f60808688031215611406575f5ffd5b8535611411816110a1565b94506020860135935060408601356001600160401b03811115611432575f5ffd5b61143e888289016110b5565b90945092506114519050606087016113dd565b90509295509295909350565b5f81518084528060208401602086015e5f602082860101526020601f19601f83011685010191505092915050565b602081525f61058d602083018461145d565b5f5f5f604084860312156114af575f5ffd5b83356114ba816110a1565b925060208401356001600160401b038111156114d4575f5ffd5b6114e0868287016110b5565b9497909650939450505050565b5f602082840312156114fd575f5ffd5b813561058d816110a1565b5f5f5f5f6060858703121561151b575f5ffd5b8435611526816110a1565b93506020850135925060408501356001600160401b03811115611547575f5ffd5b611553878288016110b5565b95989497509550505050565b5f5f5f5f5f5f5f5f60a0898b031215611576575f5ffd5b8835611581816110a1565b97506020890135611591816110a1565b965060408901356001600160401b038111156115ab575f5ffd5b6115b78b828c0161135f565b90975095505060608901356001600160401b038111156115d5575f5ffd5b6115e18b828c0161135f565b90955093505060808901356001600160401b03811115611186575f5ffd5b5f5f5f5f5f5f60a08789031215611614575f5ffd5b863561161f816110a1565b95506020870135945060408701356001600160401b03811115611640575f5ffd5b61164c89828a016110b5565b909550935061165f9050606088016113dd565b95989497509295919493608090920135925050565b5f5f5f5f5f5f60a08789031215611689575f5ffd5b8635611694816110a1565b955060208701356116a4816110a1565b9450604087013593506060870135925060808701356001600160401b038111156116cc575f5ffd5b6116d889828a016110b5565b979a9699509497509295939492505050565b828152604060208201525f6106cd604083018461145d565b5f60208284031215611712575f5ffd5b815161058d816111a6565b634e487b7160e01b5f52603260045260245ffd5b5f8235605e19833603018112611745575f5ffd5b9190910192915050565b5f5f8335601e19843603018112611764575f5ffd5b8301803591506001600160401b0382111561177d575f5ffd5b6020019150368190038213156110f2575f5ffd5b5f602082840312156117a1575f5ffd5b815161058d816110a1565b5f602082840312156117bc575f5ffd5b5051919050565b634e487b7160e01b5f52602160045260245ffd5b5f600182016117f457634e487b7160e01b5f52601160045260245ffd5b5060010190565b818382375f9101908152919050565b5f5f5f6060848603121561181c575f5ffd5b8351602085015190935061182f816110a1565b604094909401519295939450919291505056fea264697066735822122026b84c7e0030ace2dad6873636642127a17736dad1010cae2604a26e8c3d668864736f6c634300081c003360a0604052348015600e575f5ffd5b5060405161051d38038061051d833981016040819052602b91603b565b6001600160a01b03166080526066565b5f60208284031215604a575f5ffd5b81516001600160a01b0381168114605f575f5ffd5b9392505050565b6080516104a061007d5f395f607a01526104a05ff3fe608060405260043610610021575f3560e01c8063d1f578941461003257610028565b3661002857005b610030610045565b005b610030610040366004610383565b610057565b610055610050610132565b610169565b565b7f7d0893b5fe6077fb4cf083ec3487b8eece7e03b4ab6e888f7a8a1758010f8c007f00000000000000000000000000000000000000000000000000000000000000006001600160a01b031633146100df57805460ff16156100bf576100ba610045565b6100df565b60405163572190d160e01b81523360048201526024015b60405180910390fd5b805460ff16156101015760405162dc149f60e41b815260040160405180910390fd5b5f61010a610132565b6001600160a01b03160361012d57805460ff1916600117815561012d8383610187565b505050565b5f6101647f360894a13ba1a3210667c828492db98dca3e2076cc3735a920a3ca505d382bbc546001600160a01b031690565b905090565b365f5f375f5f365f845af43d5f5f3e808015610183573d5ff35b3d5ffd5b610190826101e0565b6040516001600160a01b038316907fbc7cd75a20ee27fd9adebab32041f755214dbc6bffa90cc0225b39da2e5c2d3b905f90a28051156101d45761012d8282610256565b6101dc6102c8565b5050565b806001600160a01b03163b5f0361021557604051634c9c8ce360e01b81526001600160a01b03821660048201526024016100d6565b7f360894a13ba1a3210667c828492db98dca3e2076cc3735a920a3ca505d382bbc80546001600160a01b0319166001600160a01b0392909216919091179055565b60605f5f846001600160a01b0316846040516102729190610454565b5f60405180830381855af49150503d805f81146102aa576040519150601f19603f3d011682016040523d82523d5f602084013e6102af565b606091505b50915091506102bf8583836102e7565b95945050505050565b34156100555760405163b398979f60e01b815260040160405180910390fd5b6060826102fc576102f782610346565b61033f565b815115801561031357506001600160a01b0384163b155b1561033c57604051639996b31560e01b81526001600160a01b03851660048201526024016100d6565b50805b9392505050565b8051156103565780518082602001fd5b60405163d6bda27560e01b815260040160405180910390fd5b634e487b7160e01b5f52604160045260245ffd5b5f5f60408385031215610394575f5ffd5b82356001600160a01b03811681146103aa575f5ffd5b9150602083013567ffffffffffffffff8111156103c5575f5ffd5b8301601f810185136103d5575f5ffd5b803567ffffffffffffffff8111156103ef576103ef61036f565b604051601f8201601f19908116603f0116810167ffffffffffffffff8111828210171561041e5761041e61036f565b604052818152828201602001871015610435575f5ffd5b816020840160208301375f602083830101528093505050509250929050565b5f82518060208501845e5f92019182525091905056fea26469706673582212205c8437c90a52b26afb62a6e21b8baa0d106dcc547054521f0074dea229fd630f64736f6c634300081c003380bb2b638cc20bc4d0a60d66940f3ab4a00c1d7b313497ca82fb0b4ab0079300360894a13ba1a3210667c828492db98dca3e2076cc3735a920a3ca505d382bbc02dd7bc7dec4dceedda775e58dd541e08a116c6c53815c0bd028192f7b626800a26469706673582212209ab2d5e814edafb6f18f548396487d6042a41f7021b3d3f4c12c0e62f67ce81164736f6c634300081c0033","linkReferences":{}},"methodIdentifiers":{"DEFAULT_ADMIN_ROLE()":"a217fddf","ERC6551_REGISTRY()":"edc16084","METADATA_NOTE_KEY()":"fcdb781e","UPGRADE_INTERFACE_VERSION()":"ad3cb1cc","approve(address,uint256)":"095ea7b3","balanceOf(address)":"70a08231","fact(bytes,bytes)":"e852398b","gene(address)":"74e08829","get(bytes32)":"8eaa6ac0","getApproved(uint256)":"081812fc","getRoleAdmin(bytes32)":"248a9ca3","grantRole(bytes32,address)":"2f2ff15d","hasRole(bytes32,address)":"91d14854","initialize(address)":"c4d66de8","isApprovedForAll(address,address)":"e985e9c5","leaf(bytes32,bytes)":"2124b692","leafl(bytes32,bytes)":"f8953645","map(bytes32)":"0ae186a8","mint(address,bytes,bytes,address)":"094cefed","name()":"06fdde03","note(bytes,bytes)":"7788b5a8","onERC721Received(address,address,uint256,bytes)":"150b7a02","ownerOf(uint256)":"6352211e","proxiableUUID()":"52d1902d","renounceRole(bytes32,address)":"36568abe","revokeRole(bytes32,address)":"d547741f","safeTransferFrom(address,address,uint256)":"42842e0e","safeTransferFrom(address,address,uint256,bytes)":"b88d4fde","setApprovalForAll(address,bool)":"a22cb465","supportsInterface(bytes4)":"01ffc9a7","symbol()":"95d89b41","tbaOf(bytes32)":"27244d1e","tokenURI(uint256)":"c87b56dd","transferFrom(address,address,uint256)":"23b872dd","upgradeToAndCall(address,bytes)":"4f1ef286"},"id":189}